:020000040801F1
:10F0000038430020CDF10108D5F10108D7F10108FE
:10F01000D9F10108DBF10108DDF101080000000071
:10F02000000000000000000000000000DFF1010807
:10F03000E1F1010800000000E3F10108D5F8010842
:10F04000E7F10108E7F10108E7F10108E7F101083C
:10F05000E7F10108E7F10108E7F10108E7F101082C
:10F06000E7F10108E7F10108E7F10108E7F101081C
:10F07000E7F10108E7F10108E7F10108E7F101080C
:10F08000E7F10108E7F10108E7F1010845F9010896
:10F090007DF90108E7F10108E7F10108E7F101084E
:10F0A000E7F10108E7F10108E7F10108E7F10108DC
:10F0B000E7F10108E7F10108E7F10108E7F10108CC
:10F0C000E7F10108E7F10108E7F10108E7F10108BC
:10F0D000E7F10108E7F10108E7F10108E7F10108AC
:10F0E000E7F10108E7F10108E7F10108E7F101089C
:10F0F000E7F10108E7F10108E7F10108E7F101088C
:10F10000E7F10108E7F10108E7F10108E7F101087B
:10F11000E7F10108E7F10108E7F10108E7F101086B
:10F12000E7F10108E7F10108E7F10108E7F101085B
:10F1300000F002F800F03AF80AA090E8000C8244CF
:10F140008344AAF10107DA4501D100F02FF8AFF2AC
:10F15000090EBAE80F0013F0010F18BFFB1A43F0B5
:10F1600001031847800E0000A00E0000103A24BFD3
:10F1700078C878C1FAD8520724BF30C830C144BF1C
:10F1800004680C607047000000230024002500265E
:10F19000103A28BF78C1FBD8520728BF30C148BFFA
:10F1A0000B6070471FB51FBD10B510BD00F056F8BD
:10F1B0001146FFF7F7FF00F03FFC00F074F803B4CE
:10F1C000FFF7F2FF03BC00F07BF80000094880471E
:10F1D00009480047FEE7FEE7FEE7FEE7FEE7FEE739
:10F1E000FEE7FEE7FEE7FEE704480549034A054B54
:10F1F00070470000E5F8010831F10108383F0020B0
:10F2000038430020383F00204FF0000200B513467D
:10F2100094469646203922BFA0E80C50A0E80C5036
:10F22000B1F12001BFF4F7AF090728BFA0E80C50E7
:10F2300048BF0CC05DF804EB890028BF40F8042BE0
:10F2400008BF704748BF20F8022B11F0804F18BF4D
:10F2500000F8012B7047704770477047754600F003
:10F260002BF8AE4605006946534620F00700854658
:10F2700018B020B5FFF7B8FFBDE820404FF00006FA
:10F280004FF000074FF000084FF0000B21F007018E
:10F29000AC46ACE8C009ACE8C009ACE8C009ACE8D1
:10F2A000C0098D46704710B50446AFF30080204674
:10F2B000BDE81040FFF783BF00487047D83E0020EC
:10F2C00001491820ABBEFEE726000200704700008F
:10F2D0002A49096801F0040149B90021417327490D
:10F2E000096840F2FF7202EA5151016008E0012111
:10F2F0004173224909686FF0604202EAD10101605E
:10F300001E49096801F0020111B90021817301E071
:10F31000012181731949091D096801F00F01017369
:10F3200016490831096801711449083109680A0A47
:10F3300042711249083109680A0C82710F4908317B
:10F340000968090EC1710D490C31096801720B4938
:10F350000C3109680A0A427208490C3109680A0C22
:10F36000827206490C310968090EC17204490968A4
:10F3700041F02001024A116070470000B065004072
:10F380000C64004010B52948C06940F0007027495E
:10F39000C8610846806940F00100886124484068DF
:10F3A00020F4C040224948600846406840F480404C
:10F3B00048601E48806940F008001C4988611D486B
:10F3C000006820F00F001B4908600846006840F004
:10F3D000080008600846006820F0F0000860084651
:10F3E000006840F0B0000860132000F084F9142099
:10F3F00000F081F901201049086003200E49143102
:10F40000086004240C481C3000680C4908400A4974
:10F410001C31086008460068611EC1F30801084AF3
:10F420001143084304491C31086010BD001002401C
:10F4300000000140040C01400064004000FE80FC1C
:10F4400000004B030748006820F0010005490860F0
:10F4500000BF0448001D006800F001000028F8D13A
:10F46000704700000064004000BF0548006800F0DD
:10F4700080600028F9D00120024908607047000030
:10F48000086400400000002000212D4A1160417BEB
:10F4900049B9114609680288002343EA42521143E0
:10F4A000274A116008E0264909680423026803EB33
:10F4B000C2021143224A1160817B21B920490968A7
:10F4C0001F4A116005E01E49096841F002011C4A0B
:10F4D0001160C1790A06817942EA0142417942EA22
:10F4E000012102791143164A08321160C17A0A06D5
:10F4F000817A42EA0142417A42EA0121027A1143C9
:10F500000F4A0C3211600E49091D096821F00F02E3
:10F510000B49091D0A600968027B02F00F021143C2
:10F52000074A121D11600749096841F00101054AA7
:10F5300011600349096841F00101014A11607047F7
:10F5400080650040146400402DE9F04105460E46F8
:10F550000027B846002400F0AFF8352000F026F868
:10F56000EF0AFF024FEAD6284FEAC8283C4611E0CE
:10F57000204600F021F804280AD0094B094A082146
:10F580000948006800F1805000F0FEFC00BFFEE773
:10F5900004F500644445EBD900F04EF8BDE8F08175
:10F5A00068457272466C6173300000200149C86082
:10F5B000704700000020024030B5044604254FF497
:10F5C000302000F085F80546042D17D10C4800695D
:10F5D00040F002000A49086108464461006940F0B1
:10F5E000400008614FF4302000F072F805460448EE
:10F5F000006941F6FD71084001490861284630BDA7
:10F600000020024004200B49C96801F0010109B142
:10F6100001200EE00749C96801F0040109B1022088
:10F6200007E00449C96801F0100109B1032000E0B6
:10F6300004207047002002400348006940F0800029
:10F6400001490861704700000020024078B5064675
:10F650000C46042500200090E80200F039F8054629
:10F66000042D24D11348006940F0010011490861BC
:10F670003480E80200F02CF80546042D10D1B01CAF
:10F680000090200C00990880E80200F021F805465F
:10F690000848006941F6FE7108400649086106E025
:10F6A0000448006941F6FE71084002490861284695
:10F6B00078BD00000020024002480349486003482A
:10F6C000486070472301674500200240AB89EFCDB9
:10F6D00000B502460423FFF795FF034603E0FFF75A
:10F6E00091FF0346521E012B01D1002AF7D102B926
:10F6F0000523184600BD00F01F0201219140420978
:10F70000920002F1E022C2F80011704710B500F03B
:10F7100001F810BD0CB5002001900090334800683E
:10F7200040F480303149086000BF3048006800F480
:10F73000003000900198401C0190009818B9019881
:10F74000B0F5A06FF1D12948006800F4003010B185
:10F750000120009001E0002000900098012843D192
:10F760002348006840F010002149086008460068FE
:10F7700020F0030008600846006840F002000860BE
:10F780001A48406819494860084640684860084679
:10F79000406840F4806048600846406820F47C106F
:10F7A00048600846406840F4E81048600846006831
:10F7B00040F08070086000BF0C48006800F00070E6
:10F7C0000028F9D00948406820F003000749486044
:10F7D0000846406840F00200486000BF03484068A7
:10F7E00000F00C000828F9D10CBD00000010024008
:10F7F000002002402148006840F001001F490860D5
:10F800001E481C30006840F003001C491C31086091
:10F810001A481430006820F00300184914310860B9
:10F8200016480C30006840F0030014490C310860A1
:10F830001248001D006820F003001049091D0860EF
:10F840000F48008880B20F4908600846006804210C
:10F8500001EBC0200949403108600B48091D0860D0
:10F860000A48091D08600848091D08600348006827
:10F8700020F0010001490860704700000066004068
:10F8800000E801083000002006F8FFFF04007102C4
:10F890000E4800780D490860084600680C49084386
:10F8A0000A49086000200949083108604FF0883093
:10F8B0000649091F08600846006820F470000860C7
:10F8C0000846006840F4801008607047040C01404E
:10F8D0000081888802480068401C01490860704720
:10F8E0002000002010B51248006840F001001049C7
:10F8F0000860084640680F4908400D4948600846BE
:10F9000000680D4908400A4908600846006820F46C
:10F91000802008600846406820F4FE0048604FF4EC
:10F920001F008860FFF7F2FE04480549086010BD1B
:10F93000001002400000FFF8FFFFF6FE00F0010893
:10F9400008ED00E00B48006800F0010080B10948B4
:10F95000006840F001000749086006480C30006864
:10F9600020F0010003490C310860012002490860C1
:10F9700070470000086400400000002000B5064801
:10F98000006800F0030028B10448FFF7A1FC012043
:10F990000349086000BD00000C64004048000020DE
:10F9A000040000202DE9F04105460E460027B84628
:10F9B0000024A846FFF780FE3520FFF7F7FD17E08B
:10F9C0000F4850F824104046FFF740FE042804D1A9
:10F9D00008F10408641C7F1C0AE00A4B0A4A08214B
:10F9E0000A48006800F1805000F0CEFA00BFFEE740
:10F9F000B442E5D3FFF720FE3846BDE8F0810000B1
:10FA0000580000204661696C5772745F3000002016
:10FA100010B5FFF7B7FCFFF715FDFFF725FD10BD8B
:10FA200010B5FFF721FD4FF00061086880F30888EA
:10FA300000BF4868804710BD2DE9F04F85B0002712
:10FA40000024A146A0460026002514216846FFF7A1
:10FA5000DBFBF748806940F00800F5498861F5480C
:10FA600000684FF47A72B0FBF2F1481EB0F1807F6B
:10FA700000D320E0481E4FF0E022506150170F22C3
:10FA800000280ADA13074FEA136BEB4B00F00F0C58
:10FA9000ACF1040C03F80CB005E013074FEA136C4B
:10FAA000E64B03F800C000BF00204FF0E022906159
:10FAB0000720106100BFFFF7ABFFFFF79BFEFFF7CA
:10FAC000E7FEDF48008880B2DE4908600320DE4997
:10FAD000096808600820DC490968486000BF002503
:10FAE00049E0DA48D0F800B009E0D8480068A0EB57
:10FAF0000B004EF66021884201D9FFF791FFD448F0
:10FB000000680028F1D00020D1490860D148007871
:10FB1000D04905460860802D1FD1084600794D2840
:10FB20001BD1084640792E2817D1084680794528F0
:10FB300013D10846C0792E280FD10846007A4C28E8
:10FB40000BD10846407A652807D10846807A762886
:10FB500003D10846C07A69280CD0802D08D1BE4B4D
:10FB6000BE4A0821B748006800F1805000F00CFA46
:10FB7000FFF756FF00BF802DB3D1B94BB94A08211A
:10FB8000B048006800F1805000F0FEF943E0AF4853
:10FB9000D0F800B012E0AD480068A0EB0B0042F2D4
:10FBA000107188420AD9B04BB04A0821A5480068B4
:10FBB00000F1805000F0E8F9FFF732FFA448006838
:10FBC0000028E8D00020A2490860A2480078A14996
:10FBD00005460860812D1DD10020A54908609D487B
:10FBE000C07909680843A24908609A488079096881
:10FBF00041EA00209E49086096484079096841EA38
:10FC000000409B49086093480079096841EA006018
:10FC10009749086000BF812DB9D1002536E08B4897
:10FC2000D0F800B013E089480068A0EB0B0042F266
:10FC3000107188420BD98C4B8C4A521C0821814888
:10FC4000006800F1805000F09FF9FFF7E9FE80485E
:10FC500000680028E7D000207D4908607D480078D2
:10FC60007C4905460860822D0FD100260846C079E0
:10FC700006430846807946EA00260846407946EA67
:10FC800000460846007946EA006600BF822DC6D1CC
:10FC900077480068800000F10061A806FFF754FC77
:10FCA0000027BFE00024A5E06848D0F800B02BE0B2
:10FCB00066480068A0EB0B0042F21071884223D91D
:10FCC0006C4B6D4A08215F48006800F1805000F0DD
:10FCD0005BF90398C0B20499C9B200EB0123009804
:10FCE000C0B2002101EB00200199C9B200EB014034
:10FCF000029900EB016208215248006800F180502F
:10FD000000F042F900BFFEE7514800680028CFD05C
:10FD100000204F4908604F4800784E49054608606A
:10FD2000842D02D00098401C00904A480179781C2C
:10FD3000814202D00198401C01904FF000094548D3
:10FD4000807940EA09094348407949EA0029A145F8
:10FD500002D00298401C02900020484941F824003B
:10FD6000084650F824003B49C9790843434941F803
:10FD70002400084650F824103648007A41EA002052
:10FD80003E4941F82400084650F824103148407A92
:10FD900041EA0040394941F82400084650F824104F
:10FDA0002C48807A41EA0060344941F8240029480F
:10FDB000C0792849097A48402649497A4840254966
:10FDC000897A48402E4908702248C07A09788842CA
:10FDD00002D00398401C039025480068401E40450F
:10FDE00002D8A0464FF47A6408F101001FFA80F8A7
:10FDF000601C84B2B4F57A6FFFF456AFB90001EB22
:10FE00004102C2EBC1114FF0006202EB41104146CA
:10FE1000FFF7C8FD8246C24502D00498401C0490FA
:10FE2000781CC7B2B742FFF43DAF002599E000004F
:10FE3000001002400C00002018ED00E000E400E09B
:10FE400000E80108300000203400002020000020DD
:10FE5000040000204800002046570308426F6F74DA
:10FE60004D6F6465426F6F54656F75748154696D31
:10FE70002400002074696E6784576169580000206F
:10FE80002C0000203A48D0F800B02BE03848006839
:10FE9000A0EB0B0042F21071884223D9354B364A51
:10FEA00008213648006800F1805000F06DF8039892
:10FEB000C0B20499C9B200EB01230098C0B200217E
:10FEC00001EB00200199C9B200EB0140029900EB5F
:10FED000016208212948006800F1805000F054F8C0
:10FEE00000BFFEE7264800680028CFD00020244944
:10FEF000086024480078234905460860832D2FD1E7
:10FF0000DDE9000108430299084303990843049975
:10FF1000084358B90023012211461848006800F12F
:10FF2000805000F031F8FFF77BFD19E00398C0B274
:10FF30000499C9B200EB01230098C0B2002101EB83
:10FF400000200199C9B200EB0140029900EB016267
:10FF500008210A48006800F1805000F015F8BEE55D
:10FF600000BF832D8ED1002005B0BDE8F08F0000CA
:10FF70002000002074696E6783576169300000209B
:10FF800004000020480000202DE9F04106460F46FD
:10FF900014461D46FFF768FA002010490860104813
:10FFA000066001460F7301204873002088730C71AE
:10FFB000210A0B484171210C8171210EC17105721A
:10FFC000290A4172290C8172290EC172FFF75CFA6D
:10FFD000012002490860BDE8F08100000000002017
:10FFE0003800002004000208000000203800000053
:10FFF0006CF101083C0002083800002000430000BA
:020000040802F0
:1000000088F101080000000000000000000000006E
:1000100000A24A04000000000000000001020304E6
:10002000060708090000000005100000000000009D
:0C0030000000000000000000004C002058
:040000050801F1CD30
:00000001FF
