:020000040800F2
:10000000384500200D0200081502000817020008FC
:10001000190200081B0200081D0200080000000071
:100020000000000000000000000000001F020008A7
:10003000210200080000000023020008F90800085F
:1000400027020008270200082702000827020008EC
:1000500027020008270200082702000827020008DC
:1000600027020008270200082702000827020008CC
:1000700027020008270200082702000827020008BC
:100080002702000827020008270200086909000863
:10009000A10900082702000827020008270200081B
:1000A000270200082702000827020008270200088C
:1000B000270200082702000827020008270200087C
:1000C000270200082702000827020008270200086C
:1000D000270200082702000827020008270200085C
:1000E000270200082702000827020008270200084C
:1000F000270200082702000827020008270200083C
:10010000270200082702000827020008270200082B
:10011000270200082702000827020008270200081B
:10012000270200082702000827020008270200080B
:1001300000F002F800F05AF80AA090E8000C82449F
:100140008344AAF10107DA4501D100F04FF8AFF27C
:10015000090EBAE80F0013F0010F18BFFB1A43F0A5
:10016000010318477C0D00009C0D00000A444FF06D
:10017000000C10F8013B13F0070408BF10F8014B06
:100180001D1108BF10F8015B641E05D010F8016B4B
:10019000641E01F8016BF9D113F0080F1EBF10F8AF
:1001A000014BAD1C0C1B09D16D1E58BF01F801CBD2
:1001B000FAD505E014F8016B01F8016B6D1EF9D555
:1001C0009142D6D37047000000230024002500266A
:1001D000103A28BF78C1FBD8520728BF30C148BFAA
:1001E0000B6070471FB51FBD10B510BD00F056F86D
:1001F0001146FFF7F7FF00F029FC00F074F803B494
:10020000FFF7F2FF03BC00F07BF8000009488047CD
:1002100009480047FEE7FEE7FEE7FEE7FEE7FEE7E8
:10022000FEE7FEE7FEE7FEE704480549034A054B03
:10023000704700000909000831010008384100201A
:1002400038450020384100204FF0000200B5134629
:1002500094469646203922BFA0E80C50A0E80C50E6
:10026000B1F12001BFF4F7AF090728BFA0E80C5097
:1002700048BF0CC05DF804EB890028BF40F8042B90
:1002800008BF704748BF20F8022B11F0804F18BFFD
:1002900000F8012B7047704770477047754600F0B3
:1002A0002BF8AE4605006946534620F00700854608
:1002B00018B020B5FFF7B8FFBDE820404FF00006AA
:1002C0004FF000074FF000084FF0000B21F007013E
:1002D000AC46ACE8C009ACE8C009ACE8C009ACE881
:1002E000C0098D46704710B50446AFF30080204624
:1002F000BDE81040FFF783BF00487047D84000209A
:1003000001491820ABBEFEE726000200704700003E
:100310002A49096801F0040149B9002141732749BC
:10032000096840F2FF7202EA5151016008E00121C0
:100330004173224909686FF0604202EAD10101600D
:100340001E49096801F0020111B90021817301E021
:10035000012181731949091D096801F00F01017319
:1003600016490831096801711449083109680A0AF7
:1003700042711249083109680A0C82710F4908312B
:100380000968090EC1710D490C31096801720B49E8
:100390000C3109680A0A427208490C3109680A0CD2
:1003A000827206490C310968090EC1720449096854
:1003B00041F02001024A116070470000B065004022
:1003C0000C64004010B52948C06940F0007027490E
:1003D000C8610846806940F001008861244840688F
:1003E00020F4C040224948600846406840F48040FC
:1003F00048601E48806940F008001C4988611D481B
:10040000006820F00F001B4908600846006840F0B3
:10041000080008600846006820F0F0000860084600
:10042000006840F0B0000860132000F076F9142056
:1004300000F073F911201049086003200E491431AF
:10044000086004240C481C3000680C4908400A4924
:100450001C31086008460068611EC1F30801084AA3
:100460001143084304491C31086010BD00100240CC
:1004700000000140040C01400064004000FE80FCCC
:1004800000004B030748006820F0010005490860A0
:1004900000BF0448001D006800F001000028F8D1EA
:1004A000704700000064004000BF0548006800F08D
:1004B00080600028F9D001200249086070470000E0
:1004C000086400400000002000212D4A1160417B9B
:1004D00049B9114609680288002343EA4252114390
:1004E000274A116008E0264909680423026803EBE3
:1004F000C2021143224A1160817B21B92049096857
:100500001F4A116005E01E49096841F002011C4ABA
:100510001160C1790A06817942EA0142417942EAD1
:10052000012102791143164A08321160C17A0A0684
:10053000817A42EA0142417A42EA0121027A114378
:100540000F4A0C3211600E49091D096821F00F0293
:100550000B49091D0A600968027B02F00F02114372
:10056000074A121D11600749096841F00101054A57
:1005700011600349096841F00101014A11607047A7
:1005800080650040146400402DE9F04105460E46A8
:100590000027B846002400F0A1F8352000F018F834
:1005A000EF0AFF024FEAD6284FEAC8283C4608E087
:1005B000204600F013F8042801D000BFFEE704F540
:1005C00000644445F4D900F049F8BDE8F08100002A
:1005D0000149C860704700000020024030B5044661
:1005E00004254FF4302000F085F80546042D17D17E
:1005F0000C48006940F002000A490861084644615D
:10060000006940F0400008614FF4302000F072F8BB
:1006100005460448006941F6FD710840014908613A
:10062000284630BD0020024004200B49C96801F073
:10063000010109B101200EE00749C96801F0040178
:1006400009B1022007E00449C96801F0100109B1AD
:10065000032000E0042070470020024003480069A6
:1006600040F080000149086170470000002002400E
:1006700078B506460C46042500200090E80200F0FC
:1006800039F80546042D24D11348006940F00100D3
:10069000114908613480E80200F02CF80546042D69
:1006A00010D1B01C0090200C00990880E80200F0E6
:1006B00021F805460848006941F6FE7108400649E0
:1006C000086106E00448006941F6FE7108400249ED
:1006D0000861284678BD0000002002400248034916
:1006E0004860034848607047230167450020024086
:1006F000AB89EFCD00B502460423FFF795FF034613
:1007000003E0FFF791FF0346521E012B01D1002A9F
:10071000F7D102B90523184600BD00F01F020121E0
:1007200091404209920002F1E022C2F800117047A4
:1007300010B500F001F810BD0CB50020019000903C
:100740003348006840F480303149086000BF3048C9
:10075000006800F4003000900198401C019000985F
:1007600018B90198B0F5A06FF1D12948006800F4DC
:10077000003010B10120009001E0002000900098AE
:10078000012843D12348006840F010002149086047
:100790000846006820F0030008600846006840F042
:1007A000020008601A4840681949486008464068D5
:1007B00048600846406840F48060486008464068E9
:1007C00020F47C1048600846406840F4E810486017
:1007D0000846006840F08070086000BF0C48006860
:1007E00000F000700028F9D00948406820F00300AC
:1007F000074948600846406840F00200486000BF72
:100800000348406800F00C000828F9D10CBD000036
:1008100000100240002002402148006840F0010022
:100820001F4908601E481C30006840F003001C4946
:100830001C3108601A481430006820F00300184981
:100840001431086016480C30006840F00300144969
:100850000C3108601248001D006820F003001049A8
:10086000091D08600F48008880B20F4908600846DB
:100870000068042101EBC0200949403108600B48A1
:10088000091D08600A48091D08600848091D08601C
:100890000348006820F0010001490860704700002B
:1008A0000066004000E801082C00002006F8FFFF69
:1008B000040071020E4800780D490860084600687F
:1008C0000C4908430A4908600020094908310860BA
:1008D0004FF088300649091F08600846006820F478
:1008E000700008600846006840F480100860704797
:1008F000040C01400081888802480068401C0149BE
:10090000086070472000002010B51348006840F0D0
:1009100001001149086008464068104908400E4926
:100920004860084600680E4908400B4908600846C0
:10093000006820F4802008600846406820F4FE002B
:1009400048604FF41F008860FFF7F2FE4FF0006030
:100950000449086010BD0000001002400000FFF8CC
:10096000FFFFF6FE08ED00E00B48006800F0010014
:1009700080B10948006840F0010007490860064856
:100980000C30006820F0010003490C3108600120A0
:100990000249086070470000086400400000002021
:1009A00000B50648006800F0030028B10448FFF7CE
:1009B000AFFC01200349086000BD00000C6400404A
:1009C00048020020040000202DE9F04105460E46B3
:1009D0000027002410480560FFF780FE3520FFF750
:1009E000F7FD12E00D4850F824100B480068FFF79F
:1009F0003FFE042807D108480068001D064908602A
:100A0000641C7F1C01E000BFFEE7B442EAD3FFF79D
:100A100025FE3846BDE8F08134020020580200204F
:100A200010B5FFF7CFFCFFF72DFDFFF73DFD10BD23
:100A300010B5FFF739FD0449086880F3088800BF46
:100A40004868804710BD0000002000082DE9F04FE5
:100A500087B00020069000270024814680460026AB
:100A60000025142101A8FFF7EFFBF348806940F04F
:100A70000C00F1498861F14800684FF47A72B0FBCC
:100A8000F2F1481EB0F1807F00D320E0481E4FF005
:100A9000E022506150170F2200280ADA13074FEAAC
:100AA000136BE74B00F00F0CACF1040C03F80CB027
:100AB00005E013074FEA136CE24B03F800C000BFD8
:100AC00000204FF0E02290610720106100BFFFF787
:100AD000A7FFFFF7A1FEFFF7EDFEDB48008880B21D
:100AE000DA4908600620DA4909680860D8490968C7
:100AF000486000BF002548E0D648D0F800B008E0C4
:100B0000D4480068A0EB0B00B0F5FA6F01D9FFF7ED
:100B10008FFFD14800680028F2D00020CE4908603D
:100B2000CE480078CD4905460860802D1FD1084683
:100B300000794D281BD1084640792E2817D1084648
:100B40008079452813D10846C0792E280FD1084650
:100B5000007A4C280BD10846407A652807D1084610
:100B6000807A762803D10846C07A69280CD0802D77
:100B700008D1BB4BBB4A0821B448006800F1805043
:100B800000F080F9FFF754FF00BF802DB4D1B64BC1
:100B9000B64A0821AD48006800F1805000F072F9B3
:100BA0002CE000BFAC4800680028FBD00020AA4918
:100BB0000860AA480078A94905460860812D1DD122
:100BC0000020AB490860A548C07909680843A849D6
:100BD0000860A2488079096841EA0020A4490860B9
:100BE0009E484079096841EA0040A14908609B4855
:100BF0000079096841EA00609D490860812DD0D1E3
:100C000000251EE000BF944800680028FBD00020AB
:100C10009149086091480078904905460860822D06
:100C20000FD100260846C07906430846807946EA77
:100C300000260846407946EA00460846007946EA1A
:100C40000066822DDED18A4800688A4A042303FBAD
:100C500000211046FFF798FC002799E0002480E06F
:100C600000BF7D4800680028FBD000207A4908605A
:100C70007A480078794905460860842D02D00198A9
:100C8000401C019075480179781C814202D002987D
:100C9000401C02904FF000097048807940EA090931
:100CA0006E48407949EA0029A14502D00398401CCA
:100CB00003900020704941F82400084650F82400B1
:100CC0006649C97908436C4941F82400084650F840
:100CD00024106248007A41EA0020674941F8240064
:100CE000084650F824105D48407A41EA00406249C5
:100CF00041F82400084650F824105848807A41EA08
:100D000000605D4941F824005448C0795B4931F8DE
:100D100010105248007A594A32F8100001444F48E6
:100D2000407A32F8100001444C48807A32F81000C2
:100D30000844534908604948C07A0968884202D08B
:100D40000498401C04904A480068401E404502D860
:100D5000A0464FF47A6408F101001FFA80F8601C85
:100D600084B2B4F57A6FFFF47BAFB90001EB4102B6
:100D7000C2EBC1113F4A02EB41104146FFF724FE8E
:100D80008246C24502D00598401C0590781CC7B227
:100D9000B742FFF463AF002547E000BF2E4800686C
:100DA0000028FBD000202C4908602C4800782B49F3
:100DB00005460860832D38D1DDE901010843039918
:100DC0000843049908430599084358B900230122B0
:100DD00011461E48006800F1805000F053F8FFF7FC
:100DE00027FE22E00498C0B20599C9B200EB0123A6
:100DF0000198C0B2002101EB00200299C9B200EBBA
:100E00000140039900EB016208211048006800F1DD
:100E1000805000F037F816480068164A042303FB98
:100E200000211046FFF7B0FB64E6832DB5D100200A
:100E300007B0BDE8F08F0000001002400C00002059
:100E400018ED00E000E400E000E801082C000020BC
:100E50003002002020000020040000204802002072
:100E600046570606426F6F74050607080102030421
:100E7000240000200020000858020020300000203C
:100E8000280000202DE9F04106460F4614461D4675
:100E9000FFF70AFB00201049086010480660014671
:100EA0000F7301204873002088730C71210A0B48CE
:100EB0004171210C8171210EC1710572290A4172A3
:100EC000290C8172290EC172FFF7FEFA0120024936
:100ED0000860BDE8F081000000000020380200201A
:100EE000000F000800000020380200006C0100081C
:100EF000600F00083802002000430000C80100080D
:100F0000D184A24A0440090102030406070809C368
:100F100005101A01023A020412027A030829041287
:100F200003FA04106908290412040A1F0520E910B5
:100F30006908290412050A3F0640091E20E91069C4
:100F400008290412060A7F0780093E40091E20E98D
:100F5000106908290412072208124C4220000000E0
:020000041FFFDC
:10F80000A55AFF00FF00FF00FC03FF00FF00FF0000
:040000050800020DE0
:00000001FF
