:020000040800F2
:10B00000404500200DB2000815B2000817B2000834
:10B0100019B200081BB200081DB2000800000000B1
:10B020000000000000000000000000001FB2000847
:10B0300021B200080000000023B2000801B9000896
:10B0400027B2000827B2000827B2000827B200087C
:10B0500027B2000827B2000827B2000827B200086C
:10B0600027B2000827B2000827B2000827B200085C
:10B0700027B2000827B2000827B2000827B200084C
:10B0800027B2000827B2000827B2000871B90008EB
:10B09000A9B9000827B2000827B2000827B20008A3
:10B0A00027B2000827B2000827B2000827B200081C
:10B0B00027B2000827B2000827B2000827B200080C
:10B0C00027B2000827B2000827B2000827B20008FC
:10B0D00027B2000827B2000827B2000827B20008EC
:10B0E00027B2000827B2000827B2000827B20008DC
:10B0F00027B2000827B2000827B2000827B20008CC
:10B1000027B2000827B2000827B2000827B20008BB
:10B1100027B2000827B2000827B2000827B20008AB
:10B1200027B2000827B2000827B2000827B200089B
:10B1300000F002F800F05AF80AA090E8000C8244EF
:10B140008344AAF10107DA4501D100F04FF8AFF2CC
:10B15000090EBAE80F0013F0010F18BFFB1A43F0F5
:10B1600001031847E80C0000080D00000A444FF0E6
:10B17000000C10F8013B13F0070408BF10F8014B56
:10B180001D1108BF10F8015B641E05D010F8016B9B
:10B19000641E01F8016BF9D113F0080F1EBF10F8FF
:10B1A000014BAD1C0C1B09D16D1E58BF01F801CB22
:10B1B000FAD505E014F8016B01F8016B6D1EF9D5A5
:10B1C0009142D6D3704700000023002400250026BA
:10B1D000103A28BF78C1FBD8520728BF30C148BFFA
:10B1E0000B6070471FB51FBD10B510BD00F02FF8E4
:10B1F0001146FFF7F7FF00F027FC00F04DF803B40D
:10B20000FFF7F2FF03BC00F055F800000948804743
:10B2100009480047FEE7FEE7FEE7FEE7FEE7FEE738
:10B22000FEE7FEE7FEE7FEE704480549034A054B53
:10B230007047000011B9000831B1000840410020FA
:10B2400040450020404100207047704770477546D8
:10B2500000F02CF8AE4605006946534620F0070082
:10B26000854618B020B5FFF7DFFFBDE820404FF05E
:10B2700000064FF000074FF000084FF0000B21F0E0
:10B280000701AC46ACE8C009ACE8C009ACE8C009AD
:10B29000ACE8C0098D46704710B50446AFF3008096
:10B2A0002046BDE81040FFF7AABF000000487047E5
:10B2B000E040002001491820ABBEFEE72600020056
:10B2C000704700002A49096801F0040149B90021CA
:10B2D00041732749096840F2FF7202EA5151016047
:10B2E00008E001214173224909686FF0604202EAD7
:10B2F000D10101601E49096801F0020111B9002164
:10B30000817301E0012181731949091D096801F068
:10B310000F01017316490831096801711449083198
:10B3200009680A0A42711249083109680A0C8271D7
:10B330000F4908310968090EC1710D490C310968BE
:10B3400001720B490C3109680A0A427208490C3132
:10B3500009680A0C827206490C310968090EC1722B
:10B360000449096841F02001024A11607047000059
:10B37000B06500400C64004010B52948C06940F039
:10B3800000702749C8610846806940F00100886163
:10B390002448406820F4C04022494860084640687C
:10B3A00040F4804048601E48806940F008001C4915
:10B3B00088611D48006820F00F001B49086008469E
:10B3C000006840F0080008600846006820F0F000BF
:10B3D00008600846006840F0B0000860132000F0E4
:10B3E00088F9142000F085F9112010490860032025
:10B3F0000E491431086004240C481C3000680C49C4
:10B4000008400A491C31086008460068611EC1F303
:10B410000801084A1143084304491C31086010BD63
:10B420000010024000000140040C01400064004094
:10B4300000FE80FC00004B030748006820F001007C
:10B440000549086000BF0448001D006800F00100C5
:10B450000028F8D1704700000064004000BF054894
:10B46000006800F080600028F9D0012002490860DF
:10B4700070470000086400400000002000212D4AB1
:10B480001160417B49B9114609680288002343EAEB
:10B4900042521143274A116008E0264909680423F3
:10B4A000026803EBC2021143224A1160817B21B979
:10B4B000204909681F4A116005E01E49096841F0EA
:10B4C00002011C4A1160C1790A06817942EA0142EF
:10B4D000417942EA012102791143164A083211608A
:10B4E000C17A0A06817A42EA0142417A42EA01219E
:10B4F000027A11430F4A0C3211600E49091D096886
:10B5000021F00F020B49091D0A600968027B02F055
:10B510000F021143074A121D11600749096841F0E3
:10B520000101054A11600349096841F00101014A1E
:10B53000116070478065004014640040044A11683F
:10B5400000BF034A1268521A8242FAD370470000C1
:10B55000200000202DE9F04106460D460027B846A0
:10B56000002400F0A3F8352000F01AF8304600F06F
:10B57000BCF80746284600F0B8F880463C4608E08C
:10B58000204600F013F8042801D000BFFEE704F5C0
:10B5900000644445F4D900F049F8BDE8F0810000AA
:10B5A0000149C860704700000020024030B50446E1
:10B5B00004254FF4302000F085F80546042D17D1FE
:10B5C0000C48006940F002000A49086108464461DD
:10B5D000006940F0400008614FF4302000F072F83C
:10B5E00005460448006941F6FD71084001490861BB
:10B5F000284630BD0020024004200B49C96801F0F4
:10B60000010109B101200EE00749C96801F00401F8
:10B6100009B1022007E00449C96801F0100109B12D
:10B62000032000E004207047002002400348006926
:10B6300040F080000149086170470000002002408E
:10B6400078B506460C46042500200090E80200F07C
:10B6500039F80546042D24D11348006940F0010053
:10B66000114908613480E80200F02CF80546042DE9
:10B6700010D1B01C0090200C00990880E80200F066
:10B6800021F805460848006941F6FE710840064960
:10B69000086106E00448006941F6FE71084002496D
:10B6A0000861284678BD0000002002400248034996
:10B6B0004860034848607047230167450020024006
:10B6C000AB89EFCD00B502460423FFF795FF034693
:10B6D00003E0FFF791FF0346521E012B01D1002A20
:10B6E000F7D102B90523184600BD0146C80AC002B9
:10B6F000704700F01F02012191404209920002F1BF
:10B70000E022C2F80011704710B500F001F810BD3A
:10B710000CB50020019000903348006840F4803060
:10B720003149086000BF3048006800F400300090E4
:10B730000198401C0190009818B90198B0F5A06FCD
:10B74000F1D12948006800F4003010B101200090C8
:10B7500001E0002000900098012843D123480068B0
:10B7600040F01000214908600846006820F00300FE
:10B7700008600846006840F0020008601A48406807
:10B78000194948600846406848600846406840F4E7
:10B79000806048600846406820F47C104860084695
:10B7A000406840F4E81048600846006840F0807047
:10B7B000086000BF0C48006800F000700028F9D055
:10B7C0000948406820F0030007494860084640687F
:10B7D00040F00200486000BF0348406800F00C00E1
:10B7E0000828F9D10CBD00000010024000200240E2
:10B7F0002948006840F001002749086026481C30AD
:10B8000000686FF30D0024491C310860224800686D
:10B8100020F00100204908600846006840F001005F
:10B8200008601D481C30006840F003001A491C31B4
:10B83000086019481430006820F0030016491431DC
:10B84000086015480C30006840F0030012490C31C4
:10B8500008601148001D006820F003000E49091D12
:10B8600008600E48008880B20D49086008460068EC
:10B87000042101EBC0200849403108600948091D36
:10B8800008600948091D08600648091D0860002075
:10B8900001490860704700000066004000E80108A8
:10B8A0003400002006F8FFFF040071021148006810
:10B8B00020F470600F4908600846006840F480700A
:10B8C000086000200B49083108604FF044300949F6
:10B8D000091F086008460068074908400549091F14
:10B8E000086008460068054908430249091F0860C6
:10B8F00070470000040C0140FFF00FFF000810002B
:10B9000002480068401C0149086070472000002080
:10B9100010B51248006840F0010010490860084660
:10B9200040680F4908400D494860084600680D49C5
:10B9300008400A4908600846006820F48020086032
:10B940000846406820F4FE0048604FF41F008860FD
:10B95000FFF7DAFE04480549086010BD00100240F8
:10B960000000FFF8FFFFF6FE00B0000808ED00E061
:10B970000B48006800F0010080B10948006840F001
:10B9800001000749086006480C30006820F00100FB
:10B9900003490C310860012002490860704700002B
:10B9A000086400400000002000B50648006800F070
:10B9B000030028B10448FFF785FC01200349086013
:10B9C00000BD00000C640040500200200400002074
:10B9D00070B505460026002410480560FFF766FE96
:10B9E0003520FFF7DDFD12E00D4850F824100B481C
:10B9F0000068FFF725FE042807D108480068001DED
:10BA000006490860641C761C01E000BFFEE7B4F53F
:10BA10007A6FE9D3FFF70AFE304670BD3C02002082
:10BA20006002002010B5FFF7A7FCFFF705FDFFF748
:10BA300015FD10BD10B54FF00061086880F308884F
:10BA400000BF4868804710BD2DE9F05F4FF0000847
:10BA500000270024A146A24600260025D34880697D
:10BA600040F00800D1498861D14800684FF47A72EB
:10BA7000B0FBF2F1481EB0F1807F00D320E0481EF9
:10BA80004FF0E022506150170F2200280ADA130706
:10BA90004FEA136EC74B00F00F0CACF1040C03F827
:10BAA0000CE005E013074FEA136CC34B03F800C02A
:10BAB00000BF00204FF0E02290610720106100BF1E
:10BAC000FFF7B0FFFFF794FEFFF7F0FE00F088F9F4
:10BAD000BA4908600320BA4909680860B84909688A
:10BAE000486000BF002514E000BFB6480068002889
:10BAF000FBD00020B3490860B3480078B24905463E
:10BB00000860802D05D108460079012801D0FFF793
:10BB100091FF802DE8D100252CE000BFA9480068E6
:10BB20000028FBD00020A7490860A7480078A64954
:10BB300005460860812D1DD10020A4490860A24857
:10BB4000C07909680843A14908609F48807909685D
:10BB500041EA00209D4908609B484079096841EA14
:10BB600000409A49086098480079096841EA0060F5
:10BB700096490860812DD0D100251EE000BF914874
:10BB800000680028FBD000208E4908608E480078AD
:10BB90008D4905460860822D0FD100260846C079E0
:10BBA00006430846807946EA00260846407946EA78
:10BBB00000460846007946EA0066822DDED1002064
:10BBC0008349086081480068800000F10061A80690
:10BBD000FFF7C0FC0027AFE0002488E000BF7948F1
:10BBE00000680028FBD0002076490860764800787D
:10BBF000754905460860842D04D075480068401CCE
:10BC00007349086070480179781C814204D07048FB
:10BC10000068401C6E4908604FF000096A4880794E
:10BC200040EA09096848407949EA0029A14504D059
:10BC300067480068401C664908600020654941F873
:10BC40002400084650F824005F49C9790843614937
:10BC500041F82400084650F824105B48007A41EA75
:10BC600000205C4941F82400084650F8241056484A
:10BC7000407A41EA0040574941F82400084650F80C
:10BC800024105148807A41EA0060524941F824006A
:10BC90004D48C079504931F810104B48007A4E4A4F
:10BCA00032F8100001444848407A32F8100001444C
:10BCB0004548807A32F810000844484908604248F4
:10BCC000C07A0968884204D041480068401C404955
:10BCD00008603E480068401E504502D8A2464FF416
:10BCE0007A640AF101001FFA80FA601C84B2B4F58C
:10BCF0007A6FFFF473AFD04605E00020354941F874
:10BD0000280008F10108B8F57A6FF6D3B90001EB05
:10BD10004102C2EBC1114FF0006202EB4110FFF78C
:10BD200057FE8346BBF57A6F04D029480068401C53
:10BD300027490860781CC7B2B742FFF44DAF002511
:10BD40002FE000BF1F4800680028FBD000201D49DD
:10BD500008601D4800781C4905460860832D20D1E5
:10BD60001B48006860B9002301221146134800688F
:10BD700000F03EF80120FFF7E1FBFFF75BFE10E06B
:10BD800000231A4601210D48006800F031F80F48E1
:10BD90000068800000F100614FF00060FFF7DAFBFF
:10BDA000A0E6832DCDD10020BDE8F09F0010024019
:10BDB0000C00002018ED00E000E400E0340000205A
:10BDC0003800002004000020500200202400002041
:10BDD00030000020600200203C0000202C000020E9
:10BDE00000210248008881B20846704700E8010837
:10BDF0002DE9F04106460F4614461D46FFF72EFB7F
:10BE00000020104908601048066001460F730120A9
:10BE10004873002088730C71210A0B484171210C72
:10BE20008171210EC1710572290A4172290C81723A
:10BE3000290EC172FFF722FB012002490860BDE80C
:10BE4000F081000000000020400200206CBE0008CD
:10BE500000000020400200006CB10008CCBE0008C9
:10BE60004002002000430000C8B10008D184A24A6B
:10BE70000440090102030406070809E3051033FF23
:10BE8000FF124C1A202619023A020412027A030801
:10BE900029041203FA04106908290412040A1F0570
:10BEA00020E9106908290412050A3F0640091E20EE
:10BEB000E9106908290412060A7F0780093E400933
:0CBEC0001E20E91069082904120752082E
:020000041FFFDC
:10F80000A55AFF00FF00FF00FF00FF00FF00FF0000
:040000050800B20D30
:00000001FF
