:020000040801F1
:10F00000F03B002045F101084DF101084FF10108E6
:10F0100051F1010853F1010855F101080000000009
:10F0200000000000000000000000000057F101088F
:10F0300059F10108000000005BF101085DF80108CA
:10F040005FF101085FF101085FF101085FF101085C
:10F050005FF101085FF101085FF101085FF101084C
:10F060005FF101085FF101085FF101082FF8010865
:10F070005FF101085FF101085FF101085FF101082C
:10F080005FF101085FF101085FF1010891F60108E5
:10F09000C5F601085FF101085FF101085FF10108A1
:10F0A0005FF10108EFFA01085FF101085FF1010863
:10F0B0005FF101085FF101085FF101085FF10108EC
:10F0C0005FF101085FF101085FF101085FF10108DC
:10F0D0005FF101085FF101085FF101085FF10108CC
:10F0E0005FF101085FF101085FF101085FF10108BC
:10F0F0005FF101085FF101085FF101085FF10108AC
:10F100005FF101085FF101085FF101085FF101089B
:10F110005FF101085FF101085FF101085FF101088B
:10F120005FF101085FF101085FF101085FF101087B
:10F13000DFF80CD003F028FC00480047F314020865
:10F14000F03B00200648804706480047FEE7FEE700
:10F15000FEE7FEE7FEE7FEE7FEE7FEE7FEE7FEE787
:10F1600047F2010831F101080CB500200190009030
:10F170006B48006840F480306949086000BF684807
:10F18000006800F4003000900198401C0190009845
:10F1900018B90198B0F5A06FF1D16148006800F48A
:10F1A000003010B10120009001E000200090009894
:10F1B000012843D15B48006840F0100059490860BD
:10F1C0000846006820F0030008600846006840F028
:10F1D000020008605248406851494860084640684B
:10F1E00048600846406840F48060486008464068CF
:10F1F00020F47C1048600846406840F4E8104860FD
:10F200000846006840F08070086000BF444800680D
:10F2100000F000700028F9D04148406820F0030059
:10F220003F4948600846406840F00200486000BF1F
:10F230003B48406800F00C000828F9D10CBD10B51F
:10F24000FFF792FF10BD10B53548006840F001008F
:10F2500033490860084640683349084030494860EF
:10F2600008460068314908402D4908600846006892
:10F2700020F4802008600846406820F4FE004860C2
:10F280004FF41F008860FFF7DAFF2948294908601A
:10F2900010BD10B5002100200022214B5B6803F057
:10F2A0000C0121B1042906D0082928D107E0224BFE
:10F2B000224C236027E0204B204C236023E0184B96
:10F2C0005B6803F47010164B5B6803F48032022312
:10F2D00003EB904022B91A4B4343184C23600DE0D6
:10F2E0000F4B5B6803F4003323B1154B4343134CBE
:10F2F000236003E0104B4343104C236003E00E4BAC
:10F300000E4C236000BF00BF054B5B68C3F30313C3
:10F310000C4CE15C094B1B68CB40084C236010BDD2
:10F3200000100240002002400000FFF8FFFFF6FE40
:10F3300000F0010808ED00E000127A000000002053
:10F3400000093D000400002010B5EB48C06940F002
:10F350000070E949C8610846806940F00100886191
:10F36000E648406820F4C040E449486008464068E8
:10F3700040F480404860E048806940F00800DE4981
:10F380008861DF48006820F00F00DD49086008460A
:10F39000006840F0080008600846006820F0F000AF
:10F3A00008600846006840F0B0000860132000F0D4
:10F3B00097F9142000F094F91120D2490860032035
:10F3C000D049143108600424CE481C300068CE496E
:10F3D0000840CC491C31086008460068611EC1F332
:10F3E0000801CA4A11430843C6491C31086010BDD0
:10F3F000C448006820F00100C249086000BFC1484D
:10F40000001D006800F001000028F8D17047BD49D8
:10F410001C31096821F04041BA4A1C321160114682
:10F42000096800F040421143B64A1C32116070472F
:10F4300000BFB4480830006800F080600028F8D0B1
:10F440000120B349086070470021B24A1160417B36
:10F4500049B9114609680288002343EA4252114320
:10F46000AC4A116008E0AB4909680423026803EB69
:10F47000C2021143A74A1160817B21B9A5490968DD
:10F48000A44A116005E0A349096841F00201A14ABC
:10F490001160C1790A06817942EA0142417942EA62
:10F4A0000121027911439B4A08321160C17A0A0690
:10F4B000817A42EA0142417A42EA0121027A114309
:10F4C000944A0C3211609349091D096821F00F021A
:10F4D0009049091D0A600968027B02F00F0211437E
:10F4E0008C4A121D116087491431096841F00101ED
:10F4F000844A143211608749096841F00101854A44
:10F500001160704783493031096801F0040151B935
:10F51000002141737F493031096840F2FF7202EAED
:10F520005151016009E0012141737A493031096884
:10F530006FF0604202EAD10101607649303109681A
:10F5400001F0020111B90021817301E001218173F1
:10F5500070493431096801F00F0101736D49383188
:10F56000096801716B49383109680A0A42716949B1
:10F57000383109680A0C8271664938310968090E08
:10F58000C17164493C310968017262493C310968C2
:10F590000A0A42725F493C3109680A0C82725D496D
:10F5A0003C310968090EC17256490C31096841F0B5
:10F5B0002001544A0C321160704730B502460020D9
:10F5C000554B1B880D2B00DD30BD21B9002343EACC
:10F5D0004253184303E0042303EBC20318434D4B8B
:10F5E00080331B6843F001034A4C80342360494B4D
:10F5F0009C331B68484C25780124AC40A343454C00
:10F600009C342360434B8C331B68434C2578012486
:10F61000AC4023433F4C8C3423603E4B84331B6807
:10F620003D4C25780124AC4023433A4C843423607C
:10F63000384BC033384C248843F83400364C248887
:10F6400003EBC4035860334B94331B68324C25786A
:10F650000124AC40A3432F4C943423602D4B9C33A6
:10F660001B682D4C25780124AC402343294C9C3445
:10F670002360284B80331B6823F00103254C803422
:10F680002360254B1B885B1C234C238000BF9BE71A
:10F690001C480830006800F0010090B1194808309B
:10F6A000006840F00100174908310860154814301F
:10F6B000006820F00100134914310860012014494A
:10F6C0000860704700B50F480C30006800F0030078
:10F6D00028B11248FFF716FF01201149086000BD4C
:10F6E00000F01F02012191404209920002F1E02244
:10F6F000C2F80011704700000010024000000140F5
:10F70000040C01400064004000FE80FC00004B033C
:10F7100014000020806500401C0000209C31002067
:10F72000180000204848406940F0010046494861FF
:10F73000464847494861474808610120C86042F28D
:10F74000225088600B20012181404209920002F181
:10F75000E022C2F8001100BF3D48806840F001007F
:10F760003B4988603848406840F44040364948602A
:10F770000846806940F400708861002035492039CE
:10F780000860091D0860091D08604FF4A040314958
:10F790004039086088152F49483908604FF4F01047
:10F7A000091D08600846006840F48070086008463B
:10F7B000006840F0010008600846006840F008005A
:10F7C000086000BF23484438006800F008000028A3
:10F7D000F8D120484438006840F004001D494439FD
:10F7E000086000BF1B484438006800F0040000288F
:10F7F000F8D1704717484438006840F48000154934
:10F8000044390860704713484438006820F4800089
:10F81000104944390860704700BF0F48007800283D
:10F82000FBD000200C490870084800887047084841
:10F83000006800F0020028B101200749087002208A
:10F840000349486070470000001002401E0000207D
:10F85000000002404C24014020000020FD480068C8
:10F86000401CFC4908607047FA4A116800BFF94A19
:10F870001268521A8242FAD3704710B5FFF764FD3E
:10F88000FFF7B6FDFFF7D4FD10BD10B50446F24BEF
:10F89000186840F0400018602046FFF7E5FF4FF67B
:10F8A000BF7118680840186010BD0146EA48012978
:10F8B00004D1026842F0300202601DE0022909D141
:10F8C000026842F0100202604FF6DF7302681A40CD
:10F8D000026011E0032909D1026842F020020260AF
:10F8E0004FF6EF7302681A40026005E021B94FF647
:10F8F000CF7302681A40026070470020D749096838
:10F9000041F00401D54A1160111F096801F004019A
:10F9100009B9012000E0002070472DE9F0410746B9
:10F92000884614461D46FFF7A8FFCD48076000260D
:10F9300004E00021CA48001D8155761C082EF8DB22
:10F94000C74981F80C800120487300208873C5489E
:10F950000068B8B10020C3490860C1490C71210A90
:10F96000BF484171210C8171210EC1710572290AB4
:10F970004172290C8172290EC172FFF765FD0120C9
:10F98000B8490860BDE8F08110B50246B64900BF2D
:10F99000B64BDB6803F00103002BF9D1B44BB34C39
:10F9A0006360B44B636023461B6943F00203236129
:10F9B000AD4B636123461B6943F04003236100BFE5
:10F9C000AA4BDB6803F00103002BF9D1A74B1B699D
:10F9D00023F00203A54C236123461B6943F0010376
:10F9E00023610A8000BFA14BDB6803F00103002BF9
:10F9F000F9D19E4B1B6923F001039C4C236110BD80
:10FA00002DE9F04105469C4C9C499D4A126831F80D
:10FA1000120002F0D6FE0746294602F0E7FD064630
:10FA200002F0E1FE2060944C083C95490968954A33
:10FA300012681144914A32F8110002F0C2FE0746E2
:10FA4000294602F0D3FD064602F0CDFE2060241DBB
:10FA50008B4909688C4A12681144884A32F81100AF
:10FA600002F0AFFE0746294602F0C0FD064602F04E
:10FA7000BAFE2060BDE8F0812DE9F0410546834CD7
:10FA80007E49834A126831F8120002F09AFE074656
:10FA9000294602F0ABFD064602F0A5FE2060241DBB
:10FAA0007B4909687B4A12681144744A32F8110094
:10FAB00002F087FE0746294602F098FD064602F04E
:10FAC00092FE2060241D72490968734A126811442D
:10FAD0006A4A32F8110002F074FE0746294602F025
:10FAE00085FD064602F07FFE2060BDE8F0811FB56F
:10FAF000594803900398006840F080010398016022
:10FB000066480068401C654908600846006801288E
:10FB100005D10398006840F04001039801605F48F8
:10FB20000068322806D1039800684FF6BF7108407C
:10FB30000399086059480068B0F5E15F02D10020E0
:10FB4000564908604C48303803900398006820F00C
:10FB50000101039801605248007828B34648039099
:10FB60004FF47A71039801604348083803904900C4
:10FB7000039801604048001F039040F6B831039895
:10FB80000160424803904FF47A71039801603F4846
:10FB9000001D03904900039801603C480830039021
:10FBA00040F6B831039801603E48007800287FD0C5
:10FBB000314803903C48006802F0FAFD01903B4850
:10FBC0000168019802F012FD029002F00CFE039908
:10FBD00008602948083803903348006802F0E8FDBF
:10FBE000019032480168019802F000FD029002F095
:10FBF000FAFD039908602048001F03902A48006816
:10FC000002F0D6FD019029480168019802F0EEFC4F
:10FC1000029002F0E8FD039908601C480390224816
:10FC2000006802F0C5FD019020480168019802F0CB
:10FC3000DDFC029002F0D7FD039908601348001D17
:10FC400003901948006802F0B3FD0190174801685D
:10FC500001982EE0240000200C0801400C0C01400B
:10FC60008C3100201400002000E801080020024030
:10FC700023016745AB89EFCD402C014004010020F2
:10FC800064000020280000202C00002034340140B3
:10FC90006800002030000020340000203C000020DC
:10FCA0006100002062000020380000206C0000206D
:10FCB00017E002F09BFC029002F095FD03990860AA
:10FCC000FE480390FE48006802F072FD0190FD4876
:10FCD0000168019802F08AFC029002F084FD039909
:10FCE0000860F948007800F0800000287FD0F748CD
:10FCF000F749096850F82100F64909680844F549B0
:10FD0000086008460068B0F5616F04D308460068D3
:10FD1000A0F561600860F0480390F048ED4909687B
:10FD200030F81100009002F04CFD0190EC480168A1
:10FD3000019802F05BFC029002F055FD0399086007
:10FD4000E54808380390E3480068E6490968084434
:10FD5000E24931F81000009002F033FD0190E048D4
:10FD60000168019802F042FC029002F03CFD039908
:10FD70000860D948001F0390D6480068DA4909682E
:10FD80000844D64931F81000009002F01AFD0190A5
:10FD9000D3480168019802F029FC029002F023FD8B
:10FDA00003990860D1480068401CD04908600846A3
:10FDB0000068CF490968884207D30020CB49086012
:10FDC000C3480068401CC2490860C1480068222836
:10FDD0000BD3BD48007800F07F00BB4908700020BD
:10FDE000C24908602120BA490860F0E3FFE7B6483D
:10FDF000007800F04000002869D0BE480068002864
:10FE000065D0B44800682130B249086008460068EF
:10FE1000B0F5616F04D308460068A0F56160086022
:10FE2000AD480390AD48AB49096830F81100009027
:10FE300002F0C7FC0190B0480168019802F0D6FBBF
:10FE4000029002F0D0FC03990860A34808380390A0
:10FE5000A0480068A34909680844A04931F8100087
:10FE6000009002F0AEFC0190A3480168019802F0F6
:10FE7000BDFB029002F0B7FC039908609648001F92
:10FE8000039094480068984909680844934931F8F8
:10FE90001000009002F095FC0190974801680198CD
:10FEA00002F0A4FB029002F09EFC039908609148C6
:10FEB0000068401E8F49086008460068002894D1F9
:10FEC0008148007800F03F007F4908707FE37E485A
:10FED000007800F0200000287ED084480068844923
:10FEE0000968884207D30020804908607848006884
:10FEF000401E774908607D480068401C7B490860C7
:10FF000072487349096850F8210072490968084429
:10FF10007049086008460068B0F5616F04D3084670
:10FF20000068A0F5616008606B4803906B48694900
:10FF3000096830F81100009002F043FC01906F480E
:10FF40000168019802F052FB029002F04CFC039908
:10FF500008606148083803905E4800686149096894
:10FF600008445E4931F81000009002F02AFC01902C
:10FF700062480168019802F039FB029002F033FCFC
:10FF8000039908605448001F03905248006856497E
:10FF900009680844514931F81000009002F011FC42
:10FFA000019056480168019802F020FB029002F08F
:10FFB0001AFC0399086046480068002886D14B481F
:10FFC00000684B49096888420DD33F48007800F02B
:10FFD0001F003D49087000E006E00020434908602A
:10FFE0004748FFF70DFDF2E23748007800F01000B7
:10FFF000002861D035483649096850F82100354954
:020000040802F0
:100000000968081A3349086008460068B0F5616F4E
:1000100004D30846006800F5616008602E4803902C
:100020002E482C49096830F81100009002F0C9FBF5
:1000300001902B480168019802F0D8FA029002F072
:10004000D2FB0399086024480838039021480068CF
:10005000244909680844214931F81000009002F051
:10006000B0FB01901E480168019802F0BFFA0290AF
:1000700002F0B9FB039908601748001F0390154868
:100080000068194909680844144931F810000090C3
:1000900002F097FB019012480168019802F0A6FA5D
:1000A000029002F0A0FB0399086010480068401C11
:1000B0000E490860084625E042E000003C3401405B
:1000C000380000206C00002058000020043100207F
:1000D0007800002064000020402C01400401002032
:1000E000D0000020280000202C000020C0000020AC
:1000F000BC00002080000020CC000020D4000020A4
:10010000CDCC4C3D0068FE490968884207D30020E9
:10011000FC490860FC480068401CFB490860FA483C
:10012000006822280BD3F948007800F00F00F74947
:1001300008700020F34908602120F349086046E276
:10014000F248007800F00800002869D0F048006804
:10015000002865D0EF4800682138EE49086008465D
:100160000068B0F5616F04D90846006800F5616069
:100170000860E9480390E948E649096830F8110049
:10018000009002F01EFB0190E5480168019802F022
:100190002DFA029002F027FB03990860DE48083828
:1001A0000390DC480068DF4909680844DB4931F8FE
:1001B0001000009002F005FB0190D94801680198F9
:1001C00002F014FA029002F00EFB03990860D24884
:1001D000001F0390CF480068D34909680844CF49FD
:1001E00031F81000009002F0ECFA0190CC48016860
:1001F000019802F0FBF9029002F0F5FA0399086009
:10020000C3480068401EC2490860084600680028CC
:1002100095D1BE48007800F00700BC490870D6E1CF
:10022000BA48007800F0040000287DD0B548006886
:10023000B3490968884207D30020B2490860B24830
:100240000068401EB0490860AE480068401CAD49D7
:100250000860B648AC49096850F82100AD49096802
:10026000081AAC49086008460068B0F5616F04D907
:100270000846006800F561600860A7480390A74839
:10028000A449096830F81100009002F09AFA019030
:10029000A7480168019802F0A9F9029002F0A3FAB8
:1002A000039908609C48083803909A4800689D4963
:1002B00009680844994931F81000009002F081FA69
:1002C00001909B480168019802F090F9029002F0B9
:1002D0008AFA039908609048001F03908D480068CF
:1002E0009149096808448D4931F81000009002F0E6
:1002F00068FA01908E480168019802F077F902903F
:1003000002F071FA039908607F480068002886D1DE
:100310007C4800687A49096888420DD37B48007898
:1003200000F00300794900E007E0087000207549FB
:1003300008608048FFF764FB49E17448007800F0EA
:10034000020000287ED07C48006800287AD07B48D4
:1003500000687B49096888427AD3002077490860A1
:100360006C480068401E6B49086008460068B0F59C
:10037000616F04D90846006800F56160086066484E
:10038000039066486349096830F81100009002F054
:1003900018FA01906B480168019802F027F9029061
:1003A00002F021FA039908605B4808380390594825
:1003B00000685C4909680844584931F81000009009
:1003C00002F0FFF901905F480168019802F00EF910
:1003D000029002F008FA039908604F48001F03904A
:1003E0004C4800685049096808444C4931F81000ED
:1003F000009002F0E6F9019052480168019802F07D
:10040000F5F8029002F0EFF9039908604A48006895
:10041000401E4949086008460068B0F5617F07D86A
:1004200049480078012803D14FF07E5045490860C3
:100430004148006838B93548007800F00100334978
:10044000087001E00AE003E040480068FFF7D8FACE
:100450003A480068401C39490860B8E02B480078E9
:1004600000F00100002877D039480068002873D0D8
:10047000324800683249096888426ED300202F490B
:10048000086024480068401C22490860084600684B
:10049000B0F5616F04D308460068A0F5616008609C
:1004A0001D4803901D481B49096830F81100009051
:1004B00002F087F9019027480168019802F096F848
:1004C000029002F090F903990860134808380390ED
:1004D00010480068134909680844104931F81000B1
:1004E000009002F06EF901901A480168019802F03C
:1004F0007DF8029002F077F90399086006482DE034
:10050000BC000020C000002078000020580000201F
:100510008000002064000020402C014004010020E5
:10052000CC000020280000202C00002004310020F6
:10053000D4000020CDCC4C3D90000020A000002035
:1005400098000020E000002071000020FC00002046
:1005500088000020DC00002039E033E0001F039019
:10056000FE480068FE4909680844FE4931F8100059
:10057000009002F026F90190FB480168019802F012
:1005800035F8029002F02FF903990860F7480068E7
:10059000401EF649086008460068B0F5617F07D83C
:1005A000F3480078012803D14FF07E50EE490860EF
:1005B000EE48006830B90020EE490870EE48006847
:1005C000FFF71EFAED480068401CEC490860EC4853
:1005D000007800F0800000287FD0EA48EA490968E6
:1005E00050F82100E94909680844E84908600846CC
:1005F0000068B0F5616F04D308460068A0F561603B
:100600000860E3480390D748E049096830F81100D2
:10061000009002F0D6F80190DE480168019801F0E0
:10062000E5FF029002F0DFF803990860D848001D4A
:100630000390D6480068D84909680844C94931F888
:100640001000009002F0BDF80190D24801680198B6
:1006500001F0CCFF029002F0C6F803990860CC4884
:1006600008300390C9480068CC4909680844BD496E
:1006700031F81000009002F0A4F80190C54801681C
:10068000019801F0B3FF029002F0ADF80399086001
:10069000C3480068401CC249086008460068C14958
:1006A0000968884207D30020BD490860B648006841
:1006B000401CB5490860B448006822280BD3B048F4
:1006C000007800F07F00AE4908700020B44908604F
:1006D0002120AD490860F7E3FFE7A948007800F062
:1006E0004000E0B3B0480068C8B3A84800682130B3
:1006F000A649086008460068B0F5616F04D3084653
:100700000068A0F561600860A148039095489F4982
:10071000096830F81100009002F053F80190A348E6
:100720000168019801F062FF029002F05CF8039901
:1007300008609748001D039094480068964909682E
:100740000844884931F81000009002F03AF801900E
:1007500096480168019801F049FF029000E02CE002
:1007600002F041F8039908608948083003908748EF
:1007700000688A49096808447A4931F810000090F5
:1007800002F01FF8019089480168019801F02EFFDE
:10079000029002F028F80399086083480068401E20
:1007A0008149086008460068002894D174480078A0
:1007B00000F03F007249087086E37148007800F04D
:1007C000200000287ED07648006876490968884273
:1007D00007D30020724908606B480068401E6A49D0
:1007E00008606F480068401C6D49086065486649AC
:1007F000096850F8210065490968084463490860A0
:1008000008460068B0F5616F04D308460068A0F59B
:10081000616008605E48039052485C49096830F89E
:100820001100009001F0CDFF01906148016801982E
:1008300001F0DCFE029001F0D6FF039908605448F5
:10084000001D039051480068534909680844454910
:1008500031F81000009001F0B4FF01905448016895
:10086000019801F0C3FE029001F0BDFF03990860FA
:1008700047480830039045480068484909680844DB
:10088000384931F81000009001F09BFF0190484872
:100890000168019801F0AAFE029001F0A4FF0399FB
:1008A000086039480068002886D13D4800683D4905
:1008B000096888420DD33248007800F01F003049A3
:1008C000087000E006E00020354908603948FFF76D
:1008D000D3F8F9E22A48007800F0100000286BD025
:1008E00028482949096850F8210028490968081A48
:1008F0002649086008460068B0F5616F04D90846CB
:10090000006800F5616008602148039015481F49A0
:10091000096830F81100009001F053FF01901D4864
:100920000168019801F062FE029001F05CFF0399FA
:1009300008601748001D03901448006816490968AC
:100940000844084931F81000009001F03AFF019086
:1009500010480168019801F049FE2EE06400002073
:100960002C00002004010020DC0000208800002072
:100970007000002058000020FC000020A000002093
:1009800059000020043100207C0000206800002075
:1009900034340140E8000020300000203400002002
:1009A000C4000020BC00002084000020E4000020DF
:1009B000EC000020CDCC4C3D40E0029001F013FF54
:1009C00003990860FD480390FD480068FD490968E7
:1009D0000844FD4931F81000009001F0F2FE01904A
:1009E000FA480168019801F001FE029001F0FBFE57
:1009F00003990860F6480068401CF54908600846FD
:100A00000068F4490968884207D30020F04908606B
:100A1000F1480068401CF0490860EF48006822284F
:100A20000BD3EE48007800F00F00EC49087000206E
:100A3000E74908602120E849086045E2E748007876
:100A400000F00800E8B3E6480068D0B3DC4800686E
:100A50002138DB49086008460068B0F5616F04D9A9
:100A60000846006800F561600860D44808380390C3
:100A7000D548D349096830F81100009001F0A1FE73
:100A80000190D8480168019801F0B0FD029001F092
:100A9000AAFE03990860C948001F0390C84800686F
:100AA000D14909680844C84931F81000009001F0A4
:100AB00088FE0190CB480168019801F097FD0290F3
:100AC00000E02BE001F08FFE03990860BB48039023
:100AD000BB480068BB4909680844BB4931F81000AD
:100AE000009001F06EFE0190BE480168019801F08F
:100AF0007DFD029001F077FE03990860B848006818
:100B0000401EB749086008460068002895D1B348E0
:100B1000007800F00700B1490870D5E1AF480078CF
:100B200000F0040000287DD0A9480068A9490968A0
:100B3000884207D30020A6490860A7480068401EE5
:100B4000A5490860A2480068401CA1490860A74860
:100B5000A149096850F8210099490968081A98497B
:100B6000086008460068B0F5616F04D9084600685F
:100B700000F56160086091480838039092489049F8
:100B8000096830F81100009001F01BFE01909848B0
:100B90000168019801F02AFD029001F024FE0399FA
:100BA00008608648001F0390854800688E490968E0
:100BB0000844854931F81000009001F002FE0190D0
:100BC0008B480168019801F011FD029001F00BFEC5
:100BD0000399086079480390794800687949096861
:100BE0000844794931F81000009001F0EAFD0190C5
:100BF0007F480168019801F0F9FC029001F0F3FDD3
:100C00000399086074480068002886D1704800681D
:100C10007049096888420DD37048007800F00300DD
:100C20006E4900E007E008700020694908607148DB
:100C3000FEF722FF48E16948007800F00200002832
:100C400040D06D480068E8B36C4800686C4909689A
:100C5000884279D300206949086059480068401EDD
:100C60005749086008460068B0F5616F04D9084626
:100C7000006800F5616008605048083803905248E9
:100C80004F49096830F81100009001F09AFD019079
:100C90005C480168019801F0A9FC029001F0A3FDF5
:100CA000039908604548001F0390454800684E4975
:100CB00009680844444931F81000009001F081FDB2
:100CC000019000E046E04F480168019801F08EFC79
:100CD000029001F088FD0399086038480390384875
:100CE0000068384909680844374931F81000009015
:100CF00001F067FD019043480168019801F076FC1E
:100D0000029001F070FD039908603B480068401EA6
:100D10003949086008460068B0F5617F07D83A484D
:100D20000078012803D14FF07E50364908603248E0
:100D3000006848B92948007800F001002749087088
:100D400032480068FEF798FE2C480068401C2B498A
:100D50000860B9E02148007800F0010068B32C4831
:100D6000006850B3254800682549096888427CD34B
:100D700000202249086012480068401C10490860A1
:100D800008460068B0F5616F04D308460068A0F516
:100D9000616008600948083803900B4808490968F1
:100DA00030F81100009001F00CFD01901948016825
:100DB000019801F01BFC02902EE085E03C340140DC
:100DC000680000203400002004010020E80000201A
:100DD000C4000020BC0000207C000020590000203E
:100DE00084000020E40000203000002004310020B6
:100DF000EC000020CDCC4C3D94000020A40000204D
:100E00009C000020F800002073000020000100205A
:100E10008C000020F400002001F0E5FC039908603C
:100E2000F9480390F9480068F94909680844F94904
:100E300031F81000009001F0C4FC0190F648016800
:100E4000019801F0D3FB029001F0CDFC03990860FA
:100E5000ED48001D0390ED480068F049096808441A
:100E6000EC4931F81000009000E028E001F0A9FC06
:100E70000190E9480168019801F0B8FB029001F087
:100E8000B2FC03990860E6480068401EE449086027
:100E900008460068B0F5617F07D8E248007801286D
:100EA00003D14FF07E50DC490860DD48006830B95E
:100EB0000020DD490870DD480068FEF7DDFDDC48F4
:100EC0000068401CDA490860DA48007808B300205E
:100ED000D8490870D8480068D8490860D8480068E0
:100EE000CD490860D4480068D6490860D4480068F5
:100EF000D5490860D5480078D5490870D5480078AC
:100F0000C94908700020D1490870D2490870C94900
:100F10000870D148007888B10020CF490870C648D1
:100F20000068C6490860C4480068C6490860C748E8
:100F30000078C74908700020C4490870C748007885
:100F400088B10020C5490870BD480068B2490860F2
:100F5000BB480068BC490860BE480078B2490870C8
:100F60000020BC490870BE4803900398006820F038
:100F70008001039801601FBD2DE9F0410020B949AF
:100F80000860B94CA349B74A126831F8120001F061
:100F90001DFC0746B54AB64B01F098FB054601F02B
:100FA00036FC2060B04C083CAE490968B14A126872
:100FB0001144984A32F8110001F008FC0746AB4A88
:100FC000AB4B01F083FB054601F021FC2060241DA2
:100FD000A4490968A84A126811448E4A32F81100DF
:100FE00001F0F4FB0746A14AA14B01F06FFB054657
:100FF00001F00DFC2060002084490860824C241F11
:101000008449824A126831F8120001F0DFFB07467A
:10101000964A974B01F05AFB054601F0F8FB206019
:10102000241D7A4909687A4A12681144794A32F8CB
:10103000110001F0CBFB07468C4A8D4B01F046FBBB
:10104000054601F0E4FB2060241D70490968734ADD
:10105000126811446F4A32F8110001F0B7FB0746DD
:10106000824A834B01F032FB054601F0D0FB206041
:10107000BDE8F0818148016821F470610160016878
:1010800041F480710160001F7D4A016811400160D8
:101090007C4A01681143016071480C387A4901604B
:1010A00070476F48083801686FF30F01016049F617
:1010B00099120168114301607448016821F07F4171
:1010C0000160016841F019410160001D016821F0D3
:1010D000FF010160016841F099010160704701461C
:1010E00061484038852202605F483438012202603E
:1010F000001D001D0260001D46F668020260001D12
:101100000260001D41F21112026057481838002297
:101110000260001D01605448001D4FF4404202600F
:1011200051480C3840F2DC5202603748383885228A
:10113000026035482C3801220260001D001D02604B
:10114000001D46F668020260001D0260001D41F2AB
:10115000111202602C48103800220260001D01604C
:1011600029480C304FF44042026070470021484843
:10117000026842F00102026045481C3002686FF3C9
:101180000D0202604248026822F00102026000BFC4
:10119000026842F0010202603D481C30026842F0E1
:1011A000030202603A481430026822F0030202602F
:1011B00037480C30026842F0030202603448001DD8
:1011C000026822F0030202603248028891B200BF36
:1011D000314A11602E484030042202EBC1220260E5
:1011E000001D2E4A026044F62061001D042202EB1D
:1011F000C1220260001D294A02602548026822F0CF
:10120000030202607047000038340140680000208B
:101210003000002004010020F400002034000020F1
:101220008C000020720000205900002000010020E6
:10123000A40000205C000020D8000020DC0000207A
:10124000F0000020E0000020F80000205A000020FC
:10125000580000205B0000205D0000205E000020A0
:101260000C08014064000020402C01409A99999993
:101270009999B93F280000202C000020040C01405F
:10128000FFF00FFF000810000010111100100140C6
:101290000066004000E801087400002006F8FFFF27
:1012A0000020F949F94B0A681A601A4612781A6048
:1012B0001A461278C2F30312F54B1A601A461268E6
:1012C000032A02D100221A600AE0F14A1268042AB5
:1012D00003D10122EE4B1A6002E00222EC4B1A60AD
:1012E000EA4A127802F00F021043E94A126840EA13
:1012F0000210E549091DE54B0A681A601A46127882
:101300001A601A461278C2F30312E14B1A601A46A9
:101310001268032A02D100221A600AE0DC4A12682D
:10132000042A03D10122DA4B1A6002E00222D84BD0
:101330001A60D64A127802F00F0240EA8210D44AAC
:10134000126840EA8220D049491DD04B0A681A60D1
:101350001A4612781A601A461278C2F30312CC4B5E
:101360001A601A461268032A02D100221A600AE0A3
:10137000C74A1268042A03D10122C54B1A6002E051
:101380000222C34B1A60C14A127802F00F0240EAEF
:101390000230BF4A128840EA0240BB49891DBB4B5C
:1013A0000A681A601A4612781A601A461278C2F34E
:1013B0000312B74B1A601A461268032A02D10022A0
:1013C0001A600AE0B24A1268042A03D10122B04B23
:1013D0001A6002E00222AE4B1A60AC4A127802F0A8
:1013E0000F0240EA8240AA4A128840EA8250A64987
:1013F000C91DA64B0A681A601A4612781A601A4666
:101400001278C2F30312A24B1A601A461268032A1A
:1014100002D100221A600AE09D4A1268042A03D110
:1014200001229B4B1A6002E00222994B1A60974AF4
:10143000127802F00F0240EA0260954A127840EA00
:10144000027070472DE9F04106460F4600248E4D8C
:1014500008358E4928680860084600780860084604
:10146000006804436D1C286808600846007808601E
:101470000846006844EA00246D1C28680860084695
:10148000007808600846008844EA00446D1C28681B
:10149000086008460078086008460078C0F303102A
:1014A0007B49086008460068032802D100200860D4
:1014B0000AE077480068042803D1012074490860D5
:1014C00002E00220724908607048007800F00F00C6
:1014D00044EA00646E48007844EA007437B1234659
:1014E000324608216B480068FEF717FA2046BDE82F
:1014F000F0810EB50024684E4AF63D71306808430D
:101500003060FFF7B7FD654E306840F02000306076
:10151000634800684FF47A72B0FBF2F1481EB0F1F4
:10152000807F00D31BE0481E4FF0E022506150172F
:101530000F22002807DA13071F0E5A4B00F00F0581
:101540002D1F5F5503E013071D0E574B1D5400BFA1
:1015500000204FF0E02290610720106100BFFEF7ED
:101560008CF9FFF703FEFFF79CFD50480068FFF77A
:10157000B6FDFFF701FD19200121814042099200CB
:1015800002F1E022C2F8001100BFFEF7B6F901F047
:1015900017B800270025002001908346FEF764F964
:1015A0004348006800286DD1424908600024CCE01F
:1015B00000BF414800680028FBD000203E49086079
:1015C00001903E4800EB0413DFF8F4C0DCE9002191
:1015D000DCE9020CC3E9020CC3E90021374800EB47
:1015E00004100078354901EB041107460860042F08
:1015F00049D134480068002845D1304800EB041038
:101600000079C0F3011BBBF1000F06D0BBF1010F45
:101610000ED0BBF1020F0AD15AE0012001902A48F6
:10162000008884B2012028490860284908607FE0CA
:10163000224800EB04100179204800EB04104079A7
:101640004FF4803202FB00111C4800EB041080793B
:10165000121202FB0011194800EB0410C07901447A
:10166000164800EB0410007A02FB0011134800EB4F
:101670000410407A084438440E49096808440D496A
:10168000086055E069E054E0E8F7FF1FA80000207B
:10169000AC00002074000020181002400C0C014027
:1016A0000000002018ED00E000E400E03800002019
:1016B00040000020B000002018000020AC310020C5
:1016C0009C310020C800002048000020B400002009
:1016D000601CFE490860FE4800EB04100179FC48DC
:1016E00000EB041040794FF4803202FB0011F848FF
:1016F00000EB04108079121202FB0011F44800EB99
:101700000410C0790144F24800EB0410007A02FB97
:101710000011EF4800EB0410407A08443844ED49CA
:1017200009680844EB490860E848008884B200BFB3
:1017300009E001200190E548008884B20120E349D6
:101740000860E5490860601C84B2E0480068844293
:10175000FFF62EAF0120E1490860E148006800284B
:101760005FD0DE48006800285BD00020DC490860BC
:10177000DC480078DB4907460860072F02D10120CA
:1017800001904EE00D2F20D10020D7490860D748A6
:10179000007810B9D648007810B10120D24908600D
:1017A000D448007828B9D448007810B9D3480078D4
:1017B00010B10120CC4908600023CB480121026808
:1017C000CF480068FEF7A9F82BE0082F29D1C548BB
:1017D00000790106C348407901EB0041C148807996
:1017E00001EB0021BF48C0790844BF4908600846A2
:1017F0000068B8490968884204D101250120B6492A
:10180000086003E002250020B44908602B46B14877
:1018100005210268BA480068FEF77FF80020AD494C
:101820000860AE48006800287ED0FEF766F810B960
:1018300001980028F8D0A84800680028F4D00020BB
:101840000190A54908600024F2E3A14800EB0410D0
:1018500000789F4901EB041107460860B81E18285C
:101860007DD2DFE810F01800DA000901E603220457
:101870006004AC04BA04D004DD04E904F6041705DE
:10188000180519055305650573057B05D905EA0596
:101890002D06580697069B48006800286CD18C4995
:1018A00001EB0411087900F08CFF9749009000F0DB
:1018B000CFFE96490860084600689549086084494B
:1018C00001EB0411487900F07CFF8F49009000F093
:1018D000BFFE904908607E4901EB0411887900F051
:1018E00070FF8949009000F0B3FE8B490860784989
:1018F00001EB0411C87900F064FF8349009000F007
:10190000A7FE86490860724901EB0411087A00F0CD
:1019100058FF7D49009000F09BFE81490860084611
:1019200000688049086000E0FCE3694901EB0411AC
:10193000487A00F046FF7449009000F089FE7A4929
:101940000860634901EB0411887A00F03AFF6E49A0
:10195000009000F07DFE754908605D4900E066E397
:1019600001EB0411C87A00F02CFF6749009000F0E9
:101970006FFE6F4908604FE0554901EB041108798B
:1019800000F01FFF6049009000F062FE5F490860B0
:10199000084600685E4908604D4901EB041148792A
:1019A00000F00FFF5849009000F052FE59490860BE
:1019B000474901EB0411887900F003FF5249009078
:1019C00000F046FE54490860414901EB0411087AD1
:1019D00000F0F7FE4C49009000F03AFE50490860D4
:1019E000084600684F490860394901EB0411487AFC
:1019F00000F0E7FE4449009000F02AFE4A490860E2
:101A0000334901EB0411887A00F0DBFE3E49009077
:101A100000F01EFE4549086009E33A48006890B9A5
:101A20002B4800EB0410007942490860284800EB7D
:101A30000410407940490860254800EB0410807983
:101A40003E49086017E0224800EB04104179204825
:101A500000EB0410007901EB0020364908601C48B7
:101A600000EB0410417A1A4800EB0410007A01EBF5
:101A7000002031490860CFE722480068002873D170
:101A8000134800EB0410007900F00F05104800EB3C
:101A900004100079C0F3011B042D66D10C4800EB43
:101AA0000410407901040A4800EB0410807901EB2E
:101AB0000021074800EB0410C07908442049086061
:101AC000084600680849086000BF3BE04800002065
:101AD000AC310020B0000020B40000204000002005
:101AE000180000209C310020A80000205800002091
:101AF000590000205C0000205D0000205E000020F6
:101B000074000020C80000200000C842D00000205F
:101B1000D4000020CC000020D8000020FC000020D1
:101B2000E8000020EC000020E4000020F00000208D
:101B300000010020980000209C000020BC00002034
:101B40008C000020FE4800EB0410417AFC4800EBBA
:101B50000410007A01EB0020FA4908600120FA49DC
:101B60000870FA49087046E129E2052D28D1F448A9
:101B700000EB041040790104F14800EB0410807977
:101B800001EB0021EE4800EB0410C0790844F04955
:101B9000086008460068EF490860E94800EB041057
:101BA000417AE74800EB0410007A01EB0020E54998
:101BB00008600120E44908700220E44908701AE135
:101BC000062D29D1DE4800EB041040790104DC48E1
:101BD00000EB0410807901EB0021D94800EB0410E0
:101BE000C0790844DC49086008460068D9490860A3
:101BF00000BFD34800EB0410417AD14800EB041039
:101C0000007A01EB0020CF4908600120CE4908701E
:101C1000E020CE490870EEE0072D29D1C84800EB3E
:101C2000041040790104C64800EB0410807901EBF0
:101C30000021C34800EB0410C0790844C64908607D
:101C400008460068C34908600625BD4800EB04103B
:101C5000417ABB4800EB0410007A01EB0020B9493F
:101C600008600120B84908701C20B8490870C2E01B
:101C700045BBB34800EB041040790104B04800EBC9
:101C80000410807901EB0021AD4800EB0410C0790D
:101C90000844B249086008460068AE49086000255B
:101CA000A74800EB0410417AA54800EB0410007A25
:101CB00001EB0020A34908600120A9490870A94947
:101CC000087098E0012D29D19D4800EB041040795F
:101CD00001049B4800EB0410807901EB0021984837
:101CE00000EB0410C07908449F490860084600686A
:101CF0009849086000BF924800EB0410417A904870
:101D000000EB0410007A01EB00208E4908600120EE
:101D1000934908700220934908706CE0022D29D184
:101D2000874800EB041040790104854800EB04105B
:101D3000807901EB0021824800EB0410C07908444F
:101D40008A490860084600688249086000BF7C48EC
:101D500000EB0410417A7A4800EB0410007A01EBA2
:101D600000207849086001207D490870E0207D4905
:101D7000087040E0032D29D1714800EB0410407930
:101D800001046F4800EB0410807901EB00216C48DE
:101D900000EB0410C07908447449086008460068E4
:101DA0006C4908600225664800EB0410417A6448DB
:101DB00000EB0410007A01EB00206249086001206A
:101DC000674908701C206749087014E0082D12D17B
:101DD0005B4800EB0410417A594800EB0410007A8C
:101DE00001EB00205749086008460068FDF73CFDFC
:101DF00000205449086053480068E8B35B48006815
:101E000028B95848007800F0B70056490870534880
:101E1000006828B95348007800F0FE005149087066
:101E20005148006828B94F48007800F0FD004D493E
:101E300008704948006828B94448007800F0B700A5
:101E4000424908704A48006828B94048007800F0C4
:101E5000FE003E4908703E48006828B93B480078BB
:101E600000F0FD00394908703D48007840B136481F
:101E7000007828B1012000E01BE03E49087012E024
:101E80003748007830B13048007818B901203A4915
:101E9000087008E03248007828B92B48007810B163
:101EA0000120364908700020274908702C49087025
:101EB00080E0BBF1000F02D0BBF1020F7AD1082DF8
:101EC00078D02A48006828B92648007800F0B70082
:101ED000244908702148006828B92248007800F099
:101EE000FE00204908702048006828B91D48007885
:101EF00000F0FD001B4908701748006828B9134816
:101F0000007800F0B700114908701948006828B936
:101F10000E48007800F0FE000C4908700C4800687C
:101F200028B90A48007800F0FD00084908700C48FC
:101F3000007838B30448007820B301200D491FE031
:101F4000AC31002050000020600000205B00002029
:101F500094000020A80000208400002088000020B9
:101F60005F0000205A000020900000208000002028
:101F70008C0000205C0000205D0000205E0000203E
:101F8000087012E0FE48007830B1FE48007818B9B9
:101F90000120FD49087008E0F948007828B9F9489F
:101FA000007810B10121F94801700021F548017055
:101FB000F3480170F6480068FDF756FC37E0F54835
:101FC00000EB0410007A00F0200018B10120F24963
:101FD000087002E00020F0490870EE4800EB0410A1
:101FE000007A00F0100018B10120EC49087002E0FE
:101FF0000020EA490870E74800EB0410007A00F07E
:10200000020018B10120E649087002E00020E4490E
:102010000870E04800EB0410007A00F0010018B1ED
:102020000120E049087002E00020DE490870B8E2B3
:10203000BAE2DD48006838B9D64800EB04100579EB
:102040002846FDF732FC2FE0D24800EB041041791E
:10205000D04800EB0410007901EB0020D349086060
:10206000CC4800EB0410C179CA4800EB0410807919
:1020700001EB0020CE490860C64800EB0410417A0D
:10208000C44800EB0410007A01EB0020C949086045
:10209000C04800EB0410C17ABE4800EB0410807AFF
:1020A00001EB0020C44908607BE2BF48006840B9EA
:1020B000C248007808B9012000E00020BF4908703C
:1020C0002FE0B44800EB04104179B24800EB041053
:1020D000007901EB0020BA490860AE4800EB04101B
:1020E000C179AC4800EB0410807901EB0020B049C5
:1020F0000860A84800EB0410417AA64800EB0410E1
:10210000007A01EB0020AF490860A24800EB041000
:10211000C17AA04800EB0410807A01EB0020A649A8
:1021200008603EE24BE2A048006810B9012001902F
:1021300044E0984800EB04100079A34908709548E2
:1021400000EB04104079A14908709848006828B94C
:102150009D48007800F0B7009B49087094480068DB
:1021600028B99948007800F0FE0097490870944813
:10217000006828B99448007800F0FD009249087082
:102180008C48006828B99148007800F0B7008F4962
:1021900008708948006828B98C48007800F0FE0073
:1021A0008A4908708748006828B98848007800F094
:1021B000FD0086490870012085490870F1E18548D5
:1021C00000688549086003252B46084605210268FA
:1021D00082480068FDF7A1FBE3E1FDF7A3FAFDF7F4
:1021E00009FB0A20FDF740FBFDF70DFBFDF714FB93
:1021F0007949086000230846022102687748006890
:10220000FDF78BFBCDE1754800687349086000233A
:1022100008460221026871480068FDF77EFBC0E1B4
:1022200015206D49086000230846012102686B48AB
:102230000068FDF772FBB4E1694800786649086000
:10224000002308460121026864480068FDF765FB29
:10225000A7E10020604908606248007810B9624830
:10226000007810B101205C4908605948007828B90D
:102270004548007810B94548007810B1012056490A
:102280000860002354480121026854480068FDF7A3
:1022900044FB86E185E184E13E4800EB04100079CF
:1022A0004F4908700846007838B33A4901EB0411E9
:1022B0008A79384901EB041149794FF4807303FBA3
:1022C000012000F075FA4FF08F41009000F0C0F946
:1022D000464908602F4800EB0410017A2D4800EBB6
:1022E0000410C0794FF4807202FB0010404908606E
:1022F00008460068FEF7F3FE07E04FF47A603C49B9
:10230000086008460068FEF7EAFE4AE1394E3249A5
:1023100030680860361D3849306808600846036830
:102320002D48082102682D480068FDF7F6FA38E1CB
:10233000304E0836284930680860002308460421DA
:10234000026826480068FDF7E8FA2AE1FEF7A8FFD0
:10235000814601214846FFF775F822E127480068C9
:1023600060B10C4800EB041040790A4901EB0411FC
:1023700009794FF4807202FB010041E046E0000061
:102380005F000020600000205D0000205E00002053
:1023900050000020AC3100207000002071000020AF
:1023A0007200002073000020C80000208000002080
:1023B00088000020840000208C00002061000020A4
:1023C00090000020940000205A0000205B000020B4
:1023D0005C000020B0000020A80000207400002055
:1023E0006200002058000020590000206C000020EE
:1023F00038000020E8F7FF1FAC0000204400002058
:1024000070490860098888B2FDF7BEFA00206E495D
:102410000860FEF7ABFEC4E06C4E6D4930680860A2
:102420000846008880B2086000230846022102683E
:1024300064480068FDF771FAB3E0664E644930689D
:102440000860361D644930680860644800EB041079
:10245000007A0106614800EB0410407A01EB00416C
:102460005E4800EB0410807A01EB00215B4800EB32
:102470000410C07A01EB000A584800EB0410007900
:102480000106564800EB0410407901EB0041534827
:1024900000EB0410807901EB0021504800EB0410A0
:1024A000C079084402904A480068504507D14A481C
:1024B00001680298814202D101204349086070E01E
:1024C000444E0836424930680860444800EB041026
:1024D00000790106414800EB0410407901EB00410E
:1024E0003E4800EB0410807901EB00213B4800EBF3
:1024F0000410C07901EB000A35480068504506D148
:1025000031480068012802D12F49086002E000200C
:102510002D49086045E0FEF7C3FE8146002148468C
:10252000FEF790FF80462D4800EB0410007A01066C
:102530002A4800EB0410407A01EB0041274800EBE9
:102540000410807A01EB0021244800EB0410C07ACB
:1025500001EB000A214800EB0410007901061F4836
:1025600000EB0410407901EB00411C4800EB041023
:10257000807901EB0021194800EB0410C079084470
:102580000290D14505D10298804502D101200E4923
:10259000086006E0114800EB04100079104908605B
:1025A00000BF00BF601C84B20E4800688442FFF682
:1025B0004CA900200C49086064200A49086000BF4B
:1025C000FEF7E7BF740000204400002000E8010887
:1025D000A8000020E8F7FF1FAC000020AC3100206D
:1025E000C8000020480000204000002080EA0102CE
:1025F00010B502F00043400022D04A001FD0010E67
:1026000001EB1261C0F35600C2F3560240F4000021
:1026100042F40002A0FB022000047F39140400D021
:10262000401C50EA124001D44000491EC2B20C06C0
:1026300004EBD010401C4008802A02D003E00020A8
:1026400010BD20F00100002900DA0020184310BD61
:1026500030B480EA010202F0004530F0004221F07F
:10266000004013D090B1C30DD40DC2F31601C0F3D6
:102670001600E41A41F4000140F400027D34914256
:1026800001D3641C00E04900002C02DA30BC0020B9
:1026900070474FF400000023914201D3891A03438D
:1026A00040084FEA4101F7D151B1914202D14FF0B8
:1026B000004105E002D24FF0010101E06FF001019D
:1026C00003EBC450284430BC00F0CAB82DE9FE4FDB
:1026D00081EA030404F0004421F0004100944FF02B
:1026E000000B23F0004350EA01045ED052EA0304D9
:1026F0005BD0C3F30A54C1F30A552C44A4F2F3345B
:102700000194A0FB0254C1F3130141F48011C3F3FF
:10271000130343F4801301FB024400FB034E840ABD
:10272000970A44EA815447EA8357A4FB0768029555
:102730008D0A05FB07854FEA932C04FB0C542705F3
:10274000029D4FEA065847EA1637B5EB08056EEBCF
:10275000070C870E920E47EA811742EA8312A7FB05
:102760000201B6EB0B0164EB00042B0D43EA0C33C2
:102770005E1844EB1C50DA465146E7FB0201C5F3F4
:1027800013044FEA0B3343EA14534FEA0432019C1B
:1027900043EA0603A4F10C040294009CCDE900B4C2
:1027A00000F0A4F803B0BDE8F08F00200146F9E77F
:1027B000C10F80EAE0700844CA079623002100F0A8
:1027C00058B896230022114600F053B80EB540F2D7
:1027D000334102910021CDE900110A460B4600F079
:1027E00085F803B000BD20F00040C10DC0F3160015
:1027F00040F400007F2901DA00207047962903DCAD
:10280000C1F19601C8407047963988407047C1F3BE
:102810000A5210B5C1F3130140F2FF3341F48011A5
:102820009A4201DA002010BD40F233439A42A2F2EC
:10283000334203DC524200F003F810BD904010BD5B
:10284000202A04DB203A21FA02F00021704721FA05
:1028500002F3D040C2F1200291400843194670476C
:102860000029A8BF7047401C490008BF20F00100A4
:10287000704710B4B0FA80FC00FA0CF050EA010482
:1028800004BF10BC704749B1CCF1200421FA04F414
:1028900011FA0CF118BF012121430843A3EB0C01ED
:1028A000CB1D4FEA00614FEA102042BF002010BC50
:1028B000704700EBC35010440029A4BF10BC704700
:1028C000401C490008BF20F0010010BC704710B543
:1028D000141E73F1000408DA401C41F10001921843
:1028E0005B411A4301D120F0010010BD2DE9F04DEC
:1028F00092469B4611B1B1FA81F202E0B0FA80F241
:102900002032904600F052F804460F4640EA0A0092
:1029100041EA0B0153465A46084313D0114653EA85
:10292000010019D0C8F140025046FFF789FF054663
:102930000E4650465946424600F038F8084305D046
:10294000012004E020463946BDE8F08D0020054313
:1029500046EAE0762C4337430A986305E40AA0EB85
:1029600008000022FD0A44EA47540A3002D500203C
:102970000146E9E7010510196941DDE9084500193B
:102980006941BDE8F04DA2E7064C074D06E0E0685E
:1029900040F0010394E8070098471034AC42F6D3A6
:1029A000FCF7CAFB482A0208682A0208202A04DB2E
:1029B000203A00FA02F1002070479140C2F1200352
:1029C00020FA03F319439040704770B58D1810F842
:1029D000014B14F0030201D110F8012B231106D191
:1029E00010F8013B03E010F8016B01F8016B521E77
:1029F000F9D1ABB110F8012B04F00C048A1A0C2C9D
:102A000003D0A2EB84129B1C08E010F8014BA2EB50
:102A10000422F8E712F8014B01F8014B5B1EF9D5CF
:102A2000A942D4D3002070BD02E008C8121F08C11B
:102A3000002AFAD170477047002001E001C1121F3F
:102A4000002AFBD170470000682A0208000000201D
:102A50008C310000CA290208B04502088C310020E0
:102A6000640A0000382A0208500600A24A04000145
:102A7000000A11010203040607080900011260168A
:102A800083B00408C3A00F200324640001120102D4
:102A900083FFFF3843B80B04C3409C044302000487
:102AA000011A4CF20CA63006403F000080040005DD
:102AB0001E9A99993E182005CDCC4C3D040316A0D2
:102AC0000F0202119F02929E02729D02729C02529C
:102AD0009B02529A0232990232980232970232963F
:102AE0000232950232940212930232920212910241
:102AF000129002128F02128E02328D02128C02127A
:102B00008B02128A021004890F8802128702128631
:102B1000021285021004840F8302128202100481C3
:102B20000F8002127F0210047E0F7D0210047C0FC2
:102B30007B0210047A0F79021006780F770F760265
:102B40001004750F74021006730F720F71021006D5
:102B5000700F6F0F6E0210086D0F6C0F6B0F6A0213
:102B6000100A690F680F670F660F6502100C640F7B
:102B7000630F620F610F600F5F0210185E0F5D0F31
:102B80005C0F5B0F5A0F590F580F570F560F550F09
:102B9000540F530200FF00520F510F500F4F0F4EB2
:102BA0000F4D0F4C0F4B0F4A0F490F480F470F4661
:102BB0000F440F430F420F410F400F3F0F3E0F3D99
:102BC0000F3C0F3B0F3A0F390F380F360F350F34CC
:102BD0000F330F320F310F300F2E0F2D0F2C0F2B05
:102BE0000F2A0F290F270F260F250F240F230F2140
:102BF0000F200F1F0F1E0F1C0F1B0F1A0F190F177F
:102C00000F160F150F140F120F110F100F0E0F0DBF
:102C10000F0C0F0A0F090F080F060F050F040F0204
:102C20000F010F000FFE0EFD0EFC0EFA0EF90EF74F
:102C30000EF60EF50EF30EF20EF00EEF0EED0EEC9C
:102C40000EEA0EE90EE80EE60EE50EE30EE20EE0E9
:102C50000EDF0EDD0EDC0EDA0ED90ED70ED60ED438
:102C60000ED30ED10ECF0ECE0ECC0ECB0EC90EC88B
:102C70000EC60EC40EC30EC10EC00EBE0EBC0EBBE1
:102C80000EB90EB80EB60EB40EB30EB10EAF0EAE38
:102C90000EAC0EAA0E00FF00A90EA70EA50EA40EE4
:102CA000A20EA00E9E0E9D0E9B0E990E980E960ED5
:102CB000940E920E910E8F0E8D0E8B0E890E880E35
:102CC000860E840E820E810E7F0E7D0E7B0E790E97
:102CD000770E760E740E720E700E6E0E6C0E6B0EFC
:102CE000690E670E650E630E610E5F0E5D0E5B0E64
:102CF0005A0E580E560E540E520E500E4E0E4C0ECC
:102D00004A0E480E460E440E420E400E3E0E3C0E3B
:102D10003A0E380E360E340E320E300E2E0E2C0EAB
:102D20002A0E280E260E240E220E200E1E0E1C0E1B
:102D30001A0E180E160E140E110E0F0E0D0E0B0E8F
:102D4000090E070E050E030E010EFE0DFC0DFA0D09
:102D5000F80DF60DF40DF20DEF0DED0DEB0DE90D87
:102D6000E70DE40DE20DE00DDE0DDC0DD90DD70D04
:102D7000D50DD30DD10DCE0DCC0DCA0DC80DC50D81
:102D8000C30DC10DBF0DBC0DBA0DB80DB50DB30D02
:102D9000B10DAF0DAC0D00FF00AA0DA80DA50DA340
:102DA0000DA10D9E0D9C0D9A0D970D950D930D90F7
:102DB0000D8E0D8B0D890D870D840D820D800D7D7F
:102DC0000D7B0D780D760D740D710D6F0D6C0D6A08
:102DD0000D670D650D630D600D5E0D5B0D590D5694
:102DE0000D540D510D4F0D4C0D4A0D470D450D4223
:102DF0000D400D3D0D3B0D380D360D330D310D2EB3
:102E00000D2C0D290D270D240D210D1F0D1C0D1A44
:102E10000D170D150D120D0F0D0D0D0A0D080D05D9
:102E20000D020D000DFD0CFB0CF80CF50CF30CF075
:102E30000CED0CEB0CE80CE60CE30CE00CDE0CDB10
:102E40000CD80CD60CD30CD00CCE0CCB0CC80CC5AB
:102E50000CC30CC00CBD0CBB0CB80CB50CB20CB048
:102E60000CAD0CAA0CA80CA50CA20C9F0C9D0C9AE6
:102E70000C970C940C920C8F0C8C0C890C860C8487
:102E80000C810C7E0C7B0C780C760C730C700C6D2A
:102E90000C6A0C680C650C00FF00620C5F0C5C0C8B
:102EA000590C570C540C510C4E0C4B0C480C450C47
:102EB000430C400C3D0C3A0C370C340C310C2E0CEE
:102EC0002B0C290C260C230C200C1D0C1A0C170C97
:102ED000140C110C0E0C0B0C080C060C030C000C43
:102EE000FD0BFA0BF70BF40BF10BEE0BEB0BE80BF6
:102EF000E50BE20BDF0BDC0BD90BD60BD30BD00BA6
:102F0000CD0BCA0BC70BC40BC10BBE0BBB0BB80B55
:102F1000B50BB20BAF0BAC0BA90BA60BA30BA00B05
:102F20009D0B9A0B970B940B900B8D0B8A0B870BB9
:102F3000840B810B7E0B7B0B780B750B720B6F0B6D
:102F40006B0B680B650B620B5F0B5C0B590B560B25
:102F5000530B500B4C0B490B460B430B400B3D0BDB
:102F60003A0B360B330B300B2D0B2A0B270B240B94
:102F7000200B1D0B1A0B170B140B110B0D0B0A0B4F
:102F8000070B040B010BFD0AFA0AF70AF40AF10A0F
:102F9000ED0AEA0AE70AE40A00FF00E10ADD0ADABC
:102FA0000AD70AD40AD10ACD0ACA0AC70AC40AC073
:102FB0000ABD0ABA0AB70AB30AB00AAD0AAA0AA732
:102FC0000AA30AA00A9D0A990A960A930A900A8CF3
:102FD0000A890A860A830A7F0A7C0A790A750A72B4
:102FE0000A6F0A6C0A680A650A620A5E0A5B0A5876
:102FF0000A550A510A4E0A4B0A470A440A410A3D39
:103000000A3A0A370A330A300A2D0A290A260A23FD
:103010000A1F0A1C0A190A150A120A0F0A0B0A08C3
:103020000A050A010AFE09FB09F709F409F109ED8D
:1030300009EA09E609E309E009DC09D909D609D258
:1030400009CF09CC09C809C509C109BE09BB09B71F
:1030500009B409B009AD09AA09A609A3099F099CE9
:10306000099909950992098F098B098809840981B1
:10307000097D097A097709730970096C096909667C
:103080000962095F095B095809540951094E094A47
:10309000094709430940093C0900FF00390936097D
:1030A00032092F092B092809240921091E091A09A7
:1030B0001709130910090C09090905090209FF0874
:1030C000FB08F808F408F108ED08EA08E608E30848
:1030D000DF08DC08D908D508D208CE08CB08C70815
:1030E000C408C008BD08B908B608B208AF08AB08E4
:1030F000A808A508A1089E089A08970893089008B0
:103100008C088908850882087E087B08770874087F
:1031100070086D086908660862085F085C0858084E
:10312000550851084E084A084708430840083C081B
:103130003908350832082E082B08270824082008EB
:103140001D081908160812080F080B0808080408BB
:103150000108FD07FA07F607F307EF07EC07E80792
:10316000E507E107DE07DA07D707D307D007CD0762
:10317000C907C607C207BF07BB07B807B407B1072F
:10318000AD07AA07A607A3079F079C0798079507FF
:1031900091078E078A078707830700FF0080077C57
:1031A000077907750772076E076B07670764076083
:1031B000075D075907560752074F074B0748074453
:1031C0000741073E073A073707330730072C07291F
:1031D00007250722071E071B071707140710070DEF
:1031E00007090706070207FF06FB06F806F506F1C2
:1031F00006EE06EA06E706E306E006DC06D906D593
:1032000006D206CE06CB06C706C406C106BD06BA60
:1032100006B606B306AF06AC06A806A506A1069E2E
:10322000069B069706940690068D068906860682FA
:10323000067F067C067806750671066E066A0667C6
:1032400006640660065D065906560652064F064C91
:10325000064806450641063E063A0637063406305D
:10326000062D062906260623061F061C0618061527
:103270000611060E060B06070604060106FD05FAF2
:1032800005F605F305F005EC05E905E505E205DFC2
:1032900005DB05D805D405D105CE0500FF00CA051C
:1032A000C705C405C005BD05BA05B605B305AF051C
:1032B000AC05A905A505A2059F059B0598059505E3
:1032C00091058E058B058705840581057D057A05A9
:1032D0007705730570056D056905660563055F056E
:1032E0005C055905550552054F054B054805450533
:1032F00042053E053B053805340531052E052B05F5
:103300002705240521051D051A05170514051005B7
:103310000D050A05070503050005FD04F904F6047B
:10332000F304F004ED04E904E604E304E004DC043F
:10333000D904D604D304CF04CC04C904C604C304FE
:10334000BF04BC04B904B604B304AF04AC04A904BC
:10335000A604A3049F049C049904960493048F0478
:103360008C0489048604830480047C047904760434
:10337000730470046D046A046604630460045D04ED
:103380005A045704540450044D044A0447044404A6
:1033900041043E043B0438043504310400FF002E90
:1033A000042B042804250422041F041C04190416F9
:1033B00004130410040C040904060403040004FDAF
:1033C00003FA03F703F403F103EE03EB03E803E569
:1033D00003E203DF03DC03D903D603D303D003CD19
:1033E00003CA03C703C403C103BE03BB03B803B5C9
:1033F00003B203AF03AC03A903A603A303A0039D79
:10340000039A039803950392038F038C0389038621
:1034100003830380037D037A037703750372036FCD
:10342000036C0369036603630360035D035B035876
:1034300003550352034F034C03490347034403411D
:10344000033E033B0338033603330330032D032AC3
:10345000032803250322031F031C031A0317031465
:103460000311030E030C030903060303030103FE08
:1034700002FB02F802F602F302F002EE02EB02E8AF
:1034800002E502E302E002DD02DB02D802D502D24D
:1034900002D002CD02CA02C802C502C20200FF0069
:1034A000C002BD02BA02B802B502B302B002AD0258
:1034B000AB02A802A502A302A0029E029B029802F0
:1034C0009602930291028E028B0289028602840286
:1034D00081027F027C0279027702740272026F021B
:1034E0006D026A0268026502630260025E025B02AC
:1034F00059025602540251024F024C024A0247023C
:103500004502420240023D023B02390236023402C9
:1035100031022F022C022A02280225022302200255
:103520001E021C02190217021502120210020D02DD
:103530000B020902060204020202FF01FD01FB0167
:10354000F801F601F401F101EF01ED01EB01E801F1
:10355000E601E401E101DF01DD01DB01D801D60173
:10356000D401D201CF01CD01CB01C901C701C401F2
:10357000C201C001BE01BC01B901B701B501B3016F
:10358000B101AE01AC01AA01A801A601A401A201EA
:103590009F019D019B0199019701950193011C9841
:1035A00091018F018C018A018801860184018201C9
:1035B00080017E017C017A0178017601740172013B
:1035C00070016E016C016A016801660164016201AB
:1035D00060015E015C015A0158015601540152011B
:1035E00050014E014C014A01480146014501430189
:1035F00041013F013D013B013901370135013401F2
:10360000320130012E012C012A0129012701250157
:10361000230121011F011E011C011A0118011701BC
:103620001501130111010F010E010C010A0108011E
:1036300007010501030102590C1CDCFE00FC00FB24
:1036400000F900F700F600F400F200F100EF00EDE1
:1036500000EC00EA00E800E700E500E400E200E03A
:1036600000DF00DD00DC00DA00D800D700D500D490
:1036700000D200D100CF00CD00CC00CA00C900C7E5
:1036800000C600C400C300C100C000BE00BD00BB36
:1036900000BA00B800B700B600B400B300B100B083
:1036A00000AE00AD00AB00AA00A900A700A600A4D0
:1036B00000A300A200A0009F009E009C009B009A17
:1036C0000098009700960094009300920090008F5D
:1036D000008E008C008B008A0089008700860085A0
:1036E0000084008200810080007F007D007C007BE0
:1036F000007A00790077007600750074007300721C
:103700000070006F006E006D006C006B006A006856
:10371000006700660065600D102C630062006100A8
:1037200060005F005E005D005C005A0059005800B8
:1037300057005600550054005300520051005000ED
:103740004F004E004D0210184C004B004A0049003B
:103750004800470046004500440043004200410243
:10376000100C40003F003E003D003C003B02100AB0
:103770003A003900380037003602100835003400AE
:10378000330032021006310030002F0210062E00E6
:103790002D002C0210042B002A02100629002800FC
:1037A000270210042600250210042400230210041E
:1037B0002200210212200210041F001E02121D020C
:1037C00010041C001B02121A021219021218021015
:1037D00004170016021215021214023213021212FA
:1037E000021211021210021DB50B33000E021DC58C
:1037F000091DD80D2102320B02320A0232090232AF
:1038000008023207025206025205027204027203D3
:103810000292020202110102013001011246A16668
:10382000817C819061A261B241C041CC41D841E428
:1038300041F041FC25064510251A2522252A25326E
:10384000453C2546254E2556361762256A257225A4
:103850007A361C86258E361F9A25A23622AE36244D
:10386000BA3626C61628D025D6362BE2162DEC25DC
:10387000F21630FC29021A330C3A35161A37201A80
:103880003928292E1A3C381A3E403A404A1A4254E6
:103890001A445C1A46641A486C1A4A743A4C7E1AE6
:1038A0004E881A50901A52981A54A01A56A81A58AC
:1038B000B01A5AB81A5DC01A5FC81A61D01A63D814
:1038C0001A65E01A67E81A6AF01A6CF81E6E0003AF
:1038D0001E7008031E7310031E7518031E77200345
:1038E0001E7A28031E7C30031E7F38031E8140038E
:1038F0001E8448031E8650031E8958031E8B6003D6
:103900001E8E68031E9070031E9378031E9680031C
:103910001E9888031E9B90031E9E98031EA0A00362
:103920001EA3A8031EA6B0031EA9B8031EABC003A6
:103930001EAEC8031EB1D0031EB4D8031EB7E003E9
:103940001EBAE8031EBDF0031EC0F8031EC3000428
:103950001EC608041EC910041ECC18041ECF200465
:103960001ED228041ED530041ED838041EDC4004A4
:103970001EDF48041EE250041EE558041EE86004E1
:103980001EEC68041EEF70041EF278041EF680041C
:103990001EF988042C04FC00FE53111D9C041E0516
:1039A000A4041E08AC041E0CB4041E0FBC041E1399
:1039B000C4041E17CC041E1AD4041E1EDC041E21CF
:1039C000E4041E25EC041E29F4041E2CFC041E3005
:1039D00004051E340C051E3714051E3B1C051E3F36
:1039E00024051E432C051E4634051E4A3C051E4E6A
:1039F00044051E524C051E5654051E5A5C051E5E9B
:103A000064051E626C051E6674051E6A7C051E6ECA
:103A100084051E728C051E7694051E7A9C051E7EFA
:103A2000A4051E82AC051E86B4051E8ABC051E8F29
:103A3000C4051E93CC051E97D4051E9BDC051E9F56
:103A4000E4051EA4EC051EA8F4051EACFC051EB181
:103A500004061EB50C061EB914061EBE1C061EC2A8
:103A600024061EC72C061ECB34061ECF3C061ED4D1
:103A700044061ED84C061EDD54061EE15C061EE6FA
:103A800064061EEB6C061EEF74061EF47C061EF820
:103A900084061C06FD01FF010294061E069C061EFC
:103AA0000BA4061E10AC061E15B4061E19BC061E7D
:103AB0001EC4061E23CC061E28D4061E2CDC061EA1
:103AC00031E4061E36EC061E3BF4061E40FC061EC4
:103AD0004504071E4A0C071E4F14071E541C071EE0
:103AE0005924071E5E2C071E6334071E683C071E00
:103AF0006D44071E724C071E7754071E7C5C071E20
:103B00008164071E866C071E8B74071E917C071E3E
:103B10009684071E9B8C071EA094071EA59C071E5B
:103B2000ABA4071EB0AC071EB5B4071EBABC071E77
:103B3000C0C4071EC5CC071ECAD4071ED0DC071E92
:103B4000D5E4071EDBEC071EE0F4071EE5FC071EAC
:103B5000EB04081EF00C081EF614081404FB02FE09
:103B6000C31E0328081E0930081E0E38081E144004
:103B7000081E1A48081E1F50081E2558081E2A60D5
:103B8000081E3068081E3670081E3B78081E4180EB
:103B9000081E4788081E4C90081E5298081E58A000
:103BA000081E5DA8081E63B0081E69B8081E6FC015
:103BB000081E75C8081E7AD0081E80D8081E86E028
:103BC000081E8CE8081E92F0081E98F8081E9D003A
:103BD000091EA308091EA910091EAF18091EB52049
:103BE000091EBB28091EC130091EC738091ECD4059
:103BF000091ED348091ED950091EDF58091EE56069
:103C0000091EEB68091EF170091EF778091EFD7D7B
:103C1000041DC8131D8C091E0C94091E139C091E3B
:103C200019A4091E1FAC091E25B4091E2BBC091EB0
:103C300031C4091E38CC091E3ED4091E44DC091EBD
:103C40004AE4091E50EC091E57F4091E5DFC091ECA
:103C500063040A1E6A0C0A1E70140A1E761C0A1ED1
:103C60007C240A1E832C0A1E89340A1E8F3C0A1EDD
:103C700096440A1E9C4C0A1EA3540A1EA95C0A1EE6
:103C8000AF640A1EB66C0A1EBC740A1EC37C0A1EF0
:103C9000C9840A1ECF8C0A1ED6940A1EDC9C0A1EFA
:103CA000E3A40A1EE9AC0A1EF0B40A1EF6BC0A1E02
:103CB000FD15051E03CC0A1E0AD40A1E10DC0A1EBE
:103CC00017E40A1E1DEC0A1E24F40A1E2BFC0A1E11
:103CD00031040B1E380C0B1E3E140B1E451C0B1E14
:103CE0004B240B1E522C0B1E59340B1E5F3C0B1E1B
:103CF00066440B1E6D4C0B1E73540B1E7A5C0B1E20
:103D000081640B1E876C0B1E8E740B1E957C0B1E24
:103D10009B840B1EA28C0B1EA9940B1EAF9C0B1E2A
:103D2000B6A40B1EBDAC0B1EC4B40B1ECABC0B1E2E
:103D3000D1C40B1ED8CC0B1EDFD40B1EE5DC0B1E32
:103D4000ECE40B1EF3EC0B1C06FA05FD0501FC0B65
:103D50001E07040C1E0E0C0C1E15140C1E1C1C0C35
:103D60001E23240C1E292C0C1E30340C1E373C0C38
:103D70001E3E440C1E454C0C1E4C540C1E525C0C3A
:103D80001E59640C1E606C0C1E67740C1E6E7C0C3D
:103D90001E75840C1E7C8C0C1E82940C1E899C0C3F
:103DA0001E90A40C1E97AC0C1E9EB40C1EA5BC0C41
:103DB0001EACC40C1EB3CC0C1EBAD40C1EC1DC0C41
:103DC0001EC7E40C1ECEEC0C1ED5F40C1EDCFC0C45
:103DD0001EE3040D1EEA0C0D1EF1140D1EF81C0D41
:103DE0001C04FF0602280D1E09300D1E10380D1E82
:103DF00017400D1E1E480D1E25500D1E2C580D1E61
:103E000033600D1E3A680D1E41700D1E48780D1E60
:103E10004F800D1E56880D1E5D900D1E64980D1E60
:103E20006BA00D1E72A80D1E79B00D1E80B80D1E60
:103E300087C00D1E8EC80D1E95D00D1E9CD80D1E60
:103E4000A3E00D1EAAE80D1EB1F00D1EB8F80D1E60
:103E5000BF000E1EC6080E1ECD100E1ED3180E1E5D
:103E6000DA200E1EE1280E1EE8300E1EEF380E1E60
:103E7000F6400E1EFDD1041E04500E1E0B580E1EE1
:103E800012600E1E19680E1E20700E1E27780E1E60
:103E90002E800E1E35880E1E3C900E1E43980E1E60
:103EA0004AA00E1E51A80E1E58B00E1E5FB80E1E60
:103EB00066C00E1E6DC80E1E74D00E1E7BD80E1E60
:103EC00082E00E1E89E80E1E90F00E1E97F80E1E60
:103ED0009E000F1EA5080F1EAB100F1EB2180F1E5E
:103EE000B9200F1EC0280F1EC7300F1ECE380F1E60
:103EF000D5400F1EDC480F1EE3500F1EEA580F1E60
:103F0000F1600F1EF8680F1C04FF0802740F1E09F1
:103F10007C0F1E10840F1E178C0F1E1E940F1E2464
:103F20009C0F1E2BA40F1E32AC0F1E39B40F1E4067
:103F3000BC0F1E47C40F1E4ECC0F1E54D40F1E5B69
:103F4000DC0F1E62E40F1E69EC0F1E70F40F1E776B
:103F5000FC0F1E7D04101E840C101E8B14101E926C
:103F60001C101E9924101E9F2C101EA634101EAD6E
:103F70003C101EB444101EBB4C101EC154101EC871
:103F80005C101ECF64101ED66C101EDC74101EE375
:103F90007C101EEA84101EF18C101EF794101C0475
:103FA000FE0901A0101E08A8101E0FB0101E15B8A3
:103FB000101E1CC0101E23C8101E29D0101E30D881
:103FC000101E37E0101E3DE8101E44F0101E4BF886
:103FD000101E5100111E5808111E5E10111E65188A
:103FE000111E6C20111E7228111E7930111E7F388F
:103FF000111E8640111E8C48111E9350111E995897
:10400000111EA060111EA768111EAD70111EB3789D
:10401000111EBA80111EC088111EC790111ECD98A6
:10402000111ED4A0111EDAA8111EE1B0111EE7B8AE
:10403000111EEDC0111EF4C8111C06FA0AFD0A017A
:10404000D8111E07E0111E0DE8111E14F0111E1AE2
:10405000F8111E2000121E2708121E2D10121E33EA
:1040600018121E3A20121E4028121E4630121E4CF4
:1040700038121E5340121E5948121E5F50121E6500
:1040800058121E6B60121E7268121E7870121E7E0D
:1040900078121E8480121E8A88121E9090121E971B
:1040A00098121E9DA0121EA3A8121EA9B0121EAF28
:1040B000B8121EB5C0121EBBC8121EC1D0121EC738
:1040C000D8121ECDE0121ED3E8121ED9F0121EDF48
:1040D000F8121EE500131EEB08131EF110131EF755
:1040E00018131EFD15091E0328131E0830131E0E7B
:1040F00038131E1440131E1A48131E2050131E2678
:1041000058131E2B60131E3168131E3770131E3D8B
:1041100078131E4380131E4888131E4E90131E549E
:1041200098131E59A0131E5FA8131E65B0131E6AB4
:10413000B8131E70C0131E76C8131E7BD0131E81C9
:10414000D8131E86E0131E8CE8131E92F0131E97E0
:10415000F8131E9D00141EA208141EA810141EADF4
:1041600018141EB220141EB828141EBD30141EC30D
:1041700038141EC840141ECE48141ED350141ED826
:1041800058141EDE60141EE368141EE870141EED41
:1041900078141EF380141EF888141EFDC7091E0231
:1041A00098141E08A0141E0DA8141E12B0141E1779
:1041B000B8141E1CC0141E21C8141E27D0141E2C97
:1041C000D8141E31E0141E36E8141E3BF0141E40B5
:1041D000F8141E4500151E4A08151E4F10151E54D2
:1041E00018151E5920151E5E28151E6330151E67F2
:1041F00038151E6C40151E7148151E7650151E7B15
:1042000058151E8060151E8468151E8970151E8E37
:1042100078151E9380151E9788151E9C90151EA15B
:1042200098151EA5A0151EAAA8151EAFB0151EB381
:10423000B8151EB8C0151EBCC8151EC1D0151EC5A8
:10424000D8151ECAE0151ECEE8151ED3F0151ED7D0
:10425000F8151EDC00161EE008161EE410161EE9F6
:1042600018161EED20161EF228161EF630161EFA1F
:1042700038161C04FE0D0144161E054C161E09546A
:10428000161E0D5C161E1164161E166C161E1A7470
:10429000161E1E7C161E2284161E268C161E2A949E
:1042A000161E2E9C161E32A4161E36AC161E3AB4CE
:1042B000161E3EBC161E42C4161E46CC161E4AD4FE
:1042C000161E4EDC161E52E4161E56EC161E5AF42E
:1042D000161E5DFC161E6104171E650C171E691460
:1042E000171E6C1C171E7024171E742C171E773493
:1042F000171E7B3C171E7F44171E824C171E8654C8
:10430000171E895C171E8D64171E916C171E9474FE
:10431000171E987C171E9B84171E9E8C171EA29436
:10432000171EA59C171EA9A4171EACAC171EAFB470
:10433000171EB3BC171EB6C4171EB9CC171EBCD4AB
:10434000171EC0DC171EC3E4171EC6EC171EC9F4E7
:10435000171ECCFC171ECF04181ED30C181ED61423
:10436000181ED91C181EDC24181EDF2C181EE2345F
:10437000181EE53C181EE844181EEA4C181EED54A1
:10438000181EF05C181EF364181EF66C181EF974E3
:10439000181EFC7C181EFEB70B1E018C181E049400
:1043A000181E069C181E09A4181E0CAC181E0EB46C
:1043B000181E11BC181E14C4181E16CC181E19D4B1
:1043C000181E1BDC181E1EE4181E20EC181E23F4F9
:1043D000181E25FC181E2704191E2A0C191E2C1441
:1043E000191E2E1C191E3124191E332C191E35348A
:1043F000191E383C191E3A44191E3C4C191E3E54D5
:10440000191E405C191E4264191E446C191E477423
:10441000191E497C191E4B84191E4D8C191E4F9470
:10442000191E519C192DA2191E54AC191E56B419EF
:104430001E58BC191E5AC4191E5CCC193E5ED619F2
:104440001E60E0191E62E8193E64F2191E66FC192E
:104450001E68041A2D0A1A1E6B141A3E6D1E1A1EAF
:104460006F281A2D2E1A1E72381A2D3E1A3E754AC2
:104470001A1E77541A2D5A1A3E7A661A3E7C721A00
:104480003E7E7E1A2D861A3E81921A2D9A1A3E84FD
:10449000A61A2DAE1A2DB61A2DBE1A3E89CA1A2D8D
:1044A000D21A2DDA1A4DE41A2DEE1A2DF61A2DFE17
:1044B0001A2D061B4D101B2D1A1B4D241B4D301B96
:1044C0004D3C1B4D481B4D541B4D601B6D6E1B6DB1
:1044D0007E1B8D901B8DA41BADBA1B0D12DA1B0227
:1044E0002FA0020DFF201C0DFF201C0DFF201C0D16
:1044F000FF201C0DFF201C0DFF201C0DFF201C0D9C
:10450000FF201C0DFF201C0DFF201C0DFF201C0D8B
:10451000FF201C0DFF201C0DFF201C0DFF201C0D7B
:10452000FF201C0DFF201C0DFF201C0DFF201C0D6B
:10453000B1201C4DBA054D74301E0358302D113179
:1045400021151E0664301E0768301E086C302D15BC
:10455000311E0A74305E0B78301E0D6E301E0E72E6
:10456000302D07311E107A301E117E301E1282301F
:104570001E1386301E148A301E158E301E16923081
:104580001E1796301E189A301E199E301E1AA23021
:104590001E1BA6301E1CAA301E1DAE301E1EB230C1
:1045A0001E1FB6301E20BA3000050021000000009A
:040000050801F145B8
:00000001FF
