:020000040000FA
:10000000E03B0020450100004D0100004F010000D1
:1000100051010000530100005501000000000000E4
:100020000000000000000000000000005701000078
:1000300059010000000000005B010000B510000045
:100040005F0100005F0100005F0100005F01000030
:100050005F0100005F0100005F0100005F01000020
:100060005F0100005F0100005F0100005F01000010
:100070005F0100005F0100005F0100005F01000000
:100080005F0100005F0100005F0100001925000012
:10009000512500005F0100005F0100005F010000CA
:1000A0005F010000251100005F0100005F010000FA
:1000B0005F0100005F0100005F0100005F010000C0
:1000C0005F0100005F0100005F0100005F010000B0
:1000D0005F0100005F0100005F0100005F010000A0
:1000E0005F0100005F0100005F0100005F01000090
:1000F0005F0100005F0100005F0100005F01000080
:100100005F0100005F0100005F0100005F0100006F
:100110005F0100005F0100005F0100005F0100005F
:100120005F0100005F0100005F0100005F0100004F
:10013000DFF80CD000F0E2F800480047312600005C
:10014000E03B00200648804706480047FEE7FEE700
:10015000FEE7FEE7FEE7FEE7FEE7FEE7FEE7FEE777
:10016000C51000003101000080EA010210B502F064
:100170000043400022D04A001FD0010E01EB126163
:10018000C0F35600C2F3560240F4000042F40002ED
:10019000A0FB022000047F39140400D0401C50EA68
:1001A000124001D44000491EC2B20C0604EBD0102C
:1001B000401C4008802A02D003E0002010BD20F03F
:1001C0000100002900DA0020184310BD30B480EA95
:1001D000010202F0004530F0004221F0004013D04F
:1001E00090B1C30DD40DC2F31601C0F31600E41A8A
:1001F00041F4000140F400027D34914201D3641CBB
:1002000000E04900002C02DA30BC002070474FF4B7
:1002100000000023914201D3891A034340084FEAAA
:100220004101F7D151B1914202D14FF0004105E0B7
:1002300002D24FF0010101E06FF0010103EBC45065
:10024000284430BC00F022B8C10F80EAE0700844B6
:10025000CA079623002100F022B8962300221146F7
:1002600000F01DB820F00040C10DC0F3160040F4AE
:1002700000007F2901DA00207047962903DCC1F1D4
:100280009601C84070479639884070470029A8BF3A
:100290007047401C490008BF20F00100704710B4AF
:1002A000B0FA80FC00FA0CF050EA010404BF10BC64
:1002B000704749B1CCF1200421FA04F411FA0CF191
:1002C00018BF012121430843A3EB0C01CB1D4FEACA
:1002D00000614FEA102042BF002010BC704700EBC5
:1002E000C35010440029A4BF10BC7047401C4900F3
:1002F00008BF20F0010010BC70470000064C074DFD
:1003000006E0E06840F0010394E8070098471034E5
:10031000AC42F6D3FFF710FF343400005434000031
:1003200070B58D1810F8014B14F0030201D110F8CC
:10033000012B231106D110F8013B03E010F8016BEB
:1003400001F8016B521EF9D1ABB110F8012B04F08A
:100350000C048A1A0C2C03D0A2EB84129B1C08E01C
:1003600010F8014BA2EB0422F8E712F8014B01F858
:10037000014B5B1EF9D5A942D4D3002070BD21B139
:10038000826842F00102826003E0826822F001028A
:1003900082607047014600208A6802F004020AB1B8
:1003A000012000E0002070470146C86C80B2704711
:1003B000014600208A6802F008020AB1012000E02C
:1003C00000207047014600208A6802F480020AB1CA
:1003D000012000E00020704730B5024600200023D5
:1003E00050680F4C20400D790C6844EA05242043E6
:1003F000506090680B4C2040D1E902542C434D7959
:1004000044EA450420439060D06A20F470000C7CDC
:10041000641EE4B2234340EA0350D06230BD0000C2
:10042000FFFEF0FFFDF7F1FFF0B504460D4600209A
:100430000021092D11DDE068A5F10A0606EB46074B
:10044000072606FA07F18843A5F10A0606EB4606D9
:1004500003FA06F10843E0600CE0206905EB45076C
:10046000072606FA07F1884305EB450603FA06F16D
:1004700008432061072A0FDA606B561E06EB8607D9
:100480001F2606FA07F18843561E06EB860605FA74
:1004900006F10843606322E00D2A0FDA206BD61FB5
:1004A00006EB86071F2606FA07F18843D61F06EBE0
:1004B000860605FA06F10843206310E0E06AA2F11F
:1004C0000D0606EB86071F2606FA07F18843A2F100
:1004D0000D0606EB860605FA06F10843E062F0BD5C
:1004E000816841F008018160704721B1826842F45F
:1004F000A002826003E0826822F4A002826070475A
:10050000816841F004018160704700002A49096850
:1005100001F0040149B9002141732749096840F2FB
:10052000FF7202EA5151016008E001214173224942
:1005300009686FF0604202EAD10101601E49096852
:1005400001F0020111B90021817301E001218173E1
:100550001949091D096801F00F0101731649083195
:10056000096801711449083109680A0A427112497F
:10057000083109680A0C82710F4908310968090EAF
:10058000C1710D490C31096801720B490C310968C0
:100590000A0A427208490C3109680A0C827206493B
:1005A0000C310968090EC1720449096841F0200143
:1005B000024A116070470000B06500400C640040C2
:1005C00010B52948C06940F000702749C861084645
:1005D000806940F0010088612448406820F4C040F0
:1005E000224948600846406840F4804048601E4800
:1005F000806940F008001C4988611D48006820F0AF
:100600000F001B4908600846006840F008000860B9
:100610000846006820F0F00008600846006840F0D6
:10062000B0000860132000F017FB142000F014FB4A
:1006300011201049086003200E4914310860042479
:100640000C481C3000680C4908400A491C310860FD
:1006500008460068611EC1F30801084A11430843B7
:1006600004491C31086010BD001002400000014028
:10067000040C01400064004000FE80FC00004B03BD
:100680000748006820F001000549086000BF0448E1
:10069000001D006800F001000028F8D1704700003C
:1006A0000064004000BF0548006800F0806000283A
:1006B000F9D001200249086070470000086400403A
:1006C0001400002000212D4A1160417B49B91146D8
:1006D00009680288002343EA42521143274A116005
:1006E00008E0264909680423026803EBC2021143AB
:1006F000224A1160817B21B9204909681F4A116093
:1007000005E01E49096841F002011C4A1160C179E7
:100710000A06817942EA0142417942EA01210279DD
:100720001143164A08321160C17A0A06817A42EAF8
:100730000142417A42EA0121027A11430F4A0C3206
:1007400011600E49091D096821F00F020B49091DAE
:100750000A600968027B02F00F021143074A121D6A
:1007600011600749096841F00101054A1160034918
:10077000096841F00101014A11607047806500403D
:1007800014640040044A116800BF034A1268521AF8
:100790008242FAD370470000200000202DE9F0418A
:1007A00005461C4C1C491D4A126831F81200FFF71F
:1007B00054FD07462946FFF7D7FC0646FFF752FDD2
:1007C0002060144C083C15490968154A1268114408
:1007D000114A32F81100FFF740FD07462946FFF79E
:1007E000C3FC0646FFF73EFD2060241D0B49096847
:1007F0000C4A12681144084A32F81100FFF72DFD27
:1008000007462946FFF7B0FC0646FFF72BFD2060A0
:10081000BDE8F081402C0140F80000205C00002081
:1008200024000020280000202DE9F04105461C4C42
:100830001C491D4A126831F81200FFF70EFD0746E9
:100840002946FFF791FC0646FFF70CFD2060241DAA
:1008500015490968154A12681144124A32F8110004
:10086000FFF7FBFC07462946FFF77EFC0646FFF72D
:10087000F9FC2060241D0C4909680D4A12681144D6
:10088000084A32F81100FFF7E8FC07462946FFF74F
:100890006BFC0646FFF7E6FC2060BDE8F081000037
:1008A00034340140F8000020600000202C000020BB
:1008B000300000202DE9F0410246002500260020EE
:1008C00000230024002791F803C00CF00F0591F8D5
:1008D00003C00CF0100CBCF1000F03D091F802C063
:1008E0004CEA050591F800C0BCF1000F31D0146846
:1008F00000202BE04FF0010C0CFA00F3B1F800C01F
:100900000CEA03069E4220D183004FF00F0C0CFA34
:1009100003F7BC4305FA03FC4CEA040491F803C056
:10092000BCF1280F06D14FF0010C0CFA00FCC2F804
:1009300014C00AE091F803C0BCF1480F05D14FF094
:10094000010C0CFA00FCC2F810C0401C0828D1D3DE
:100950001460B1F800C0BCF1FF0F34DD5468002012
:100960002EE000F1080C4FF0010808FA0CF3B1F882
:1009700000C00CEA03069E4221D183004FF00F0C09
:100980000CFA03F7BC4305FA03FC4CEA040491F8A3
:1009900003C0BCF1280F05D100F1080C08FA0CF8CF
:1009A000C2F8148091F803C0BCF1480F07D100F1E0
:1009B000080C4FF0010808FA0CF8C2F81080401C2F
:1009C0000828CED35460BDE8F08110B5044601215B
:1009D0002046FFF78AFD00BF2046FFF7F3FC002802
:1009E000FAD12046FFF7E0FC10BD00000020684966
:1009F000684B0A681A601A4612781A601A4612780A
:100A0000C2F30312644B1A601A461268032A02D119
:100A100000221A600AE0604A1268042A03D1012207
:100A20005D4B1A6002E002225B4B1A60594A127851
:100A300002F00F021043584A126840EA021054496B
:100A4000091D544B0A681A601A4612781A601A4631
:100A50001278C2F30312504B1A601A461268032A26
:100A600002D100221A600AE04B4A1268042A03D11C
:100A70000122494B1A6002E00222474B1A60454AA4
:100A8000127802F00F0240EA8210434A126840EAEC
:100A900082203F49491D3F4B0A681A601A46127866
:100AA0001A601A461278C2F303123B4B1A601A46B8
:100AB0001268032A02D100221A600AE0364A12683C
:100AC000042A03D10122344B1A6002E00222324B85
:100AD0001A60304A127802F00F0240EA02302E4AC1
:100AE000128840EA02402A49891D2A4B0A681A6086
:100AF0001A4612781A601A461278C2F30312264B6D
:100B00001A601A461268032A02D100221A600AE00B
:100B1000214A1268042A03D101221F4B1A6002E005
:100B200002221D4B1A601B4A127802F00F0240EAA3
:100B30008240194A128840EA82501549C91D154B56
:100B40000A681A601A4612781A601A461278C2F3B6
:100B50000312114B1A601A461268032A02D10022AE
:100B60001A600AE00C4A1268042A03D101220A4BD7
:100B70001A6002E00222084B1A60064A127802F05C
:100B80000F0240EA0260044A127840EA027070479D
:100B9000E8F7FF1FA0000020A40000202DE9F0418D
:100BA00006460F460024284D284928680860084654
:100BB000007808600846006804436D1C28680860D7
:100BC0000846007808600846006844EA00246D1C66
:100BD000286808600846007808600846008844EAEB
:100BE00000446D1C286808600846007808600846C4
:100BF0000078C0F30310164908600846006803280F
:100C000002D1002008600AE011480068042803D1DE
:100C100001200F49086002E002200D4908600B48DE
:100C2000007800F00F0044EA00640948007844EAC4
:100C3000007437B12346324608210648006802F0A6
:100C400093FB2046BDE8F081F0F7FF1FA0000020D5
:100C5000A40000206C00002000F01F020121914040
:100C60004209920002F1E022C2F800117047000030
:100C700029B1064A92690243044B9A6104E0034A8F
:100C800092698243014B9A61704700000010024054
:100C900010B500F001F810BD0CB5002001900090D7
:100CA0003348006840F480303149086000BF304864
:100CB000006800F4003000900198401C01900098FA
:100CC00018B90198B0F5A06FF1D12948006800F477
:100CD000003010B10120009001E000200090009849
:100CE000012843D12348006840F0100021490860E2
:100CF0000846006820F0030008600846006840F0DD
:100D0000020008601A48406819494860084640686F
:100D100048600846406840F4806048600846406883
:100D200020F47C1048600846406840F4E8104860B1
:100D30000846006840F08070086000BF0C480068FA
:100D400000F000700028F9D00948406820F0030046
:100D5000074948600846406840F00200486000BF0C
:100D60000348406800F00C000828F9D10CBD0000D1
:100D700000100240002002400021094A1160094889
:100D80000160084808380160001D0160064A1160D2
:100D900006480160001D0160001D016070470000F1
:100DA0005C000020402C01406000002034340140F1
:100DB00000B587B0012148F20460FFF759FF022017
:100DC000ADF8180000208DF81B0006A94348FFF776
:100DD00071FD0420ADF8180006A94048FFF76AFD30
:100DE0000120ADF8180006A93C48FFF763FD00207C
:100DF00001908DF808008DF809004FF460200390F1
:100E00000020049001208DF8140001A93448FFF758
:100E1000E3FA02208DF8140001A93248FFF7DCFA4A
:100E200000208DF8140001A92F48FFF7D5FA0523FB
:100E3000012211462A48FFF7F7FA05230122022171
:100E40002848FFF7F1FA0523012200212648FFF781
:100E5000EBFA01212248FFF792FA01212148FFF71E
:100E60008EFA01212048FFF78AFA1D48FFF738FB68
:100E70001C48FFF735FB1C48FFF732FB00BF184842
:100E8000FFF796FA0028FAD100BF1648FFF790FA4C
:100E90000028FAD100BF1448FFF78AFA0028FAD1D7
:100EA0000F48FFF72DFB0F48FFF72AFB0E48FFF70F
:100EB00027FB00BF0A48FFF76DFA0028FAD100BFF0
:100EC0000848FFF767FA0028FAD100BF0648FFF785
:100ED00061FA0028FAD107B000BD00000008014007
:100EE0000024014000280140003C01400E480168F8
:100EF0006FF30F01016049F6991201681143016017
:100F00000A48016821F07F410160016841F0194100
:100F10000160001D016821F0FF010160016841F0DE
:100F20009901016070470000040801400010014071
:100F300000212648026842F00102026023481C306A
:100F400002686FF30D0202602048026822F001027D
:100F5000026000BF026842F0010202601B481C30C0
:100F6000026842F00302026018481430026822F05E
:100F70000302026015480C30026842F0030202606E
:100F80001248001D026822F0030202601048028825
:100F900091B200BF0F4A11600C484030042202EBAE
:100FA000C1220260001D0C4A026044F62061001D4F
:100FB000042202EBC1220260001D074A02600348BE
:100FC000026822F0010202607047000000660040E3
:100FD00000E801086C00002006F8FFFF0A480168DD
:100FE00021F470610160016841F480710160001FAB
:100FF000064A016811400160054A01681143016019
:101000000448054901607047040C0140FFF00FFFE0
:10101000000810000008014000101111234885212C
:10102000016022480C3001210160001D001D01609B
:10103000001D46F668010160001D0160001D41F2BF
:10104000111101601948283000210160001D4FF482
:101050007A610160154844304FF440410160134803
:10106000343040F2DC5101601148852101601048A4
:101070000C3001210160001D001D0160001D46F6BD
:1010800068010160001D0160001D41F21111016045
:101090000748283000210160001D4FF47A6101608B
:1010A000034844304FF4404101607047002C014038
:1010B0000034014002480068401C01490860704744
:1010C0002000002010B51348006840F001001149CD
:1010D000086008464068104908400E4948600846C4
:1010E00000680E4908400B4908600846006820F473
:1010F000802008600846406820F4FE0048604FF4F5
:101100001F008860FFF7C4FD4FF0006004490860CD
:1011100010BD0000001002400000FFF8FFFFF6FEC7
:1011200008ED00E01FB5FE4803900398006840F00A
:10113000800103980160FB480068401CF949086081
:1011400008460068012805D10398006840F0400176
:1011500003980160F3480068322806D103980068BC
:101160004FF6BF71084003990860EE480068B0F57B
:10117000E15F02D10020EB490860EB48039003983F
:10118000006820F0010103980160E848007830B35E
:10119000E548303003904FF47A7103980160E248DB
:1011A00028300390490003980160DF482C300390F9
:1011B00040F6B83103980160DD4803904FF47A712E
:1011C00003980160DA48001D03904900039801600C
:1011D000D7480830039040F6B83103980160D548ED
:1011E000007800283ED0D04830300390D2480168C3
:1011F000D248FEF7B9FF0290FFF734F80399086070
:10120000C94828300390002103980160C6482C305B
:101210000390C9480168C948FEF7A6FF0290FFF78E
:1012200021F803990860C2480390C3480168C34885
:10123000FEF79AFF0290FFF715F803990860BC4883
:10124000001D0390002103980160B9480830039005
:10125000B9480168B948FEF787FF0290FFF702F826
:1012600003990860B648007800F0800000287DD01F
:10127000B448B549096850F82100B44909680844E0
:10128000B249086008460068B0F5616F04D30846AB
:101290000068A0F561600860A34830300390AC4856
:1012A000AA49096830F811000090FEF7D6FF0190B6
:1012B000A84801680198FEF757FF0290FEF7D2FF99
:1012C00003990860984828300390A0480068A24914
:1012D000096808449E4931F810000090FEF7BDFFF0
:1012E00001909C4801680198FEF73EFF0290FEF7CE
:1012F000B9FF039908608C482C300390934800682C
:10130000964909680844924931F810000090FEF7A8
:10131000A4FF01908F4801680198FEF725FF029015
:10132000FEF7A0FF039908608D480068401C8C49B7
:101330000860084600688B490968884207D3002086
:101340008749086080480068401C7F4908607E48E3
:10135000006822280DD37A48007800F07F00784991
:10136000087000207E490860212000E002E07649F4
:101370000860F2E37248007800F0400000286AD06C
:1013800079480068002866D07048006821306F49AD
:10139000086008460068B0F5616F04D3084600682D
:1013A000A0F5616008606048303003906848674984
:1013B000096830F811000090FEF74FFF01906B486C
:1013C00001680198FEF7D0FE0290FEF74BFF0399EB
:1013D00008605548283003905C4800685E490968F9
:1013E00008445B4931F810000090FEF736FF019089
:1013F0005E4801680198FEF7B7FE0290FEF732FFE3
:101400000399086048482C300390504800685349BD
:10141000096808444E4931F810000090FEF71DFF9E
:101420000190524801680198FEF79EFE0290FEF777
:1014300019FF039908604C480068401E4A4908603B
:1014400008460068002894D13D48007800F03F002D
:101450003B49087081E33A48007800F020000028FA
:101460005CD03F4800683F490968884207D30020A4
:101470003B49086034480068401E334908603848DA
:101480000068401C364908602E482F49096850F80A
:1014900021002E49096808442C4908600846006864
:1014A000B0F5616F04D308460068A0F5616008607C
:1014B0001D483030039026482449096830F811004F
:1014C0000090FEF7CAFE0190294801680198FEF7D6
:1014D0004BFE0290FEF7C6FE0399086012482830C2
:1014E00003901A4800681C4909680844184931F8F3
:1014F00010000090FEF7B1FE01901D4801680198B0
:10150000FEF732FE0290FEF7ADFE03990860064832
:101510002C3003900D48006810492BE055E0000086
:101520000C08014034000020102C0140590000201C
:10153000343401405A0000206400002000007A4545
:1015400050000020F8300020700000205C000020D7
:10155000F8000020C4000020240000202800002003
:10156000B8000020B400002078000020C000002057
:10157000C800002009680844FE4931F810000090B6
:10158000FEF76BFE0190FC4801680198FEF7ECFD48
:101590000290FEF767FE03990860F848006800288B
:1015A00012D1F7480068F749096888420CD3F64819
:1015B000007800F01F00F44908700020F04908602E
:1015C000F2480068FFF7EAF8C7E2EF48007800F059
:1015D000100000287FD0EE48E849096850F8210043
:1015E000EC490968081AEB49086008460068B0F53C
:1015F000616F04D30846006800F561600860E64842
:101600000390DC48E349096830F811000090FEF7C8
:1016100024FE0190E14801680198FEF7A5FD0290C3
:10162000FEF720FE03990860DB4808380390D9488C
:101630000068DB4909680844CE4931F81000009081
:10164000FEF70BFE0190D54801680198FEF78CFD6E
:101650000290FEF707FE03990860CF48001F039031
:10166000CC480068CF4909680844C24931F81000E5
:101670000090FEF7F2FD0190C84801680198FEF75E
:1016800073FD0290FEF7EEFD03990860BC48006808
:10169000401CBB49086008460068BA49096888428E
:1016A00007D30020B6490860B4480068401CB3491D
:1016B0000860B2480068222886D3B348007800F05A
:1016C0000F00B14908700020AD4908602120AB49E6
:1016D000086042E2FFE7AC48007800F0080000280C
:1016E00069D0B1480068002865D0AA480068213850
:1016F000A849086008460068B0F5616F04D908463B
:10170000006800F561600860A34803909948A1490A
:10171000096830F811000090FEF79FFD0190A34882
:1017200001680198FEF720FD0290FEF79BFD0399EA
:1017300008609948083803909648006898490968F5
:1017400008448C4931F810000090FEF786FD0190A6
:10175000964801680198FEF707FD0290FEF782FDAA
:10176000039908608C48001F03908A4800688D49DF
:10177000096808447F4931F810000090FEF76DFDBC
:1017800001908A4801680198FEF7EEFC0290FEF78E
:1017900069FD0399086084480068401E824908601A
:1017A00008460068002894D17748007800F00700C8
:1017B00075490870D1E17448007800F004000028F1
:1017C0007ED06F4800686F490968884207D30020BF
:1017D0006B49086069480068401E684908606848AD
:1017E0000068401C6649086069486449096850F807
:1017F000210068490968081A6649086008460068B7
:10180000B0F5616F04D90846006800F561600860B2
:101810006148039057485F49096830F8110000900B
:10182000FEF71BFD0190544801680198FEF79CFCEF
:101830000290FEF717FD0399086057480838039097
:10184000544800685649096808444A4931F810006C
:101850000090FEF702FD0190474801680198FEF7ED
:1018600083FC0290FEF7FEFC039908604A48001FC3
:101870000390484800684B49096808443D4931F8DD
:1018800010000090FEF7E9FC01903B4801680198C8
:10189000FEF76AFC0290FEF7E5FC03990860374802
:1018A0000068002886D136480068364909688842B1
:1018B0000ED33548007800F003003349087000E08B
:1018C00007E000202E49086030480068FEF766FFF8
:1018D00043E12D48007800F00200002870D0344821
:1018E000006800286CD03348006833490968884292
:1018F00067D300202F49086026480068401E25490C
:10190000086008460068B0F5616F04D908460068B1
:1019100000F5616008602048039016481D49096879
:1019200030F811000090FEF798FC01902348016800
:101930000198FEF719FC0290FEF794FC03990860E9
:101940001548083803901348006815490968084489
:10195000084931F810000090FEF77FFC019017480D
:1019600001680198FEF700FC0290FEF77BFC0399EA
:10197000086027E0F8000020C80000207000002068
:10198000B8000020B400002050000020F00000202B
:10199000F83000205C000020402C0140C4000020F2
:1019A000240000202800002078000020C000002033
:1019B000880000209800002090000020D400002023
:1019C0003EE037E0FE48001F0390FE480068FE49F5
:1019D00009680844FD4931F810000090FEF73DFC0D
:1019E0000190FB4801680198FEF7BEFB0290FEF7EC
:1019F00039FC03990860F7480068401EF549086003
:101A000008460068B0F5617F07D8F34800780128E0
:101A100003D14FF07E50EE490860EE48006848B9A7
:101A2000EE48007800F00100EC490870EC480068CE
:101A3000FEF7B4FEEB480068401CEA4908608CE001
:101A4000E648007800F0010000287DD0E6480068F4
:101A5000002879D0E3480068E4490968884277D3D0
:101A60000020E0490860D7480068401CD54908605C
:101A700008460068B0F5616F04D308460068A0F519
:101A800061600860CE480390D048CE49096830F8BC
:101A900011000090FEF7E1FB0190D5480168019824
:101AA000FEF762FB0290FEF7DDFB03990860C44875
:101AB00008380390C3480068CE4909680844C34900
:101AC00031F810000090FEF7C8FB0190C84801688B
:101AD0000198FEF749FB0290FEF7C4FB03990860EA
:101AE000B748001F0390B7480068B7490968084421
:101AF000B64931F810000090FEF7AFFB0190BC48EA
:101B000001680198FEF730FB0290FEF7ABFB0399EA
:101B10000860B5480068401EB34908600846006880
:101B2000B0F5617F07D8B4480078012803D14FF0A1
:101B30007E50AF490860AC48006830B90020A74922
:101B40000870A748006801E007E001E0FEF726FE04
:101B5000A4480068401CA3490860A848007800F029
:101B6000800000287FD0A648A649096850F82100C7
:101B7000A54909680844A449086008460068B0F50A
:101B8000616F04D308460068A0F5616008609F4853
:101B900003908E489C49096830F811000090FEF7C8
:101BA0005CFB01909A4801680198FEF7DDFA02900B
:101BB000FEF758FB039908609448001D0390924873
:101BC0000068944909680844804931F81000009081
:101BD000FEF743FB01908E4801680198FEF7C4FAB6
:101BE0000290FEF73FFB0399086088480830039095
:101BF00085480068884909680844744931F810002C
:101C00000090FEF72AFB0190814801680198FEF7D9
:101C1000ABFA0290FEF726FB039908607F48006844
:101C2000401C7E490860084600687D490968884272
:101C300007D300207949086072480068401C714948
:101C400008607048006822280BD36C48007800F0C8
:101C50007F006A49087000207049086021206949A6
:101C60000860FAE3FFE76548007800F04000E0B361
:101C70006C480068C8B36448006821306249086055
:101C800008460068B0F5616F04D308460068A0F507
:101C9000616008605D4803904C485B49096830F812
:101CA00011000090FEF7D9FA01905F480168019891
:101CB000FEF75AFA0290FEF7D5FA039908605348E6
:101CC000001D0390504800685249096808443F4984
:101CD00031F810000090FEF7C0FA019052480168F8
:101CE0000198FEF741FA029000E02CE0FEF7BAFA04
:101CF0000399086045480830039043480068464906
:101D000009680844314931F810000090FEF7A5FA3F
:101D10000190454801680198FEF726FA0290FEF707
:101D2000A1FA039908603F480068401E3D490860D9
:101D300008460068002894D13048007800F03F0041
:101D40002E49087089E32D48007800F02000002813
:101D500035D03248006832490968884207D30020EC
:101D60002E49086027480068401E264908602B4815
:101D70000068401C2949086021482249096850F838
:101D800021002149096808441F4908600846006885
:101D9000B0F5616F04D308460068A0F56160086083
:101DA0001A48039009481849096830F81100009052
:101DB000FEF753FA01901D480168019838E087E06A
:101DC000402C01405C00002028000020F80000208A
:101DD000D40000208800002069000020500000206E
:101DE000F0000020980000208000002090000020DB
:101DF000D0000020240000206800002051000020B6
:101E0000F8300020740000206000002034340140CD
:101E1000DC0000202C00002030000020BC0000204E
:101E2000B40000207C000020D8000020E00000204A
:101E3000FEF79AF90290FEF715FA03990860FE483A
:101E40000390FE480068FE4909680844FD4931F8DE
:101E500010000090FEF701FA0190FB48016801981C
:101E6000FEF782F90290FEF7FDF903990860F24847
:101E7000001D0390F1480068F44909680844F149DD
:101E800031F810000090FEF7E8F90190EE48016883
:101E90000198FEF769F90290FEF7E4F903990860EA
:101EA000EB480068002812D1EA480068EA4909684E
:101EB00088420CD3E948007800F01F00E749087019
:101EC0000020E4490860E6480068FEF7ADFCC4E283
:101ED000E248007800F0100000287DD0E148DC499D
:101EE000096850F82100D5490968081AD3490860E3
:101EF00008460068B0F5616F04D90846006800F52F
:101F000061600860CC48001F0390CE48CB49096847
:101F100030F811000090FEF7A0F90190D248016856
:101F20000198FEF721F90290FEF79CF903990860E9
:101F3000C1480390C1480068C14909680844C149C3
:101F400031F810000090FEF788F90190C64801684A
:101F50000198FEF709F90290FEF784F903990860E9
:101F6000B548001D0390B5480068B84909680844A1
:101F7000B44931F810000090FEF76FF90190BA48AB
:101F800001680198FEF7F0F80290FEF76BF90399EB
:101F90000860B0480068401CAE4908600846006808
:101FA000AD490968884207D30020AA490860A848BB
:101FB0000068401CA6490860A5480068222886D30E
:101FC000A648007800F00F00A44908700020A1493D
:101FD000086021209E4900E001E008603DE29F4842
:101FE000007800F00800E0B3A0480068C8B3934848
:101FF000006821389149086008460068B0F5616FB3
:1020000004D90846006800F5616008608A48001F2E
:1020100003908C488949096830F811000090FEF758
:102020001CF90190924801680198FEF79DF8029012
:10203000FEF718F9039908607F4803907F4800680D
:102040007F49096808447F4931F810000090FEF785
:1020500004F90190864801680198FEF785F802901E
:1020600000E02CE0FEF7FEF8039908607248001DBE
:10207000039072480068754909680844714931F84D
:1020800010000090FEF7E9F8019079480168019886
:10209000FEF76AF80290FEF7E5F8039908607348C6
:1020A0000068401E7149086008460068002895D104
:1020B0006A48007800F0070068490870CDE1674879
:1020C000007800F0040000287ED062480068624971
:1020D0000968884207D300205E4908605C480068B0
:1020E000401E5B4908605B480068401C5949086015
:1020F0005C485749096850F8210050490968081A96
:102100004E49086008460068B0F5616F04D908467A
:10211000006800F5616008604748001F0390494867
:102120004649096830F811000090FEF796F80190D2
:10213000454801680198FEF717F80290FEF792F8FB
:10214000039908603C4803903C4800683C49096892
:1021500008443C4931F810000090FEF77EF80190E9
:10216000394801680198FDF7FFFF0290FEF77AF801
:10217000039908603048001D0390304800683349D7
:10218000096808442F4931F810000090FEF765F8FF
:1021900001902D4801680198FDF7E6FF0290FEF7D7
:1021A00061F8039908602A480068002886D1294808
:1021B00000682949096888420ED32848007800F051
:1021C00003002649087000E007E00020214908606C
:1021D00023480068FEF728FB3FE12048007800F024
:1021E0000200002826D02348006818B3224800685F
:1021F0002249096888427CD300201F4908600F48A3
:102200000068401E0D49086008460068B0F5616F1F
:1022100004D90846006800F5616008600648001FA0
:10222000039008480549096830F811000090FEF74E
:1022300014F825E087E000003834014060000020F9
:102240002C000020F8000020E000002030000020DA
:1022500074000020BC000020B400002051000020C9
:10226000F4000020F8300020DC0000207C0000207A
:10227000D80000208C0000209C000020940000204A
:1022800001908D4801680198FDF76EFF0290FDF7FF
:10229000E9FF0399086089480390894800688949E3
:1022A00009680844884931F810000090FDF7D5FF0F
:1022B0000190814801680198FDF756FF0290FDF7F3
:1022C000D1FF039908607D48001D03907C48006899
:1022D0007E49096808447C4931F810000090FDF7F8
:1022E000BCFF0190744801680198FDF73DFF029022
:1022F00000E022E0FDF7B6FF03990860744800682B
:10230000401E7349086008460068B0F5617F07D831
:1023100070480078012803D14FF07E50664908606C
:102320006B48006848B96C48007800F001006A49C1
:1023300008706A480068FEF777FA69480068401C30
:102340006749086089E06448007800F00100E0B364
:1023500064480068C8B362480068634909688842F5
:1023600076D300205E49086055480068401C5449F7
:10237000086008460068B0F5616F04D3084600683D
:10238000A0F5616008604D48001F03904E484C491D
:10239000096830F811000090FDF75FFF0190534885
:1023A00001680198FDF7E0FE0290FDF75BFF0399DD
:1023B000086042480390424800684249096808445E
:1023C000414931F81000009000E046E0FDF745FF7C
:1023D0000190464801680198FDF7C6FE0290FDF79E
:1023E00041FF039908603548001D03903448006898
:1023F000364909680844344931F810000090FDF767
:102400002CFF0190394801680198FDF7ADFE02905C
:10241000FDF728FF0399086032480068401E3149E3
:10242000086008460068B0F5617F07D8304800783A
:10243000012803D14FF07E502C49086029480068DC
:1024400030B900202449087024480068FEF7ECF9F0
:1024500023480068401C224908602648007808B3D9
:102460000020244908702448006824490860244852
:1024700000681E490860204800682249086020481A
:1024800000680D49086020480078204908702048FD
:1024900000781149087000201B4908701C49087019
:1024A000144908701B4803900398006820F08001CD
:1024B000039801601FBD0000EC000020383401408B
:1024C000600000202C000020F800002030000020D8
:1024D0008C0000206B00002051000020F400002040
:1024E0009C0000208400002094000020E8000020D0
:1024F0006A00002054000020CC000020D000002002
:10250000E4000020D40000205200002050000020F1
:10251000530000200C0801400B48006800F0010047
:1025200080B10948006840F001000749086006488A
:102530000C30006820F0010003490C3108600120D4
:102540000249086070470000086400401400002041
:1025500000B50648006800F0030028B10448FDF704
:10256000D5FF01200349086000BD00000C64004055
:10257000903100201800002002E008C8121F08C196
:10258000002AFAD170477047002001E001C1121FF4
:10259000002AFBD1704710B5FEF712F8FEF770F86D
:1025A000FEF780F810BD000010B502461C4900BFC0
:1025B0001C4BDB6803F00103002BF9D11A4B194CBB
:1025C00063601A4B636023461B6943F00203236177
:1025D000134B636123461B6943F04003236100BF33
:1025E000104BDB6803F00103002BF9D10D4B1B6985
:1025F00023F002030B4C236123461B6943F00103C4
:1026000023610A8000BF074BDB6803F00103002B46
:10261000F9D1044B1B6923F00103024C236110BD67
:1026200000E801080020024023016745AB89EFCD97
:1026300086B0002400BFFE4D4AF63D71286808436D
:102640002860FEF7CBFCFB4800684FF47A72B0FBC1
:10265000F2F1481EB0F1807F00D31BE0481E4FF01E
:10266000E022506150170F22002807DA13071F0ECF
:10267000F14B00F00F06361F9F5503E013071E0EA7
:10268000EE4B1E5400BF00204FF0E0229061072067
:10269000106100BFFFF77FFFFEF74AFCFEF726FC44
:1026A000FEF7BCFCFEF768FBE54D002304214FF468
:1026B0007C702A6800F058FEE14D0C3D0023042197
:1026C00040F2F1302A6800F04FFE6420FEF75AF81D
:1026D000DB4D0023042140F2F2302A6800F044FE72
:1026E000286840F0200028600023042140F2F330E5
:1026F0002A6800F039FE1920012181404209920028
:1027000002F1E022C2F8001100BFFEF751FBCD48F4
:10271000FEF75BF900F01CFEE9E30027002600202D
:1027200002900190FEF72EF8C748006800287DD17E
:10273000C64908600024A2E000BFC5480068002820
:10274000FBD00020C24908600290C24800EB041090
:10275000DFF804C3DCE90023DCE9021CC0E9021C49
:102760000CC0BC4800EB04100078BA4901EB04111E
:1027700007460860042F76D1B64800EB04100079B4
:10278000C0F301100190019820B101280DD002285A
:1027900067D134E001200290B048008884B2012063
:1027A000AE490860AE4908605BE0AA4800EB04103F
:1027B0000179A84800EB041040794FF4803202FB05
:1027C0000011A44800EB04108079121202FB0011E2
:1027D000A04800EB0410C07901449E4800EB0410AF
:1027E000007A02FB00119B4800EB0410407A084479
:1027F00038449649096808449449086031E0601CEF
:1028000096490860934800EB04100179914800EB69
:10281000041040794FF4803202FB00118D4800EB28
:1028200004108079121202FB001100E02FE08948A9
:1028300000EB0410C0790144864800EB0410007AD4
:1028400002FB0011834800EB0410407A084438442E
:102850007E49096808447D4908608048008884B240
:1028600000BF0AE0FFE7012002907C48008884B2A4
:1028700001207A4908607A490860601C84B2774870
:1028800000688442FFF658AF01206F490860704825
:10289000006800285FD06C48006800285BD00020EA
:1028A0006B4908606C4800786B4907460860072F41
:1028B00002D1012002904EE00D2F20D10020694965
:1028C00008606948007810B96848007810B10120A4
:1028D000644908606648007828B96648007810B9ED
:1028E0006548007810B101205E49086000235D480A
:1028F000012102686148006800F036FD2BE0082FD6
:1029000029D15548007901065348407901EB00412F
:102910005148807901EB00214F48C0790844514962
:1029200008600846006849490968884204D10126C0
:1029300001204B49086003E002260020424908605C
:1029400033464248052102684C48006800F00CFDFF
:1029500000203E4908603C480068002866D000F02E
:10296000F7FC10B902980028F8D03D48006800280C
:10297000F4D0002002903A4908600024FEE3354874
:1029800000EB04100078334901EB0411074608609E
:10299000B81E18284BD2DFE800F00CACBFFDFCFBE2
:1029A000FAF9F8F7F6F5F4F3F2F1F0EFEEEDECEBFF
:1029B000EAE9284901EB04110879FDF74EFC30499A
:1029C0000090FDF703FC2F490860084600682E4977
:1029D0000860204901EB04114879FDF73EFC2849C5
:1029E0000090FDF7F3FB294908601A4901EB041137
:1029F0008879FDF732FC22490090FDF7E7FB244976
:102A00000860144901EB0411C879FDF726FC1C4944
:102A10000090FDF7DBFB1F4908600E4901EB041134
:102A2000087AFDF71AFC1649009035E0FDE38DE2C7
:102A3000181002400000002018ED00E000E400E063
:102A40000C0C0140003C014038000020A800002090
:102A500018000020A031002090310020400000200C
:102A6000AC000020A00000205000002051000020F9
:102A70005400002055000020560000206C0000206B
:102A80000000C842C4000020C8000020C000002090
:102A9000CC000020F0000020FDF798FBFD49086005
:102AA00008460068FC490860FC4901EB0411487ABB
:102AB000FDF7D3FBFA490090FDF788FBF949086060
:102AC000F64901EB0411887AFDF7C7FBF449009041
:102AD000FDF77CFBF4490860F04901EB0411C87A6A
:102AE000FDF7BBFBEE490090FDF770FBEF49086076
:102AF000E5E3EA4800EB04100079ED490860E74897
:102B000000EB04104079EB490860E44800EB041046
:102B10008079E9490860D2E3E04800EB04100079CD
:102B200000F00F06DD4800EB04100079C0F301103F
:102B30000190042E3ED1D94800EB041040790104E5
:102B4000D64800EB0410807901EB0021D34800EB5C
:102B50000410C0790844D949086008460068D8497B
:102B6000086000BFCD4800EB041014E0A0E361E36F
:102B700034E3EFE2DDE2C1E2B8E2A9E296E280E20C
:102B80007EE26BE24FE241E21CE20EE201E2F2E1A0
:102B9000EEE1E4E1DBE1417AC04800EB0410007AA9
:102BA00001EB0020C74908600120C7490870C749E8
:102BB000087045E1052E28D1B84800EB0410407993
:102BC0000104B64800EB0410807901EB0021B34802
:102BD00000EB0410C0790844BD490860084600684D
:102BE000B7490860AD4800EB0410417AAB4800EBF0
:102BF0000410007A01EB0020B24908600120B249BC
:102C000008700220B14908701AE1062E29D1A348A4
:102C100000EB041040790104A04800EB0410807917
:102C200001EB00219D4800EB0410C0790844A9493C
:102C3000086008460068A249086000BF974800EB9A
:102C40000410417A954800EB0410007A01EB002053
:102C50009C49086001209C490870E0209B4908704D
:102C6000EEE0072E29D18D4800EB041040790104D5
:102C70008A4800EB0410807901EB0021874800EBC3
:102C80000410C079084493490860084600688C49DC
:102C900008600626814800EB0410417A7F4800EB6B
:102CA0000410007A01EB0020864908600120864963
:102CB00008701C2085490870C2E046BB774800EBCD
:102CC000041040790104754800EB0410807901EB91
:102CD0000021724800EB0410C07908447E49086066
:102CE000084600687649086000266C4800EB04102E
:102CF000417A6A4800EB0410007A01EB0020714928
:102D000008600120754908707549087098E0012E27
:102D100029D1624800EB0410407901045F4800EBC0
:102D20000410807901EB00215C4800EB0410C079AD
:102D300008446C490860084600686149086000BFA3
:102D4000564800EB0410417A544800EB0410007A16
:102D500001EB00205B4908600120604908700220F7
:102D60005F4908706CE0022E29D14C4800EB04103A
:102D700040790104494800EB0410807901EB0021FF
:102D8000464800EB0410C0790844574908600846DB
:102D900000684B49086000BF404800EB0410417ACE
:102DA0003E4800EB0410007A01EB00204549086022
:102DB00001204A490870E0204949087040E0032E8C
:102DC00029D1364800EB041040790104334800EB68
:102DD0000410807901EB0021304800EB0410C07929
:102DE00008444149086008460068354908600226E1
:102DF0002A4800EB0410417A284800EB0410007ABE
:102E000001EB00202F4908600120344908701C2084
:102E10003349087014E0082E12D1204800EB04104A
:102E2000417A1E4800EB0410007A01EB002025498E
:102E3000086008460068FDF7A5FC002021490860ED
:102E40002648007810B12048007808B9019800BBE6
:102E50002548006828B92248007800F0B7002049CA
:102E600008701D48006828B91D48007800F0FE0071
:102E70001B4908701B48006828B91948007800F001
:102E8000FD00174908701348006878BB0F480078A8
:102E90002EE05BE0DC000020E0000020A0310020FC
:102EA0000000C842D8000020E4000020F400002008
:102EB0009000002094000020B40000208400002036
:102EC000A0000020480000205800002053000020EF
:102ED0008C0000207C000020800000205700002093
:102EE00052000020880000207800002004E0F5E176
:102EF00000F0B700FA490870FA48006828B9F848A5
:102F0000007800F0FE00F6490870F748006828B91C
:102F1000F348007800F0FD00F14908700120F34902
:102F2000087000BFF14800780028FBD1F048007815
:102F30000028F7D1EF4800780028F3D1EE49087057
:102F4000EE490870EE480068FDF71CFCB7E1ED485B
:102F500000EB04100679304600F042FAAFE1EA488F
:102F6000007808B9012000E00020E7490870A6E1D8
:102F700001200290A3E1E5480068E54908600326C6
:102F80003346084605210268E248006800F0ECF983
:102F900095E1E148FDF719FD039000230221DD488A
:102FA000039A006800F0E0F989E1DA480068D8493E
:102FB00008600023084602210268D648006800F035
:102FC000D3F97CE1D3480068D4490860002405E0C7
:102FD0000021D248001D0155601C84B2082CF7DB8B
:102FE0000220CE4908730120487300208873CC4822
:102FF000006850B10020CA4908600120C749087123
:103000000321C6484171FDF75DFB58E1C5480078D2
:10301000BF4908600023084601210268BD480068D6
:1030200000F0A2F94BE10020B9490860B0480078EF
:1030300010B9B048007810B10120B5490860AB481C
:10304000007810B10120B24908600023B048012186
:103050000268B048006800F087F930E1B248FDF737
:10306000B4FC0590B148FDF7B0FC049008210220A3
:10307000DDE9043200F078F90020059004901EE1AB
:103080001DE1A04901EB041149799E4A02EB0412AB
:1030900012794FF4807303FB0210FDF7D5F8A449B1
:1030A0000090FDF793F8A349086008E1A24D984904
:1030B000286808602D1DA149286808600846036833
:1030C0009348082102689348006800F04DF9F6E043
:1030D000994D08358E492868086000230846042168
:1030E00002688C48006800F03FF9E8E0FDF77EFCDC
:1030F000814601214846FDF751FDE0E09048006817
:1031000088B1804800EB041040797E4901EB04113E
:1031100009794FF4807202FB01007E49086009883A
:1031200088B2FFF741FA002085490860FDF700FFEB
:10313000C5E0844D7649286808600846008880B25A
:10314000086000230846022102687248006800F007
:103150000BF9B4E0784D6E49286808602D1D774959
:1031600028680860674800EB0410007A010665488B
:1031700000EB0410407A01EB004100E0A2E061485E
:1031800000EB0410807A01EB00215E4800EB041094
:10319000C07A01EB000A5B4800EB041000790106DD
:1031A000584800EB0410407901EB0041554800EB12
:1031B0000410807901EB0021524800EB0410C07923
:1031C00001EB000B52480068504506D15B4800688F
:1031D000584502D101205A49086070E0564D083523
:1031E0004B4928680860474800EB04100079010645
:1031F000444800EB0410407901EB0041414800EBEA
:103200000410807901EB00213E4800EB0410C079E6
:1032100001EB000A3E480068504507D14848006865
:10322000012803D14649086003E056E000204449E4
:10323000086044E0FDF7DAFB814600214846FDF7CF
:10324000ADFC80462F4800EB0410007A01062D48A3
:1032500000EB0410407A01EB00412A4800EB041017
:10326000807A01EB0021274800EB0410C07A01EBC3
:10327000000A244800EB041000790106214800EB05
:103280000410407901EB00411E4800EB04108079E6
:1032900001EB00211B4800EB0410C07901EB000B8F
:1032A000D14504D1D84502D101202549086006E066
:1032B000144800EB041000791A49087000BF00BFE1
:1032C000601C84B2204800688442FFF658AB00209E
:1032D0001E49086064201C49086000BFFFF71DBA42
:1032E00053000020840000208C00002054000020A7
:1032F00050000020510000205800002057000020FE
:1033000048000020A031002059000020A800002023
:10331000A00000206C000020003C01408031002013
:10332000140000205A000020002401400028014021
:1033300000FF7F4764000020E8F7FF1FA400002083
:103340003C00002000E80108400000203800002078
:1033500000200449096801F0040109B1012000E0DE
:1033600000207047080C01402DE9F04107468846CF
:1033700014461D46FFF70FF917480760002604E0C2
:1033800000211548001D8155761C082EF8DB1249D6
:1033900081F80C8001204873002088730F48006872
:1033A000B8B100200D4908600B490C71210A0A4888
:1033B0004171210C8171210EC1710572290A41727E
:1033C000290C8172290EC172FDF77CF90120034995
:1033D0000860BDE8F081000080310020140000206A
:1033E00001461348012904D1026842F0300202600C
:1033F0001DE0022909D1026842F0100202604FF676
:10340000DF7302681A40026011E0032909D10268E3
:1034100042F0200202604FF6EF7302681A40026029
:1034200005E021B94FF6CF7302681A400260704779
:103430000C080140543400000000002080310000DE
:1034400020030000984F000080310020600A000037
:1034500088250000500600A24A040001D00A01029B
:10346000030406070809000112601283B00408A1D2
:103470001C032464000112010283FFFF3843B80BD0
:1034800004C3409C0443020004011A4CB20C9E3059
:1034900006403F000080040005209A99993E18419B
:1034A000800316A00F0202119F02929E02729D02DB
:1034B000729C02529B02529A023299023298023254
:1034C000970232960232950232940212930232929D
:1034D00002129102129002128F02128E02328D029B
:1034E000128C02128B02128A021004890F880212B7
:1034F00087021286021285021004840F8302128250
:10350000021004810F8002127F0210047E0F7D02E0
:1035100010047C0F7B0210047A0F79021006780FDA
:10352000770F76021004750F74021006730F720F76
:1035300071021006700F6F0F6E0210086D0F6C0F86
:103540006B0F6A02100A690F680F670F660F65023A
:10355000100C640F630F620F610F600F5F02101891
:103560005E0F5D0F5C0F5B0F5A0F590F580F570F0F
:10357000560F550F540F530200FF00520F510F50BA
:103580000F4F0F4E0F4D0F4C0F4B0F4A0F490F4867
:103590000F470F460F440F430F420F410F400F3F9D
:1035A0000F3E0F3D0F3C0F3B0F3A0F390F380F36D0
:1035B0000F350F340F330F320F310F300F2E0F2D09
:1035C0000F2C0F2B0F2A0F290F270F260F250F2443
:1035D0000F230F210F200F1F0F1E0F1C0F1B0F1A81
:1035E0000F190F170F160F150F140F120F110F10C1
:1035F0000F0E0F0D0F0C0F0A0F090F080F060F0506
:103600000F040F020F010F000FFE0EFD0EFC0EFA4D
:103610000EF90EF70EF60EF50EF30EF20EF00EEF9B
:103620000EED0EEC0EEA0EE90EE80EE60EE50EE3E8
:103630000EE20EE00EDF0EDD0EDC0EDA0ED90ED736
:103640000ED60ED40ED30ED10ECF0ECE0ECC0ECB88
:103650000EC90EC80EC60EC40EC30EC10EC00EBEDD
:103660000EBC0EBB0EB90EB80EB60EB40EB30EB134
:103670000EAF0EAE0EAC0EAA0E00FF00A90EA70EE6
:10368000A50EA40EA20EA00E9E0E9D0E9B0E990ED0
:10369000980E960E940E920E910E8F0E8D0E8B0E2E
:1036A000890E880E860E840E820E810E7F0E7D0E90
:1036B0007B0E790E770E760E740E720E700E6E0EF5
:1036C0006C0E6B0E690E670E650E630E610E5F0E5B
:1036D0005D0E5B0E5A0E580E560E540E520E500EC4
:1036E0004E0E4C0E4A0E480E460E440E420E400E32
:1036F0003E0E3C0E3A0E380E360E340E320E300EA2
:103700002E0E2C0E2A0E280E260E240E220E200E11
:103710001E0E1C0E1A0E180E160E140E110E0F0E83
:103720000D0E0B0E090E070E050E030E010EFE0DFB
:10373000FC0DFA0DF80DF60DF40DF20DEF0DED0D7B
:10374000EB0DE90DE70DE40DE20DE00DDE0DDC0DF6
:10375000D90DD70DD50DD30DD10DCE0DCC0DCA0D74
:10376000C80DC50DC30DC10DBF0DBC0DBA0DB80DF3
:10377000B50DB30DB10DAF0DAC0D00FF00AA0DA836
:103780000DA50DA30DA10D9E0D9C0D9A0D970D95E8
:103790000D930D900D8E0D8B0D890D870D840D826F
:1037A0000D800D7D0D7B0D780D760D740D710D6FF7
:1037B0000D6C0D6A0D670D650D630D600D5E0D5B83
:1037C0000D590D560D540D510D4F0D4C0D4A0D4711
:1037D0000D450D420D400D3D0D3B0D380D360D33A1
:1037E0000D310D2E0D2C0D290D270D240D210D1F32
:1037F0000D1C0D1A0D170D150D120D0F0D0D0D0AC7
:103800000D080D050D020D000DFD0CFB0CF80CF55F
:103810000CF30CF00CED0CEB0CE80CE60CE30CE0FC
:103820000CDE0CDB0CD80CD60CD30CD00CCE0CCB95
:103830000CC80CC50CC30CC00CBD0CBB0CB80CB533
:103840000CB20CB00CAD0CAA0CA80CA50CA20C9FD1
:103850000C9D0C9A0C970C940C920C8F0C8C0C8970
:103860000C860C840C810C7E0C7B0C780C760C7313
:103870000C700C6D0C6A0C680C650C00FF00620C7F
:103880005F0C5C0C590C570C540C510C4E0C4B0C2F
:10389000480C450C430C400C3D0C3A0C370C340CD6
:1038A000310C2E0C2B0C290C260C230C200C1D0C7F
:1038B0001A0C170C140C110C0E0C0B0C080C060C2B
:1038C000030C000CFD0BFA0BF70BF40BF10BEE0BDA
:1038D000EB0BE80BE50BE20BDF0BDC0BD90BD60B8C
:1038E000D30BD00BCD0BCA0BC70BC40BC10BBE0B3C
:1038F000BB0BB80BB50BB20BAF0BAC0BA90BA60BEC
:10390000A30BA00B9D0B9A0B970B940B900B8D0B9D
:103910008A0B870B840B810B7E0B7B0B780B750B53
:10392000720B6F0B6B0B680B650B620B5F0B5C0B09
:10393000590B560B530B500B4C0B490B460B430BBF
:10394000400B3D0B3A0B360B330B300B2D0B2A0B78
:10395000270B240B200B1D0B1A0B170B140B110B31
:103960000D0B0A0B070B040B010BFD0AFA0AF70AF1
:10397000F40AF10AED0AEA0AE70AE40A00FF00E1A4
:103980000ADD0ADA0AD70AD40AD10ACD0ACA0AC756
:103990000AC40AC00ABD0ABA0AB70AB30AB00AAD15
:1039A0000AAA0AA70AA30AA00A9D0A990A960A93D4
:1039B0000A900A8C0A890A860A830A7F0A7C0A7995
:1039C0000A750A720A6F0A6C0A680A650A620A5E58
:1039D0000A5B0A580A550A510A4E0A4B0A470A441A
:1039E0000A410A3D0A3A0A370A330A300A2D0A29DF
:1039F0000A260A230A1F0A1C0A190A150A120A0FA4
:103A00000A0B0A080A050A010AFE09FB09F709F46C
:103A100009F109ED09EA09E609E309E009DC09D938
:103A200009D609D209CF09CC09C809C509C109BEFF
:103A300009BB09B709B409B009AD09AA09A609A3C8
:103A4000099F099C099909950992098F098B098891
:103A500009840981097D097A097709730970096C5C
:103A6000096909660962095F095B09580954095126
:103A7000094E094A094709430940093C0900FF006A
:103A80003909360932092F092B0928092409210986
:103A90001E091A091709130910090C090909050952
:103AA0000209FF08FB08F808F408F108ED08EA0825
:103AB000E608E308DF08DC08D908D508D208CE08F4
:103AC000CB08C708C408C008BD08B908B608B208C2
:103AD000AF08AB08A808A508A1089E089A0897088F
:103AE000930890088C088908850882087E087B085E
:103AF0007708740870086D086908660862085F082E
:103B00005C085808550851084E084A0847084308F9
:103B100040083C083908350832082E082B082708C9
:103B2000240820081D081908160812080F080B0899
:103B3000080804080108FD07FA07F607F307EF076E
:103B4000EC07E807E507E107DE07DA07D707D30741
:103B5000D007CD07C907C607C207BF07BB07B8070D
:103B6000B407B107AD07AA07A607A3079F079C07DD
:103B70009807950791078E078A078707830700FF35
:103B80000080077C077907750772076E076B076768
:103B900007640760075D075907560752074F074B31
:103BA000074807440741073E073A073707330730FE
:103BB000072C072907250722071E071B07170714CD
:103BC0000710070D07090706070207FF06FB06F89F
:103BD00006F506F106EE06EA06E706E306E006DC71
:103BE00006D906D506D206CE06CB06C706C406C140
:103BF00006BD06BA06B606B306AF06AC06A806A50D
:103C000006A1069E069B069706940690068D0689D9
:103C100006860682067F067C067806750671066EA5
:103C2000066A066706640660065D06590656065271
:103C3000064F064C064806450641063E063A06373C
:103C400006340630062D062906260623061F061C06
:103C5000061806150611060E060B060706040601D1
:103C600006FD05FA05F605F305F005EC05E905E5A1
:103C700005E205DF05DB05D805D405D105CE050035
:103C8000FF00CA05C705C405C005BD05BA05B605D0
:103C9000B305AF05AC05A905A505A2059F059B05C4
:103CA0009805950591058E058B0587058405810589
:103CB0007D057A057705730570056D05690566054F
:103CC00063055F055C055905550552054F054B0514
:103CD0004805450542053E053B05380534053105D7
:103CE0002E052B052705240521051D051A05170599
:103CF000140510050D050A05070503050005FD045B
:103D0000F904F604F304F004ED04E904E604E30422
:103D1000E004DC04D904D604D304CF04CC04C904E1
:103D2000C604C304BF04BC04B904B604B304AF049E
:103D3000AC04A904A604A3049F049C04990496045B
:103D400093048F048C0489048604830480047C0417
:103D500079047604730470046D046A0466046304D1
:103D600060045D045A045704540450044D044A048A
:103D70004704440441043E043B0438043504310440
:103D800000FF002E042B042804250422041F041C19
:103D90000419041604130410040C04090406040393
:103DA000040004FD03FA03F703F403F103EE03EB4D
:103DB00003E803E503E203DF03DC03D903D603D3FF
:103DC00003D003CD03CA03C703C403C103BE03BBAF
:103DD00003B803B503B203AF03AC03A903A603A35F
:103DE00003A0039D039A039803950392038F038C0A
:103DF0000389038603830380037D037A03770375B6
:103E00000372036F036C0369036603630360035D5E
:103E1000035B035803550352034F034C0349034705
:103E200003440341033E033B0338033603330330AB
:103E3000032D032A032803250322031F031C031A4F
:103E4000031703140311030E030C030903060303F2
:103E5000030103FE02FB02F802F602F302F002EE97
:103E600002EB02E802E502E302E002DD02DB02D837
:103E700002D502D202D002CD02CA02C802C502C2D5
:103E80000200FF00C002BD02BA02B802B502B302CE
:103E9000B002AD02AB02A802A502A302A0029E02DC
:103EA0009B0298029602930291028E028B02890273
:103EB0008602840281027F027C0279027702740208
:103EC00072026F026D026A0268026502630260029A
:103ED0005E025B0259025602540251024F024C022A
:103EE0004A0247024502420240023D023B023902B9
:103EF0003602340231022F022C022A022802250245
:103F0000230220021E021C021902170215021202CD
:103F100010020D020B020902060204020202FF0156
:103F2000FD01FB01F801F601F401F101EF01ED01E2
:103F3000EB01E801E601E401E101DF01DD01DB0164
:103F4000D801D601D401D201CF01CD01CB01C901E5
:103F5000C701C401C201C001BE01BC01B901B70162
:103F6000B501B301B101AE01AC01AA01A801A601DE
:103F7000A401A2019F019D019B0199019701950157
:103F800093011C9891018F018C018A01880186019F
:103F90008401820180017E017C017A017801760131
:103FA0007401720170016E016C016A0168016601A1
:103FB0006401620160015E015C015A015801560111
:103FC0005401520150014E014C014A014801460181
:103FD0004501430141013F013D013B0139013701E9
:103FE00035013401320130012E012C012A01290151
:103FF00027012501230121011F011E011C011A01B6
:10400000180117011501130111010F010E010C0117
:104010000A01080107010501030102550C1CDCFE21
:1040200000FC00FB00F900F700F600F400F200F1DC
:1040300000EF00ED00EC00EA00E800E700E500E436
:1040400000E200E000DF00DD00DC00DA00D800D78D
:1040500000D500D400D200D100CF00CD00CC00CAE2
:1040600000C900C700C600C400C300C100C000BE34
:1040700000BD00BB00BA00B800B700B600B400B382
:1040800000B100B000AE00AD00AB00AA00A900A7CF
:1040900000A600A400A300A200A0009F009E009C18
:1040A000009B009A0098009700960094009300925D
:1040B0000090008F008E008C008B008A00890087A2
:1040C000008600850084008200810080007F007DE2
:1040D000007C007B007A0079007700760075007420
:1040E000007300720070006F006E006D006C006B5A
:1040F000006A00680067006600655C0D102C6300B4
:104100006200610060005F005E005D005C005A00BC
:1041100059005800570056005500540053005200F3
:10412000510050004F004E004D0210184C004B0043
:104130004A0049004800470046004500440043004B
:1041400042004102100C40003F003E003D003C0098
:104150003B02100A3A0039003800370036021008D6
:1041600035003400330032021006310030002F02D7
:1041700010062E002D002C0210042B002A0210061F
:10418000290028002702100426002502100424001C
:10419000230210042200210212200210041F001E1C
:1041A00002121D0210041C001B02121A0212190234
:1041B000121802100417001602121502121402320D
:1041C00013021212021211021210021DB50B33005B
:1041D0000E021DC5091DD40D2102320B02320A0246
:1041E00032090232080232070252060252050272F6
:1041F0000402720302920202021101020130010163
:104200001246A166817C819061A261B241C041CC1D
:1042100041D841E441F041FC25064510251A2522EC
:10422000252A2532453C2546254E2556361762253A
:104230006A2572257A361C86258E361F9A25A23667
:1042400022AE3624BA3626C61628D025D6362BE21C
:10425000162DEC25F21630FC29021A330C3A3516CD
:104260001A37201A3928292E1A3C381A3E403A406B
:104270004A1A42541A445C1A46641A486C1A4A7420
:104280003A4C7E1A4E881A50901A52981A54A01A14
:1042900056A81A58B01A5AB81A5DC01A5FC81A61DF
:1042A000D01A63D81A65E01A67E81A6AF01A6CF82F
:1042B0001E6E00031E7008031E7310031E75180384
:1042C0001E7720031E7A28031E7C30031E7F3803CE
:1042D0001E8140031E8448031E8650031E89580316
:1042E0001E8B60031E8E68031E9070031E9378035E
:1042F0001E9680031E9888031E9B90031E9E9803A3
:104300001EA0A0031EA3A8031EA6B0031EA9B803E7
:104310001EABC0031EAEC8031EB1D0031EB4D8032B
:104320001EB7E0031EBAE8031EBDF0031EC0F8036B
:104330001EC300041EC608041EC910041ECC1804A7
:104340001ECF20041ED228041ED530041ED83804E7
:104350001EDC40041EDF48041EE250041EE5580423
:104360001EE860041EEC68041EEF70041EF2780460
:104370001EF680041EF988042C04FC00FE47111D63
:104380009C041E05A4041E08AC041E0CB4041E0FDD
:10439000BC041E13C4041E17CC041E1AD4041E1E13
:1043A000DC041E21E4041E25EC041E29F4041E2C4A
:1043B000FC041E3004051E340C051E3714051E3B7C
:1043C0001C051E3F24051E432C051E4634051E4AAF
:1043D0003C051E4E44051E524C051E5654051E5AE1
:1043E0005C051E5E64051E626C051E6674051E6A11
:1043F0007C051E6E84051E728C051E7694051E7A41
:104400009C051E7EA4051E82AC051E86B4051E8A70
:10441000BC051E8FC4051E93CC051E97D4051E9B9C
:10442000DC051E9FE4051EA4EC051EA8F4051EACC9
:10443000FC051EB104061EB50C061EB914061EBEF0
:104440001C061EC224061EC72C061ECB34061ECF19
:104450003C061ED444061ED84C061EDD54061EE142
:104460005C061EE664061EEB6C061EEF74061EF468
:104470007C061EF884061C06FD01FF010294061E40
:10448000069C061E0BA4061E10AC061E15B4061EC6
:1044900019BC061E1EC4061E23CC061E28D4061EEA
:1044A0002CDC061E31E4061E36EC061E3BF4061E0E
:1044B00040FC061E4504071E4A0C071E4F14071E2B
:1044C000541C071E5924071E5E2C071E6334071E4A
:1044D000683C071E6D44071E724C071E7754071E6A
:1044E0007C5C071E8164071E866C071E8B74071E8A
:1044F000917C071E9684071E9B8C071EA094071EA6
:10450000A59C071EABA4071EB0AC071EB5B4071EC2
:10451000BABC071EC0C4071EC5CC071ECAD4071EDE
:10452000D0DC071ED5E4071EDBEC071EE0F4071EF7
:10453000E5FC071EEB04081EF00C081EF614081418
:1045400004FB02FEC31E0328081E0930081E0E3895
:10455000081E1440081E1A48081E1F50081E255821
:10456000081E2A60081E3068081E3670081E3B7838
:10457000081E4180081E4788081E4C90081E52984D
:10458000081E58A0081E5DA8081E63B0081E69B862
:10459000081E6FC0081E75C8081E7AD0081E80D875
:1045A000081E86E0081E8CE8081E92F0081E98F887
:1045B000081E9D00091EA308091EA910091EAF1898
:1045C000091EB520091EBB28091EC130091EC738A7
:1045D000091ECD40091ED348091ED950091EDF58B7
:1045E000091EE560091EEB68091EF170091EF778C7
:1045F000091EFD7D041DBC131D8C091E0C94091E93
:10460000139C091E19A4091E1FAC091E25B4091EFE
:104610002BBC091E31C4091E38CC091E3ED4091E0C
:1046200044DC091E4AE4091E50EC091E57F4091E19
:104630005DFC091E63040A1E6A0C0A1E70140A1E21
:10464000761C0A1E7C240A1E832C0A1E89340A1E2C
:104650008F3C0A1E96440A1E9C4C0A1EA3540A1E36
:10466000A95C0A1EAF640A1EB66C0A1EBC740A1E40
:10467000C37C0A1EC9840A1ECF8C0A1ED6940A1E49
:10468000DC9C0A1EE3A40A1EE9AC0A1EF0B40A1E52
:10469000F6BC0A1EFD15051E03CC0A1E0AD40A1E0E
:1046A00010DC0A1E17E40A1E1DEC0A1E24F40A1E62
:1046B0002BFC0A1E31040B1E380C0B1E3E140B1E65
:1046C000451C0B1E4B240B1E522C0B1E59340B1E6B
:1046D0005F3C0B1E66440B1E6D4C0B1E73540B1E71
:1046E0007A5C0B1E81640B1E876C0B1E8E740B1E76
:1046F000957C0B1E9B840B1EA28C0B1EA9940B1E7B
:10470000AF9C0B1EB6A40B1EBDAC0B1EC4B40B1E7F
:10471000CABC0B1ED1C40B1ED8CC0B1EDFD40B1E83
:10472000E5DC0B1EECE40B1EF3EC0B1C06FA05FD9E
:104730000501FC0B1E07040C1E0E0C0C1E15140CA0
:104740001E1C1C0C1E23240C1E292C0C1E30340C89
:104750001E373C0C1E3E440C1E454C0C1E4C540C8B
:104760001E525C0C1E59640C1E606C0C1E67740C8F
:104770001E6E7C0C1E75840C1E7C8C0C1E82940C90
:104780001E899C0C1E90A40C1E97AC0C1E9EB40C93
:104790001EA5BC0C1EACC40C1EB3CC0C1EBAD40C93
:1047A0001EC1DC0C1EC7E40C1ECEEC0C1ED5F40C96
:1047B0001EDCFC0C1EE3040D1EEA0C0D1EF1140D94
:1047C0001EF81C0D1C04FF0602280D1E09300D1ECC
:1047D00010380D1E17400D1E1E480D1E25500D1EB3
:1047E0002C580D1E33600D1E3A680D1E41700D1EB3
:1047F00048780D1E4F800D1E56880D1E5D900D1EB3
:1048000064980D1E6BA00D1E72A80D1E79B00D1EB2
:1048100080B80D1E87C00D1E8EC80D1E95D00D1EB2
:104820009CD80D1EA3E00D1EAAE80D1EB1F00D1EB2
:10483000B8F80D1EBF000E1EC6080E1ECD100E1EAF
:10484000D3180E1EDA200E1EE1280E1EE8300E1EB2
:10485000EF380E1EF6400E1EFDD1041E04500E1E33
:104860000B580E1E12600E1E19680E1E20700E1EB2
:1048700027780E1E2E800E1E35880E1E3C900E1EB2
:1048800043980E1E4AA00E1E51A80E1E58B00E1EB2
:104890005FB80E1E66C00E1E6DC80E1E74D00E1EB2
:1048A0007BD80E1E82E00E1E89E80E1E90F00E1EB2
:1048B00097F80E1E9E000F1EA5080F1EAB100F1EB0
:1048C000B2180F1EB9200F1EC0280F1EC7300F1EB2
:1048D000CE380F1ED5400F1EDC480F1EE3500F1EB2
:1048E000EA580F1EF1600F1EF8680F1C04FF080243
:1048F000740F1E097C0F1E10840F1E178C0F1E1EB6
:10490000940F1E249C0F1E2BA40F1E32AC0F1E39B9
:10491000B40F1E40BC0F1E47C40F1E4ECC0F1E54BA
:10492000D40F1E5BDC0F1E62E40F1E69EC0F1E70BD
:10493000F40F1E77FC0F1E7D04101E840C101E8BBE
:1049400014101E921C101E9924101E9F2C101EA6BF
:1049500034101EAD3C101EB444101EBB4C101EC1C2
:1049600054101EC85C101ECF64101ED66C101EDCC6
:1049700074101EE37C101EEA84101EF18C101EF7CA
:1049800094101C04FE0901A0101E08A8101E0FB0F0
:10499000101E15B8101E1CC0101E23C8101E29D0D2
:1049A000101E30D8101E37E0101E3DE8101E44F0D7
:1049B000101E4BF8101E5100111E5808111E5E10DB
:1049C000111E6518111E6C20111E7228111E7930DF
:1049D000111E7F38111E8640111E8C48111E9350E7
:1049E000111E9958111EA060111EA768111EAD70EE
:1049F000111EB378111EBA80111EC088111EC790F7
:104A0000111ECD98111ED4A0111EDAA8111EE1B0FE
:104A1000111EE7B8111EEDC0111EF4C8111C06FAD4
:104A20000AFD0A01D8111E07E0111E0DE8111E141F
:104A3000F0111E1AF8111E2000121E2708121E2D3A
:104A400010121E3318121E3A20121E4028121E4643
:104A500030121E4C38121E5340121E5948121E5F4F
:104A600050121E6558121E6B60121E7268121E785C
:104A700070121E7E78121E8480121E8A88121E906A
:104A800090121E9798121E9DA0121EA3A8121EA976
:104A9000B0121EAFB8121EB5C0121EBBC8121EC186
:104AA000D0121EC7D8121ECDE0121ED3E8121ED996
:104AB000F0121EDFF8121EE500131EEB08131EF1A4
:104AC00010131EF718131EFD15091E0328131E08C8
:104AD00030131E0E38131E1440131E1A48131E20C6
:104AE00050131E2658131E2B60131E3168131E37D9
:104AF00070131E3D78131E4380131E4888131E4EEC
:104B000090131E5498131E59A0131E5FA8131E6500
:104B1000B0131E6AB8131E70C0131E76C8131E7B16
:104B2000D0131E81D8131E86E0131E8CE8131E922C
:104B3000F0131E97F8131E9D00141EA208141EA841
:104B400010141EAD18141EB220141EB828141EBD59
:104B500030141EC338141EC840141ECE48141ED371
:104B600050141ED858141EDE60141EE368141EE88C
:104B700070141EED78141EF380141EF888141EFDA8
:104B8000C7091E0298141E08A0141E0DA8141E1298
:104B9000B0141E17B8141E1CC0141E21C8141E27E2
:104BA000D0141E2CD8141E31E0141E36E8141E3BFF
:104BB000F0141E40F8141E4500151E4A08151E4F1D
:104BC00010151E5418151E5920151E5E28151E633B
:104BD00030151E6738151E6C40151E7148151E765F
:104BE00050151E7B58151E8060151E8468151E8981
:104BF00070151E8E78151E9380151E9788151E9CA5
:104C000090151EA198151EA5A0151EAAA8151EAFC9
:104C1000B0151EB3B8151EB8C0151EBCC8151EC1F0
:104C2000D0151EC5D8151ECAE0151ECEE8151ED318
:104C3000F0151ED7F8151EDC00161EE008161EE43F
:104C400010161EE918161EED20161EF228161EF666
:104C500030161EFA38161C04FE0D0144161E054CB3
:104C6000161E0954161E0D5C161E1164161E166CB7
:104C7000161E1A74161E1E7C161E2284161E268CE4
:104C8000161E2A94161E2E9C161E32A4161E36AC14
:104C9000161E3AB4161E3EBC161E42C4161E46CC44
:104CA000161E4AD4161E4EDC161E52E4161E56EC74
:104CB000161E5AF4161E5DFC161E6104171E650CA6
:104CC000171E6914171E6C1C171E7024171E742CD7
:104CD000171E7734171E7B3C171E7F44171E824C0D
:104CE000171E8654171E895C171E8D64171E916C43
:104CF000171E9474171E987C171E9B84171E9E8C7B
:104D0000171EA294171EA59C171EA9A4171EACACB3
:104D1000171EAFB4171EB3BC171EB6C4171EB9CCEE
:104D2000171EBCD4171EC0DC171EC3E4171EC6EC2A
:104D3000171EC9F4171ECCFC171ECF04181ED30C67
:104D4000181ED614181ED91C181EDC24181EDF2CA1
:104D5000181EE234181EE53C181EE844181EEA4CE2
:104D6000181EED54181EF05C181EF364181EF66C25
:104D7000181EF974181EFC7C181EFEB70B1E018C41
:104D8000181E0494181E069C181E09A4181E0CACAC
:104D9000181E0EB4181E11BC181E14C4181E16CCF2
:104DA000181E19D4181E1BDC181E1EE4181E20EC39
:104DB000181E23F4181E25FC181E2704191E2A0C81
:104DC000191E2C14191E2E1C191E3124191E332CC9
:104DD000191E3534191E383C191E3A44191E3C4C14
:104DE000191E3E54191E405C191E4264191E446C63
:104DF000191E4774191E497C191E4B84191E4D8CAF
:104E0000191E4F94191E519C192DA2191E54AC192C
:104E10001E56B4191E58BC191E5AC4191E5CCC1952
:104E20003E5ED6191E60E0191E62E8193E64F21952
:104E30001E66FC191E68041A2D0A1A1E6B141A3EEF
:104E40006D1E1A1E6F281A2D2E1A1E72381A2D3E2C
:104E50001A3E754A1A1E77541A2D5A1A3E7A661A45
:104E60003E7C721A3E7E7E1A2D861A3E81921A2D43
:104E70009A1A3E84A61A2DAE1A2DB61A2DBE1A3EC7
:104E800089CA1A2DD21A2DDA1A4DE41A2DEE1A2DCE
:104E9000F61A2DFE1A2D061B4D101B2D1A1B4D2424
:104EA0001B4D301B4D3C1B4D481B4D541B4D601B77
:104EB0006D6E1B6D7E1B8D901B8DA41BADBA1B0DE3
:104EC00012DA1B022FA0020DFF201C0DFF201C0D6B
:104ED000FF201C0DFF201C0DFF201C0DFF201C0DB2
:104EE000FF201C0DFF201C0DFF201C0DFF201C0DA2
:104EF000FF201C0DFF201C0DFF201C0DFF201C0D92
:104F0000FF201C0DFF201C0DFF201C0DFF201C0D81
:104F1000FF201C0DB1201C4DBA054D70301E0354EE
:104F2000302D053121151E0660301E0764301E0825
:104F300068302D09311E0A70305E0B74301E0D561C
:104F4000301E0E5A301E0F5E301E1062301E11666B
:104F5000301E126A301E136E301E1472301E15760B
:104F6000301E167A301E177E301E1882301E1986AB
:104F7000301E1A8A301E1B8E301E1C92301E1D964B
:104F8000301E1E9A301E1F9E301E20A230000500CB
:084F90002100000000000000F8
:0400000500000145B1
:00000001FF
