:020000040800F2
:10200000E83B0020452100084D2100084F21000831
:10201000512100085321000855210008000000004C
:102020000000000000000000000000005721000830
:1020300059210008000000005B210008B5300008AD
:102040005F2100085F2100085F2100085F21000870
:102050005F2100085F2100085F2100085F21000860
:102060005F2100085F2100085F2100085F21000850
:102070005F2100085F2100085F2100085F21000840
:102080005F2100085F2100085F2100081945000852
:10209000514500085F2100085F2100085F2100080A
:1020A0005F210008253100085F2100085F2100083A
:1020B0005F2100085F2100085F2100085F21000800
:1020C0005F2100085F2100085F2100085F210008F0
:1020D0005F2100085F2100085F2100085F210008E0
:1020E0005F2100085F2100085F2100085F210008D0
:1020F0005F2100085F2100085F2100085F210008C0
:102100005F2100085F2100085F2100085F210008AF
:102110005F2100085F2100085F2100085F2100089F
:102120005F2100085F2100085F2100085F2100088F
:10213000DFF80CD000F0E2F8004800473146000814
:10214000E83B00200648804706480047FEE7FEE7D8
:10215000FEE7FEE7FEE7FEE7FEE7FEE7FEE7FEE757
:10216000C53000083121000880EA010210B502F0F4
:102170000043400022D04A001FD0010E01EB126143
:10218000C0F35600C2F3560240F4000042F40002CD
:10219000A0FB022000047F39140400D0401C50EA48
:1021A000124001D44000491EC2B20C0604EBD0100C
:1021B000401C4008802A02D003E0002010BD20F01F
:1021C0000100002900DA0020184310BD30B480EA75
:1021D000010202F0004530F0004221F0004013D02F
:1021E00090B1C30DD40DC2F31601C0F31600E41A6A
:1021F00041F4000140F400027D34914201D3641C9B
:1022000000E04900002C02DA30BC002070474FF497
:1022100000000023914201D3891A034340084FEA8A
:102220004101F7D151B1914202D14FF0004105E097
:1022300002D24FF0010101E06FF0010103EBC45045
:10224000284430BC00F022B8C10F80EAE070084496
:10225000CA079623002100F022B8962300221146D7
:1022600000F01DB820F00040C10DC0F3160040F48E
:1022700000007F2901DA00207047962903DCC1F1B4
:102280009601C84070479639884070470029A8BF1A
:102290007047401C490008BF20F00100704710B48F
:1022A000B0FA80FC00FA0CF050EA010404BF10BC44
:1022B000704749B1CCF1200421FA04F411FA0CF171
:1022C00018BF012121430843A3EB0C01CB1D4FEAAA
:1022D00000614FEA102042BF002010BC704700EBA5
:1022E000C35010440029A4BF10BC7047401C4900D3
:1022F00008BF20F0010010BC70470000064C074DDD
:1023000006E0E06840F0010394E8070098471034C5
:10231000AC42F6D3FFF710FF6C5400088C54000851
:1023200070B58D1810F8014B14F0030201D110F8AC
:10233000012B231106D110F8013B03E010F8016BCB
:1023400001F8016B521EF9D1ABB110F8012B04F06A
:102350000C048A1A0C2C03D0A2EB84129B1C08E0FC
:1023600010F8014BA2EB0422F8E712F8014B01F838
:10237000014B5B1EF9D5A942D4D3002070BD21B119
:10238000826842F00102826003E0826822F001026A
:1023900082607047014600208A6802F004020AB198
:1023A000012000E0002070470146C86C80B27047F1
:1023B000014600208A6802F008020AB1012000E00C
:1023C00000207047014600208A6802F480020AB1AA
:1023D000012000E00020704730B5024600200023B5
:1023E00050680F4C20400D790C6844EA05242043C6
:1023F000506090680B4C2040D1E902542C434D7939
:1024000044EA450420439060D06A20F470000C7CBC
:10241000641EE4B2234340EA0350D06230BD0000A2
:10242000FFFEF0FFFDF7F1FFF0B504460D4600207A
:102430000021092D11DDE068A5F10A0606EB46072B
:10244000072606FA07F18843A5F10A0606EB4606B9
:1024500003FA06F10843E0600CE0206905EB45074C
:10246000072606FA07F1884305EB450603FA06F14D
:1024700008432061072A0FDA606B561E06EB8607B9
:102480001F2606FA07F18843561E06EB860605FA54
:1024900006F10843606322E00D2A0FDA206BD61F95
:1024A00006EB86071F2606FA07F18843D61F06EBC0
:1024B000860605FA06F10843206310E0E06AA2F1FF
:1024C0000D0606EB86071F2606FA07F18843A2F1E0
:1024D0000D0606EB860605FA06F10843E062F0BD3C
:1024E000816841F008018160704721B1826842F43F
:1024F000A002826003E0826822F4A002826070473A
:10250000816841F004018160704700002A49096830
:1025100001F0040149B9002141732749096840F2DB
:10252000FF7202EA5151016008E001214173224922
:1025300009686FF0604202EAD10101601E49096832
:1025400001F0020111B90021817301E001218173C1
:102550001949091D096801F00F0101731649083175
:10256000096801711449083109680A0A427112495F
:10257000083109680A0C82710F4908310968090E8F
:10258000C1710D490C31096801720B490C310968A0
:102590000A0A427208490C3109680A0C827206491B
:1025A0000C310968090EC1720449096841F0200123
:1025B000024A116070470000B06500400C640040A2
:1025C00010B52948C06940F000702749C861084625
:1025D000806940F0010088612448406820F4C040D0
:1025E000224948600846406840F4804048601E48E0
:1025F000806940F008001C4988611D48006820F08F
:102600000F001B4908600846006840F00800086099
:102610000846006820F0F00008600846006840F0B6
:10262000B0000860132000F017FB142000F014FB2A
:1026300011201049086003200E4914310860042459
:102640000C481C3000680C4908400A491C310860DD
:1026500008460068611EC1F30801084A1143084397
:1026600004491C31086010BD001002400000014008
:10267000040C01400064004000FE80FC00004B039D
:102680000748006820F001000549086000BF0448C1
:10269000001D006800F001000028F8D1704700001C
:1026A0000064004000BF0548006800F0806000281A
:1026B000F9D001200249086070470000086400401A
:1026C0001400002000212D4A1160417B49B91146B8
:1026D00009680288002343EA42521143274A1160E5
:1026E00008E0264909680423026803EBC20211438B
:1026F000224A1160817B21B9204909681F4A116073
:1027000005E01E49096841F002011C4A1160C179C7
:102710000A06817942EA0142417942EA01210279BD
:102720001143164A08321160C17A0A06817A42EAD8
:102730000142417A42EA0121027A11430F4A0C32E6
:1027400011600E49091D096821F00F020B49091D8E
:102750000A600968027B02F00F021143074A121D4A
:1027600011600749096841F00101054A11600349F8
:10277000096841F00101014A11607047806500401D
:1027800014640040044A116800BF034A1268521AD8
:102790008242FAD370470000200000202DE9F0416A
:1027A00005461C4C1C491D4A126831F81200FFF7FF
:1027B00054FD07462946FFF7D7FC0646FFF752FDB2
:1027C0002060144C083C15490968154A12681144E8
:1027D000114A32F81100FFF740FD07462946FFF77E
:1027E000C3FC0646FFF73EFD2060241D0B49096827
:1027F0000C4A12681144084A32F81100FFF72DFD07
:1028000007462946FFF7B0FC0646FFF72BFD206080
:10281000BDE8F081402C0140FC0000206000002059
:1028200024000020280000202DE9F04105461C4C22
:102830001C491D4A126831F81200FFF70EFD0746C9
:102840002946FFF791FC0646FFF70CFD2060241D8A
:1028500015490968154A12681144124A32F81100E4
:10286000FFF7FBFC07462946FFF77EFC0646FFF70D
:10287000F9FC2060241D0C4909680D4A12681144B6
:10288000084A32F81100FFF7E8FC07462946FFF72F
:102890006BFC0646FFF7E6FC2060BDE8F081000017
:1028A00034340140FC000020640000202C00002093
:1028B000300000202DE9F0410246002500260020CE
:1028C00000230024002791F803C00CF00F0591F8B5
:1028D00003C00CF0100CBCF1000F03D091F802C043
:1028E0004CEA050591F800C0BCF1000F31D0146826
:1028F00000202BE04FF0010C0CFA00F3B1F800C0FF
:102900000CEA03069E4220D183004FF00F0C0CFA14
:1029100003F7BC4305FA03FC4CEA040491F803C036
:10292000BCF1280F06D14FF0010C0CFA00FCC2F8E4
:1029300014C00AE091F803C0BCF1480F05D14FF074
:10294000010C0CFA00FCC2F810C0401C0828D1D3BE
:102950001460B1F800C0BCF1FF0F34DD54680020F2
:102960002EE000F1080C4FF0010808FA0CF3B1F862
:1029700000C00CEA03069E4221D183004FF00F0CE9
:102980000CFA03F7BC4305FA03FC4CEA040491F883
:1029900003C0BCF1280F05D100F1080C08FA0CF8AF
:1029A000C2F8148091F803C0BCF1480F07D100F1C0
:1029B000080C4FF0010808FA0CF8C2F81080401C0F
:1029C0000828CED35460BDE8F08110B5044601213B
:1029D0002046FFF78AFD00BF2046FFF7F3FC0028E2
:1029E000FAD12046FFF7E0FC10BD00000020684946
:1029F000684B0A681A601A4612781A601A461278EA
:102A0000C2F30312644B1A601A461268032A02D1F9
:102A100000221A600AE0604A1268042A03D10122E7
:102A20005D4B1A6002E002225B4B1A60594A127831
:102A300002F00F021043584A126840EA021054494B
:102A4000091D544B0A681A601A4612781A601A4611
:102A50001278C2F30312504B1A601A461268032A06
:102A600002D100221A600AE04B4A1268042A03D1FC
:102A70000122494B1A6002E00222474B1A60454A84
:102A8000127802F00F0240EA8210434A126840EACC
:102A900082203F49491D3F4B0A681A601A46127846
:102AA0001A601A461278C2F303123B4B1A601A4698
:102AB0001268032A02D100221A600AE0364A12681C
:102AC000042A03D10122344B1A6002E00222324B65
:102AD0001A60304A127802F00F0240EA02302E4AA1
:102AE000128840EA02402A49891D2A4B0A681A6066
:102AF0001A4612781A601A461278C2F30312264B4D
:102B00001A601A461268032A02D100221A600AE0EB
:102B1000214A1268042A03D101221F4B1A6002E0E5
:102B200002221D4B1A601B4A127802F00F0240EA83
:102B30008240194A128840EA82501549C91D154B36
:102B40000A681A601A4612781A601A461278C2F396
:102B50000312114B1A601A461268032A02D100228E
:102B60001A600AE00C4A1268042A03D101220A4BB7
:102B70001A6002E00222084B1A60064A127802F03C
:102B80000F0240EA0260044A127840EA027070477D
:102B9000E8F7FF1FA4000020A80000202DE9F04165
:102BA00006460F460024284D284928680860084634
:102BB000007808600846006804436D1C28680860B7
:102BC0000846007808600846006844EA00246D1C46
:102BD000286808600846007808600846008844EACB
:102BE00000446D1C286808600846007808600846A4
:102BF0000078C0F3031016490860084600680328EF
:102C000002D1002008600AE011480068042803D1BE
:102C100001200F49086002E002200D4908600B48BE
:102C2000007800F00F0044EA00640948007844EAA4
:102C3000007437B12346324608210648006802F086
:102C4000AFFB2046BDE8F081F0F7FF1FA400002095
:102C5000A80000207000002000F01F020121914018
:102C60004209920002F1E022C2F800117047000010
:102C700029B1064A92690243044B9A6104E0034A6F
:102C800092698243014B9A61704700000010024034
:102C900010B500F001F810BD0CB5002001900090B7
:102CA0003348006840F480303149086000BF304844
:102CB000006800F4003000900198401C01900098DA
:102CC00018B90198B0F5A06FF1D12948006800F457
:102CD000003010B10120009001E000200090009829
:102CE000012843D12348006840F0100021490860C2
:102CF0000846006820F0030008600846006840F0BD
:102D0000020008601A48406819494860084640684F
:102D100048600846406840F4806048600846406863
:102D200020F47C1048600846406840F4E810486091
:102D30000846006840F08070086000BF0C480068DA
:102D400000F000700028F9D00948406820F0030026
:102D5000074948600846406840F00200486000BFEC
:102D60000348406800F00C000828F9D10CBD0000B1
:102D700000100240002002400021094A1160094869
:102D80000160084808380160001D0160064A1160B2
:102D900006480160001D0160001D016070470000D1
:102DA00060000020402C01406400002034340140C9
:102DB00000B587B0012148F20460FFF759FF0220F7
:102DC000ADF8180000208DF81B0006A94348FFF756
:102DD00071FD0420ADF8180006A94048FFF76AFD10
:102DE0000120ADF8180006A93C48FFF763FD00205C
:102DF00001908DF808008DF809004FF460200390D1
:102E00000020049001208DF8140001A93448FFF738
:102E1000E3FA02208DF8140001A93248FFF7DCFA2A
:102E200000208DF8140001A92F48FFF7D5FA0523DB
:102E3000012211462A48FFF7F7FA05230122022151
:102E40002848FFF7F1FA0523012200212648FFF761
:102E5000EBFA01212248FFF792FA01212148FFF7FE
:102E60008EFA01212048FFF78AFA1D48FFF738FB48
:102E70001C48FFF735FB1C48FFF732FB00BF184822
:102E8000FFF796FA0028FAD100BF1648FFF790FA2C
:102E90000028FAD100BF1448FFF78AFA0028FAD1B7
:102EA0000F48FFF72DFB0F48FFF72AFB0E48FFF7EF
:102EB00027FB00BF0A48FFF76DFA0028FAD100BFD0
:102EC0000848FFF767FA0028FAD100BF0648FFF765
:102ED00061FA0028FAD107B000BD000000080140E7
:102EE0000024014000280140003C01400E480168D8
:102EF0006FF30F01016049F69912016811430160F7
:102F00000A48016821F07F410160016841F01941E0
:102F10000160001D016821F0FF010160016841F0BE
:102F20009901016070470000040801400010014051
:102F300000212648026842F00102026023481C304A
:102F400002686FF30D0202602048026822F001025D
:102F5000026000BF026842F0010202601B481C30A0
:102F6000026842F00302026018481430026822F03E
:102F70000302026015480C30026842F0030202604E
:102F80001248001D026822F0030202601048028805
:102F900091B200BF0F4A11600C484030042202EB8E
:102FA000C1220260001D0C4A026044F62061001D2F
:102FB000042202EBC1220260001D074A026003489E
:102FC000026822F0010202607047000000660040C3
:102FD00000E801087000002006F8FFFF0A480168B9
:102FE00021F470610160016841F480710160001F8B
:102FF000064A016811400160054A016811430160F9
:103000000448054901607047040C0140FFF00FFFC0
:10301000000810000008014000101111234885210C
:10302000016022480C3001210160001D001D01607B
:10303000001D46F668010160001D0160001D41F29F
:10304000111101601948283000210160001D4FF462
:103050007A610160154844304FF4404101601348E3
:10306000343040F2DC510160114885210160104884
:103070000C3001210160001D001D0160001D46F69D
:1030800068010160001D0160001D41F21111016025
:103090000748283000210160001D4FF47A6101606B
:1030A000034844304FF4404101607047002C014018
:1030B0000034014002480068401C01490860704724
:1030C0002000002010B51248006840F001001049AF
:1030D0000860084640680F4908400D4948600846A6
:1030E00000680D4908400A4908600846006820F455
:1030F000802008600846406820F4FE0048604FF4D5
:103100001F008860FFF7C4FD04480549086010BD32
:10311000001002400000FFF8FFFFF6FE002000084C
:1031200008ED00E01FB5FE4803900398006840F0EA
:10313000800103980160FB480068401CF949086061
:1031400008460068012805D10398006840F0400156
:1031500003980160F3480068322806D1039800689C
:103160004FF6BF71084003990860EE480068B0F55B
:10317000E15F02D10020EB490860EB48039003981F
:10318000006820F0010103980160E848007830B33E
:10319000E548303003904FF47A7103980160E248BB
:1031A00028300390490003980160DF482C300390D9
:1031B00040F6B83103980160DD4803904FF47A710E
:1031C00003980160DA48001D0390490003980160EC
:1031D000D7480830039040F6B83103980160D548CD
:1031E000007800283ED0D04830300390D2480168A3
:1031F000D248FEF7B9FF0290FFF734F80399086050
:10320000C94828300390002103980160C6482C303B
:103210000390C9480168C948FEF7A6FF0290FFF76E
:1032200021F803990860C2480390C3480168C34865
:10323000FEF79AFF0290FFF715F803990860BC4863
:10324000001D0390002103980160B94808300390E5
:10325000B9480168B948FEF787FF0290FFF702F806
:1032600003990860B648007800F0800000287DD0FF
:10327000B448B549096850F82100B44909680844C0
:10328000B249086008460068B0F5616F04D308468B
:103290000068A0F561600860A34830300390AC4836
:1032A000AA49096830F811000090FEF7D6FF019096
:1032B000A84801680198FEF757FF0290FEF7D2FF79
:1032C00003990860984828300390A0480068A249F4
:1032D000096808449E4931F810000090FEF7BDFFD0
:1032E00001909C4801680198FEF73EFF0290FEF7AE
:1032F000B9FF039908608C482C300390934800680C
:10330000964909680844924931F810000090FEF788
:10331000A4FF01908F4801680198FEF725FF0290F5
:10332000FEF7A0FF039908608D480068401C8C4997
:103330000860084600688B490968884207D3002066
:103340008749086080480068401C7F4908607E48C3
:10335000006822280DD37A48007800F07F00784971
:10336000087000207E490860212000E002E07649D4
:103370000860F2E37248007800F0400000286AD04C
:1033800079480068002866D07048006821306F498D
:10339000086008460068B0F5616F04D3084600680D
:1033A000A0F5616008606048303003906848674964
:1033B000096830F811000090FEF74FFF01906B484C
:1033C00001680198FEF7D0FE0290FEF74BFF0399CB
:1033D00008605548283003905C4800685E490968D9
:1033E00008445B4931F810000090FEF736FF019069
:1033F0005E4801680198FEF7B7FE0290FEF732FFC3
:103400000399086048482C3003905048006853499D
:10341000096808444E4931F810000090FEF71DFF7E
:103420000190524801680198FEF79EFE0290FEF757
:1034300019FF039908604C480068401E4A4908601B
:1034400008460068002894D13D48007800F03F000D
:103450003B49087081E33A48007800F020000028DA
:103460005CD03F4800683F490968884207D3002084
:103470003B49086034480068401E334908603848BA
:103480000068401C364908602E482F49096850F8EA
:1034900021002E49096808442C4908600846006844
:1034A000B0F5616F04D308460068A0F5616008605C
:1034B0001D483030039026482449096830F811002F
:1034C0000090FEF7CAFE0190294801680198FEF7B6
:1034D0004BFE0290FEF7C6FE0399086012482830A2
:1034E00003901A4800681C4909680844184931F8D3
:1034F00010000090FEF7B1FE01901D480168019890
:10350000FEF732FE0290FEF7ADFE03990860064812
:103510002C3003900D48006810492BE055E0000066
:103520000C08014038000020102C01405D000020F4
:10353000343401405E0000206800002000007A451D
:1035400054000020FC3000207400002060000020A7
:10355000FC000020C80000202400002028000020DB
:10356000BC000020B80000207C000020C400002027
:10357000CC00002009680844FE4931F81000009092
:10358000FEF76BFE0190FC4801680198FEF7ECFD28
:103590000290FEF767FE03990860F848006800286B
:1035A00012D1F7480068F749096888420CD3F648F9
:1035B000007800F01F00F44908700020F04908600E
:1035C000F2480068FFF7EAF8C7E2EF48007800F039
:1035D000100000287FD0EE48E849096850F8210023
:1035E000EC490968081AEB49086008460068B0F51C
:1035F000616F04D30846006800F561600860E64822
:103600000390DC48E349096830F811000090FEF7A8
:1036100024FE0190E14801680198FEF7A5FD0290A3
:10362000FEF720FE03990860DB4808380390D9486C
:103630000068DB4909680844CE4931F81000009061
:10364000FEF70BFE0190D54801680198FEF78CFD4E
:103650000290FEF707FE03990860CF48001F039011
:10366000CC480068CF4909680844C24931F81000C5
:103670000090FEF7F2FD0190C84801680198FEF73E
:1036800073FD0290FEF7EEFD03990860BC480068E8
:10369000401CBB49086008460068BA49096888426E
:1036A00007D30020B6490860B4480068401CB349FD
:1036B0000860B2480068222886D3B348007800F03A
:1036C0000F00B14908700020AD4908602120AB49C6
:1036D000086042E2FFE7AC48007800F008000028EC
:1036E00069D0B1480068002865D0AA480068213830
:1036F000A849086008460068B0F5616F04D908461B
:10370000006800F561600860A34803909948A149EA
:10371000096830F811000090FEF79FFD0190A34862
:1037200001680198FEF720FD0290FEF79BFD0399CA
:1037300008609948083803909648006898490968D5
:1037400008448C4931F810000090FEF786FD019086
:10375000964801680198FEF707FD0290FEF782FD8A
:10376000039908608C48001F03908A4800688D49BF
:10377000096808447F4931F810000090FEF76DFD9C
:1037800001908A4801680198FEF7EEFC0290FEF76E
:1037900069FD0399086084480068401E82490860FA
:1037A00008460068002894D17748007800F00700A8
:1037B00075490870D1E17448007800F004000028D1
:1037C0007ED06F4800686F490968884207D300209F
:1037D0006B49086069480068401E6849086068488D
:1037E0000068401C6649086069486449096850F8E7
:1037F000210068490968081A664908600846006897
:10380000B0F5616F04D90846006800F56160086092
:103810006148039057485F49096830F811000090EB
:10382000FEF71BFD0190544801680198FEF79CFCCF
:103830000290FEF717FD0399086057480838039077
:10384000544800685649096808444A4931F810004C
:103850000090FEF702FD0190474801680198FEF7CD
:1038600083FC0290FEF7FEFC039908604A48001FA3
:103870000390484800684B49096808443D4931F8BD
:1038800010000090FEF7E9FC01903B4801680198A8
:10389000FEF76AFC0290FEF7E5FC039908603748E2
:1038A0000068002886D13648006836490968884291
:1038B0000ED33548007800F003003349087000E06B
:1038C00007E000202E49086030480068FEF766FFD8
:1038D00043E12D48007800F00200002870D0344801
:1038E000006800286CD03348006833490968884272
:1038F00067D300202F49086026480068401E2549EC
:10390000086008460068B0F5616F04D90846006891
:1039100000F5616008602048039016481D49096859
:1039200030F811000090FEF798FC019023480168E0
:103930000198FEF719FC0290FEF794FC03990860C9
:103940001548083803901348006815490968084469
:10395000084931F810000090FEF77FFC01901748ED
:1039600001680198FEF700FC0290FEF77BFC0399CA
:10397000086027E0FC000020CC000020740000203C
:10398000BC000020B800002054000020F4000020FB
:10399000FC30002060000020402C0140C8000020C6
:1039A00024000020280000207C000020C40000200B
:1039B0008C0000209C00002094000020D8000020F3
:1039C0003EE037E0FE48001F0390FE480068FE49D5
:1039D00009680844FD4931F810000090FEF73DFCED
:1039E0000190FB4801680198FEF7BEFB0290FEF7CC
:1039F00039FC03990860F7480068401EF5490860E3
:103A000008460068B0F5617F07D8F34800780128C0
:103A100003D14FF07E50EE490860EE48006848B987
:103A2000EE48007800F00100EC490870EC480068AE
:103A3000FEF7B4FEEB480068401CEA4908608CE0E1
:103A4000E648007800F0010000287DD0E6480068D4
:103A5000002879D0E3480068E4490968884277D3B0
:103A60000020E0490860D7480068401CD54908603C
:103A700008460068B0F5616F04D308460068A0F5F9
:103A800061600860CE480390D048CE49096830F89C
:103A900011000090FEF7E1FB0190D5480168019804
:103AA000FEF762FB0290FEF7DDFB03990860C44855
:103AB00008380390C3480068CE4909680844C349E0
:103AC00031F810000090FEF7C8FB0190C84801686B
:103AD0000198FEF749FB0290FEF7C4FB03990860CA
:103AE000B748001F0390B7480068B7490968084401
:103AF000B64931F810000090FEF7AFFB0190BC48CA
:103B000001680198FEF730FB0290FEF7ABFB0399CA
:103B10000860B5480068401EB34908600846006860
:103B2000B0F5617F07D8B4480078012803D14FF081
:103B30007E50AF490860AC48006830B90020A74902
:103B40000870A748006801E007E001E0FEF726FEE4
:103B5000A4480068401CA3490860A848007800F009
:103B6000800000287FD0A648A649096850F82100A7
:103B7000A54909680844A449086008460068B0F5EA
:103B8000616F04D308460068A0F5616008609F4833
:103B900003908E489C49096830F811000090FEF7A8
:103BA0005CFB01909A4801680198FEF7DDFA0290EB
:103BB000FEF758FB039908609448001D0390924853
:103BC0000068944909680844804931F81000009061
:103BD000FEF743FB01908E4801680198FEF7C4FA96
:103BE0000290FEF73FFB0399086088480830039075
:103BF00085480068884909680844744931F810000C
:103C00000090FEF72AFB0190814801680198FEF7B9
:103C1000ABFA0290FEF726FB039908607F48006824
:103C2000401C7E490860084600687D490968884252
:103C300007D300207949086072480068401C714928
:103C400008607048006822280BD36C48007800F0A8
:103C50007F006A4908700020704908602120694986
:103C60000860FAE3FFE76548007800F04000E0B341
:103C70006C480068C8B36448006821306249086035
:103C800008460068B0F5616F04D308460068A0F5E7
:103C9000616008605D4803904C485B49096830F8F2
:103CA00011000090FEF7D9FA01905F480168019871
:103CB000FEF75AFA0290FEF7D5FA039908605348C6
:103CC000001D0390504800685249096808443F4964
:103CD00031F810000090FEF7C0FA019052480168D8
:103CE0000198FEF741FA029000E02CE0FEF7BAFAE4
:103CF00003990860454808300390434800684649E6
:103D000009680844314931F810000090FEF7A5FA1F
:103D10000190454801680198FEF726FA0290FEF7E7
:103D2000A1FA039908603F480068401E3D490860B9
:103D300008460068002894D13048007800F03F0021
:103D40002E49087089E32D48007800F020000028F3
:103D500035D03248006832490968884207D30020CC
:103D60002E49086027480068401E264908602B48F5
:103D70000068401C2949086021482249096850F818
:103D800021002149096808441F4908600846006865
:103D9000B0F5616F04D308460068A0F56160086063
:103DA0001A48039009481849096830F81100009032
:103DB000FEF753FA01901D480168019838E087E04A
:103DC000402C01406000002028000020FC00002062
:103DD000D80000208C0000206D000020540000203E
:103DE000F40000209C0000208400002094000020AB
:103DF000D4000020240000206C000020550000208A
:103E0000FC300020780000206400002034340140A1
:103E1000E00000202C00002030000020C000002026
:103E2000B800002080000020DC000020E40000201A
:103E3000FEF79AF90290FEF715FA03990860FE481A
:103E40000390FE480068FE4909680844FD4931F8BE
:103E500010000090FEF701FA0190FB4801680198FC
:103E6000FEF782F90290FEF7FDF903990860F24827
:103E7000001D0390F1480068F44909680844F149BD
:103E800031F810000090FEF7E8F90190EE48016863
:103E90000198FEF769F90290FEF7E4F903990860CA
:103EA000EB480068002812D1EA480068EA4909682E
:103EB00088420CD3E948007800F01F00E7490870F9
:103EC0000020E4490860E6480068FEF7ADFCC4E263
:103ED000E248007800F0100000287DD0E148DC497D
:103EE000096850F82100D5490968081AD3490860C3
:103EF00008460068B0F5616F04D90846006800F50F
:103F000061600860CC48001F0390CE48CB49096827
:103F100030F811000090FEF7A0F90190D248016836
:103F20000198FEF721F90290FEF79CF903990860C9
:103F3000C1480390C1480068C14909680844C149A3
:103F400031F810000090FEF788F90190C64801682A
:103F50000198FEF709F90290FEF784F903990860C9
:103F6000B548001D0390B5480068B8490968084481
:103F7000B44931F810000090FEF76FF90190BA488B
:103F800001680198FEF7F0F80290FEF76BF90399CB
:103F90000860B0480068401CAE49086008460068E8
:103FA000AD490968884207D30020AA490860A8489B
:103FB0000068401CA6490860A5480068222886D3EE
:103FC000A648007800F00F00A44908700020A1491D
:103FD000086021209E4900E001E008603DE29F4822
:103FE000007800F00800E0B3A0480068C8B3934828
:103FF000006821389149086008460068B0F5616F93
:1040000004D90846006800F5616008608A48001F0E
:1040100003908C488949096830F811000090FEF738
:104020001CF90190924801680198FEF79DF80290F2
:10403000FEF718F9039908607F4803907F480068ED
:104040007F49096808447F4931F810000090FEF765
:1040500004F90190864801680198FEF785F80290FE
:1040600000E02CE0FEF7FEF8039908607248001D9E
:10407000039072480068754909680844714931F82D
:1040800010000090FEF7E9F8019079480168019866
:10409000FEF76AF80290FEF7E5F8039908607348A6
:1040A0000068401E7149086008460068002895D1E4
:1040B0006A48007800F0070068490870CDE1674859
:1040C000007800F0040000287ED062480068624951
:1040D0000968884207D300205E4908605C48006890
:1040E000401E5B4908605B480068401C59490860F5
:1040F0005C485749096850F8210050490968081A76
:104100004E49086008460068B0F5616F04D908465A
:10411000006800F5616008604748001F0390494847
:104120004649096830F811000090FEF796F80190B2
:10413000454801680198FEF717F80290FEF792F8DB
:10414000039908603C4803903C4800683C49096872
:1041500008443C4931F810000090FEF77EF80190C9
:10416000394801680198FDF7FFFF0290FEF77AF8E1
:10417000039908603048001D0390304800683349B7
:10418000096808442F4931F810000090FEF765F8DF
:1041900001902D4801680198FDF7E6FF0290FEF7B7
:1041A00061F8039908602A480068002886D12948E8
:1041B00000682949096888420ED32848007800F031
:1041C00003002649087000E007E00020214908604C
:1041D00023480068FEF728FB3FE12048007800F004
:1041E0000200002826D02348006818B3224800683F
:1041F0002249096888427CD300201F4908600F4883
:104200000068401E0D49086008460068B0F5616FFF
:1042100004D90846006800F5616008600648001F80
:10422000039008480549096830F811000090FEF72E
:1042300014F825E087E000003834014064000020D5
:104240002C000020FC000020E400002030000020B2
:1042500078000020C0000020B80000205500002099
:10426000F8000020FC300020E0000020800000204A
:10427000DC00002090000020A0000020980000201A
:1042800001908D4801680198FDF76EFF0290FDF7DF
:10429000E9FF0399086089480390894800688949C3
:1042A00009680844884931F810000090FDF7D5FFEF
:1042B0000190814801680198FDF756FF0290FDF7D3
:1042C000D1FF039908607D48001D03907C48006879
:1042D0007E49096808447C4931F810000090FDF7D8
:1042E000BCFF0190744801680198FDF73DFF029002
:1042F00000E022E0FDF7B6FF03990860744800680B
:10430000401E7349086008460068B0F5617F07D811
:1043100070480078012803D14FF07E50664908604C
:104320006B48006848B96C48007800F001006A49A1
:1043300008706A480068FEF777FA69480068401C10
:104340006749086089E06448007800F00100E0B344
:1043500064480068C8B362480068634909688842D5
:1043600076D300205E49086055480068401C5449D7
:10437000086008460068B0F5616F04D3084600681D
:10438000A0F5616008604D48001F03904E484C49FD
:10439000096830F811000090FDF75FFF0190534865
:1043A00001680198FDF7E0FE0290FDF75BFF0399BD
:1043B000086042480390424800684249096808443E
:1043C000414931F81000009000E046E0FDF745FF5C
:1043D0000190464801680198FDF7C6FE0290FDF77E
:1043E00041FF039908603548001D03903448006878
:1043F000364909680844344931F810000090FDF747
:104400002CFF0190394801680198FDF7ADFE02903C
:10441000FDF728FF0399086032480068401E3149C3
:10442000086008460068B0F5617F07D8304800781A
:10443000012803D14FF07E502C49086029480068BC
:1044400030B900202449087024480068FEF7ECF9D0
:1044500023480068401C224908602648007808B3B9
:104460000020244908702448006824490860244832
:1044700000681E49086020480068224908602048FA
:1044800000680D49086020480078204908702048DD
:1044900000781149087000201B4908701C490870F9
:1044A000144908701B4803900398006820F08001AD
:1044B000039801601FBD0000F00000203834014067
:1044C000640000202C000020FC00002030000020B0
:1044D000900000206F00002055000020F800002010
:1044E000A00000208800002098000020EC000020A0
:1044F0006E00002058000020D0000020D4000020D2
:10450000E8000020D80000205600002054000020C1
:10451000570000200C0801400B48006800F0010023
:1045200080B10948006840F001000749086006486A
:104530000C30006820F0010003490C3108600120B4
:104540000249086070470000086400401400002021
:1045500000B50648006800F0030028B10448FDF7E4
:10456000D5FF01200349086000BD00000C64004035
:10457000943100201800002002E008C8121F08C172
:10458000002AFAD170477047002001E001C1121FD4
:10459000002AFBD1704710B5FEF712F8FEF770F84D
:1045A000FEF780F810BD000010B502461C4900BFA0
:1045B0001C4BDB6803F00103002BF9D11A4B194C9B
:1045C00063601A4B636023461B6943F00203236157
:1045D000134B636123461B6943F04003236100BF13
:1045E000104BDB6803F00103002BF9D10D4B1B6965
:1045F00023F002030B4C236123461B6943F00103A4
:1046000023610A8000BF074BDB6803F00103002B26
:10461000F9D1044B1B6923F00103024C236110BD47
:1046200000E801080020024023016745AB89EFCD77
:1046300086B0002400BFFE4D4AF63D71286808434D
:104640002860FEF7CBFCFB4800684FF47A72B0FBA1
:10465000F2F1481EB0F1807F00D31BE0481E4FF0FE
:10466000E022506150170F22002807DA13071F0EAF
:10467000F14B00F00F06361F9F5503E013071E0E87
:10468000EE4B1E5400BF00204FF0E0229061072047
:10469000106100BFFFF77FFFFEF74AFCFEF726FC24
:1046A000FEF7BCFCFEF768FBE5480068002301212B
:1046B000026841F2E10000F073FEE1480068002367
:1046C0000121426841F2E20000F06AFE6420FEF738
:1046D00059F8DC4D286840F020002860192001219D
:1046E00081404209920002F1E022C2F8001100BFAD
:1046F000FEF75EFBD448FEF768F900F045FED0E314
:1047000000270026002002900190FEF73BF8CF48DA
:10471000006800287ED1CE49086000249FE000BFD9
:10472000CC4800680028FBD00020CA4908600290ED
:10473000C94800EB0410DFF824C39CE80E10A0E881
:104740000E10C54800EB04100078C34901EB0411BA
:1047500007460860042F76D1BF4800EB04100079AB
:10476000C0F301100190019820B101280DD002285A
:1047700067D134E001200290B948008884B201205A
:10478000B7490860B74908605BE0B34800EB041024
:104790000179B14800EB041040794FF4803202FBFC
:1047A0000011AD4800EB04108079121202FB0011D9
:1047B000A94800EB0410C0790144A74800EB04109D
:1047C000007A02FB0011A44800EB0410407A084470
:1047D00038449F49096808449D49086031E0601CDD
:1047E0009F4908609C4800EB041001799A4800EB4F
:1047F000041040794FF4803202FB0011964800EB20
:1048000004108079121202FB0011934800EB04108F
:10481000C07900E02BE001448F4800EB0410007ADF
:1048200002FB00118C4800EB0410407A0844384425
:10483000874909680844864908608948008884B225
:1048400000BF0AE0FFE7012002908548008884B29B
:1048500001208349086083490860601C84B2804855
:1048600000688442FFF65BAF012078490860794810
:10487000006800285FD07548006800285BD00020E1
:104880007449086075480078744907460860072F26
:1048900002D1012002904EE00D2F20D1002072495C
:1048A00008607248007810B97148007810B1012092
:1048B0006D4908606F48007828B96F48007810B9D2
:1048C0006E48007810B101206749086000236648EF
:1048D000012102686A48006800F062FD2BE0082FA1
:1048E00029D15E48007901065C48407901EB00411E
:1048F0005A48807901EB00215848C07908445A4948
:1049000008600846006852490968884204D10126B7
:1049100001205449086003E0022600204B4908604A
:1049200033464B48052102685548006800F038FDC1
:1049300000204749086045480068002876D000F00C
:1049400023FD10B902980028F8D0464800680028D6
:10495000F4D000200290434908600024FEE33E4862
:1049600000EB041000783C4901EB04110746086095
:10497000B81E18285BD2DFE800F00CB2C5FDFCFBC6
:10498000FAF9F8F7F6F5F4F3F2F1F0EFEEEDECEBFF
:10499000EAE9314901EB04110879FDF75EFC394978
:1049A0000090FDF713FC3849086008460068374955
:1049B0000860294901EB04114879FDF74EFC3149A3
:1049C0000090FDF703FC32490860234901EB041114
:1049D0008879FDF742FC2B490090FDF7F7FB2D4944
:1049E00008601D4901EB0411C879FDF736FC254923
:1049F0000090FDF7EBFB28490860174901EB041113
:104A0000087AFDF72AFC1F490090FDF7DFFB2349D8
:104A1000086008460068224908600F4901EB04114C
:104A2000487AFDF71AFC174900903BE0EFE37FE27C
:104A3000181002400000002018ED00E000E400E043
:104A4000340000200C0C0140003C01403C000020E0
:104A5000AC00002018000020A43100209431002078
:104A600044000020B0000020A400002054000020DA
:104A70005500002058000020590000205A00002056
:104A8000700000200000C842C8000020CC000020B8
:104A9000C4000020D0000020F4000020E00000202E
:104AA000E4000020FDF792FBFE490860FE4901EB9F
:104AB0000411887AFDF7D1FBFC490090FDF786FBD5
:104AC000FB490860F84901EB0411C87AFDF7C5FB02
:104AD000F6490090FDF77AFBF649086028E2F248B3
:104AE00000EB04100079F4490860EF4800EB041073
:104AF0004079F2490860EC4800EB04108079F049F5
:104B00000860EBE7E84800EB0410007900F00F06BE
:104B1000E54800EB04100079C0F301100190042E69
:104B20003ED1E14800EB041040790104DE4800EB7F
:104B30000410807901EB0021DB4800EB0410C07900
:104B40000844E04908600846006814E0C9E38AE3C5
:104B50005EE31AE308E3EAE2E1E2D2E2BFE2A9E2BD
:104B600080E26DE251E243E21EE210E203E2F4E190
:104B7000F0E1E6E1DDE1D449086000BFCA4800EB9E
:104B80000410417AC84800EB0410007A01EB0020C1
:104B9000CE4908600120CE490870CE49087045E131
:104BA000052E28D1C04800EB041040790104BE480E
:104BB00000EB0410807901EB0021BB4800EB0410EE
:104BC000C0790844C449086008460068BE490860C6
:104BD000B54800EB0410417AB34800EB0410007AAA
:104BE00001EB0020B94908600120B9490870022092
:104BF000B84908701AE1062E29D1AB4800EB041021
:104C000040790104A84800EB0410807901EB0021F1
:104C1000A54800EB0410C0790844B0490860084674
:104C20000068A949086000BF9F4800EB0410417A62
:104C30009D4800EB0410007A01EB0020A3490860B6
:104C40000120A3490870E020A2490870EEE0072E79
:104C500029D1954800EB041040790104924800EBFB
:104C60000410807901EB00218F4800EB0410C0791B
:104C700008449A4908600846006893490860062677
:104C8000894800EB0410417A874800EB0410007A51
:104C900001EB00208D49086001208D4908701C201F
:104CA0008C490870C2E046BB7F4800EB0410407995
:104CB00001047D4800EB0410807901EB00217A4863
:104CC00000EB0410C0790844854908600846006874
:104CD0007D4908600026744800EB0410417A724850
:104CE00000EB0410007A01EB0020784908600120F5
:104CF0007C4908707C49087098E0012E29D16A48E7
:104D000000EB041040790104674800EB041080793F
:104D100001EB0021644800EB0410C079084473499A
:104D20000860084600686849086000BF5E4800EBFC
:104D30000410417A5C4800EB0410007A01EB00207B
:104D400062490860012067490870022066490870BE
:104D50006CE0022E29D1544800EB04104079010484
:104D6000514800EB0410807901EB00214E4800EB24
:104D70000410C07908445E4908600846006852493A
:104D8000086000BF484800EB0410417A464800EB39
:104D90000410007A01EB00204C49086001205149C1
:104DA0000870E0205049087040E0032E29D13E48A9
:104DB00000EB0410407901043B4800EB04108079BB
:104DC00001EB0021384800EB0410C0790844484941
:104DD0000860084600683C4908600226324800EB3B
:104DE0000410417A304800EB0410007A01EB0020F7
:104DF0003649086001203B4908701C203A49087078
:104E000014E0082E12D1284800EB0410417A2648FD
:104E100000EB0410007A01EB00202C4908600846E2
:104E20000068FDF7AFFC0020284908602D48007895
:104E300010B12748007808B9019888BB2C48006851
:104E400028B92948007800F0B7002749087024489D
:104E5000006828B92448007800F0FE002249087054
:104E60002248006828B92048007800F0FD001E495B
:104E700008701A48006828B91648007800F0B70092
:104E8000144908700F48006828B91248007800F0EB
:104E9000FE00104908701048006858BB0D482AE011
:104EA00046E067E2DC000020A43100200000C84298
:104EB000E8000020F8000020940000209800002066
:104EC000B800002088000020A40000204C00002032
:104ED0005C0000205700002090000020800000208F
:104EE000840000205B000020560000208C00002081
:104EF0007C00002004E0007800F0FD00F949087013
:104F00000120F949087000BFF74800780028FBD15C
:104F1000F64800780028F7D1F54800780028F3D14A
:104F2000F4490870F4490870F4480068FDF72AFC59
:104F300011E2F34800EB04100679304600F06CFAF9
:104F400009E2F048007808B9012000E00020ED49AE
:104F5000087000E201200290FDE1EB480068EB4997
:104F6000086003263346084605210268E8480068C1
:104F700000F016FAEFE1E748FDF727FD0390002364
:104F80000221E348039A006800F00AFAE3E1E048EE
:104F90000068DE4908600023084602210268DC48F8
:104FA000006800F0FDF9D6E1D9480068DA490860E8
:104FB000002405E00021D848001D0155601C84B282
:104FC000082CF7DB0220D449087301204873002025
:104FD0008873D248006850B10020D0490860022090
:104FE000CD4908710321CC484171FDF76BFBB2E15B
:104FF000CB480078C54908600023084601210268B3
:10500000C348006800F0CCF9A5E10020BF49086062
:10501000B648007810B9B648007810B10120BB49F5
:105020000860B148007810B10120B8490860002339
:10503000B64801210268B648006800F0B1F98AE17B
:10504000B848FDF7C2FC0590B748FDF7BEFC0490D8
:1050500008210220DDE9043200F0A2F900200590C9
:10506000049078E1AA480068AB490860002405E094
:105070000021A948001D0155601C84B2082CF7DBF3
:105080000220A54908730120487300208873A348B3
:10509000006870B10020A1490860A4480068007948
:1050A0009D490871A148006801789B484171FDF74E
:1050B00009FB50E1924901EB04114979904A02EB56
:1050C000041212794FF4807303FB0210FDF7BCF851
:1050D00097490090FDF77AF8964908603BE1964DB4
:1050E0008A49286808602D1D944928680860084688
:1050F00003688648082102688548006800F050F976
:1051000029E18D4D0835814928680860002308464B
:10511000042102687E48006800F042F91BE1FDF7B7
:1051200065FC814601214846FDF738FD13E18448BE
:10513000006888B1724800EB04104079704901EBB7
:10514000041109794FF4807202FB01007049086074
:10515000098888B2FFF728FA002000E0FEE07849CD
:105160000860FDF7E5FEF6E0764D684928680860BE
:105170000846008880B208600023084602210268C1
:105180006348006800F00CF9E5E06B4D5F49286862
:1051900008602D1D694928680860594800EB041013
:1051A000007A0106564800EB0410407A01EB0041FA
:1051B000534800EB0410807A01EB0021504800EBCB
:1051C0000410C07A01EB000A4D4800EB041000798E
:1051D00001064B4800EB0410407901EB00414848C0
:1051E00000EB0410807901EB0021454800EB04102E
:1051F000C07901EB000B45480068504506D14F4887
:105200000068584502D101204D490860A3E0B0E094
:10521000494D08353D4928680860394800EB0410BD
:1052200000790106364800EB0410407901EB00419B
:10523000334800EB0410807901EB0021304800EB8B
:105240000410C07901EB000A30480068504506D1CF
:105250003B480068012802D13949086002E000207B
:105260003749086077E0FDF7C1FB814600214846D9
:10527000FDF794FC8046224800EB0410007A0106FA
:105280001F4800EB0410407A01EB00411C4800EB82
:105290000410807A01EB0021194800EB0410C07A59
:1052A00001EB000A164800EB0410007901061448CF
:1052B00000EB0410407901EB0041114800EB0410B1
:1052C000807901EB00210E4800EB0410C07901EB5E
:1052D000000BD14504D1D84502D1012018490860FE
:1052E00039E031E057000020580000205400002031
:1052F000550000205C0000205B0000204C000020D6
:10530000A43100205D000020AC000020A40000209B
:1053100070000020003C0140843100201400002077
:105320005E000020002401400028014034000020DD
:1053300000FF7F4768000020E8F7FF1FA80000205B
:105340004000002000E801080B4800EB0410007941
:105350000A49087000BF00BF601C84B2084800689A
:105360008442FFF6FCAA0020064908606420044934
:10537000086000BFFFF7C4B9A43100205E00002020
:10538000440000203C00002000200449096801F08E
:10539000040109B1012000E000207047080C014021
:1053A0002DE9F0410746884614461D46FFF7F3F8FD
:1053B00017480760002604E000211548001D8155AC
:1053C000761C082EF8DB124981F80C800120487306
:1053D000002088730F480068B8B100200D490860AC
:1053E0000B490C71210A0A484171210C8171210E6F
:1053F000C1710572290A4172290C8172290EC1728C
:10540000FDF760F9012003490860BDE8F081000064
:10541000843100201400002001461348012904D1E2
:10542000026842F0300202601DE0022909D10268E0
:1054300042F0100202604FF6DF7302681A40026009
:1054400011E0032909D1026842F0200202604FF600
:10545000EF7302681A40026005E021B94FF6CF737E
:1054600002681A40026070470C0801408C54000822
:10547000000000208431000020230008D46F0008C1
:1054800084310020640A000088450008500600A20C
:105490004A040001D00A01020304060708090001BA
:1054A00012601283B00408A005004C0020200324E1
:1054B00064000112010283FFFF3843B80B04C340AC
:1054C0009C0443020004011A4CB20CA23006403F77
:1054D000000080040005209A99993E184180031627
:1054E000A00F0202119F02929E02729D02729C0204
:1054F000529B02529A023299023298023297023239
:105500009602329502329402129302329202129162
:1055100002129002128F02128E02328D02128C023F
:10552000128B02128A021004890F8802128702125B
:1055300086021285021004840F8302128202100474
:10554000810F8002127F0210047E0F7D0210047C06
:105550000F7B0210047A0F79021006780F770F760E
:10556000021004750F74021006730F720F7102108F
:1055700006700F6F0F6E0210086D0F6C0F6B0F6AC5
:1055800002100A690F680F670F660F6502100C643E
:105590000F630F620F610F600F5F0210185E0F5DE7
:1055A0000F5C0F5B0F5A0F590F580F570F560F55BF
:1055B0000F540F530200FF00520F510F500F4F0FA7
:1055C0004E0F4D0F4C0F4B0F4A0F490F480F470F0F
:1055D000460F440F430F420F410F400F3F0F3E0F46
:1055E0003D0F3C0F3B0F3A0F390F380F360F350F79
:1055F000340F330F320F310F300F2E0F2D0F2C0FB2
:105600002B0F2A0F290F270F260F250F240F230FEB
:10561000210F200F1F0F1E0F1C0F1B0F1A0F190F2A
:10562000170F160F150F140F120F110F100F0E0F6B
:105630000D0F0C0F0A0F090F080F060F050F040FAF
:10564000020F010F000FFE0EFD0EFC0EFA0EF90EFA
:10565000F70EF60EF50EF30EF20EF00EEF0EED0E47
:10566000EC0EEA0EE90EE80EE60EE50EE30EE20E93
:10567000E00EDF0EDD0EDC0EDA0ED90ED70ED60EE2
:10568000D40ED30ED10ECF0ECE0ECC0ECB0EC90E35
:10569000C80EC60EC40EC30EC10EC00EBE0EBC0E8A
:1056A000BB0EB90EB80EB60EB40EB30EB10EAF0EE1
:1056B000AE0EAC0EAA0E00FF00A90EA70EA50EA4FA
:1056C0000EA20EA00E9E0E9D0E9B0E990E980E968B
:1056D0000E940E920E910E8F0E8D0E8B0E890E88EB
:1056E0000E860E840E820E810E7F0E7D0E7B0E794D
:1056F0000E770E760E740E720E700E6E0E6C0E6BB2
:105700000E690E670E650E630E610E5F0E5D0E5B19
:105710000E5A0E580E560E540E520E500E4E0E4C81
:105720000E4A0E480E460E440E420E400E3E0E3CF1
:105730000E3A0E380E360E340E320E300E2E0E2C61
:105740000E2A0E280E260E240E220E200E1E0E1CD1
:105750000E1A0E180E160E140E110E0F0E0D0E0B45
:105760000E090E070E050E030E010EFE0DFC0DFABE
:105770000DF80DF60DF40DF20DEF0DED0DEB0DE93D
:105780000DE70DE40DE20DE00DDE0DDC0DD90DD7BA
:105790000DD50DD30DD10DCE0DCC0DCA0DC80DC537
:1057A0000DC30DC10DBF0DBC0DBA0DB80DB50DB3B8
:1057B0000DB10DAF0DAC0D00FF00AA0DA80DA50D8C
:1057C000A30DA10D9E0D9C0D9A0D970D950D930D9A
:1057D000900D8E0D8B0D890D870D840D820D800D22
:1057E0007D0D7B0D780D760D740D710D6F0D6C0DAB
:1057F0006A0D670D650D630D600D5E0D5B0D590D36
:10580000560D540D510D4F0D4C0D4A0D470D450DC4
:10581000420D400D3D0D3B0D380D360D330D310D54
:105820002E0D2C0D290D270D240D210D1F0D1C0DE6
:105830001A0D170D150D120D0F0D0D0D0A0D080D7A
:10584000050D020D000DFD0CFB0CF80CF50CF30C16
:10585000F00CED0CEB0CE80CE60CE30CE00CDE0CB1
:10586000DB0CD80CD60CD30CD00CCE0CCB0CC80C4B
:10587000C50CC30CC00CBD0CBB0CB80CB50CB20CE9
:10588000B00CAD0CAA0CA80CA50CA20C9F0C9D0C86
:105890009A0C970C940C920C8F0C8C0C890C860C27
:1058A000840C810C7E0C7B0C780C760C730C700CC9
:1058B0006D0C6A0C680C650C00FF00620C5F0C5CE0
:1058C0000C590C570C540C510C4E0C4B0C480C45FD
:1058D0000C430C400C3D0C3A0C370C340C310C2EA4
:1058E0000C2B0C290C260C230C200C1D0C1A0C174D
:1058F0000C140C110C0E0C0B0C080C060C030C00F9
:105900000CFD0BFA0BF70BF40BF10BEE0BEB0BE8AA
:105910000BE50BE20BDF0BDC0BD90BD60BD30BD05B
:105920000BCD0BCA0BC70BC40BC10BBE0BBB0BB80B
:105930000BB50BB20BAF0BAC0BA90BA60BA30BA0BB
:105940000B9D0B9A0B970B940B900B8D0B8A0B876F
:105950000B840B810B7E0B7B0B780B750B720B6F23
:105960000B6B0B680B650B620B5F0B5C0B590B56DB
:105970000B530B500B4C0B490B460B430B400B3D91
:105980000B3A0B360B330B300B2D0B2A0B270B244A
:105990000B200B1D0B1A0B170B140B110B0D0B0A05
:1059A0000B070B040B010BFD0AFA0AF70AF40AF1C4
:1059B0000AED0AEA0AE70AE40A00FF00E10ADD0A42
:1059C000DA0AD70AD40AD10ACD0ACA0AC70AC40A0F
:1059D000C00ABD0ABA0AB70AB30AB00AAD0AAA0ACF
:1059E000A70AA30AA00A9D0A990A960A930A900A8E
:1059F0008C0A890A860A830A7F0A7C0A790A750A50
:105A0000720A6F0A6C0A680A650A620A5E0A5B0A11
:105A1000580A550A510A4E0A4B0A470A440A410AD3
:105A20003D0A3A0A370A330A300A2D0A290A260A99
:105A3000230A1F0A1C0A190A150A120A0F0A0B0A5E
:105A4000080A050A010AFE09FB09F709F409F10928
:105A5000ED09EA09E609E309E009DC09D909D609F3
:105A6000D209CF09CC09C809C509C109BE09BB09BA
:105A7000B709B409B009AD09AA09A609A3099F0984
:105A80009C099909950992098F098B09880984094C
:105A900081097D097A097709730970096C09690917
:105AA000660962095F095B095809540951094E09E1
:105AB0004A094709430940093C0900FF00390936F2
:105AC0000932092F092B092809240921091E091A5D
:105AD000091709130910090C09090905090209FF29
:105AE00008FB08F808F408F108ED08EA08E608E3FE
:105AF00008DF08DC08D908D508D208CE08CB08C7CB
:105B000008C408C008BD08B908B608B208AF08AB99
:105B100008A808A508A1089E089A08970893089065
:105B2000088C088908850882087E087B0877087435
:105B30000870086D086908660862085F085C085804
:105B400008550851084E084A084708430840083CD1
:105B5000083908350832082E082B082708240820A1
:105B6000081D081908160812080F080B0808080471
:105B7000080108FD07FA07F607F307EF07EC07E847
:105B800007E507E107DE07DA07D707D307D007CD18
:105B900007C907C607C207BF07BB07B807B407B1E5
:105BA00007AD07AA07A607A3079F079C07980795B5
:105BB0000791078E078A078707830700FF00800782
:105BC0007C077907750772076E076B07670764071D
:105BD00060075D075907560752074F074B074807ED
:105BE000440741073E073A073707330730072C07BA
:105BF0002907250722071E071B0717071407100789
:105C00000D07090706070207FF06FB06F806F5065B
:105C1000F106EE06EA06E706E306E006DC06D9062C
:105C2000D506D206CE06CB06C706C406C106BD06FB
:105C3000BA06B606B306AF06AC06A806A506A106C8
:105C40009E069B069706940690068D068906860694
:105C500082067F067C067806750671066E066A0661
:105C60006706640660065D065906560652064F062C
:105C70004C064806450641063E063A0637063406F7
:105C800030062D062906260623061F061C061806C2
:105C9000150611060E060B06070604060106FD058D
:105CA000FA05F605F305F005EC05E905E505E2055D
:105CB000DF05DB05D805D405D105CE0500FF00CAF8
:105CC00005C705C405C005BD05BA05B605B305AFD2
:105CD00005AC05A905A505A2059F059B0598059599
:105CE0000591058E058B058705840581057D057A5F
:105CF000057705730570056D056905660563055F24
:105D0000055C055905550552054F054B05480545E8
:105D10000542053E053B053805340531052E052BAA
:105D2000052705240521051D051A0517051405106D
:105D3000050D050A05070503050005FD04F904F630
:105D400004F304F004ED04E904E604E304E004DCF5
:105D500004D904D604D304CF04CC04C904C604C3B4
:105D600004BF04BC04B904B604B304AF04AC04A972
:105D700004A604A3049F049C049904960493048F2E
:105D8000048C0489048604830480047C04790476EA
:105D900004730470046D046A046604630460045DA3
:105DA000045A045704540450044D044A044704445C
:105DB0000441043E043B0438043504310400FF0070
:105DC0002E042B042804250422041F041C04190497
:105DD0001604130410040C0409040604030400044C
:105DE000FD03FA03F703F403F103EE03EB03E80307
:105DF000E503E203DF03DC03D903D603D303D003B7
:105E0000CD03CA03C703C403C103BE03BB03B80366
:105E1000B503B203AF03AC03A903A603A303A00316
:105E20009D039A039803950392038F038C038903C0
:105E30008603830380037D037A037703750372036C
:105E40006F036C0369036603630360035D035B0315
:105E50005803550352034F034C03490347034403BC
:105E600041033E033B0338033603330330032D0362
:105E70002A032803250322031F031C031A03170305
:105E8000140311030E030C030903060303030103A8
:105E9000FE02FB02F802F602F302F002EE02EB024F
:105EA000E802E502E302E002DD02DB02D802D502ED
:105EB000D202D002CD02CA02C802C502C20200FF4D
:105EC00000C002BD02BA02B802B502B302B002AD10
:105ED00002AB02A802A502A302A0029E029B0298A6
:105EE000029602930291028E028B0289028602843C
:105EF0000281027F027C0279027702740272026FD1
:105F0000026D026A0268026502630260025E025B61
:105F10000259025602540251024F024C024A0247F1
:105F2000024502420240023D023B0239023602347F
:105F30000231022F022C022A02280225022302200B
:105F4000021E021C02190217021502120210020D93
:105F5000020B020902060204020202FF01FD01FB1C
:105F600001F801F601F401F101EF01ED01EB01E8A7
:105F700001E601E401E101DF01DD01DB01D801D629
:105F800001D401D201CF01CD01CB01C901C701C4A8
:105F900001C201C001BE01BC01B901B701B501B325
:105FA00001B101AE01AC01AA01A801A601A401A2A0
:105FB000019F019D019B0199019701950193011C8E
:105FC0009891018F018C018A0188018601840182E8
:105FD0000180017E017C017A0178017601740172F1
:105FE0000170016E016C016A016801660164016261
:105FF0000160015E015C015A0158015601540152D1
:106000000150014E014C014A01480146014501433E
:106010000141013F013D013B0139013701350134A7
:1060200001320130012E012C012A0129012701250D
:1060300001230121011F011E011C011A0118011772
:10604000011501130111010F010E010C010A0108D4
:106050000107010501030102550C1CDCFE00FC00D8
:10606000FB00F900F700F600F400F200F100EF0089
:10607000ED00EC00EA00E800E700E500E400E200E3
:10608000E000DF00DD00DC00DA00D800D700D5003A
:10609000D400D200D100CF00CD00CC00CA00C9008E
:1060A000C700C600C400C300C100C000BE00BD00E0
:1060B000BB00BA00B800B700B600B400B300B1002E
:1060C000B000AE00AD00AB00AA00A900A700A6007A
:1060D000A400A300A200A0009F009E009C009B00C3
:1060E0009A00980097009600940093009200900008
:1060F0008F008E008C008B008A008900870086004C
:10610000850084008200810080007F007D007C008B
:106110007B007A00790077007600750074007300C8
:10612000720070006F006E006D006C006B006A0002
:10613000680067006600655C0D102C6300620061FA
:106140000060005F005E005D005C005A005900586E
:1061500000570056005500540053005200510050A3
:10616000004F004E004D0210184C004B004A0049F1
:1061700000480047004600450044004300420041FB
:1061800002100C40003F003E003D003C003B02106E
:106190000A3A00390038003700360210083500345A
:1061A00000330032021006310030002F0210062E9C
:1061B000002D002C0210042B002A021006290028B2
:1061C00000270210042600250210042400230210D8
:1061D000042200210212200210041F001E02121DC0
:1061E0000210041C001B02121A02121902121802D9
:1061F00010041700160212150212140232130212B2
:1062000012021211021210021DB50B33000E021DF4
:10621000C5091DD40D2102320B02320A02320902D5
:10622000320802320702520602520502720402725A
:10623000030292020202110102013001011246A181
:1062400066817C819061A261B241C041CC41D8415C
:10625000E441F041FC25064510251A2522252A2572
:1062600032453C2546254E2556361762256A25724D
:10627000257A361C86258E361F9A25A23622AE3602
:1062800024BA3626C61628D025D6362BE2162DEC93
:1062900025F21630FC29021A330C3A35161A37202B
:1062A0001A3928292E1A3C381A3E403A404A1A42D6
:1062B000541A445C1A46641A486C1A4A743A4C7E62
:1062C0001A4E881A50901A52981A54A01A56A81AA0
:1062D00058B01A5AB81A5DC01A5FC81A61D01A634A
:1062E000D81A65E01A67E81A6AF01A6CF81E6E0090
:1062F000031E7008031E7310031E7518031E7720FB
:10630000031E7A28031E7C30031E7F38031E814043
:10631000031E8448031E8650031E8958031E8B608B
:10632000031E8E68031E9070031E9378031E9680D2
:10633000031E9888031E9B90031E9E98031EA0A018
:10634000031EA3A8031EA6B0031EA9B8031EABC05C
:10635000031EAEC8031EB1D0031EB4D8031EB7E09F
:10636000031EBAE8031EBDF0031EC0F8031EC300DF
:10637000041EC608041EC910041ECC18041ECF201B
:10638000041ED228041ED530041ED838041EDC405A
:10639000041EDF48041EE250041EE558041EE86097
:1063A000041EEC68041EEF70041EF278041EF680D2
:1063B000041EF988042C04FC00FE4B111D9C041ED5
:1063C00005A4041E08AC041E0CB4041E0FBC041E5D
:1063D00013C4041E17CC041E1AD4041E1EDC041E93
:1063E00021E4041E25EC041E29F4041E2CFC041ECA
:1063F0003004051E340C051E3714051E3B1C051EFB
:106400003F24051E432C051E4634051E4A3C051E2E
:106410004E44051E524C051E5654051E5A5C051E60
:106420005E64051E626C051E6674051E6A7C051E90
:106430006E84051E728C051E7694051E7A9C051EC0
:106440007EA4051E82AC051E86B4051E8ABC051EF0
:106450008FC4051E93CC051E97D4051E9BDC051E1C
:106460009FE4051EA4EC051EA8F4051EACFC051E49
:10647000B104061EB50C061EB914061EBE1C061E6F
:10648000C224061EC72C061ECB34061ECF3C061E99
:10649000D444061ED84C061EDD54061EE15C061EC2
:1064A000E664061EEB6C061EEF74061EF47C061EE8
:1064B000F884061C06FD01FF010294061E069C06D8
:1064C0001E0BA4061E10AC061E15B4061E19BC0633
:1064D0001E1EC4061E23CC061E28D4061E2CDC0657
:1064E0001E31E4061E36EC061E3BF4061E40FC067A
:1064F0001E4504071E4A0C071E4F14071E541C0796
:106500001E5924071E5E2C071E6334071E683C07B5
:106510001E6D44071E724C071E7754071E7C5C07D5
:106520001E8164071E866C071E8B74071E917C07F4
:106530001E9684071E9B8C071EA094071EA59C0711
:106540001EABA4071EB0AC071EB5B4071EBABC072D
:106550001EC0C4071EC5CC071ECAD4071ED0DC0748
:106560001ED5E4071EDBEC071EE0F4071EE5FC0762
:106570001EEB04081EF00C081EF614081404FB029F
:10658000FEC31E0328081E0930081E0E38081E14FC
:1065900040081E1A48081E1F50081E2558081E2AAB
:1065A00060081E3068081E3670081E3B78081E41C1
:1065B00080081E4788081E4C90081E5298081E58D6
:1065C000A0081E5DA8081E63B0081E69B8081E6FEB
:1065D000C0081E75C8081E7AD0081E80D8081E86FE
:1065E000E0081E8CE8081E92F0081E98F8081E9D10
:1065F00000091EA308091EA910091EAF18091EB51F
:1066000020091EBB28091EC130091EC738091ECD2E
:1066100040091ED348091ED950091EDF58091EE53E
:1066200060091EEB68091EF170091EF778091EFD4E
:106630007D041DC0131D8C091E0C94091E139C099A
:106640001E19A4091E1FAC091E25B4091E2BBC0966
:106650001E31C4091E38CC091E3ED4091E44DC0973
:106660001E4AE4091E50EC091E57F4091E5DFC0980
:106670001E63040A1E6A0C0A1E70140A1E761C0A87
:106680001E7C240A1E832C0A1E89340A1E8F3C0A93
:106690001E96440A1E9C4C0A1EA3540A1EA95C0A9C
:1066A0001EAF640A1EB66C0A1EBC740A1EC37C0AA6
:1066B0001EC9840A1ECF8C0A1ED6940A1EDC9C0AB0
:1066C0001EE3A40A1EE9AC0A1EF0B40A1EF6BC0AB8
:1066D0001EFD15051E03CC0A1E0AD40A1E10DC0A74
:1066E0001E17E40A1E1DEC0A1E24F40A1E2BFC0AC7
:1066F0001E31040B1E380C0B1E3E140B1E451C0BCA
:106700001E4B240B1E522C0B1E59340B1E5F3C0BD0
:106710001E66440B1E6D4C0B1E73540B1E7A5C0BD5
:106720001E81640B1E876C0B1E8E740B1E957C0BDA
:106730001E9B840B1EA28C0B1EA9940B1EAF9C0BE0
:106740001EB6A40B1EBDAC0B1EC4B40B1ECABC0BE4
:106750001ED1C40B1ED8CC0B1EDFD40B1EE5DC0BE8
:106760001EECE40B1EF3EC0B1C06FA05FD0501FC08
:106770000B1E07040C1E0E0C0C1E15140C1E1C1CEC
:106780000C1E23240C1E292C0C1E30340C1E373CEE
:106790000C1E3E440C1E454C0C1E4C540C1E525CF0
:1067A0000C1E59640C1E606C0C1E67740C1E6E7CF3
:1067B0000C1E75840C1E7C8C0C1E82940C1E899CF5
:1067C0000C1E90A40C1E97AC0C1E9EB40C1EA5BCF7
:1067D0000C1EACC40C1EB3CC0C1EBAD40C1EC1DCF7
:1067E0000C1EC7E40C1ECEEC0C1ED5F40C1EDCFCFB
:1067F0000C1EE3040D1EEA0C0D1EF1140D1EF81CF8
:106800000D1C04FF0602280D1E09300D1E10380D48
:106810001E17400D1E1E480D1E25500D1E2C580D16
:106820001E33600D1E3A680D1E41700D1E48780D16
:106830001E4F800D1E56880D1E5D900D1E64980D16
:106840001E6BA00D1E72A80D1E79B00D1E80B80D16
:106850001E87C00D1E8EC80D1E95D00D1E9CD80D16
:106860001EA3E00D1EAAE80D1EB1F00D1EB8F80D16
:106870001EBF000E1EC6080E1ECD100E1ED3180E13
:106880001EDA200E1EE1280E1EE8300E1EEF380E16
:106890001EF6400E1EFDD1041E04500E1E0B580E97
:1068A0001E12600E1E19680E1E20700E1E27780E16
:1068B0001E2E800E1E35880E1E3C900E1E43980E16
:1068C0001E4AA00E1E51A80E1E58B00E1E5FB80E16
:1068D0001E66C00E1E6DC80E1E74D00E1E7BD80E16
:1068E0001E82E00E1E89E80E1E90F00E1E97F80E16
:1068F0001E9E000F1EA5080F1EAB100F1EB2180F14
:106900001EB9200F1EC0280F1EC7300F1ECE380F15
:106910001ED5400F1EDC480F1EE3500F1EEA580F15
:106920001EF1600F1EF8680F1C04FF0802740F1E92
:10693000097C0F1E10840F1E178C0F1E1E940F1E35
:10694000249C0F1E2BA40F1E32AC0F1E39B40F1E39
:1069500040BC0F1E47C40F1E4ECC0F1E54D40F1E3A
:106960005BDC0F1E62E40F1E69EC0F1E70F40F1E3D
:1069700077FC0F1E7D04101E840C101E8B14101E3D
:10698000921C101E9924101E9F2C101EA634101E3F
:10699000AD3C101EB444101EBB4C101EC154101E42
:1069A000C85C101ECF64101ED66C101EDC74101E46
:1069B000E37C101EEA84101EF18C101EF794101C4C
:1069C00004FE0901A0101E08A8101E0FB0101E150D
:1069D000B8101E1CC0101E23C8101E29D0101E3057
:1069E000D8101E37E0101E3DE8101E44F0101E4B5C
:1069F000F8101E5100111E5808111E5E10111E6560
:106A000018111E6C20111E7228111E7930111E7F64
:106A100038111E8640111E8C48111E9350111E996C
:106A200058111EA060111EA768111EAD70111EB373
:106A300078111EBA80111EC088111EC790111ECD7C
:106A400098111ED4A0111EDAA8111EE1B0111EE784
:106A5000B8111EEDC0111EF4C8111C06FA0AFD0A79
:106A600001D8111E07E0111E0DE8111E14F0111EB1
:106A70001AF8111E2000121E2708121E2D10121EB9
:106A80003318121E3A20121E4028121E4630121EC3
:106A90004C38121E5340121E5948121E5F50121ECF
:106AA0006558121E6B60121E7268121E7870121EDC
:106AB0007E78121E8480121E8A88121E9090121EEA
:106AC0009798121E9DA0121EA3A8121EA9B0121EF6
:106AD000AFB8121EB5C0121EBBC8121EC1D0121E06
:106AE000C7D8121ECDE0121ED3E8121ED9F0121E16
:106AF000DFF8121EE500131EEB08131EF110131E23
:106B0000F718131EFD15091E0328131E0830131E47
:106B10000E38131E1440131E1A48131E2050131E45
:106B20002658131E2B60131E3168131E3770131E58
:106B30003D78131E4380131E4888131E4E90131E6B
:106B40005498131E59A0131E5FA8131E65B0131E80
:106B50006AB8131E70C0131E76C8131E7BD0131E96
:106B600081D8131E86E0131E8CE8131E92F0131EAC
:106B700097F8131E9D00141EA208141EA810141EC0
:106B8000AD18141EB220141EB828141EBD30141ED9
:106B9000C338141EC840141ECE48141ED350141EF1
:106BA000D858141EDE60141EE368141EE870141E0C
:106BB000ED78141EF380141EF888141EFDC7091EFC
:106BC0000298141E08A0141E0DA8141E12B0141E44
:106BD00017B8141E1CC0141E21C8141E27D0141E62
:106BE0002CD8141E31E0141E36E8141E3BF0141E7F
:106BF00040F8141E4500151E4A08151E4F10151E9C
:106C00005418151E5920151E5E28151E6330151EBA
:106C10006738151E6C40151E7148151E7650151EDE
:106C20007B58151E8060151E8468151E8970151E00
:106C30008E78151E9380151E9788151E9C90151E24
:106C4000A198151EA5A0151EAAA8151EAFB0151E49
:106C5000B3B8151EB8C0151EBCC8151EC1D0151E70
:106C6000C5D8151ECAE0151ECEE8151ED3F0151E98
:106C7000D7F8151EDC00161EE008161EE410161EBE
:106C8000E918161EED20161EF228161EF630161EE6
:106C9000FA38161C04FE0D0144161E054C161E097A
:106CA00054161E0D5C161E1164161E166C161E1A46
:106CB00074161E1E7C161E2284161E268C161E2A74
:106CC00094161E2E9C161E32A4161E36AC161E3AA4
:106CD000B4161E3EBC161E42C4161E46CC161E4AD4
:106CE000D4161E4EDC161E52E4161E56EC161E5A04
:106CF000F4161E5DFC161E6104171E650C171E6936
:106D000014171E6C1C171E7024171E742C171E7768
:106D100034171E7B3C171E7F44171E824C171E869D
:106D200054171E895C171E8D64171E916C171E94D4
:106D300074171E987C171E9B84171E9E8C171EA20C
:106D400094171EA59C171EA9A4171EACAC171EAF46
:106D5000B4171EB3BC171EB6C4171EB9CC171EBC81
:106D6000D4171EC0DC171EC3E4171EC6EC171EC9BD
:106D7000F4171ECCFC171ECF04181ED30C181ED6F9
:106D800014181ED91C181EDC24181EDF2C181EE235
:106D900034181EE53C181EE844181EEA4C181EED77
:106DA00054181EF05C181EF364181EF66C181EF9B9
:106DB00074181EFC7C181EFEB70B1E018C181E04D6
:106DC00094181E069C181E09A4181E0CAC181E0E42
:106DD000B4181E11BC181E14C4181E16CC181E1987
:106DE000D4181E1BDC181E1EE4181E20EC181E23CF
:106DF000F4181E25FC181E2704191E2A0C191E2C17
:106E000014191E2E1C191E3124191E332C191E355F
:106E100034191E383C191E3A44191E3C4C191E3EAA
:106E200054191E405C191E4264191E446C191E47F9
:106E300074191E497C191E4B84191E4D8C191E4F46
:106E400094191E519C192DA2191E54AC191E56B42A
:106E5000191E58BC191E5AC4191E5CCC193E5ED6A8
:106E6000191E60E0191E62E8193E64F2191E66FCE4
:106E7000191E68041A2D0A1A1E6B141A3E6D1E1A6A
:106E80001E6F281A2D2E1A1E72381A2D3E1A3E75A4
:106E90004A1A1E77541A2D5A1A3E7A661A3E7C7286
:106EA0001A3E7E7E1A2D861A3E81921A2D9A1A3E1D
:106EB00084A61A2DAE1A2DB61A2DBE1A3E89CA1AEC
:106EC0002DD21A2DDA1A4DE41A2DEE1A2DF61A2D9E
:106ED000FE1A2D061B4D101B2D1A1B4D241B4D3069
:106EE0001B4D3C1B4D481B4D541B4D601B6D6E1BB9
:106EF0006D7E1B8D901B8DA41BADBA1B0D12DA1B72
:106F0000022FA0020DFF201C0DFF201C0DFF201CD6
:106F10000DFF201C0DFF201C0DFF201C0DFF201C51
:106F20000DFF201C0DFF201C0DFF201C0DFF201C41
:106F30000DFF201C0DFF201C0DFF201C0DFF201C31
:106F40000DFF201C0DFF201C0DFF201C0DFF201C21
:106F50000DB1201C4DBA054D70301E0354302DDB91
:106F60003021151E0660301E0764301E0868302D63
:106F70000D311E0A70305E0B74301E0D56301E0E21
:106F80005A301E0F5E301E1062301E1166301E1207
:106F90006A301E136E301E1472301E1576301E16A7
:106FA0007A301E177E301E1882301E1986301E1A47
:106FB0008A301E1B8E301E1C92301E1D96301E1EE7
:106FC0009A301E1F9E302D45310005002100000023
:046FD00000000000BD
:040000050800214589
:00000001FF
