:020000040801F1
:10F00000683B002015F201081DF201081FF20108FB
:10F0100021F2010823F2010825F201080000000096
:10F0200000000000000000000000000027F20108BE
:10F0300029F20108000000002BF20108B1F90108D3
:10F040002FF201082FF201082FF201082FF2010818
:10F050002FF201082FF201082FF201082FF2010808
:10F060002FF201082FF201082FF201082FF20108F8
:10F070002FF201082FF201082FF201082FF20108E8
:10F080002FF201082FF201082FF201083D0C0208AF
:10F09000750C02082FF201082FF201082FF2010867
:10F0A0002FF2010821FA01082FF201082FF20108BE
:10F0B0002FF201082FF201082FF201082FF20108A8
:10F0C0002FF201082FF201082FF201082FF2010898
:10F0D0002FF201082FF201082FF201082FF2010888
:10F0E0002FF201082FF201082FF201082FF2010878
:10F0F0002FF201082FF201082FF201082FF2010868
:10F100002FF201082FF201082FF201082FF2010857
:10F110002FF201082FF201082FF201082FF2010847
:10F120002FF201082FF201082FF201082FF2010837
:10F1300000F002F800F05EF80AA090E8000C8244AB
:10F140008344AAF10107DA4501D100F053F8AFF288
:10F15000090EBAE80F0013F0010F18BFFB1A43F0B5
:10F1600001031847743400009434000010F8013B88
:10F170000A4413F0030408BF10F8014B1D1108BF27
:10F1800010F8015B641E05D010F8016B641E01F8D5
:10F19000016BF9D1002D15D010F8014B03F00C03D1
:10F1A0000C2BA1EB04040ABF10F8013BA4EB831461
:10F1B000A4EB032405F1010314F8016B5B1E01F8B5
:10F1C000016BF9D5914238BF10F8013BD1D370479C
:10F1D0000023002400250026103A28BF78C1FBD860
:10F1E000520728BF30C148BF0B6070471FB51FBD15
:10F1F00010B510BD00F02FF81146FFF7F7FF01F032
:10F2000067FD00F04DF803B4FFF7F2FF03BC00F018
:10F2100051F800000948804709480047FEE7FEE72B
:10F22000FEE7FEE7FEE7FEE7FEE7FEE7FEE7FEE7B6
:10F2300004480549034A054B70470000C1F901081D
:10F2400031F1010868370020683B00206837002052
:10F25000704770477047754600F028F8AE460500C5
:10F260006946534620F00700854618B020B5FFF7E1
:10F27000DFFFBDE820404FF000064FF000074FF0E1
:10F2800000084FF0000B21F00701AC46ACE8C009C4
:10F29000ACE8C009ACE8C009ACE8C0098D467047CD
:10F2A0000446AFF300802046FFF7ADFF00487047EB
:10F2B0000437002001491820ABBEFEE726000200FB
:10F2C000704700002A49096801F0040149B900218A
:10F2D00041732749096840F2FF7202EA5151016007
:10F2E00008E001214173224909686FF0604202EA97
:10F2F000D10101601E49096801F0020111B9002124
:10F30000817301E0012181731949091D096801F028
:10F310000F01017316490831096801711449083158
:10F3200009680A0A42711249083109680A0C827197
:10F330000F4908310968090EC1710D490C3109687E
:10F3400001720B490C3109680A0A427208490C31F2
:10F3500009680A0C827206490C310968090EC172EB
:10F360000449096841F02001024A11607047000019
:10F37000B06500400C64004010B52948C06940F0F9
:10F3800000702749C8610846806940F00100886123
:10F390002448406820F4C04022494860084640683C
:10F3A00040F4804048601E48806940F008001C49D5
:10F3B00088611D48006820F00F001B49086008465E
:10F3C000006840F0080008600846006820F0F0007F
:10F3D00008600846006840F0B0000860132000F0A4
:10F3E00045F9142000F042F911201049086003206B
:10F3F0000E491431086004240C481C3000680C4984
:10F4000008400A491C31086008460068611EC1F3C3
:10F410000801084A1143084304491C31086010BD23
:10F420000010024000000140040C01400064004054
:10F4300000FE80FC00004B030748006820F001003C
:10F440000549086000BF0448001D006800F0010085
:10F450000028F8D1704700000064004000BF054854
:10F46000006800F080600028F9D00120024908609F
:10F470007047000008640040C436002000212D4A77
:10F480001160417B49B9114609680288002343EAAB
:10F4900042521143274A116008E0264909680423B3
:10F4A000026803EBC2021143224A1160817B21B939
:10F4B000204909681F4A116005E01E49096841F0AA
:10F4C00002011C4A1160C1790A06817942EA0142AF
:10F4D000417942EA012102791143164A083211604A
:10F4E000C17A0A06817A42EA0142417A42EA01215E
:10F4F000027A11430F4A0C3211600E49091D096846
:10F5000021F00F020B49091D0A600968027B02F015
:10F510000F021143074A121D11600749096841F0A3
:10F520000101054A11600349096841F00101014ADE
:10F53000116070478065004014640040044A1168FF
:10F5400000BF034A1268521A8242FAD37047000081
:10F55000000000202DE9F04105461C4C1C491D4AC5
:10F56000126831F8120002F057FF0746294602F0F0
:10F5700067FF064602F030FF2060144C083C154936
:10F580000968154A12681144114A32F8110002F054
:10F5900043FF0746294602F053FF064602F01CFFD0
:10F5A0002060241D0B4909680C4A12681144084A5E
:10F5B00032F8110002F030FF0746294602F040FF02
:10F5C000064602F009FF2060BDE8F081402C0140B2
:10F5D000DC00002040000020040000200800002083
:10F5E0002DE9F04105461C4C1C491D4A126831F8B2
:10F5F000120002F011FF0746294602F021FF0646DD
:10F6000002F0EAFE2060241D15490968154A1268B7
:10F610001144124A32F8110002F0FEFE0746294654
:10F6200002F00EFF064602F0D7FE2060241D0C49B2
:10F6300009680D4A12681144084A32F8110002F0B4
:10F64000EBFE0746294602F0FBFE064602F0C4FE2A
:10F650002060BDE8F081000034340140DC0000206F
:10F66000440000200C0000201000002000F01F02C9
:10F67000012191404209920002F1E022C2F80011FA
:10F68000704710B500F002F810BD00000CB5002066
:10F69000019000903348006840F4803031490860A0
:10F6A00000BF3048006800F4003000900198401C12
:10F6B0000190009818B90198B0F5A06FF1D12948D0
:10F6C000006800F4003010B10120009001E000203B
:10F6D00000900098012843D12348006840F01000B2
:10F6E000214908600846006820F0030008600846C9
:10F6F000006840F0020008601A48406819494860F4
:10F700000846406848600846406840F480604860A9
:10F710000846406820F47C1048600846406840F481
:10F72000E81048600846006840F08070086000BF3C
:10F730000C48006800F000700028F9D009484068C3
:10F7400020F00300074948600846406840F0020086
:10F75000486000BF0348406800F00C000828F9D159
:10F760000CBD000000100240002002402DE9F041D5
:10F7700000203D4908603D4C3D493B4A126831F844
:10F78000120002F056FC07463A4A3B4B02F064FC7A
:10F79000054602F021FC2060344C083C32490968DF
:10F7A000364A12681144324A32F8110002F041FC24
:10F7B0000746304A304B02F04FFC054602F00CFC85
:10F7C0002060241D284909682D4A12681144284ADE
:10F7D00032F8110002F02DFC0746264A264B02F0B3
:10F7E0003BFC054602F0F8FB20600020254908603C
:10F7F000254C1F49234A126831F8120002F019FC07
:10F8000007461C4A1C4B02F027FC054602F0E4FBAD
:10F810002060241D1B4909681C4A12681144144ABF
:10F8200032F8110002F005FC0746124A124B02F0B2
:10F8300013FC054602F0D0FB2060241D1149096825
:10F84000134A126811440A4A32F8110002F0F1FB1F
:10F850000746084A084B02F0FFFB054602F0BCFBD6
:10F860002060BDE8F081000040000020402C0140F5
:10F87000DC0000209A9999999999B93F04000020D9
:10F880000800002044000020343401400C00002017
:10F89000100000200E4801686FF30F01016049F667
:10F8A00099120168114301600A48016821F07F4103
:10F8B0000160016841F019410160001D016821F0FB
:10F8C000FF010160016841F099010160704700008B
:10F8D00004080140001001400A48016821F47061E9
:10F8E0000160016841F480710160001F064A0168EF
:10F8F00011400160054A016811430160044805494F
:10F9000001607047040C0140FFF00FFF0008100079
:10F910000008014000101111234885210160224890
:10F920000C3001210160001D001D0160001D46F624
:10F9300068010160001D0160001D41F211110160AC
:10F940001948283000210160001D4FF47A610160E0
:10F95000154844304FF4404101601348343040F2C0
:10F96000DC51016011488521016010480C300121F3
:10F970000160001D001D0160001D46F66801016068
:10F98000001D0160001D41F211110160074828307F
:10F9900000210160001D4FF47A610160034844308A
:10F9A0004FF4404101607047002C01400034014099
:10F9B00002480068401C01490860704700000020B0
:10F9C00010B51248006840F0010010490860084670
:10F9D00040680F4908400D494860084600680D49D5
:10F9E00008400A4908600846006820F48020086042
:10F9F0000846406820F4FE0048604FF41F0088600D
:10FA0000FFF73FFE04480549086010BD00100240A2
:10FA10000000FFF8FFFFF6FE00F0010808ED00E02F
:10FA20001FB5FE4803900398006840F080010398DA
:10FA30000160FB480068401CF949086008460068FE
:10FA4000012805D10398006840F040010398016047
:10FA5000F3480068322806D1039800684FF6BF715A
:10FA6000084003990860EE480068B0F5E15F02D1F4
:10FA70000020EB490860EB4803900398006820F0F1
:10FA8000010103980160E848007830B3E548303060
:10FA900003904FF47A7103980160E2482830039094
:10FAA000490003980160DF482C30039040F6B831DC
:10FAB00003980160DD4803904FF47A710398016068
:10FAC000DA48001D0390490003980160D7480830C8
:10FAD000039040F6B83103980160D548007800F0F3
:10FAE000800000286CD0D348D349096850F8210021
:10FAF000D24909680844D149086008460068B0F551
:10FB0000616F04D308460068A0F561600860C548CD
:10FB100030300390CA48C949096830F81100009094
:10FB200002F07AFC0190C7480168019802F088FC55
:10FB3000029002F051FC03990860BA482830039003
:10FB4000BE480068C04909680844BD4931F8100042
:10FB5000009002F061FC0190BA480168019802F03F
:10FB60006FFC029002F038FC03990860AD482C301D
:10FB70000390B2480068B54909680844B04931F8B3
:10FB80001000009002F048FC0190AE480168019816
:10FB900002F056FC029002F01FFC03990860A64890
:10FBA0000068401CA449086008460068B0F5BD7FA5
:10FBB00005D39F48007800F07F009D490870A8E3B6
:10FBC0009B48007800F0400000286AD0A0480068F8
:10FBD000002866D099480068213098490860084696
:10FBE0000068B0F5616F04D308460068A0F5616055
:10FBF00008608C483030039091489049096830F88B
:10FC00001100009002F008FC0190924801680198F0
:10FC100002F016FC029002F0DFFB039908608148B5
:10FC2000283003908548006887490968084484495A
:10FC300031F81000009002F0EFFB01908548016858
:10FC4000019802F0FDFB029002F0C6FB03990860E8
:10FC500074482C300390794800687C49096808444E
:10FC6000774931F81000009002F0D6FB01907948F6
:10FC70000168019802F0E4FB029002F0ADFB0399E9
:10FC8000086073480068401E7149086008460068B3
:10FC9000002894D16648007800F03F00644908705D
:10FCA00037E36348007800F0200000286DD06248F8
:10FCB0000068401E604908605E48096850F82100ED
:10FCC0005E49096808445D49086008460068B0F567
:10FCD000616F04D308460068A0F561600860514870
:10FCE0003030039056485549096830F811000090AB
:10FCF00002F092FB019058480168019802F0A0FBC5
:10FD0000029002F069FB039908604648283003908E
:10FD10004A4800684C4909680844494931F81000CC
:10FD2000009002F079FB01904B480168019802F0C5
:10FD300087FB029002F050FB0399086039482C3091
:10FD400003903E4800684149096808443C4931F83D
:10FD50001000009002F060FB01903F48016801989C
:10FD600002F06EFB029002F037FB03990860324804
:10FD70000068002894D12E48007800F01F002C491C
:10FD800008703648FFF7E6FBC3E22948007800F028
:10FD9000100000287ED027482749096850F8210024
:10FDA00026490968081A2549086008460068B0F520
:10FDB000616F04D30846006800F561600860194867
:10FDC000303003901E481D49096830F8110000903A
:10FDD00002F022FB01901B480168019802F030FB01
:10FDE000029002F0F9FA039908600E482830039057
:10FDF00012480068144909680844114931F8100094
:10FE0000009002F009FB01900E480168019802F091
:10FE100017FB029002F0E0FA039921E00C08014080
:10FE200014000020102C01403F0000203434014019
:10FE300038000020DC3000204C0000204000002072
:10FE4000DC000020980000200400002008000020B2
:10FE500054000020940000209C000020CDCC4C3D9C
:10FE60000860FE480390FE480068FE49096808449F
:10FE7000FD4931F81000009002F0CEFA0190FB48E5
:10FE80000168019802F0DCFA029002F0A5FA0399E9
:10FE9000086000E010E0F6480068401CF449086083
:10FEA00008460068B0F5BD7F05D3F248007800F041
:10FEB0000F00F04908702CE2EE48007800F00800CE
:10FEC000002869D0EC480068002865D0E448006844
:10FED0002138E349086008460068B0F5616F04D92D
:10FEE0000846006800F561600860DC48001D03906A
:10FEF000DD48DB49096830F81100009002F08CFA07
:10FF00000190DE480168019802F09AFA029002F02E
:10FF100063FA03990860D148001F0390D048006835
:10FF2000D74909680844D04931F81000009002F020
:10FF300073FA0190D1480168019802F081FA0290A9
:10FF400002F04AFA03990860C4480390C448006864
:10FF5000C44909680844C44931F81000009002F00F
:10FF60005BFA0190C5480168019802F069FA0290B5
:10FF700002F032FA03990860BF480068401EBE498B
:10FF8000086008460068002895D1BA48007800F05B
:10FF90000700B8490870BCE1B648007800F00400DA
:10FFA00000286CD0B2480068401EB1490860B548CE
:10FFB000096850F82100AA490968081AA849086088
:10FFC00008460068B0F5616F04D90846006800F57E
:10FFD00061600860A148001D0390A348A04909681A
:10FFE00030F81100009002F017FA0190A64801685D
:10FFF000019802F025FA029002F0EEF903990860E8
:020000040802F0
:100000009648001F0390964800689D490968084477
:10001000954931F81000009002F0FEF901909A48DD
:100020000168019802F00CFA029002F0D5F90399E8
:1000300008608A4803908A4800688A490968084429
:10004000894931F81000009002F0E6F901908E48DD
:100050000168019802F0F4F9029002F0BDF90399E9
:10006000086083480068002895D18248007800F035
:100070000300804908708548FFF76CFA49E17D4824
:10008000007800F0020000287ED081480068002837
:100090007AD0804800688049096888427AD3002075
:1000A0007C4908606E480068401E6D49086008463B
:1000B0000068B0F5616F04D90846006800F561601A
:1000C00008606648001D039067486549096830F874
:1000D0001100009002F0A0F90190704801680198A9
:1000E00002F0AEF9029002F077F9039908605B48DC
:1000F000001F03905A4800686149096808445A493A
:1001000031F81000009002F087F90190634801680F
:10011000019802F095F9029002F05EF903990860E7
:100120004E4803904E4800684E49096808444E49BD
:1001300031F81000009002F06FF901905748016803
:10014000019802F07DF9029002F046F903990860E7
:100150004F480068401E4E49086008460068B0F5E8
:10016000617F07D84E480078012803D14FF07E50B8
:100170004A4908604648006838B93E48007800F0AF
:1001800001003C49087001E00AE003E045480068CE
:10019000FFF7E0F93F480068401C3E490860B8E0BE
:1001A0003448007800F00100002855D03E4800682F
:1001B000002851D0374800683C49096888424CD330
:1001C00000203449086026480068401C2449086023
:1001D00008460068B0F5616F04D308460068A0F5D2
:1001E000616008601D48001D03901F481C49096894
:1001F00030F81100009002F00FF901902C480168CE
:10020000019802F01DF9029002F0E6F803990860E7
:100210001248001F039012480068194909680844F1
:10022000114931F81000009002F0F6F801902048D2
:100230000168019802F004F9029002F0CDF80399E8
:1002400008600648039006480068064909680844A3
:10025000054931F810002DE05BE055E03C2C0140F1
:100260004000002008000020DC0000209800002052
:100270004C00002038000020540000209400002092
:1002800004000020DC3000209C000020CDCC4C3D40
:10029000640000207C00002074000020AC000020DE
:1002A00049000020D00000205C0000206C000020ED
:1002B000A4000020009002F0AFF80190F948016816
:1002C000019802F0BDF8029002F086F803990860E8
:1002D000F5480068401EF449086008460068B0F51B
:1002E000617F07D8F1480078012803D14FF07E5094
:1002F000EC490860EC48006830B90020EC4908700F
:10030000EC480068FFF726F9EB480068401CEA4912
:100310000860EA48007800F0800000286BD0E848C8
:10032000E849096850F82100E74909680844E649A6
:10033000086008460068B0F5616F04D3084600689D
:10034000A0F561600860E1480390E148DE49096872
:1003500030F81100009002F05FF80190DD4801686C
:10036000019802F06DF8029002F036F803990860E7
:10037000D648001D0390D4480068D749096808444E
:10038000D34931F81000009002F046F80190D148AE
:100390000168019802F054F8029002F01DF80399E8
:1003A0000860CA4808300390C7480068CB4909680C
:1003B0000844C74931F81000009002F02DF8019070
:1003C000C4480168019802F03BF8029002F004F87A
:1003D00003990860BB480068401CBA490860084699
:1003E0000068B0F5BD7F05D3B448007800F07F0009
:1003F000B2490870ABE3B148007800F04000002833
:100400006AD0B7480068E8B3AF4800682130AE4909
:10041000086008460068B0F5616F04D308460068BC
:10042000A0F561600860A9480390A948A649096839
:1004300030F81100009001F0EFFF0190A948016829
:10044000019801F0FDFF029001F0C6FF03990860DA
:100450009E48001D03909C4800689F490968084415
:100460009B4931F81000009001F0D6FF01909D48A3
:100470000168019801F0E4FF029001F0ADFF0399DB
:10048000086000E028E09148083003908E4800683A
:100490009249096808448E4931F81000009001F033
:1004A000BBFF01908F480168019801F0C9FF0290DD
:1004B00001F092FF0399086089480068401E88494E
:1004C000086008460068002894D17C48007800F055
:1004D0003F007A4908703AE37848007800F020003D
:1004E00000286CD077480068401E76490860744840
:1004F000096850F821007449096808447249086085
:1005000008460068B0F5616F04D308460068A0F59E
:10051000616008606D4803906D486B49096830F868
:100520001100009001F078FF01906F480168019878
:1005300001F086FF029001F04FFF039908606348C5
:10054000001D0390604800686349096808446049D9
:1005500031F81000009001F05FFF019062480168DF
:10056000019801F06DFF029001F036FF03990860D9
:1005700056480830039054480068584909680844B0
:10058000534931F81000009001F046FF01905648A1
:100590000168019801F054FF029001F01DFF0399DA
:1005A000086048480068002895D14448007800F069
:1005B0001F00424908704D48FFF712F8C7E23F4854
:1005C000007800F01000E8B33D483E49096850F853
:1005D00021003D490968081A3B490860084600683F
:1005E000B0F5616F04D90846006800F561600860E5
:1005F0003648039036483449096830F811000090B5
:1006000001F00AFF019033480168019801F018FFDA
:10061000029001F0E1FE039908602C48001D039050
:10062000294800682C4909680844294931F8100014
:10063000009001F0F1FE019026480168019801F058
:10064000FFFE00E054E0029001F0C6FE039908604E
:100650001E48083003901C48006820490968084477
:100660001B4931F81000009001F0D6FE01901948A6
:100670000168019801F0E4FE029001F0ADFE0399DB
:10068000086010480068401C0E4908600846006871
:10069000B0F5BD7F92D30948007800F00F000749FC
:1006A000087054E2A40000205C00002048000020F4
:1006B00038000020CC0000207C0000203900002001
:1006C000DC30002050000020440000203434014081
:1006D000DC000020B40000200C00002010000020EE
:1006E00058000020B0000020B8000020CDCC4C3DC8
:1006F000FE48007800F00800F0B3FD480068D8B369
:10070000FC4800682138FB49086008460068B0F5DD
:10071000616F04D90846006800F561600860F6481A
:100720000390F648F349096830F81100009001F091
:1007300073FE0190F2480168019801F081FE029079
:1007400001F04AFE03990860EB48001D0390E94858
:100750000068EC4909680844E84931F81000009045
:1007600001F05AFE0190E6480168019801F068FE28
:10077000029001F031FE00E02AE003990860DE48B3
:1007800008300390DB480068DF4909680844DB490A
:1007900031F81000009001F03FFE0190D848016848
:1007A000019801F04DFE029001F016FE03990860D9
:1007B000CF480068401ECE490860084600680028FF
:1007C00005D1CA48007800F00700C8490870BEE1AA
:1007D000C648007800F00400F0B3CC480068401E22
:1007E000CA490860CA48096850F82100C149096827
:1007F000081AC049086008460068B0F5616F04D95E
:100800000846006800F561600860BB480390BB487B
:10081000B849096830F81100009001F0FDFD019021
:10082000BC480168019801F00BFE029001F0D4FD74
:1008300003990860B048001D0390AE480068B149B4
:1008400009680844AD4931F81000009001F0E4FD5A
:100850000190B048016800E02EE0019801F0F0FD41
:10086000029001F0B9FD03990860A3480830039095
:10087000A0480068A44909680844A04931F810005C
:10088000009001F0C9FD0190A2480168019801F0B3
:10089000D7FD029001F0A0FD039908609B48006815
:1008A000002894D19148007800F003008F49087027
:1008B0009948FEF795FE4AE18C48007800F0020066
:1008C00000287DD095480068002879D094480068B9
:1008D0009449096888427AD3002091490860854884
:1008E0000068401E8349086008460068B0F5616FE3
:1008F00004D90846006800F5616008607E480390EE
:100900007E487C49096830F81100009001F084FDB0
:10091000019085480168019801F092FD029001F074
:100920005BFD039908607448001D039071480068DE
:10093000744909680844714931F81000009001F0C9
:100940006BFD019078480168019801F079FD0290F3
:1009500001F042FD0399086067480830039065483C
:100960000068694909680844644931F8100000903A
:1009700001F052FD01906C480168019801F060FDA2
:10098000029001F029FD0399086064480068401E48
:100990006249086008460068B0F5617F07D863487F
:1009A0000078012803D14FF07E505F4908605B4812
:1009B000006830B94D48007800F001004B4901E073
:1009C0000BE004E008705A480068FEF709FE54483E
:1009D0000068401C52490860B9E04448007800F0C3
:1009E0000100002840D053480068E8B34C48006834
:1009F00051490968884276D30020494908603D483A
:100A00000068401C3B49086008460068B0F5616F0B
:100A100004D308460068A0F561600860364803907A
:100A200036483449096830F81100009001F0F4FCB0
:100A3000019042480168019801F002FD029001F026
:100A4000CBFC039908602C48001D039029480068DE
:100A50002C4909680844294931F81000009001F038
:100A6000DBFC0190354800E071E00168019801F07D
:100A7000E7FC029001F0B0FC039908601E480830C2
:100A800003901C4800682049096808441B4931F854
:100A90001000009001F0C0FC019028480168019806
:100AA00001F0CEFC029001F097FC03990860214808
:100AB0000068401E1F49086008460068B0F5617F65
:100AC00007D81F480078012803D14FF07E501B49FA
:100AD00008601848006830B90020044908701948B7
:100AE0000068FEF77DFD0E4800682DE0390000200B
:100AF000580000204400002034340140DC00002075
:100B0000B00000200C000020100000205000002049
:100B1000DC300020B8000020CDCC4C3D6800002027
:100B20008000002078000020C80000204B0000203A
:100B3000D80000206000002070000020C0000020CD
:100B40004A000020D4000020401C2B4908602B489C
:100B50000078F0B12A4800682A4908602A480068ED
:100B60002A4908602A4800682A4908602A4800681B
:100B70002A4908602A4800782A4908702A480078DB
:100B80002A490870002026490870274908701B4927
:100B900008702748007888B1002025490870184857
:100BA0000068184908601A4800681A4908601C481B
:100BB00000781C4908700020194908701D48007809
:100BC00088B100201B4908700F4800680F49086071
:100BD00011480068114908601348007813490870EB
:100BE000002011490870144803900398006820F011
:100BF0008001039801601FBD800000203C000020A0
:100C0000A0000020A4000020BC000020C0000020A4
:100C1000A8000020AC000020C4000020C800002074
:100C20003A000020380000203B000020390000205E
:100C30003D0000203E0000200C0801400B480068E9
:100C400000F0010080B10948006840F00100074948
:100C5000086006480C30006820F0010003490C31A0
:100C600008600120024908607047000008640040E5
:100C7000C436002000B50648006800F0030028B123
:100C80000448FEF71FFB01200349086000BD000077
:100C90000C640040F4360020C836002010B5FEF782
:100CA0006BFBFEF7C9FBFEF7D9FB10BD10B5044680
:100CB000064B186840F0400018602046FEF73EFCE6
:100CC0004FF6BF7118680840186010BD0C0801404D
:100CD000AAB00024FD4D4AF63D71286808432860FB
:100CE000FEF7FAFDFA4D286840F020002860F94828
:100CF00000684FF47A72B0FBF2F1481EB0F1807FC9
:100D000000D31BE0481E4FF0E022506150170F2225
:100D1000002807DA13071F0EEF4B00F00F06361FEF
:100D20009F5503E013071E0EEC4B1E5400BF00201E
:100D30004FF0E02290610720106100BFFFF7AEFF87
:100D4000E74D286840F001002860E54D1C35286813
:100D50006FF30D002860E24D286820F00100286044
:100D600000BF286840F001002860DD4D1C35286870
:100D700040F001002860DA4D1435286820F00100A9
:100D80002860D74D0C35286840F001002860D44D0C
:100D90002D1D286820F0010028604FF47B74D04D91
:100DA0004035042000EBC42028602D1DCD4828606C
:100DB000CB4D286820F001002860FEF76BFDFEF7A0
:100DC000ABFDFEF7D3FC19200121814042099200BE
:100DD00002F1E022C2F8001100BFFDE3C248006842
:100DE00010B100F007FEF8E7BF4800680028F4D112
:100DF000804600278246834600264FF00A09FEF708
:100E00009DFBBA480068002871D1B94908600024E8
:100E1000AAE000BFB74800680028FBD00020B54911
:100E2000086082463220FFF741FF02A800EB041061
:100E3000DFF8C4C29CE80E10A0E80E1002A800EB78
:100E40000410007802A901EB041180460860B8F193
:100E5000050F05D0B8F1060F02D0B8F1070F7BD10E
:100E600002A800EB0410007900F0030BBBF1000FA7
:100E700006D0BBF1010F0BD0BBF1020F6AD137E0F6
:100E80004FF0010A4C46D14601209C49086061E0C0
:100E9000264602A800EB0410017902A800EB04101A
:100EA0004079014402A800EB04108079014402A8B3
:100EB00000EB0410C079014402A800EB0410007A92
:100EC000014402A800EB0410407A014402A800EBA0
:100ED0000410807A014402A800EB0410C07A084490
:100EE00040448349096808448149086032E041E090
:100EF000264604F1010902A800EB0410017902A8BA
:100F000000EB04104079014402A800EB0410807942
:100F1000014402A800EB0410C079014402A800EBD0
:100F20000410007A014402A800EB0410407A014446
:100F300002A800EB0410807A014402A800EB041020
:100F4000C07A084440446A4909680844684908600E
:100F50004C4600BF07E0FFE74FF0010A4C46D14680
:100F6000012066490860641C4C45FFF652AF012021
:100F70005E4908605F480068E0B35C480068C8B339
:100F800000205C4908605C4800785B498046086046
:100F9000B8F10B0F02D14FF0010A3AE0B8F1080F97
:100FA0000AD155480079042806D1002204214FF4C3
:100FB0007B7000F0ADFF2CE0B8F10C0F29D14E484A
:100FC000007901064C48407901EB00414A4880799C
:100FD00001EB00214848C0790844494908600846A7
:100FE000006843490968884205D101270120434927
:100FF000086004E00DE0022700203C4908603C48FE
:10100000394602683E48006800F082FF00203849F7
:1010100008603648006800287ED000F0DFFC10B978
:10102000BAF1000FF8D0354800680028F4D04FF02E
:10103000000A0020314908600024FCE33220FFF759
:1010400035FE02A800EB0410007802A901EB0411A0
:1010500080460860A8F102000C287CD2DFE800F08E
:101060000699C2FEFDFCFBFAF9F8F7F602A901EBBE
:101070000411087901F0D0F92249019001F0EAF851
:1010800021490860084600682049086002A901EB70
:101090000411487901F0C0F91A49019001F0DAF819
:1010A0001B49086002A901EB0411887901F0B4F929
:1010B0001449019001F0CEF81649086002A901EB2D
:1010C0000411C87901F0A8F90E4926E01810024071
:1010D0000C0C0140D036002018ED00E000E400E0E8
:1010E0000066004006F8FFFF2400002020000020DA
:1010F00088000020C8360020F43600208C00002034
:10110000840000200000C842980000209C000020BD
:1011100094000020A0000020F4E3019001F09AF870
:10112000FE49086002A901EB0411087A01F074F984
:10113000FB49019001F08EF8FA4908600846006802
:10114000F949086002A901EB0411487A01F064F939
:10115000F349019000E0B7E301F07CF8F34908603F
:1011600002A901EB0411887A01F056F9EC490190CB
:1011700001F070F8EE49086002A901EB0411C87A89
:1011800001F04AF9E649019001F064F8E949086084
:10119000EEE3E948417902A800EB0410007901EB85
:1011A0000020E6490860E448C17902A800EB041079
:1011B000807901EB0020E2490860DF48417A02A80B
:1011C00000EB0410007A01EB0020DE490860DA48E9
:1011D000C17A02A800EB0410807A01EB0020DA4902
:1011E0000860C5E302A901EB0411087901F014F9C4
:1011F000CB49019001F02EF8D449086002A901EB17
:101200000411487901F008F9C549019001F022F86C
:10121000CF49086002A901EB0411887901F0FCF8BC
:10122000BF49019001F016F8CA49086002A901EB14
:101230000411C87901F0F0F8B949019001F00AF8F9
:10124000C549086002A800EB041008E087E379E3D1
:1012500075E36BE362E338E348E103E135E0007AEC
:1012600000F0200018B10120BC49087002E0002005
:10127000BA49087002A800EB0410007A00F01000D0
:1012800018B10120B649087002E00020B449087086
:1012900002A800EB0410007A00F0020018B101204F
:1012A000B049087002E00020AE49087002A800EBC7
:1012B0000410007A00F0010018B10120AA4908705A
:1012C00002E00020A849087052E302A800EB0410D5
:1012D000407900F00707042F1CD102A800EB04108E
:1012E0008079010602A800EB0410C07901EB0041EF
:1012F00002A800EB0410007A01EB002102A800EB29
:101300000410407A084499490860084600689849E2
:1013100008609FE0052F1CD102A800EB0410807923
:10132000010602A800EB0410C07901EB004102A8FD
:1013300000EB0410007A01EB002102A800EB04107E
:10134000407A08448B49086008460068884908606C
:1013500080E0062F01D0072F1DD102A800EB04105A
:101360008079010602A800EB0410C07901EB00416E
:1013700002A800EB0410007A01EB002102A800EBA8
:101380000410407A08447C4908600846006878499F
:10139000086006275EE0EFB902A800EB0410807930
:1013A000010602A800EB0410C07901EB004102A87D
:1013B00000EB0410007A01EB002102A800EB0410FE
:1013C000407A08446D49086008460068684908602A
:1013D00000273FE0012F1CD102A800EB0410807908
:1013E000010602A800EB0410C07901EB004102A83D
:1013F00000EB0410007A01EB002102A800EB0410BE
:10140000407A08445E490860084600685849086008
:1014100020E0022F01D0032F1CD102A800EB041002
:101420008079010602A800EB0410C07901EB0041AD
:1014300002A800EB0410007A01EB002102A800EBE7
:101440000410407A08444F4908600846006848493B
:10145000086002274648394602684FF47B7000F066
:1014600057FD85E202A800EB0410407900F001006E
:10147000D8B102A800EB041080794FF47A71484388
:101480004149086002A800EB0410C0794FF47A715A
:1014900048433E4908603C480068096842180121F9
:1014A0004FF47B7000F034FD1FE002A800EB041045
:1014B0004079D0B902A800EB041080794FF47A711A
:1014C00048433349086002A800EB0410C0794FF488
:1014D0007A7148432D4908602D4800680968421810
:1014E00000214FF47B7000F013FD41E202A800EBF5
:1014F000041000792749087002A800EB0410407915
:10150000254908701F48006828B92248007800F073
:10151000B70020490870194800683FE0A800002083
:101520000000C842B4000020B8000020B000002035
:10153000BC000020C4000020F43600206C00002015
:10154000740000207000002078000020CC000020F3
:10155000D0000020D4000020D80000204800002047
:10156000490000204A0000204B00002060000020BD
:101570008400002068000020580000205C0000204B
:1015800064000020540000202C00002034000020C3
:10159000300000203A0000203B00002028B9FA4823
:1015A000007800F0FE00F8490870F848006828B993
:1015B000F548007800F0FD00F3490870F448006831
:1015C00028B9F448007800F0B700F2490870F248F2
:1015D000006838B9EF4800E0D3E1007800F0FE0081
:1015E000EC490870ED48006828B9EA48007800F036
:1015F000FD00E8490870EA480068E0BBE948006877
:10160000C8BBE2480068B0BBE148006808B90120E7
:1016100000E0002068B1E048006808B9012000E05F
:10162000002030B1DD48006808B9012000E000204A
:1016300008BBDD480068FDF781FF0120DB49087029
:1016400002E0012000F09EFCD948007810B9D9488A
:10165000007858B1D648007800F001000028F0D09A
:10166000D448007800F001000028EAD0D248007881
:101670000028E6D100E006E000F084FCCF480068D6
:10168000FDF75CFF1AE1C2480068E0BBC248006891
:10169000C8BBC2480068B0BBC148006808B9012097
:1016A00000E0002068B1BF48006808B9012000E0F0
:1016B000002030B1B548006808B9012000E00020E2
:1016C00008BBBF480068FDF739FF0120BD4908701D
:1016D00002E0012000F056FCB548007810B9B5488A
:1016E000007858B1B248007800F001000028F0D02E
:1016F000B048007800F001000028EAD0AE48007839
:101700000028E6D100E006E000F03CFCAB480068B1
:10171000FDF714FFD2E09E48006808B9012000E000
:10172000002070B19C48006808B9012000E000204A
:1017300038B19A48006808B9012000E0002000286C
:101740007AD19748006808B9012000E0002070B104
:101750009448006808B9012000E0002038B18B48A7
:10176000006808B9012000E00020002864D19448F6
:1017700000688D490968884227D191480068FDF7C3
:10178000DDFE01208C49087002E0012000F0FAFB28
:101790008748007810B98748007858B184480078A5
:1017A00000F001000028F0D08248007800F001002D
:1017B0000028EAD0804800780028E6D100F0E2FB5B
:1017C0007E480068FDF7BAFE71E07D480068764902
:1017D0000968884234DD74480068FDF7AFFE0120D7
:1017E00072490870764909686F4A1268881AFDF7CD
:1017F000A5FE01207349087002E0012000F0C2FB41
:101800006B48007810B96B48007858B16848007888
:1018100000F001000028F0D06648007800F00100D8
:101820000028EAD0644800780028E6D100F0AAFB3E
:101830006248006801E09DE040E0FDF77FFE36E091
:10184000594800685E490968884230DD5C48006894
:10185000FDF774FE01205B49087053490968584A36
:101860001268881AFDF76AFE01205049087002E0EC
:10187000012000F087FB4E48007810B94D480078F1
:1018800058B14B48007800F001000028F0D04948DA
:10189000007800F001000028EAD0474800780028CE
:1018A000E6D100F06FFB45480068FDF747FE0020D9
:1018B0003D4908604249086040490860072200210C
:1018C0004FF47B7000F024FB52E002A800EB041000
:1018D0000779012F03D10A20FDF730FE16E0022F11
:1018E00004D14FF47B70384908600FE0032F03D117
:1018F00013203549086009E0042F04D10020324943
:10190000086003E03CE0052F00D000BF2E483946B8
:1019100002684FF47B7000F0FBFA29E002A800EBAC
:1019200004100779384600F02DFB21E027480078A5
:1019300008B9012000E000202449087018E04FF0A9
:10194000010A15E0224800681F490860032708467D
:10195000394602684FF47B7000F0DAFA08E01D485F
:10196000006808B9012000E000201A49086000BFA3
:1019700000BF641C4C45FFF661AB002016490860AF
:1019800000BFFFF72BBA00003A00002064000020DF
:10199000580000203B00002060000020680000206C
:1019A000540000205C0000202C0000203E0000209D
:1019B00038000020390000203C00002034000020C6
:1019C000300000203D000020840000203F00002067
:1019D000880000202400002020000020002004496E
:1019E000096801F0040109B1012000E000207047FE
:1019F000080C01402DE9F0410025F94C206840F029
:101A000001002060F64C1C3420686FF30D0020604C
:101A1000F34C206820F00100206000BF206840F0F7
:101A200001002060EE4C1C34206840F00100206072
:101A3000EB4C1434206820F001002060E84C0C349A
:101A4000206840F001002060E54C241D206820F053
:101A5000010020604FF47B75E14C4034042000EB22
:101A6000C5102060241D6FF079002060DC4C2068D8
:101A700020F0010020603EE200260A20FDF75EFD16
:101A8000D848006800286FD00020D649086032206E
:101A9000FFF70CF9D448007800F00F00D249064651
:101AA0000860B01E09285ED2DFE800F0055F7CD533
:101AB000F7F5F4F3F200CC49087900F0ADFC0746E5
:101AC000CA4900F0C7FBCA49086008460068C9490E
:101AD0000860C549487900F09FFC0746C34900F0FB
:101AE000B9FBC5490860C049887900F095FC0746F4
:101AF000BE4900F0AFFBC1490860BB49C87900F09E
:101B00008BFC0746B94900F0A5FBBD490860B64902
:101B1000087A00F081FC0746B44900F09BFBB94904
:101B2000086008460068B8490860AF49487A00F084
:101B300073FC0746AD4900F08DFBB4490860AA4923
:101B4000887A00F069FC0746A84900F083FBB04999
:101B50000860A549C87A00F05FFC0746A34900F079
:101B600079FBAC490860C4E1C4E19F484179007940
:101B700001EB0020A84908609B48C179807901EBFE
:101B80000020A64908609848417A007A01EB0020BD
:101B9000A34908609448C17A807A01EB0020A149EA
:101BA0000860A6E19049087900F036FC07468F49A5
:101BB00000F050FB9C4908608B49487900F02CFCF0
:101BC00007468A4900F046FB9849086086498879AB
:101BD00000F022FC0746854900F03CFB9449086070
:101BE0008149C87900F018FC0746804900F032FBB3
:101BF000904908607C48007A00F0200018B101206C
:101C00008D49087002E000208B4908707648007A00
:101C100000F0100018B101208849087002E000208F
:101C2000864908707048007A00F0020018B101205F
:101C30008349087002E00020814908706A48007AF0
:101C400000F0010018B101207E49087002E0002078
:101C50007C4908704DE164484179007901EB00202E
:101C6000794908606048C179807901EB00207749A3
:101C700008605D48417A007A01EB002074490860F1
:101C80005948C17A807A01EB00207249086030E13E
:101C9000A0E08FE060E01DE0FFE753484179007964
:101CA00001EB00206C4908604F48C179807901EB55
:101CB0000020664908604C48417A007A01EB002018
:101CC000664908604848C17A807A01EB0020614982
:101CD00008600EE144480079614908704248407943
:101CE000604908705848006828B95D48007800F0DD
:101CF000B7005B4908705548006828B95848007813
:101D000000F0FE00564908705348006828B954484E
:101D1000007800F0FD00524908704D48006828B96D
:101D20005048007800F0B7004E49087049480068F4
:101D300028B94C48007800F0FE004A49087047482E
:101D4000006828B94748007800F0FD004549087050
:101D5000012045490870CCE09620FEF7A7FF4FF41C
:101D6000FA70FDF7EBFB9620FEF7A0FF4FF4FA7038
:101D7000FDF7E4FB9620FEF799FF4FF4FA70FDF7AC
:101D8000DDFB9620FEF792FF4FF4FA70FDF7D6FBCD
:101D90009620FEF78BFF4FF4FA70FDF7CFFB9620ED
:101DA000FEF784FF4FF4FA70FDF7C8FB9620FEF7AC
:101DB0007DFF9EE03220FEF779FFFA20FDF7BEFBA3
:101DC0003220FEF773FFFA20FDF7B8FB3220FEF752
:101DD0006DFF8EE02548006808B9012049E047E022
:101DE00000660040C8360020F43600200000C842DB
:101DF000980000209C00002094000020A0000020FB
:101E0000A8000020B4000020B8000020B00000208E
:101E1000BC000020C40000206C00002074000020E2
:101E20007000002078000020CC000020D0000020AE
:101E3000D4000020D80000204800002049000020E5
:101E40004A0000204B000020540000205C000020CD
:101E5000580000206000002064000020680000207E
:101E60003A0000203B0000203C000020240000201D
:101E7000002024490860244C206840F001002060C4
:101E8000214C1C3420686FF30D0020601E4C20682C
:101E900020F00100206000BF206840F001002060B9
:101EA000194C1C34206840F001002060164C14349A
:101EB000206820F001002060134C0C34206840F0B2
:101EC00001002060104C241D206820F001002060DB
:101ED0004FF47B750C4C4034042000EBC52020608F
:101EE000241D0A482060084C206820F00100206072
:101EF00000BF00BF00BF0348006800287FF4BCADEE
:101F0000BDE8F081240000200066004006F8FFFFD5
:101F10002DE9F04106460F461446FEF7BFFE17486E
:101F20000660002504E000211448001D41556D1C89
:101F3000082DF8DB052011490873012048730020A3
:101F400088736420FDF7FAFA0D480068A0B10020FC
:101F50000B49086009490F7108460472210AC171D2
:101F6000210C8171210E4171FDF788FA6420FDF783
:101F7000E5FA012002490860BDE8F081E43600205E
:101F8000C436002001461348012904D1026842F0FA
:101F9000300202601DE0022909D1026842F01002FD
:101FA00002604FF6DF7302681A40026011E00329F5
:101FB00009D1026842F0200202604FF6EF73026816
:101FC0001A40026005E021B94FF6CF7302681A404B
:101FD000026070470C0801404FEA1153A3F580637B
:101FE000D3F11E03A8BFD3F1200C08DB4FF0004251
:101FF00042EAC12252EA505232FA03F070470942D3
:102000000BD4102BC4BF0020704703F5787CBCF1C3
:10201000FF3F05D04FF0FF3070474FF00000704792
:1020200070B500F0C3F800BF4992248000207047CB
:10203000F0E7B0FA80F310FA03F10AD0C3F11D0300
:1020400003F580634FEA41504FEA035202EBD1217E
:1020500070474FF000007047DFF848C170B51CEAC8
:10206000111E1EBF1CEA13159EEA0C0F95EA0C0FF9
:1020700000F06F8081EA030423EA4C134EEAD47E19
:1020800021EA4C1141F4801143F48013AE44A1FBCA
:10209000024CA0FB0365AEF17F7E361955EB0C05B3
:1020A000A1FB034C4CF10003A0FB021C16EB0C0639
:1020B000654153F10003094218BF46F0010613F4CD
:1020C000007F0BD14FEA03314FEA0530340341EA78
:1020D000155140EA16506FF003020AE04FEAC3219F
:1020E0004FEAC520F40241EA555140EA56506FF0DC
:1020F000020202EB2E4201EB025585EACE710AD0B4
:102100005FEA440C18BF24F0004450F1000041F194
:10211000000120EAD47040F2FE7C624500D270BD1E
:10212000A84214BF4FF080444FF04044002E08BF37
:102130000024BEF1806FA8BFA1F1C041BDE870408E
:1021400080F282804FF0000001F1C04101F00041B7
:1021500070479EEA0C0F0CEA131518BF95EA0C0F96
:1021600006D04FF0000081EA030E0EF0004170BD72
:1021700000F01CF88900013E00F007B800F009B833
:102180004FEA430C5FEA5C5C08D081EA030100F08F
:102190005BB84FEA410C5FEA5C5CF6D14FF000009F
:1021A000014970470000FF070000F87F0EF1020EA2
:1021B0002EF0030E5EF8046B364205D4012A43EB81
:1021C000030515F5001F12D8012841EB010C1CF581
:1021D000001F0CD80ED14FEAD17C15F5001F0CEB77
:1021E0004C0C0CF1020C08BF4CEBD37C04E04FF01C
:1021F000080C01E04FEAD37C0CEB4C0526FA05F6FF
:1022000006F00706B6F1040C06D20EEB860CBDE80C
:1022100070404CF0010C6047DFE80CF0090B020243
:102220004FF000414FF00000A1F5002170BD1946AC
:102230001046012851EB010418BFD4F5001484BFE7
:10224000002001F0004170BD0808A0F500114FEA20
:10225000310170474FF47F0C1CEAD0121EBF1CEAFC
:10226000D11392EA0C0F93EA0C0F00F0858090EAEC
:10227000010F48BF42F4807240F4000C41F40000AA
:102280002CF07F4120F07F4000B58142A2EB030299
:102290000FF2081CACEB504EC0F100009EF800E0BD
:1022A0004FEA4E0E00FB0EFC38BF49004FEA2C1CD3
:1022B00002F5FA020CFB0EF34FEACE1E4FEA112C88
:1022C0004FEAC1210EEB635E42EB22420EFB0CFC97
:1022D0004FEA1C5300FB03114FEA112C4FEA013166
:1022E0000EFB0CFC4FEADC4C00FB0C11C14228BF7A
:1022F00009184CEB03335DF804EB10EB410143EBA1
:10230000C250B2F57C0F38BF704729D512F0F00FDC
:102310001CBF00F1C04000F0004070470081828384
:102320008485868788898B8C8D8E8F9192939596E4
:1023300097999A9C9D9FA0A2A3A5A7A8AAACAEB06E
:10234000B2B3B5B7B9BCBEC0C2C5C7C9CCCED1D473
:10235000D7D9DCDFE2E6E9ECF0F3F7FAFE000000A3
:102360004FEA400C0CF1807CBCF17E4F28BF7047D7
:10237000B0F1C04000F02BB990EA010F0CEAD11384
:1023800048BF42F48072624538BF634507D213F4F8
:102390007F0F16D080EA010000F00040704710B5B2
:1023A00000F0CFF8097EFC3E00F005B880EA01009D
:1023B00000F00040704780EA010000F0004000F0AB
:1023C00006B912F47F0F04BF0248704780EA01008B
:1023D00000F0FDB80000C07FC10DD1F19E0206DB08
:1023E0004FEA002343F0004323FA02F07047004213
:1023F00007D54FEA4001B1F1FE4F02D24FF0000085
:10240000704710B500F09DF8499224800020704775
:102410006FEA200070470000B0FA80F310FA03F270
:10242000C3F19D030AD0D90501EB1220530638BF32
:10243000704700F1010008BF20F001007047000064
:102440004FF47F0C1CEAD0121EBF1CEAD11392EA93
:102450000C0F93EA0C0F00F0478090EA010F48BF81
:1024600042F480724FF0004C4CEA00204CEA01210B
:1024700002EB0302A0FB0113A2F50002002918BF22
:1024800043F001035B0028BF4FEA330342EB2242D3
:102490005FEA132C4CEBC2502EBFBCEB436FB2F57E
:1024A0007C0F70474FEA036CBCF1004F08BF20F06F
:1024B0000100B2F57C0F38BF70470BD582F0FF02E8
:1024C00012F5803FC8BF704700F1C040D8BF00F090
:1024D0000040704700F5000C5FEA4C0C48BF7047A5
:1024E000B0F1C04000F073B890EA010F0CEAD113CC
:1024F00048BF42F48072624538BF634504D280EA27
:10250000010000F00040704710B500F01AF800BF5D
:102510008900013E00F007B800F009B85FEA410CFD
:102520005FEA1C6C08D080EA010000F050B85FEA56
:10253000400C5FEA1C6CF6D14FF00040A0F5800023
:1025400070470EF1020E2EF0030E5EF8044B24428B
:1025500004D44FEA4102B2F17F4F11D84FEA400351
:10256000B3F17F4F0CD80ED14FEAD07CB2F17F4F40
:102570000CEB4C0C0CF1020C08BF4CEBD17C04E0D2
:102580004FF0080C01E04FEAD17C0CEB4C0324FA2D
:1025900003F404F00704B4F1040C06D20EEB840C2F
:1025A000BDE810404CF0010C6047DFE80CF0070874
:1025B00002024FF00040A0F5800010BD0846420026
:1025C00018BFD2F1807288BF00F0004010BDFF211B
:1025D00041EAD050C0057047F825020800000020ED
:1025E000E43600006CF1010850410208E436002096
:1025F00084040000D0F10108120001800760090086
:1026000000B00408610103280600011201026138CC
:1026100043B80B04C3409C04C302000401184E30AD
:1026200006403F0000800420059A99993E546108B5
:10263000011A1CA005CDCC4C3D040316A00F0202CC
:10264000119F02929E02729D02729C02529B025244
:102650009A023299023298023297023296023295E9
:1026600002329402129302329202129102129002EA
:10267000128F02128E02328D02128C02128B021203
:102680008A021004890F88021287021286021285BC
:10269000021004840F83021282021004810F800250
:1026A000127F0210047E0F7D0210047C0F7B02104B
:1026B000047A0F79021006780F770F7602100475EE
:1026C0000F74021006730F720F71021006700F6FF5
:1026D0000F6E0210086D0F6C0F6B0F6A02100A6903
:1026E0000F680F670F660F6502100C640F630F62AF
:1026F0000F610F600F5F0210185E0F5D0F5C0F5BC4
:102700000F5A0F590F580F570F560F550F540F539D
:102710000200FF00520F510F500F4F0F4E0F4D0F81
:102720004C0F4B0F4A0F490F480F470F460F440FEE
:10273000430F420F410F400F3F0F3E0F3D0F3C0F25
:102740003B0F3A0F390F380F360F350F340F330F59
:10275000320F310F300F2E0F2D0F2C0F2B0F2A0F92
:10276000290F270F260F250F240F230F210F200FCE
:102770001F0F1E0F1C0F1B0F1A0F190F170F160F0D
:10278000150F140F120F110F100F0E0F0D0F0C0F4E
:102790000A0F090F080F060F050F040F020F010F94
:1027A000000FFE0EFD0EFC0EFA0EF90EF70EF60EE1
:1027B000F50EF30EF20EF00EEF0EED0EEC0EEA0E2D
:1027C000E90EE80EE60EE50EE30EE20EE00EDF0E79
:1027D000DD0EDC0EDA0ED90ED70ED60ED40ED30EC9
:1027E000D10ECF0ECE0ECC0ECB0EC90EC80EC60E1D
:1027F000C40EC30EC10EC00EBE0EBC0EBB0EB90E73
:10280000B80EB60EB40EB30EB10EAF0EAE0EAC0EC9
:10281000AA0E00FF00A90EA70EA50EA40EA20EA0E0
:102820000E9E0E9D0E9B0E990E980E960E940E9275
:102830000E910E8F0E8D0E8B0E890E880E860E84D5
:102840000E820E810E7F0E7D0E7B0E790E770E7638
:102850000E740E720E700E6E0E6C0E6B0E690E679D
:102860000E650E630E610E5F0E5D0E5B0E5A0E5806
:102870000E560E540E520E500E4E0E4C0E4A0E4870
:102880000E460E440E420E400E3E0E3C0E3A0E38E0
:102890000E360E340E320E300E2E0E2C0E2A0E2850
:1028A0000E260E240E220E200E1E0E1C0E1A0E18C0
:1028B0000E160E140E110E0F0E0D0E0B0E090E0736
:1028C0000E050E030E010EFE0DFC0DFA0DF80DF6B1
:1028D0000DF40DF20DEF0DED0DEB0DE90DE70DE42F
:1028E0000DE20DE00DDE0DDC0DD90DD70DD50DD3AC
:1028F0000DD10DCE0DCC0DCA0DC80DC50DC30DC12A
:102900000DBF0DBC0DBA0DB80DB50DB30DB10DAFAA
:102910000DAC0D00FF00AA0DA80DA50DA30DA10D76
:102920009E0D9C0D9A0D970D950D930D900D8E0D8E
:102930008B0D890D870D840D820D800D7D0D7B0D16
:10294000780D760D740D710D6F0D6C0D6A0D670DA0
:10295000650D630D600D5E0D5B0D590D560D540D2B
:10296000510D4F0D4C0D4A0D470D450D420D400DBB
:102970003D0D3B0D380D360D330D310D2E0D2C0D4B
:10298000290D270D240D210D1F0D1C0D1A0D170DDE
:10299000150D120D0F0D0D0D0A0D080D050D020D73
:1029A000000DFD0CFB0CF80CF50CF30CF00CED0C11
:1029B000EB0CE80CE60CE30CE00CDE0CDB0CD80CAA
:1029C000D60CD30CD00CCE0CCB0CC80CC50CC30C45
:1029D000C00CBD0CBB0CB80CB50CB20CB00CAD0CE3
:1029E000AA0CA80CA50CA20C9F0C9D0C9A0C970C81
:1029F000940C920C8F0C8C0C890C860C840C810C22
:102A00007E0C7B0C780C760C730C700C6D0C6A0CC5
:102A1000680C650C00FF00620C5F0C5C0C590C57D5
:102A20000C540C510C4E0C4B0C480C450C430C40F8
:102A30000C3D0C3A0C370C340C310C2E0C2B0C29A1
:102A40000C260C230C200C1D0C1A0C170C140C114A
:102A50000C0E0C0B0C080C060C030C000CFD0BFAF6
:102A60000BF70BF40BF10BEE0BEB0BE80BE50BE2AA
:102A70000BDF0BDC0BD90BD60BD30BD00BCD0BCA5A
:102A80000BC70BC40BC10BBE0BBB0BB80BB50BB20A
:102A90000BAF0BAC0BA90BA60BA30BA00B9D0B9ABA
:102AA0000B970B940B900B8D0B8A0B870B840B8170
:102AB0000B7E0B7B0B780B750B720B6F0B6B0B6824
:102AC0000B650B620B5F0B5C0B590B560B530B50DA
:102AD0000B4C0B490B460B430B400B3D0B3A0B3693
:102AE0000B330B300B2D0B2A0B270B240B200B1D4C
:102AF0000B1A0B170B140B110B0D0B0A0B070B0406
:102B00000B010BFD0AFA0AF70AF40AF10AED0AEAC8
:102B10000AE70AE40A00FF00E10ADD0ADA0AD70A36
:102B2000D40AD10ACD0ACA0AC70AC40AC00ABD0A11
:102B3000BA0AB70AB30AB00AAD0AAA0AA70AA30AD0
:102B4000A00A9D0A990A960A930A900A8C0A890A91
:102B5000860A830A7F0A7C0A790A750A720A6F0A52
:102B60006C0A680A650A620A5E0A5B0A580A550A14
:102B7000510A4E0A4B0A470A440A410A3D0A3A0AD8
:102B8000370A330A300A2D0A290A260A230A1F0A9D
:102B90001C0A190A150A120A0F0A0B0A080A050A62
:102BA000010AFE09FB09F709F409F109ED09EA092F
:102BB000E609E309E009DC09D909D609D209CF09F8
:102BC000CC09C809C509C109BE09BB09B709B409BF
:102BD000B009AD09AA09A609A3099F099C09990989
:102BE000950992098F098B098809840981097D0952
:102BF0007A097709730970096C096909660962091C
:102C00005F095B095809540951094E094A094709E6
:102C1000430940093C0900FF003909360932092FF0
:102C2000092B092809240921091E091A0917091362
:102C30000910090C09090905090209FF08FB08F830
:102C400008F408F108ED08EA08E608E308DF08DC04
:102C500008D908D508D208CE08CB08C708C408C0D0
:102C600008BD08B908B608B208AF08AB08A808A59F
:102C700008A1089E089A089708930890088C08896C
:102C800008850882087E087B087708740870086D3C
:102C9000086908660862085F085C0858085508510A
:102CA000084E084A084708430840083C08390835D8
:102CB0000832082E082B082708240820081D0819A8
:102CC00008160812080F080B08080804080108FD78
:102CD00007FA07F607F307EF07EC07E807E507E150
:102CE00007DE07DA07D707D307D007CD07C907C61E
:102CF00007C207BF07BB07B807B407B107AD07AAEC
:102D000007A607A3079F079C079807950791078EBB
:102D1000078A078707830700FF0080077C0779077A
:102D2000750772076E076B076707640760075D0723
:102D30005907560752074F074B07480744074107F3
:102D40003E073A073707330730072C0729072507BF
:102D500022071E071B071707140710070D0709078F
:102D600006070207FF06FB06F806F506F106EE0663
:102D7000EA06E706E306E006DC06D906D506D20633
:102D8000CE06CB06C706C406C106BD06BA06B60601
:102D9000B306AF06AC06A806A506A1069E069B06CE
:102DA0009706940690068D068906860682067F069B
:102DB0007C067806750671066E066A066706640666
:102DC00060065D065906560652064F064C06480632
:102DD000450641063E063A063706340630062D06FD
:102DE0002906260623061F061C06180615061106C8
:102DF0000E060B06070604060106FD05FA05F60594
:102E0000F305F005EC05E905E505E205DF05DB0561
:102E1000D805D405D105CE0500FF00CA05C705C4F5
:102E200005C005BD05BA05B605B305AF05AC05A9D6
:102E300005A505A2059F059B059805950591058E9D
:102E4000058B058705840581057D057A0577057362
:102E50000570056D056905660563055F055C055927
:102E600005550552054F054B054805450542053EEC
:102E7000053B053805340531052E052B05270524AE
:102E80000521051D051A051705140510050D050A70
:102E900005070503050005FD04F904F604F304F035
:102EA00004ED04E904E604E304E004DC04D904D6F8
:102EB00004D304CF04CC04C904C604C304BF04BCB7
:102EC00004B904B604B304AF04AC04A904A604A373
:102ED000049F049C049904960493048F048C048931
:102EE000048604830480047C0479047604730470EB
:102EF000046D046A046604630460045D045A0457A4
:102F000004540450044D044A044704440441043E5C
:102F1000043B0438043504310400FF002E042B0464
:102F20002804250422041F041C0419041604130495
:102F300010040C040904060403040004FD03FA034E
:102F4000F703F403F103EE03EB03E803E503E20305
:102F5000DF03DC03D903D603D303D003CD03CA03B5
:102F6000C703C403C103BE03BB03B803B503B20365
:102F7000AF03AC03A903A603A303A0039D039A0315
:102F80009803950392038F038C03890386038303BD
:102F900080037D037A037703750372036F036C0369
:102FA00069036603630360035D035B035803550312
:102FB00052034F034C0349034703440341033E03B9
:102FC0003B0338033603330330032D032A0328035E
:102FD000250322031F031C031A0317031403110301
:102FE0000E030C030903060303030103FE02FB02A5
:102FF000F802F602F302F002EE02EB02E802E5024A
:10300000E302E002DD02DB02D802D502D202D002E6
:10301000CD02CA02C802C502C20200FF00C002BD42
:1030200002BA02B802B502B302B002AD02AB02A806
:1030300002A502A302A0029E029B0298029602939E
:103040000291028E028B0289028602840281027F33
:10305000027C0279027702740272026F026D026AC8
:103060000268026502630260025E025B0259025658
:1030700002540251024F024C024A024702450242E8
:103080000240023D023B0239023602340231022F75
:10309000022C022A0228022502230220021E021C00
:1030A00002190217021502120210020D020B020988
:1030B00002060204020202FF01FD01FB01F801F613
:1030C00001F401F101EF01ED01EB01E801E601E49A
:1030D00001E101DF01DD01DB01D801D601D401D21C
:1030E00001CF01CD01CB01C901C701C401C201C09B
:1030F00001BE01BC01B901B701B501B301B101AE17
:1031000001AC01AA01A801A601A401A2019F019D91
:10311000019B0199019701950193011C9891018FE1
:10312000018C018A01880186018401820180017E6F
:10313000017C017A01780176017401720170016EDF
:10314000016C016A01680166016401620160015E4F
:10315000015C015A01580156015401520150014EBF
:10316000014C014A01480146014501430141013F2B
:10317000013D013B01390137013501340132013094
:10318000012E012C012A01290127012501230121FA
:10319000011F011E011C011A01180117011501135D
:1031A0000111010F010E010C010A010801070105BF
:1031B00001030102590C00FF00FE00FC00FB00F9B6
:1031C00000F700F600F400F200F100EF00ED00EC73
:1031D00000EA00E800E700E500E400E200E000DFCC
:1031E00000DD00DC00DA00D800D700D500D400D222
:1031F00000D100CF00CD00CC00CA00C900C700C676
:1032000000C400C300C100C000BE00BD00BB00BAC6
:1032100000B800B700B600B400B300B100B000AE13
:1032200000AD00AB00AA00A900A700A600A400A35F
:1032300000A200A0009F009E009C009B009A0098A6
:10324000009700960094009300920090008F008EEB
:10325000008C008B008A008900870086008500842E
:10326000008200810080007F007D007C007B007A6E
:1032700000790077007600750074007300720070AA
:10328000006F006E006D006C006B006A00680067E4
:103290000066006500640063006200610060005F1A
:1032A000005E005D005C005A00590058005700564F
:1032B00000550054005300100C5200510050004FB4
:1032C000004E004D0210184C004B004A00490048C7
:1032D0000047004600450044004300420041021000
:1032E0000C40003F003E003D003C003B02100A3A0B
:1032F000003900380037003602100835003400333A
:103300000032021006310030002F0210062E002D70
:10331000002C0210042B002A021006290028002786
:1033200002100426002502100424002302100422A7
:1033300000210212200210041F001E02121D0210A2
:10334000041C001B02121A021219021218021004A5
:103350001700160212150212140232130212120280
:103360001211021210021DB50B33000E021DC50909
:1033700033000C02320B02320A0232090232080216
:1033800032070252060252050272040272030292CE
:10339000020202110102013001011246A166817C84
:1033A000819061A261B241C041CC41D841E441F079
:1033B00041FC25064510251A2522252A2532453CA3
:1033C0002546254E2556361762256A2572257A36FA
:1033D0001C86258E361F9A25A23622AE3624BA3692
:1033E00026C61628D025D6362BE2162DEC25F21649
:1033F00030FC29021A330C3A35161A37201A3928AC
:10340000292E1A3C381A3E403A404A1A42541A446D
:103410005C1A46641A486C1A4A743A4C7E1A4E88F2
:103420001A50901A52981A54A01A56A81A58B01A3C
:103430005AB81A5DC01A5FC81A61D01A63D81A65E3
:10344000E01A67E81A6AF01A6CF81E6E00031E7024
:1034500008031E7310031E7518031E7720031E7ABF
:1034600028031E7C30031E7F38031E8140031E8408
:1034700048031E8650031E8958031E8B60031E8E50
:1034800068031E9070031E9378031E9680031E9897
:1034900088031E9B90031E9E98031EA0A0031EA3DC
:1034A000A8031EA6B0031EA9B8031EABC0031EAE20
:1034B000C8031EB1D0031EB4D8031EB7E0031EBA62
:1034C000E8031EBDF0031EC0F8031EC300041EC6A1
:1034D00008041EC910041ECC18041ECF20041ED2DE
:1034E00028041ED530041ED838041EDC40041EDF1C
:1034F00048041EE250041EE558041EE860041EEC59
:1035000068041EEF70041EF278041EF680041EF993
:1035100088041804FC00FE311E029C041E05A4044D
:103520001E08AC041E0CB4041E0FBC041E13C404FD
:103530001E17CC041E1AD4041E1EDC041E21E40433
:103540001E25EC041E29F4041E2CFC041E30040568
:103550001E340C051E3714051E3B1C051E3F24059A
:103560001E432C051E4634051E4A3C051E4E4405CE
:103570001E524C051E5654051E5A5C051E5E6405FF
:103580001E626C051E6674051E6A7C051E6E84052F
:103590001E728C051E7694051E7A9C051E7EA4055F
:1035A0001E82AC051E86B4051E8ABC051E8FC4058E
:1035B0001E93CC051E97D4051E9BDC051E9FE405BB
:1035C0001EA4EC051EA8F4051EACFC051EB10406E5
:1035D0001EB50C061EB914061EBE1C061EC224060D
:1035E0001EC72C061ECB34061ECF3C061ED4440636
:1035F0001ED84C061EDD54061EE15C061EE664065F
:103600001EEB6C061EEF74061EF47C061EF8840684
:103610001C06FD01FF010294061E069C061E0BA45B
:10362000061E10AC061E15B4061E19BC061E1EC4CE
:10363000061E23CC061E28D4061E2CDC061E31E4F2
:10364000061E36EC061E3BF4061E40FC061E450414
:10365000071E4A0C071E4F14071E541C071E592430
:10366000071E5E2C071E6334071E683C071E6D4450
:10367000071E724C071E7754071E7C5C071E816470
:10368000071E866C071E8B74071E917C071E96848E
:10369000071E9B8C071EA094071EA59C071EABA4AB
:1036A000071EB0AC071EB5B4071EBABC071EC0C4C7
:1036B000071EC5CC071ECAD4071ED0DC071ED5E4E2
:1036C000071EDBEC071EE0F4071EE5FC071EEB04FB
:1036D000081EF00C081EF614081404FB02FEC31E9C
:1036E0000328081E0930081E0E38081E1440081E44
:1036F0001A48081E1F50081E2558081E2A60081E5A
:103700003068081E3670081E3B78081E4180081E6F
:103710004788081E4C90081E5298081E58A0081E84
:103720005DA8081E63B0081E69B8081E6FC0081E99
:1037300075C8081E7AD0081E80D8081E86E0081EAC
:103740008CE8081E92F0081E98F8081E9D00091EBD
:10375000A308091EA910091EAF18091EB520091ECD
:10376000BB28091EC130091EC738091ECD40091EDD
:10377000D348091ED950091EDF58091EE560091EED
:10378000EB68091EF170091EF778091EFD7D041E05
:103790000388091E0990091E1098091E16A0091E0B
:1037A0001CA8091E22B0091E28B8091E2EC0091E19
:1037B00035C8091E3BD0091E41D8091E47E0091E25
:1037C0004DE8091E54F0091E5AF8091E60000A1E31
:1037D00066080A1E6D100A1E73180A1E79200A1E3A
:1037E00080280A1E86300A1E8C380A1E93400A1E44
:1037F00099480A1E9F500A1EA6580A1EAC600A1E4F
:10380000B3680A1EB9700A1EBF780A1EC6800A1E57
:10381000CC880A1ED3900A1ED9980A1EE0A00A1E60
:10382000E6A80A1EEDB00A1EF3B80A1C04F904FD4E
:1038300015051E03CC0A1E0AD40A1E10DC0A1E1728
:10384000E40A1E1DEC0A1E24F40A1E2BFC0A1E317B
:10385000040B1E380C0B1E3E140B1E451C0B1E4B7E
:10386000240B1E522C0B1E59340B1E5F3C0B1E6684
:10387000440B1E6D4C0B1E73540B1E7A5C0B1E8189
:10388000640B1E876C0B1E8E740B1E957C0B1E9B8F
:10389000840B1EA28C0B1EA9940B1EAF9C0B1EB694
:1038A000A40B1EBDAC0B1EC4B40B1ECABC0B1ED198
:1038B000C40B1ED8CC0B1EDFD40B1EE5DC0B1EEC9C
:1038C000E40B1EF3EC0B1C06FA05FD0501FC0B1EB8
:1038D00007040C1E0E0C0C1E15140C1E1C1C0C1EBA
:1038E00023240C1E292C0C1E30340C1E373C0C1EBD
:1038F0003E440C1E454C0C1E4C540C1E525C0C1EBF
:1039000059640C1E606C0C1E67740C1E6E7C0C1EC1
:1039100075840C1E7C8C0C1E82940C1E899C0C1EC3
:1039200090A40C1E97AC0C1E9EB40C1EA5BC0C1EC5
:10393000ACC40C1EB3CC0C1EBAD40C1EC1DC0C1EC5
:10394000C7E40C1ECEEC0C1ED5F40C1EDCFC0C1EC9
:10395000E3040D1EEA0C0D1EF1140D1EF81C0D1CC7
:1039600004FF0602280D1E09300D1E10380D1E170B
:10397000400D1E1E480D1E25500D1E2C580D1E33C9
:10398000600D1E3A680D1E41700D1E48780D1E4FC9
:10399000800D1E56880D1E5D900D1E64980D1E6BC9
:1039A000A00D1E72A80D1E79B00D1E80B80D1E87C9
:1039B000C00D1E8EC80D1E95D00D1E9CD80D1EA3C9
:1039C000E00D1EAAE80D1EB1F00D1EB8F80D1EBFC9
:1039D000000E1EC6080E1ECD100E1ED3180E1EDAC7
:1039E000200E1EE1280E1EE8300E1EEF380E1EF6C9
:1039F000400E1EFDD1041E04500E1E0B580E1E124A
:103A0000600E1E19680E1E20700E1E27780E1E2EC8
:103A1000800E1E35880E1E3C900E1E43980E1E4AC8
:103A2000A00E1E51A80E1E58B00E1E5FB80E1E66C8
:103A3000C00E1E6DC80E1E74D00E1E7BD80E1E82C8
:103A4000E00E1E89E80E1E90F00E1E97F80E1E9EC8
:103A5000000F1EA5080F1EAB100F1EB2180F1EB9C7
:103A6000200F1EC0280F1EC7300F1ECE380F1ED5C8
:103A7000400F1EDC480F1EE3500F1EEA580F1EF1C8
:103A8000600F1EF8680F1C04FF0802740F1E097CEB
:103A90000F1E10840F1E178C0F1E1E940F1E249CC9
:103AA0000F1E2BA40F1E32AC0F1E39B40F1E40BCCC
:103AB0000F1E47C40F1E4ECC0F1E54D40F1E5BDCCE
:103AC0000F1E62E40F1E69EC0F1E70F40F1E77FCD0
:103AD0000F1E7D04101E840C101E8B14101E921CD1
:103AE000101E9924101E9F2C101EA634101EAD3CD3
:103AF000101EB444101EBB4C101EC154101EC85CD6
:103B0000101ECF64101ED66C101EDC74101EE37CD9
:103B1000101EEA84101EF18C101EF794101C04FE77
:103B20000901A0101E08A8101E0FB0101E15B81015
:103B30001E1CC0101E23C8101E29D0101E30D81005
:103B40001E37E0101E3DE8101E44F0101E4BF8100A
:103B50001E5100111E5808111E5E10111E6518110D
:103B60001E6C20111E7228111E7930111E7F381113
:103B70001E8640111E8C48111E9350111E9958111B
:103B80001EA060111EA768111EAD70111EB3781122
:103B90001EBA80111EC088111EC790111ECD98112B
:103BA0001ED4A0111EDAA8111EE1B0111EE7B81133
:103BB0001EEDC0111EF4C8111C06FA0AFD0A01D838
:103BC000111E07E0111E0DE8111E14F0111E1AF847
:103BD000111E2000121E2708121E2D10121E33184F
:103BE000121E3A20121E4028121E4630121E4C3859
:103BF000121E5340121E5948121E5F50121E655865
:103C0000121E6B60121E7268121E7870121E7E7871
:103C1000121E8480121E8A88121E9090121E97987F
:103C2000121E9DA0121EA3A8121EA9B0121EAFB88C
:103C3000121EB5C0121EBBC8121EC1D0121EC7D89C
:103C4000121ECDE0121ED3E8121ED9F0121EDFF8AC
:103C5000121EE500131EEB08131EF110131EF718B9
:103C6000131EFD15091E0328131E0830131E0E38DF
:103C7000131E1440131E1A48131E2050131E2658DC
:103C8000131E2B60131E3168131E3770131E3D78F0
:103C9000131E4380131E4888131E4E90131E549803
:103CA000131E59A0131E5FA8131E65B0131E6AB819
:103CB000131E70C0131E76C8131E7BD0131E81D82E
:103CC000131E86E0131E8CE8131E92F0131E97F845
:103CD000131E9D00141EA208141EA810141EAD1859
:103CE000141EB220141EB828141EBD30141EC33872
:103CF000141EC840141ECE48141ED350141ED8588B
:103D0000141EDE60141EE368141EE870141EED78A5
:103D1000141EF380141EF888141EFDC7091E029895
:103D2000141E08A0141E0DA8141E12B0141E17B8DD
:103D3000141E1CC0141E21C8141E27D0141E2CD8FB
:103D4000141E31E0141E36E8141E3BF0141E40F819
:103D5000141E4500151E4A08151E4F10151E541836
:103D6000151E5920151E5E28151E6330151E673856
:103D7000151E6C40151E7148151E7650151E7B5879
:103D8000151E8060151E8468151E8970151E8E789C
:103D9000151E9380151E9788151E9C90151EA198C0
:103DA000151EA5A0151EAAA8151EAFB0151EB3B8E6
:103DB000151EB8C0151EBCC8151EC1D0151EC5D80D
:103DC000151ECAE0151ECEE8151ED3F0151ED7F835
:103DD000151EDC00161EE008161EE410161EE9185B
:103DE000161EED20161EF228161EF630161EFA3884
:103DF000161C04FE0D0144161E054C161E09541611
:103E00001E0D5C161E1164161E166C161E1A7416F4
:103E10001E1E7C161E2284161E268C161E2A941622
:103E20001E2E9C161E32A4161E36AC161E3AB41652
:103E30001E3EBC161E42C4161E46CC161E4AD41682
:103E40001E4EDC161E52E4161E56EC161E5AF416B2
:103E50001E5DFC161E6104171E650C171E691417E3
:103E60001E6C1C171E7024171E742C171E77341717
:103E70001E7B3C171E7F44171E824C171E8654174C
:103E80001E895C171E8D64171E916C171E94741783
:103E90001E987C171E9B84171E9E8C171EA29417BB
:103EA0001EA59C171EA9A4171EACAC171EAFB417F5
:103EB0001EB3BC171EB6C4171EB9CC171EBCD41730
:103EC0001EC0DC171EC3E4171EC6EC171EC9F4176C
:103ED0001ECCFC171ECF04181ED30C181ED61418A7
:103EE0001ED91C181EDC24181EDF2C181EE23418E4
:103EF0001EE53C181EE844181EEA4C181EED541826
:103F00001EF05C181EF364181EF66C181EF9741867
:103F10001EFC7C181EFEB70B1E018C181E04941884
:103F20001E069C181E09A4181E0CAC181E0EB418F0
:103F30001E11BC181E14C4181E16CC181E19D41835
:103F40001E1BDC181E1EE4181E20EC181E23F4187D
:103F50001E25FC181E2704191E2A0C191E2C1419C4
:103F60001E2E1C191E3124191E332C191E3534190E
:103F70001E383C191E3A44191E3C4C191E3E541959
:103F80001E405C191E4264191E446C191E477419A8
:103F90001E497C191E4B84191E4D8C191E4F9419F5
:103FA0001E519C192DA2191E54AC191E56B4191E6F
:103FB00058BC191E5AC4191E5CCC193E5ED6191E77
:103FC00060E0191E62E8193E64F2191E66FC191EB3
:103FD00068041A2D0A1A1E6B141A3E6D1E1A1E6FE3
:103FE000281A2D2E1A1E72381A2D3E1A3E754A1A9C
:103FF0001E77541A2D5A1A3E7A661A3E7C721A3E61
:104000007E7E1A2D861A3E81921A2D9A1A3E84A619
:104010001A2DAE1A2DB61A2DBE1A3E89CA1A2DD2E5
:104020001A2DDA1A4DE41A2DEE1A2DF61A2DFE1A53
:104030002D061B4D101B2D1A1B4D241B4D301B4DE7
:104040003C1B4D481B4D541B4D601B6D6E1B6D7E04
:104050001B8D901B8DA41BADBA1B0D12DA1B022FFA
:10406000A0020DFF201C0DFF201C0DFF201C0DFFCA
:10407000201C0DFF201C0DFF201C0DFF201C0DFF20
:10408000201C0DFF201C0DFF201C0DFF201C0DFF10
:10409000201C0DFF201C0DFF201C0DFF201C0DFF00
:1040A000201C0DFF201C0DFF201C0DFF201C0DB13E
:1040B000201C0D1CB03001280402290204022D032B
:1040C000040229040402290504022D06040229071A
:1040D000040229080402290904022D0A0402290BFA
:1040E0000402290C04022D0D0402290E0402290FDA
:1040F00004022D10040229110402291204022D13B6
:1041000004022914040229150402291604022D1799
:10411000040229180402291904022D1A0402291B79
:104120000402291C04022D1D0402291E0402291F59
:1041300004022D200402212104BD3B367FA24AC285
:10414000361F0102302300040007080900000000A8
:040000050801F215E7
:00000001FF
