:020000040800F2
:10000000504500200D0200081502000817020008E4
:10001000190200081B0200081D0200080000000071
:100020000000000000000000000000001F020008A7
:10003000210200080000000023020008490900080E
:1000400027020008270200082702000827020008EC
:1000500027020008270200082702000827020008DC
:1000600027020008270200082702000827020008CC
:1000700027020008270200082702000827020008BC
:10008000270200082702000827020008B909000813
:10009000F1090008270200082702000827020008CB
:1000A000270200082702000827020008270200088C
:1000B000270200082702000827020008270200087C
:1000C000270200082702000827020008270200086C
:1000D000270200082702000827020008270200085C
:1000E000270200082702000827020008270200084C
:1000F000270200082702000827020008270200083C
:10010000270200082702000827020008270200082B
:10011000270200082702000827020008270200081B
:10012000270200082702000827020008270200080B
:1001300000F002F800F05AF80AA090E8000C82449F
:100140008344AAF10107DA4501D100F04FF8AFF27C
:10015000090EBAE80F0013F0010F18BFFB1A43F0A5
:1001600001031847900D0000B00D00000A444FF045
:10017000000C10F8013B13F0070408BF10F8014B06
:100180001D1108BF10F8015B641E05D010F8016B4B
:10019000641E01F8016BF9D113F0080F1EBF10F8AF
:1001A000014BAD1C0C1B09D16D1E58BF01F801CBD2
:1001B000FAD505E014F8016B01F8016B6D1EF9D555
:1001C0009142D6D37047000000230024002500266A
:1001D000103A28BF78C1FBD8520728BF30C148BFAA
:1001E0000B6070471FB51FBD10B510BD00F02FF894
:1001F0001146FFF7F7FF00F06FFC00F04DF803B475
:10020000FFF7F2FF03BC00F055F8000009488047F3
:1002100009480047FEE7FEE7FEE7FEE7FEE7FEE7E8
:10022000FEE7FEE7FEE7FEE704480549034A054B03
:1002300070470000590900083101000850410020B2
:100240005045002050410020704770477047754668
:1002500000F02CF8AE4605006946534620F0070032
:10026000854618B020B5FFF7DFFFBDE820404FF00E
:1002700000064FF000074FF000084FF0000B21F090
:100280000701AC46ACE8C009ACE8C009ACE8C0095D
:10029000ACE8C0098D46704710B50446AFF3008046
:1002A0002046BDE81040FFF7AABF00000048704795
:1002B000EC40002001491820ABBEFEE726000200FA
:1002C000704700002A49096801F0040149B900217A
:1002D00041732749096840F2FF7202EA51510160F7
:1002E00008E001214173224909686FF0604202EA87
:1002F000D10101601E49096801F0020111B9002114
:10030000817301E0012181731949091D096801F018
:100310000F01017316490831096801711449083148
:1003200009680A0A42711249083109680A0C827187
:100330000F4908310968090EC1710D490C3109686E
:1003400001720B490C3109680A0A427208490C31E2
:1003500009680A0C827206490C310968090EC172DB
:100360000449096841F02001024A11607047000009
:10037000B06500400C64004010B52948C06940F0E9
:1003800000702749C8610846806940F00100886113
:100390002448406820F4C04022494860084640682C
:1003A00040F4804048601E48806940F008001C49C5
:1003B00088611D48006820F00F001B49086008464E
:1003C000006840F0080008600846006820F0F0006F
:1003D00008600846006840F0B0000860132000F094
:1003E00094F9142000F091F91120104908600320BD
:1003F0000E491431086004240C481C3000680C4974
:1004000008400A491C31086008460068611EC1F3B3
:100410000801084A1143084304491C31086010BD13
:100420000010024000000140040C01400064004044
:1004300000FE80FC00004B030748006820F001002C
:100440000549086000BF0448001D006800F0010075
:100450000028F8D1704700000064004000BF054844
:10046000006800F080600028F9D00120024908608F
:1004700070470000086400400000002000212D4A61
:100480001160417B49B9114609680288002343EA9B
:1004900042521143274A116008E0264909680423A3
:1004A000026803EBC2021143224A1160817B21B929
:1004B000204909681F4A116005E01E49096841F09A
:1004C00002011C4A1160C1790A06817942EA01429F
:1004D000417942EA012102791143164A083211603A
:1004E000C17A0A06817A42EA0142417A42EA01214E
:1004F000027A11430F4A0C3211600E49091D096836
:1005000021F00F020B49091D0A600968027B02F005
:100510000F021143074A121D11600749096841F093
:100520000101054A11600349096841F00101014ACE
:10053000116070478065004014640040044A1168EF
:1005400000BF034A1268521A8242FAD37047000071
:10055000300000202DE9F04106460D460027B84640
:10056000002400F0ABF8352000F022F8304600F00F
:10057000C4F80746284600F0C0F880463C4608E02C
:10058000204600F01BF8042801D000BFFEE704F568
:1005900000644445F4D90548006840F4807003497C
:1005A000086000F04BF8BDE8F08100003800002042
:1005B0000149C860704700000020024030B5044681
:1005C00004254FF4302000F085F80546042D17D19E
:1005D0000C48006940F002000A490861084644617D
:1005E000006940F0400008614FF4302000F072F8DC
:1005F00005460448006941F6FD710840014908615B
:10060000284630BD0020024004200B49C96801F093
:10061000010109B101200EE00749C96801F0040198
:1006200009B1022007E00449C96801F0100109B1CD
:10063000032000E0042070470020024003480069C6
:1006400040F080000149086170470000002002402E
:1006500078B506460C46042500200090E80200F01C
:1006600039F80546042D24D11348006940F00100F3
:10067000114908613480E80200F02CF80546042D89
:1006800010D1B01C0090200C00990880E80200F006
:1006900021F805460848006941F6FE710840064900
:1006A000086106E00448006941F6FE71084002490D
:1006B0000861284678BD0000002002400248034936
:1006C00048600348486070472301674500200240A6
:1006D000AB89EFCD00B502460423FFF795FF034633
:1006E00003E0FFF791FF0346521E012B01D1002AC0
:1006F000F7D102B90523184600BD0146A1F10060FB
:10070000C00AC00200F10060704700F01F02012122
:1007100091404209920002F1E022C2F800117047B4
:1007200010B500F001F810BD0CB50020019000904C
:100730003348006840F480303149086000BF3048D9
:10074000006800F4003000900198401C019000986F
:1007500018B90198B0F5A06FF1D12948006800F4EC
:10076000003010B10120009001E0002000900098BE
:10077000012843D12348006840F010002149086057
:100780000846006820F0030008600846006840F052
:10079000020008601A4840681949486008464068E5
:1007A00048600846406840F48060486008464068F9
:1007B00020F47C1048600846406840F4E810486027
:1007C0000846006840F08070086000BF0C48006870
:1007D00000F000700028F9D00948406820F00300BC
:1007E000074948600846406840F00200486000BF82
:1007F0000348406800F00C000828F9D10CBD000047
:1008000000100240002002400E4801686FF30F0103
:10081000016049F699120168114301600A480168B4
:1008200021F07F410160016841F019410160001D24
:10083000016821F0FF010160016841F09901016048
:1008400070470000040801400010014000212648C4
:10085000026842F00102026023481C3002686FF314
:100860000D0202602048026822F00102026000BF0F
:10087000026842F0010202601B481C30026842F02C
:100880000302026018481430026822F0030202607A
:1008900015480C30026842F0030202601248001D45
:1008A000026822F0030202601048028891B200BF81
:1008B0000F4A11600C4840301268042303EBC22237
:1008C0000260001D0B4A026044F62061001D0422F4
:1008D00002EBC1220260001D064A02600248026863
:1008E00022F00302026070470066004000E8010841
:1008F0004800002006F8FFFF0E48016821F47061EF
:100900000160016841F4807101600A4808300021EB
:1009100001600848001F4FF044310160064A016839
:1009200011400160054A016811430160044805490E
:1009300001607047040C0140FFF00FFF0008100039
:10094000000801400010111102480068401C0149D4
:10095000086070473000002010B51348006840F070
:1009600001001149086008464068104908400E49D6
:100970004860084600680E4908400B490860084670
:10098000006820F4802008600846406820F4FE00DB
:1009900048604FF41F008860FFF7C2FE4FF0006010
:1009A0000449086010BD0000001002400000FFF87C
:1009B000FFFFF6FE08ED00E00B48006800F00100C4
:1009C00080B10948006840F0010007490860064806
:1009D0000C30006820F0010003490C310860012050
:1009E00002490860704700000864004000000020D1
:1009F00000B50648006800F0030028B10448FFF77E
:100A000061FC01200349086000BD00000C64004047
:100A10005C0200200400002070B505460024002080
:100A2000184908601848056000BFFFF747FE3520E9
:100A3000FFF7BEFD16E0154850F824101248006874
:100A4000FFF706FE04280BD10F480068001D0E4971
:100A50000860641C0B480068401C0A49086001E0FB
:100A600000BFFEE70A4800688442E4D3FFF7E6FDD2
:100A70000848006840F4C060064908600148006802
:100A800070BD0000280000202C0000206C02002017
:100A9000F00E00083800002010B5FFF76DFCFFF7DE
:100AA000CBFCFFF7DBFC10BD10B5084840680849D7
:100AB000086008460068074908600449086880F330
:100AC000088800BF03480068804710BD00F0010897
:100AD00024000020200000202DE9F84F4FF00008EE
:100AE0000027BA4600260025C848009000980068F4
:100AF0004AF63D71084300990860C54800684FF404
:100B00007A72B0FBF2F1481EB0F1807F00D320E092
:100B1000481E4FF0E022506150170F2200280ADAD9
:100B200013074FEA136EBB4B00F00F0CACF1040C33
:100B300003F80CE005E013074FEA136CB64B03F81B
:100B400000C000BF00204FF0E0229061072010613C
:100B500000BFFFF7A1FFFFF779FEFFF7CDFEFFF71C
:100B600053FE00F06DF9AD49086000BF002500F0AC
:100B700077F908B9FFF798FF2CE000BFA848006894
:100B80000028FBD00020A6490860A6480078A549A7
:100B900005460860812D1DD10020A3490860A148A9
:100BA000C07909680843A04908609E4880790968AF
:100BB00041EA00209C4908609A484079096841EA66
:100BC00000409949086097480079096841EA006047
:100BD00095490860812DD0D100251EE000BF9048C6
:100BE00000680028FBD000208D4908608D480078FF
:100BF0008C4905460860822D0FD100260846C07931
:100C000006430846807946EA00260846407946EAC7
:100C100000460846007946EA0066822DDED10020B3
:100C20008249086080480068814A042303FB002150
:100C30001046FFF78FFC0027AEE0002488E000BFDD
:100C4000774800680028FBD0002075490860754887
:100C50000078744905460860842D04D07348006804
:100C6000401C724908606F480179781C814204D0A9
:100C70006E480068401C6D4908604FF000096948E3
:100C8000807940EA09096748407949EA0029A14585
:100C900004D066480068401C64490860002065492B
:100CA00041F82400084650F824005E49C9790843F9
:100CB000604941F82400084650F824105948007A49
:100CC00041EA00205B4941F82400084650F824100E
:100CD0005448407A41EA0040564941F82400084609
:100CE00050F824104F48807A41EA0060514941F899
:100CF00024004C48C079504931F810104948007A16
:100D00004D4A32F8100001444648407A32F810004B
:100D100001444448807A32F810000844474908608A
:100D20004048C07A0968884204D040480068401CA6
:100D30003E4908603C480068401E504502D8A24623
:100D40004FF47A640AF101001FFA80FA601C84B241
:100D5000B4F57A6FFFF473AFD04605E00020354953
:100D600041F8280008F10108B8F57A6FF6D3B90008
:100D700001EB4102C2EBC1112D4A02EB4110FFF71A
:100D80004BFE8346BBF57A6F04D028480068401CB0
:100D900026490860781CC7B2B742FFF44EAF002561
:100DA0002FE000BF1E4800680028FBD000201C492F
:100DB00008601C4800781B4905460860832D20D137
:100DC0001A48006860B900230122114613480068E0
:100DD00000F052F80120FFF7B1FBFFF765FE10E0CD
:100DE00000231A4601210D48006800F045F80E481E
:100DF00000680F4A042303FB00211046FFF7AAFBFB
:100E0000B4E6832DCDD10020BDE8F88F1810024044
:100E10000C00002018ED00E000E400E04800002095
:100E2000040000205C020020340000204400002068
:100E300000F001086C0200204C000020400000205F
:100E40000549064A086810601046008880B21060A4
:100E50001046008880B2704700E801083C0000207E
:100E600000200449096801F0040109B1012000E0F3
:100E700000207047080C01402DE9F04107468846E4
:100E800014461D46FFF708FE17480760002604E0D9
:100E900000211548001D8155761C082EF8DB1249EB
:100EA00081F80C8001204873002088730F48006887
:100EB000B8B100200D4908600B490C71210A0A489D
:100EC0004171210C8171210EC1710572290A417293
:100ED000290C8172290EC172FFF7D0FA0120034953
:100EE0000860BDE8F08100004C02002000000020F6
:100EF000A00F0000140F0008000000204C020000AA
:100F00006C010008740F00084C020020044300002C
:100F1000C8010008D184A24A040009140102030494
:100F200006070809031205103BFFFF3619023A02B3
:100F30000412027A030829041203FA04106908292A
:100F40000412040A1F0520E9106908290412050A81
:100F50003F0640091E20E9106908290412060A7F8D
:100F60000780093E40091E20E9106908290412077C
:040F70001208000063
:040000050800020DE0
:00000001FF
