:020000040800F2
:10200000E83B0020452100084D2100084F21000831
:10201000512100085321000855210008000000004C
:102020000000000000000000000000005721000830
:1020300059210008000000005B210008253300083A
:102040005F2100085F2100085F2100085F21000870
:102050005F2100085F2100085F2100085F21000860
:102060008D2900085F2100085F2100085F2100081A
:102070005F2100085F2100085F2100085F21000840
:102080005F2100085F2100085F2100081547000854
:102090004D4700085F2100085F2100085F2100080C
:1020A0005F210008393400085F2100085F21000823
:1020B0005F2100085F2100085F2100085F21000800
:1020C0005F2100085F2100085F2100085F210008F0
:1020D0005F2100085F2100085F2100085F210008E0
:1020E0005F2100085F2100085F2100085F210008D0
:1020F0005F2100085F2100085F2100085F210008C0
:102100005F2100085F2100085F2100085F210008AF
:102110005F2100085F2100085F2100085F2100089F
:102120005F2100085F2100085F2100085F2100088F
:10213000DFF80CD000F0E2F80048004761480008E2
:10214000E83B00200648804706480047FEE7FEE7D8
:10215000FEE7FEE7FEE7FEE7FEE7FEE7FEE7FEE757
:10216000D93300083121000880EA010210B502F0DD
:102170000043400022D04A001FD0010E01EB126143
:10218000C0F35600C2F3560240F4000042F40002CD
:10219000A0FB022000047F39140400D0401C50EA48
:1021A000124001D44000491EC2B20C0604EBD0100C
:1021B000401C4008802A02D003E0002010BD20F01F
:1021C0000100002900DA0020184310BD30B480EA75
:1021D000010202F0004530F0004221F0004013D02F
:1021E00090B1C30DD40DC2F31601C0F31600E41A6A
:1021F00041F4000140F400027D34914201D3641C9B
:1022000000E04900002C02DA30BC002070474FF497
:1022100000000023914201D3891A034340084FEA8A
:102220004101F7D151B1914202D14FF0004105E097
:1022300002D24FF0010101E06FF0010103EBC45045
:10224000284430BC00F022B8C10F80EAE070084496
:10225000CA079623002100F022B8962300221146D7
:1022600000F01DB820F00040C10DC0F3160040F48E
:1022700000007F2901DA00207047962903DCC1F1B4
:102280009601C84070479639884070470029A8BF1A
:102290007047401C490008BF20F00100704710B48F
:1022A000B0FA80FC00FA0CF050EA010404BF10BC44
:1022B000704749B1CCF1200421FA04F411FA0CF171
:1022C00018BF012121430843A3EB0C01CB1D4FEAAA
:1022D00000614FEA102042BF002010BC704700EBA5
:1022E000C35010440029A4BF10BC7047401C4900D3
:1022F00008BF20F0010010BC70470000064C074DDD
:1023000006E0E06840F0010394E8070098471034C5
:10231000AC42F6D3FFF710FF385C0008585C0008A9
:1023200070B58D1810F8014B14F0030201D110F8AC
:10233000012B231106D110F8013B03E010F8016BCB
:1023400001F8016B521EF9D1ABB110F8012B04F06A
:102350000C048A1A0C2C03D0A2EB84129B1C08E0FC
:1023600010F8014BA2EB0422F8E712F8014B01F838
:10237000014B5B1EF9D5A942D4D3002070BD21B119
:10238000826842F00102826003E0826822F001026A
:1023900082607047014600208A6802F004020AB198
:1023A000012000E0002070470146C86C80B27047F1
:1023B000014600208A6802F008020AB1012000E00C
:1023C00000207047014600208A6802F480020AB1AA
:1023D000012000E00020704730B5024600200023B5
:1023E00050680F4C20400D790C6844EA05242043C6
:1023F000506090680B4C2040D1E902542C434D7939
:1024000044EA450420439060D06A20F470000C7CBC
:10241000641EE4B2234340EA0350D06230BD0000A2
:10242000FFFEF0FFFDF7F1FFF0B504460D4600207A
:102430000021092D11DDE068A5F10A0606EB46072B
:10244000072606FA07F18843A5F10A0606EB4606B9
:1024500003FA06F10843E0600CE0206905EB45074C
:10246000072606FA07F1884305EB450603FA06F14D
:1024700008432061072A0FDA606B561E06EB8607B9
:102480001F2606FA07F18843561E06EB860605FA54
:1024900006F10843606322E00D2A0FDA206BD61F95
:1024A00006EB86071F2606FA07F18843D61F06EBC0
:1024B000860605FA06F10843206310E0E06AA2F1FF
:1024C0000D0606EB86071F2606FA07F18843A2F1E0
:1024D0000D0606EB860605FA06F10843E062F0BD3C
:1024E000816841F008018160704721B1826842F43F
:1024F000A002826003E0826822F4A002826070473A
:10250000816841F004018160704700002A49096830
:1025100001F0040149B9002141732749096840F2DB
:10252000FF7202EA5151016008E001214173224922
:1025300009686FF0604202EAD10101601E49096832
:1025400001F0020111B90021817301E001218173C1
:102550001949091D096801F00F0101731649083175
:10256000096801711449083109680A0A427112495F
:10257000083109680A0C82710F4908310968090E8F
:10258000C1710D490C31096801720B490C310968A0
:102590000A0A427208490C3109680A0C827206491B
:1025A0000C310968090EC1720449096841F0200123
:1025B000024A116070470000B06500400C640040A2
:1025C00010B52948C06940F000702749C861084625
:1025D000806940F0010088612448406820F4C040D0
:1025E000224948600846406840F4804048601E48E0
:1025F000806940F008001C4988611D48006820F08F
:102600000F001B4908600846006840F00800086099
:102610000846006820F0F00008600846006840F0B6
:10262000B0000860132000F053FB142000F050FBB2
:1026300001201049086003200E4914310860042469
:102640000C481C3000680C4908400A491C310860DD
:1026500008460068611EC1F30801084A1143084397
:1026600004491C31086010BD001002400000014008
:10267000040C01400064004000FE80FC00004B039D
:102680000748006820F001000549086000BF0448C1
:10269000001D006800F001000028F8D1704700001C
:1026A0000064004000BF0548006800F0806000281A
:1026B000F9D001200249086070470000086400401A
:1026C0001400002030B502460020324B1B880D2B31
:1026D00000DD30BD21B9002343EA4253184303E033
:1026E000042303EBC20318432B4B1B6843F0010385
:1026F000294C2360284B1C331B68264C2578012469
:10270000AC40A343244C1C342360234B0C331B6884
:10271000204C25780124AC4023431F4C0C3423600B
:102720001D4B1B1D1B681B4C25780124AC4023430B
:10273000194C241D2360184B4033164C248843F851
:102740003400144C248803EBC4035860124B143338
:102750001B68104C25780124AC40A3430E4C143464
:1027600023600D4B1C331B680A4C25780124AC40B8
:102770002343094C1C342360074B1B6823F00103DF
:10278000054C2360034B1B885B1C024C238000BF5D
:102790009FE700001C0000200066004000212D4A39
:1027A0001160417B49B9114609680288002343EA58
:1027B00042521143274A116008E026490968042360
:1027C000026803EBC2021143224A1160817B21B9E6
:1027D000204909681F4A116005E01E49096841F057
:1027E00002011C4A1160C1790A06817942EA01425C
:1027F000417942EA012102791143164A08321160F7
:10280000C17A0A06817A42EA0142417A42EA01210A
:10281000027A11430F4A0C3211600E49091D0968F2
:1028200021F00F020B49091D0A600968027B02F0C2
:102830000F021143074A121D11600749096841F050
:102840000101054A11600349096841F00101014A8B
:10285000116070478065004014640040044A1168AC
:1028600000BF034A1268521A8242FAD3704700002E
:102870002400002070B504461C491D4A126831F836
:102880001200FFF7EAFC06462146FFF76DFC0546FD
:10289000FFF7E8FC1749086015490968164A1268ED
:1028A0001144124A32F81100FFF7D7FC06462146C0
:1028B000FFF75AFC0546FFF7D5FC0E4908390860BA
:1028C0000B4909680D4A12681144084A32F8110090
:1028D000FFF7C3FC06462146FFF746FC0546FFF717
:1028E000C1FC0449091F086070BD00000001002000
:1028F00068000020402C01403000002034000020FF
:1029000070B504461C491D4A126831F81200FFF7E1
:10291000A4FC06462146FFF727FC0546FFF7A2FC6C
:102920001749086015490968164A12681144124A85
:1029300032F81100FFF791FC06462146FFF714FC20
:102940000546FFF78FFC0E49091D08600B49096811
:102950000D4A12681144084A32F81100FFF77DFC55
:1029600006462146FFF700FC0546FFF77BFC0449BD
:102970000831086070BD0000000100206C000020DC
:1029800034340140380000203C00002010B500F035
:1029900023FD00F0CFFC04201E4908601E4880691A
:1029A00042F63D1108431C4988611A4814380068F2
:1029B0004FF6FB71084017491439086015480C3868
:1029C00000684FF6FB71084012490C390860134843
:1029D000806820F4706011498860114800684FF6E3
:1029E000FB3108400E4908600D480C3800680D495D
:1029F00008400B490C390860084600680A4908433A
:102A000007490C3908600648006840F02000044976
:102A1000086010BD14040140001002400000014095
:102A20000C0C0140FFF00FFF000810002DE9F041F1
:102A3000024600250026002000230024002791F8EC
:102A400003C00CF00F0591F803C00CF0100CBCF1A2
:102A5000000F03D091F802C04CEA050591F800C0C0
:102A6000BCF1000F31D0146800202BE04FF0010CB6
:102A70000CFA00F3B1F800C00CEA03069E4220D124
:102A800083004FF00F0C0CFA03F7BC4305FA03FC6C
:102A90004CEA040491F803C0BCF1280F06D14FF0B2
:102AA000010C0CFA00FCC2F814C00AE091F803C053
:102AB000BCF1480F05D14FF0010C0CFA00FCC2F834
:102AC00010C0401C0828D1D31460B1F800C0BCF17C
:102AD000FF0F34DD546800202EE000F1080C4FF0A9
:102AE000010808FA0CF3B1F800C00CEA03069E4294
:102AF00021D183004FF00F0C0CFA03F7BC4305FA09
:102B000003FC4CEA040491F803C0BCF1280F05D182
:102B100000F1080C08FA0CF8C2F8148091F803C010
:102B2000BCF1480F07D100F1080C4FF0010808FA7A
:102B30000CF8C2F81080401C0828CED35460BDE8C1
:102B4000F08110B5044601212046FFF7CEFC00BFFE
:102B50002046FFF737FC0028FAD12046FFF724FC77
:102B600010BD000000B500223948007839490860DE
:102B700008460078C0F3031002F0F2FF36490860FF
:102B80003448007800F00F0002430846006842EA2B
:102B900000122F48001D00782E4908600846007872
:102BA000C0F3031002F0DCFF2B49086029480078CD
:102BB00000F00F0042EA80120846006842EA8022D4
:102BC0002348401D00782349086008460078C0F378
:102BD000031002F0C5FF204908601E48007800F08D
:102BE0000F0042EA00320846008842EA00421848D4
:102BF000801D00781749086008460078C0F303106C
:102C000002F0AEFF144908601248007800F00F008F
:102C100042EA80420846008842EA80520C48C01DC1
:102C200000780C49086008460078C0F3031002F0F1
:102C300097FF094908600748007800F00F0042EA52
:102C400000620846007842EA0072104600BD0000AB
:102C5000E8F7FF1FA8000020AC00002070B5054673
:102C60000E4600241748007804431648401C00789C
:102C700044EA00241348801C007844EA00441148C8
:102C8000C01C007800F00F0044EA00640D48C01C2E
:102C90000078C0F303100C490860087802F060FF68
:102CA000094908600846007844EA007446B12346A2
:102CB0002A4608210548006800F1805002F05AFFBA
:102CC000204670BDF0F7FF1FAC0000202C00002054
:102CD00000F01F02012191404209920002F1E0221E
:102CE000C2F80011704700F01F0201219140420913
:102CF000920002F1E022C2F80011704729B1064AA1
:102D000092690243044B9A6104E0034A9269824348
:102D1000014B9A61704700000010024010B500F0AE
:102D200001F810BD0CB500200190009033480068F8
:102D300040F480303149086000BF3048006800F43A
:102D4000003000900198401C0190009818B901983B
:102D5000B0F5A06FF1D12948006800F4003010B13F
:102D60000120009001E0002000900098012843D14C
:102D70002348006840F010002149086008460068B8
:102D800020F0030008600846006840F00200086078
:102D90001A48406819494860084640684860084633
:102DA000406840F4806048600846406820F47C1029
:102DB00048600846406840F4E810486008460068EB
:102DC00040F08070086000BF0C48006800F00070A0
:102DD0000028F9D00948406820F0030007494860FE
:102DE0000846406840F00200486000BF0348406861
:102DF00000F00C000828F9D10CBD000000100240C2
:102E00000020024010B55948008880B264280ADCCE
:102E10005649098888B2FFF720FA04465449FFF75B
:102E2000D5F95449086053480068534908604F4831
:102E3000008A80B264280ADC4C49098A88B2FFF70C
:102E40000CFA04464A49FFF7C1F94C490860474863
:102E5000008C80B264280ADC4449098C88B2FFF7F0
:102E6000FCF904464249FFF7B1F9454908603F487B
:102E7000008E80B264280ADC3C49098E88B2FFF7D4
:102E8000ECF904463A49FFF7A1F93E490860374892
:102E90004030008880B264280BDC34494031098816
:102EA00088B2FFF7DAF904463149FFF78FF936495E
:102EB000086035480068354908602C485030008863
:102EC00080B264280BDC29495031098888B2FFF7A9
:102ED000C4F904462649FFF779F92D4908602348CB
:102EE0006030008880B264280BDC2049603109889A
:102EF00088B2FFF7B2F904461D49FFF767F9254983
:102F000008601A487030008880B264280BDC1749CA
:102F10007031098888B2FFF7A0F904461449FFF719
:102F200055F91D4908601D48008880B2642804DCFA
:102F30001A48008880B21A49086018481030008882
:102F400080B2642805DC15481030008880B215492D
:102F5000086012482030008880B2642805DC0F48E1
:102F60002030008880B21049086010BD00F00108D0
:102F70000000C842CC000020D0000020C800002083
:102F8000D4000020F8000020E4000020E800002029
:102F9000E0000020EC000020FC00002000F8010808
:102FA000980000209C000020BC000020002009495F
:102FB000086009490860084908390860091D086067
:102FC0000649086006490860091D0860091D086077
:102FD0007047000068000020402C01406C00002079
:102FE0003434014000B587B0012148F20460FFF796
:102FF00085FE0220ADF8180000208DF81B0006A900
:103000004348FFF713FD0420ADF8180006A9404817
:10301000FFF70CFD0120ADF8180006A93C48FFF7AA
:1030200005FD002001908DF808008DF809004FF48F
:10303000602003900020049001208DF8140001A965
:103040003448FFF7C9F902208DF8140001A932486D
:10305000FFF7C2F900208DF8140001A92F48FFF7EF
:10306000BBF90523012211462A48FFF7DDF90523A4
:10307000012202212848FFF7D7F905230122002168
:103080002648FFF7D1F901212248FFF778F90121FD
:103090002148FFF774F901212048FFF770F91D4816
:1030A000FFF71EFA1C48FFF71BFA1C48FFF718FA37
:1030B00000BF1848FFF77CF90028FAD100BF164876
:1030C000FFF776F90028FAD100BF1448FFF770F92E
:1030D0000028FAD10F48FFF713FA0F48FFF710FA4C
:1030E0000E48FFF70DFA00BF0A48FFF753F9002812
:1030F000FAD100BF0848FFF74DF90028FAD100BF08
:103100000648FFF747F90028FAD107B000BD0000D4
:10311000000801400024014000280140003C01401B
:10312000114800686FF30F000F49086008460068F7
:1031300049F6991108430C4908600C48006820F0D2
:103140007F400A4908600846006840F0194008605E
:103150000846406820F0FF0048600846406840F09C
:1031600099004860704700000408014000100140C9
:103170002D48006840F001002B4908602A481C30A7
:1031800000686FF30D0028491C310860264800686C
:1031900020F00100244908600846006840F0010062
:1031A000086021481C30006840F003001E491C31B3
:1031B00008601D481430006820F003001A491431DB
:1031C000086019480C30006840F0030016490C31C3
:1031D00008601548001D006820F003001249091D11
:1031E00008601248008880B21149086008460068EB
:1031F000042101EBC0200C49403108600D48091D35
:1032000008600D480068042101EBC02006494831E0
:1032100008600848091D08600348006820F00100A4
:1032200001490860704700000066004000E801089E
:103230002C00002006F8FFFF280000200E48006840
:1032400020F470600C4908600846006840F4807003
:103250000860081F0068094908400749091F0860FD
:1032600008460068064908430349091F08600548E5
:103270000549086070470000040C0140FFF00FFF93
:10328000000810000010111100080140852023499A
:103290000860012021490C31086020491431086080
:1032A00046F66800091D0860091D086041F211100A
:1032B000091D086000201949283108604FF47A6020
:1032C000091D08604FF4404014494431086040F241
:1032D000DC50124934310860852011490860012012
:1032E0000F490C3108600E491431086046F6680039
:1032F000091D0860091D086041F21110091D0860D0
:1033000000200749283108604FF47A60091D0860E1
:103310004FF440400249443108607047002C01409E
:103320000034014002480068401C014908607047B1
:103330002400002010B5002100200022214B5B68F2
:1033400003F00C0121B1042906D0082928D107E097
:103350001D4B1E4C236027E01B4B1C4C236023E0BD
:10336000184B5B6803F47010164B5B6803F48032F3
:10337000022303EB904022B9154B4343134C2360C7
:103380000DE0104B5B6803F4003323B1104B434353
:103390000E4C236003E00C4B43430C4C236003E0D2
:1033A000094B0A4C236000BF00BF064B5B68C3F3A8
:1033B0000313084CE15C054B1B68CB40034C2360B6
:1033C00010BD00000010024000127A000000002032
:1033D00000093D000400002010B51248006840F0CC
:1033E000010010490860084640680F4908400D492F
:1033F0004860084600680D4908400A4908600846C8
:10340000006820F4802008600846406820F4FE0030
:1034100048604FF41F008860FFF780FC04480549AE
:10342000086010BD001002400000FFF8FFFFF6FE2C
:103430000020000808ED00E00EB5F948006840F0F3
:103440008000F7490860F7480068401CF5490860AB
:1034500008460068012805D1F148006840F04000A6
:10346000EF490860EF480068322806D1EC48006850
:103470004FF6BF710840EA490860EA480068B0F5B5
:10348000E15F02D10020E7490860E748006820F0CA
:103490000100E5490860E5480078B8B14FF47A705A
:1034A000E149303108604000DF492831086040F6CA
:1034B000B830091D08604FF47A70DD49086040009B
:1034C000091D086040F6B830091D0860D948007829
:1034D00088B3D9480168D948FEF746FE0290FEF746
:1034E000C1FED149303108600020CF492831086041
:1034F000D1480168D148FEF737FE0290FEF7B2FED0
:10350000C9492C310860CC480168CC48FEF72CFE34
:103510000290FEF7A7FEC64908600020091D08605A
:10352000C5480168C548FEF71FFE0290FEF79AFEE7
:10353000BF4908310860C248007800F080000028C8
:103540007AD0C048C049096850F82100BF490968CD
:103550000844BE49086008460068B0F5616F04D3AE
:1035600008460068A0F561600860B948B749096875
:1035700030F811000090FEF770FE0190B548016828
:103580000198FEF7F1FD0290FEF76CFEA64930317E
:103590000860AE480068B04909680844AC4931F891
:1035A00010000090FEF759FE0190AA4801680198AA
:1035B000FEF7DAFD0290FEF755FE9B4928310860C0
:1035C000A2480068A54909680844A14931F81000DB
:1035D0000090FEF742FE01909E4801680198FEF7B8
:1035E000C3FD0290FEF73EFE8F492C3108609C48D7
:1035F0000068401C9A4908600846006899490968B3
:10360000884207D30020964908608F480068401C14
:103610008D4908608C48006822280BD388480078C0
:1036200000F07F008649087000208D490860212045
:1036300085490860CAE3FFE78148007800F0400050
:10364000002864D088480068002860D07F4800685F
:1036500021307E49086008460068B0F5616F04D3E8
:1036600008460068A0F561600860794877490968F4
:1036700030F811000090FEF7F0FD01907B480168E2
:103680000198FEF771FD0290FEF7ECFD66493031BE
:1036900008606E4800687049096808446C4931F850
:1036A00010000090FEF7D9FD019070480168019864
:1036B000FEF75AFD0290FEF7D5FD5B492831086000
:1036C00062480068654909680844614931F810009A
:1036D0000090FEF7C2FD0190644801680198FEF772
:1036E00043FD0290FEF7BEFD4F492C3108605E4855
:1036F0000068401E5C49086008460068002899D1AF
:103700004F48007800F03F004D4908705EE34C4898
:10371000007800F0200000287ED051480068514910
:103720000968884207D300204D4908604648006870
:10373000401E454908604A480068401C48490860E6
:1037400040484149096850F8210040490968084447
:103750003E49086008460068B0F5616F04D308462A
:103760000068A0F56160086039483849096830F898
:1037700011000090FEF771FD01903D48016801982D
:10378000FEF7F2FC0290FEF76DFD2749303108602C
:103790002E4800683049096808442D4931F8100066
:1037A0000090FEF75AFD0190314801680198FEF73C
:1037B000DBFC0290FEF756FD1B49283108602348C8
:1037C0000068264909680844214931F81000009032
:1037D000FEF743FD0190264801680198FEF7C4FCFE
:1037E0000290FEF73FFD10492C3108601648006832
:1037F00000288BD11A4800681A490968884285D385
:103800000F48007800F01F000D490870002014498F
:1038100008601848006800E02EE0FFF72BF8D5E2BA
:103820000C08014040000020102C014063000020E3
:1038300034340140640000207000002000007A450C
:103840005C0000200031002078000020680000208B
:1038500000010020CC0000203000002034000020B7
:10386000C0000020BC00002080000020C800002014
:10387000D0000020F8000020FD48007800F0100083
:10388000002879D0FB48FC49096850F82100FB4921
:103890000968081AF949086008460068B0F5616FC0
:1038A00004D30846006800F561600860F448F349F5
:1038B000096830F811000090FEF7CFFC0190F14844
:1038C00001680198FEF750FC0290FEF7CBFCEE4930
:1038D0000860EA480068ED4909680844E84931F899
:1038E00010000090FEF7B9FC0190E64801680198CD
:1038F000FEF73AFC0290FEF7B5FCE3490839086090
:10390000DE480068E24909680844DD4931F81000E2
:103910000090FEF7A2FC0190DA4801680198FEF7DA
:1039200023FC0290FEF79EFCD749091F0860D94886
:103930000068401CD749086008460068D6490968F5
:10394000884207D30020D3490860CB480068401C58
:10395000C9490860C848006822280BD3C4480078C9
:1039600000F00F00C24908700020CA4908602120F9
:10397000C14908602AE2FFE7BD48007800F008006E
:10398000002863D0C548006800285FD0BB480068A5
:103990002138BA49086008460068B0F5616F04D95B
:1039A0000846006800F561600860B548B3490968D9
:1039B00030F811000090FEF750FC0190B848016803
:1039C0000198FEF7D1FB0290FEF74CFCAE4908606F
:1039D000AA480068AD4909680844A94931F81000AF
:1039E0000090FEF73AFC0190AD4801680198FEF79F
:1039F000BBFB0290FEF736FCA349083908609F48DC
:103A00000068A349096808449D4931F810000090F6
:103A1000FEF723FC0190A24801680198FEF7A4FB81
:103A20000290FEF71FFC9849091F08609B48006838
:103A3000401E9A4908600846006800289AD18C48C0
:103A4000007800F007008A490870BFE188480078D4
:103A500000F0040000287DD08E4800688E49096877
:103A6000884207D300208B49086083480068401EC5
:103A70008149086087480068401C864908607D4885
:103A80007D49096850F821007C490968081A7B497A
:103A9000086008460068B0F5616F04D90846006800
:103AA00000F56160086076487449096830F81100D3
:103AB0000090FEF7D2FB01907A4801680198FEF76A
:103AC00053FB0290FEF7CEFB6F4908606B4800681D
:103AD0006E49096808446A4931F810000090FEF701
:103AE000BCFB01906F4801680198FEF73DFB029016
:103AF000FEF7B8FB6449083908606048006864490B
:103B0000096808445E4931F810000090FEF7A5FBF3
:103B10000190644801680198FEF726FB0290FEF7C9
:103B2000A1FB5949091F08605348006800288CD13F
:103B30005848006858490968884286D34C4800783C
:103B400000F003004A4908700020524908605648B6
:103B5000006800E002E0FEF78DFE37E1444800789F
:103B600000F0020000287DD050480068002879D07D
:103B70004F4800684F490968884271D300204C497A
:103B800008603E480068401E3C49086008460068DE
:103B9000B0F5616F04D90846006800F561600860FF
:103BA00037483649096830F811000090FEF755FB98
:103BB0000190414801680198FEF7D6FA0290FEF79D
:103BC00051FB314908602D480068304909680844B4
:103BD0002B4931F810000090FEF73FFB019036486A
:103BE00001680198FEF7C0FA0290FEF73BFB2649F8
:103BF00008390860214800682549096808442049B7
:103C000031F810000090FEF728FB01902A48016867
:103C10000198FEF7A9FA0290FEF724FB1A49091F42
:103C2000086022480068401E204908600846006875
:103C3000B0F5617F07D821480078012803D14FF003
:103C40007E501D4908601948006848B90848007846
:103C500000F001000649087013480068FEF70AFEEC
:103C6000134800E02CE00068401C11490860ADE0FA
:103C70005C00002000310020780000206800002057
:103C800000010020CC000020402C0140300000202A
:103C900034000020C0000020BC0000208000002074
:103CA000C8000020D0000020F80000209000002074
:103CB000A000002098000020DC00002075000020FB
:103CC000FB48007800F0010000287FD0F948006828
:103CD00000287BD0F8480068F849096888426ED30C
:103CE0000020F5490860F6480068401CF449086067
:103CF00008460068B0F5616F04D308460068A0F577
:103D000061600860EF48EE49096830F811000090E2
:103D1000FEF7A3FA0190EC4801680198FEF724FA37
:103D20000290FEF79FFAE9490860E5480068E84913
:103D300009680844E34931F810000090FEF78DFA55
:103D40000190E14801680198FEF70EFA0290FEF733
:103D500089FADE4908390860D9480068DD490968F0
:103D60000844D84931F810000090FEF776FA019027
:103D7000D54801680198FEF7F7F90290FEF772FA4C
:103D8000D249091F0860CB480068401EC949086035
:103D900008460068B0F5617F07D8CF480078012851
:103DA00003D14FF07E50C8490860C248006830B95E
:103DB0000020BF490870C9480068FEF75BFDBE4897
:103DC0000068401CBC4900E000E00860C44800787E
:103DD00000F08000002879D0C248C349096850F833
:103DE0002100C24909680844C049086008460068C3
:103DF000B0F5616F04D308460068A0F56160086003
:103E0000B048BA49096830F811000090FEF725FA69
:103E10000190B74801680198FEF7A6F90290FEF7F5
:103E200021FAB4490860B1480068B34909680844F8
:103E3000A44931F810000090FEF70FFA0190AC4849
:103E400001680198FEF790F90290FEF70BFAA94974
:103E5000091D0860A5480068A849096808449949EF
:103E600031F810000090FEF7F8F90190A0480168C1
:103E70000198FEF779F90290FEF7F4F99D490831AF
:103E800008609F480068401C9D490860084600681B
:103E90009C490968884207D30020994908609248E4
:103EA0000068401C904908608F48006822280BD3A6
:103EB0008B48007800F07F00894908700020904905
:103EC0000860212088490860CCE3FFE78448007837
:103ED00000F04000F0B38C480068D8B38348006815
:103EE00021308249086008460068B0F5616F04D34C
:103EF00008460068A0F56160086072487B4909685F
:103F000030F811000090FEF7A8F901907F48016891
:103F10000198FEF729F90290FEF7A4F975490860A7
:103F200072480068744909680844664931F810000D
:103F30000090FEF792F90190744801680198FEF72D
:103F400013F90290FEF78EF96A49091D0860674867
:103F5000006800E024E0694909680844594931F8DB
:103F600010000090FEF779F9019068480168019807
:103F7000FEF7FAF80290FEF775F95E49083108601D
:103F800061480068401E60490860084600680028D3
:103F90009AD15348007800F03F005149087061E31E
:103FA0004F48007800F0200000287DD05448006879
:103FB00054490968884207D30020514908604A489B
:103FC0000068401E484908604D480068401C4C4944
:103FD000086044484449096850F821004349096889
:103FE00008444249086008460068B0F5616F04D390
:103FF00008460068A0F56160086032483B490968DE
:1040000030F811000090FEF728F90190404801684F
:104010000198FEF7A9F80290FEF724F935490860E7
:1040200032480068344909680844264931F81000CC
:104030000090FEF712F90190354801680198FEF7EB
:1040400093F80290FEF70EF92A49091D08602748E7
:1040500000682A49096808441A4931F8100000909C
:10406000FEF7FBF801902A4801680198FEF77CF8FA
:104070000290FEF7F7F81F49083108601A480068F7
:1040800000288CD11E4800681E490968884286D3E2
:104090001348007800F01F001149087000201849EB
:1040A00008601C48006800E036E0FEF729FCD9E211
:1040B0005C00002088000020A00000209800002064
:1040C0006800002000010020D8000020402C0140A2
:1040D000300000203400002074000020F800002090
:1040E0005D000020003100207C0000206C000020DA
:1040F000E400002034340140380000203C0000205F
:10410000C4000020BC00002084000020E00000204B
:10411000E8000020FC000020FC48007800F01000BF
:10412000F0B3FB48FB49096850F82100FA490968D7
:10413000081AF949086008460068B0F5616F04D9AB
:104140000846006800F561600860F448F2490968B3
:1041500030F811000090FEF780F80190F0480168F7
:104160000198FEF701F80290FEF77CF8ED4908602F
:10417000E9480068EC4909680844E84931F810004A
:104180000090FEF76AF80190E54801680198FDF794
:10419000EBFF0290FEF766F8E249091D086000E0B7
:1041A0003AE0DD480068E14909680844DB4931F834
:1041B00010000090FEF751F80190D948016801986D
:1041C000FDF7D2FF0290FEF74DF8D649083108609E
:1041D000D7480068401CD649086008460068D549A1
:1041E0000968884207D30020D1490860C94800689F
:1041F000401CC8490860C748006822280BD3C34840
:10420000007800F00F00C14908700020C84908601C
:104210002120C049086025E2BC48007800F0080071
:10422000F0B3C5480068D8B3BB4800682138BA4924
:10423000086008460068B0F5616F04D90846006858
:1042400000F561600860B548B349096830F81100AD
:104250000090FEF702F80190B84801680198FDF758
:1042600083FF0290FDF7FEFFAE490860AA48006890
:10427000AD4909680844A94931F810000090FDF7DC
:10428000ECFF0190AD4801680198FDF76DFF0290C9
:10429000FDF7E8FFA349091D08609F48006800E09A
:1042A00024E0A249096808449C4931F810000090B4
:1042B000FDF7D3FF0190A14801680198FDF754FF75
:1042C0000290FDF7CFFF9749083108609A480068CF
:1042D000401E994908600846006800289BD18B4819
:1042E000007800F0070089490870BBE18748007832
:1042F00000F00400F0B38E4800688E4909688842D7
:1043000007D300208A49086082480068401E81491E
:10431000086087480068401C854908607C487D49E2
:10432000096850F821007C490968081A7A49086030
:1043300008460068B0F5616F04D90846006800F5CA
:104340006160086075487449096830F81100009090
:10435000FDF783FF01907A4801680198FDF704FF9B
:104360000290FDF77FFF6F4908606B4800686E4957
:10437000096800E041E00844684931F81000009005
:10438000FDF76BFF01906E4801680198FDF7ECFEA8
:104390000290FDF767FF6349091D08605E480068E9
:1043A0006249096808445D4931F810000090FDF742
:1043B00054FF0190624801680198FDF7D5FE029014
:1043C000FDF750FF5749083108605248006800283F
:1043D0008BD15748006857490968884285D34B48B4
:1043E000007800F003004949087000205049086037
:1043F00054480068FEF784FA34E14448007800F03D
:104400000200E8B350480068D0B3504800685049F3
:104410000968884273D300204C4908603E48006810
:10442000401E3D49086008460068B0F5616F04D938
:104430000846006800F56160086038483649096838
:1044400030F811000090FDF708FF01904148016825
:104450000198FDF789FE0290FDF704FF31490860DD
:104460002D4800683049096808442C4931F810008B
:104470000090FDF7F2FE019036480168019800E0D7
:104480006CE0FDF771FE0290FDF7ECFE2549091D79
:104490000860214800682549096808441F4931F827
:1044A00010000090FDF7D9FE01902A48016801989C
:1044B000FDF75AFE0290FDF7D5FE1A490831086053
:1044C00021480068401E2049086008460068B0F591
:1044D000617F07D820480078012803D14FF07E5033
:1044E0001C4908601848006848B90848007800F07E
:1044F00001000649087013480068FEF701FA1348E6
:104500000068401C11490860ACE000005D0000201C
:10451000003100207C0000206C0000200001002001
:10452000E400002034340140380000203C0000202A
:10453000C4000020BC00002084000020E000002017
:10454000E8000020FC00002094000020A4000020CF
:104550009C000020F40000207700002057480078DD
:1045600000F00100E8B356480068D0B35548006831
:1045700055490968884270D3002052490860534861
:104580000068401C5149086008460068B0F5616F3A
:1045900004D308460068A0F5616008604C484B49A8
:1045A000096830F811000090FDF757FE0190494866
:1045B00001680198FDF7D8FD0290FDF753FE4649CA
:1045C000086042480068454909680844404931F894
:1045D00010000090FDF741FE01903E4801680198EF
:1045E00000E03FE0FDF7C0FD0290FDF73BFE3A49D9
:1045F000091D08603548006839490968084434498C
:1046000031F810000090FDF728FE01903148016854
:104610000198FDF7A9FD0290FDF724FE2E4908310F
:10462000086027480068401E254908600846006861
:10463000B0F5617F07D82B480078012803D14FF0EF
:104640007E50244908601E48006830B900201B498C
:10465000087025480068FEF753F91A480068401CA6
:10466000184908602148007808B300201F490870E5
:104670001F4800681F4908601F4800681549086006
:104680001B4800681D4908601B4800681C490860F9
:104690001C4800781C4908701C48007807490870BD
:1046A0000020184908701949087010490870184806
:1046B000006820F08000164908600EBD5D000020F3
:1046C0008C000020A40000209C0000206C00002032
:1046D00000010020F00000203434014038000020A8
:1046E0003C00002076000020FC000020600000203C
:1046F000D4000020D8000020EC000020DC000020C6
:10470000F40000205E0000205C0000205F0000201C
:104710000C0801400B48006800F0010080B1094816
:10472000006840F001000749086006480C30006846
:1047300020F0010003490C310860012002490860A3
:1047400070470000086400401400002000B50648CF
:10475000006800F0030028B10448FDF7D7FE0120EF
:104760000349086000BD00000C640040983100203F
:104770001800002002E008C8121F08C1002AFAD160
:1047800070477047002001E001C1121F002AFBD1D1
:10479000704710B5FDF714FF01212320FDF792FFAC
:1047A000FDF76EFFFDF77EFF10BD000000B503466C
:1047B0000848006840F01000064908601846FEF7F7
:1047C0004DF8044800684FF6EF7108400149086051
:1047D00000BD00000C08014070B5044601EB8203E7
:1047E00000BF1C4DED6805F00105002DF9D11A4DF3
:1047F000184E7560194D7560BAB935462D6945F08A
:1048000002053561354669612D6945F04005356120
:1048100000BF104DED6805F00105002DF9D10D4DDB
:104820002D6925F002050B4E35610A4D2D6945F0C5
:104830000105084E35611C8000BF064DED6805F08E
:104840000105002DF9D1034D2D6925F00105014E1B
:10485000356170BD0020024023016745AB89EFCD73
:1048600086B00024FE4880694AF63D710843FC4941
:104870008861FEF7E3FCFB4800684FF47A72B0FBF6
:10488000F2F1481EB0F1807F00D31BE0481E4FF0CC
:10489000E022506150170F22002807DA13071E0E7E
:1048A000F14B00F00F052D1F5E5503E013071D0EA1
:1048B000EE4B1D5400BF00204FF0E0229061072016
:1048C000106100BFFFF765FFFEF752FCFEF728FC02
:1048D000FEF7DCFCFEF76AFBFEF794FA6420FDF7B6
:1048E000BDFFE348006840F02000E149086019205E
:1048F000FEF7F9F9FEF776FBDE48FEF722F9DE480F
:10490000FEF71FF9DD48FEF71CF901F01DF901F073
:10491000FDB800260025002002900190FDF79EFFC3
:10492000D748006800287CD1D64908600024A3E05D
:1049300000BFD54800680028FBD00020D24908609D
:104940000290D24800EB0411DFF844C3DCE90032E6
:10495000DCE9020CC1E9020CC1E90032CB4800EBF2
:1049600004100078C94901EB041106460860042EC2
:1049700076D1C64800EB04100079C0F30110019015
:10498000019820B101280DD0022867D134E0012020
:104990000290C048008884B20120BE490860BE4928
:1049A00008605BE0B94800EB04100179B74800EB00
:1049B000041040794FF4803202FB0011B34800EB41
:1049C00004108079121202FB0011B04800EB0410B1
:1049D000C0790144AD4800EB0410007A02FB0011DD
:1049E000AA4800EB0410407A08443044A5490968FD
:1049F0000844A449086031E0601CA6490860A34847
:104A000000EB04100179A14800EB041040794FF449
:104A1000803202FB00119D4800EB041080791212D5
:104A200000E031E002FB0011984800EB0410C0796F
:104A30000144964800EB0410007A02FB00119348F1
:104A400000EB0410407A084430448E490968084459
:104A50008C4908608F48008884B200BF0AE0FFE7F5
:104A6000012002908B48008884B2012089490860A7
:104A700089490860601C84B2864800688442FFF659
:104A800057AF01207E4908607F48006800285DD04C
:104A90007B480068002859D000207B4908607C488A
:104AA00000787B4906460860072E02D1012002905B
:104AB0004CE00D2E1CD10020784908607848007821
:104AC00010B97848007810B1012074490860764820
:104AD000007810B101207149086000236F4801215E
:104AE00002687248006800F1805001F043F82DE040
:104AF000082E2BD16648007901066548407901EB04
:104B000000416348807901EB00216148C079084485
:104B100062490860084600685A490968884204D119
:104B2000012501205C49086003E00225002054496A
:104B300008602B465348052102685C48006800F174
:104B4000805001F017F800204E4908604C4800687A
:104B500000287DD000F0F8FF10B902980028F8D0A6
:104B60004D4800680028F4D0002002904A490860AF
:104B70000024FDE3454800EB04100078434901EBB5
:104B8000041106460860B01E272867D2DFE810F03F
:104B90002700C900DC00F802000309030C031C0312
:104BA0002A0339035F036E038B03A003CA03DF03E9
:104BB000F60306040E042B043E048304B104250509
:104BC0002C05D50566006600FA0547068C06B10679
:104BD00038073C074E076307660066006D072B49E0
:104BE00001EB04110879FDF738FB31490090FDF71E
:104BF000EDFA30490860084600682F4908602349EB
:104C000001EB04114879FDF728FB29490090FDF7D5
:104C1000DDFA2A4908601D4901EB04118879FDF786
:104C20001CFB23490090FDF7D1FA2549086017497C
:104C300001EB0411C879FDF710FB1D490090FDF749
:104C4000C5FA20490860114901EB0411087A00E017
:104C5000FEE3FDF702FB1649009035E022E3000079
:104C6000001002400000002018ED00E000E400E029
:104C70000C0C01400024014000280140003C014090
:104C800044000020B000002018000020A8310020BF
:104C9000983100204C000020B4000020A800002023
:104CA0005C0000205D000020600000202C0000203F
:104CB0000000C842CC000020D0000020C800002026
:104CC000D4000020F8000020FDF780FAFE490860BB
:104CD00008460068FD490860FD4901EB0411487A67
:104CE000FDF7BBFAFB490090FDF770FAFA4908603E
:104CF000F74901EB0411887AFDF7AFFAF549009006
:104D0000FDF764FAF5490860F14901EB0411C87A2E
:104D1000FDF7A3FAEF490090FDF758FAF049086053
:104D2000C0E2EB4800EB04100079EE490860E84867
:104D300000EB04104079EC490860E54800EB0410F2
:104D40008079EA490860EBE7E14800EB041000795C
:104D500000F00F05DE4800EB04100079C0F30110ED
:104D60000190042D28D1DA4800EB041040790104A9
:104D7000D74800EB0410807901EB0021D44800EB08
:104D80000410C0790844DA49086008460068D94927
:104D9000086000BFCE4800EB0410417ACC4800EB1D
:104DA0000410007A01EB0020D34908600120D349A8
:104DB0000870D349087045E1052D28D1C44800EB9F
:104DC000041040790104C24800EB0410807901EB23
:104DD0000021BF4800EB0410C0790844C9490860AD
:104DE00008460068C3490860B94800EB0410417ADE
:104DF000B74800EB0410007A01EB0020BE490860C0
:104E00000120BE4908700220BD4908701AE1062D34
:104E100029D1AF4800EB041040790104AC4800EB05
:104E20000410807901EB0021A94800EB0410C0793F
:104E30000844B549086008460068AE49086000BFEC
:104E4000A34800EB0410417AA14800EB0410007A5B
:104E500001EB0020A84908600120A8490870E02063
:104E6000A7490870EEE0072D29D1994800EB0410FE
:104E700040790104964800EB0410807901EB002191
:104E8000934800EB0410C07908449F490860084625
:104E900000689849086006258D4800EB0410417AA7
:104EA0008B4800EB0410007A01EB00209249086067
:104EB0000120924908701C2091490870C2E045BB4E
:104EC000834800EB041040790104814800EB041092
:104ED000807901EB00217E4800EB0410C079084482
:104EE0008A490860084600688249086000257848B9
:104EF00000EB0410417A764800EB0410007A01EBD5
:104F000000207D49086001208149087081490870AE
:104F100098E0012D29D16E4800EB0410407901047E
:104F20006B4800EB0410807901EB0021684800EB2E
:104F30000410C079084478490860084600686D4943
:104F4000086000BF624800EB0410417A604800EB43
:104F50000410007A01EB00206749086001206C49C9
:104F6000087002206B4908706CE0022D29D1584866
:104F700000EB041040790104554800EB04108079DF
:104F800001EB0021524800EB0410C079084463494A
:104F90000860084600685749086000BF4C4800EBAD
:104FA0000410417A4A4800EB0410007A01EB00201B
:104FB00051490860012056490870E02055490870A1
:104FC00040E0032D29D1424800EB04104079010450
:104FD0003F4800EB0410807901EB00213C4800EBD6
:104FE0000410C07908444D490860084600684149EA
:104FF00008600225364800EB0410417A344800EB83
:105000000410007A01EB00203B4908600120404970
:1050100008701C203F49087014E0082D12D12C485C
:1050200000EB0410417A2A4800EB0410007A01EBEF
:1050300000203149086008460068FDF70FFC002099
:105040002D4908603248007810B12C48007810B91A
:105050000198002866D13148006828B92D480078A9
:1050600000F0B7002B4908702848006828B9294883
:10507000007800F0FE00274908702748006828B92A
:105080002448007800F0FD00224908701E4800689E
:1050900028B91B48007800F0B70019490870144877
:1050A000006828B91648007800F0FE00144908701E
:1050B0001448006828B91248007800F0FD00104933
:1050C0000870012016492EE0E4000020E8000020CE
:1050D000A83100200000C842E0000020EC000020C1
:1050E000FC000020980000209C000020BC00002054
:1050F0008C000020A8000020540000206200002046
:105100005F00002094000020840000208800002020
:10511000610000205E000020900000208000002040
:10512000600000202BE0087015E0FE48006890B198
:105130000020FC490860FC480078FB4906460860EE
:105140000D2E08D1002301221146F848006800F115
:10515000805000F00FFDF64800780028E5D1F548B2
:1051600000780028E1D1F44800780028DDD1F34927
:105170000870F3490870F3480068FDF76FFBCFE54E
:10518000F14800EB04100579284600F021FDC7E541
:10519000EE48007808B9012000E00020EB490870D3
:1051A000BEE501200290BBE5E9480068E9490860D6
:1051B00003252B46084605210268DC48006800F1FB
:1051C000805000F0D7FCABE5E348FDF7BAFC039054
:1051D00000230221D548039A006800F1805000F0B6
:1051E000C9FC9DE5D1480068DA49086000230846FB
:1051F00002210268CD48006800F1805000F0BAFC3E
:105200008EE5CA48006800F18050D4490860002447
:1052100005E00021D148001D0155601C84B2082C16
:10522000F7DB0220CD490873012048730020887302
:10523000CB48006850B10020C94908600320C74925
:1052400008710421C5484171FDF7A8FA68E5C54811
:105250000078C04908600023084601210268B3486D
:10526000006800F1805000F085FC59E50020B94944
:105270000860B048007810B9AF48007810B101203C
:10528000B4490860AA48007810B10120B14908600B
:105290000023B04801210268A448006800F1805052
:1052A00000F068FC48E2B048FDF74BFC0590AF48C1
:1052B000FDF747FC049008219C48DDE904320068B2
:1052C00000F1805000F056FC00200590049033E27D
:1052D0009648006800F18050A0490860002405E06D
:1052E00000219E48001D0155601C84B2082CF7DB8C
:1052F00002209A4908730120487300208873984857
:10530000006870B1002096490860994800680079EB
:105310009249087196480068017890484171FDF7FC
:105320003DFAE4E3884901EB04114979864A02EB2E
:10533000041212794FF4807303FB0210FCF784FF10
:105340008C490090FCF742FF8B490860CFE38B4803
:105350000068804908608948001D00688849086025
:10536000084603687B48082102687048006800E02E
:10537000C0E300F1805000F0FDFBB8E37F48083047
:1053800000687449086000230846042102686748E1
:10539000006800F1805000F0EDFBA8E3FDF7E2FBB0
:1053A000824601215046FDF759FCA0E3754800688C
:1053B00098B1654800EB04104079634901EB041192
:1053C00009794FF4807202FB01005849086009888E
:1053D00088B200226C49FFF7FFF900206949086094
:1053E000FDF7C6FE83E3684800685A49086008462E
:1053F000008880B2086000230846022102684B48FA
:10540000006800F1805000F0B5FB70E35B48006875
:10541000504908605948001D0068594908604A48C9
:1054200000EB0410007A0106474800EB0410407AB4
:1054300001EB0041444800EB0410807A01EB0021AD
:10544000414800EB0410C07A01EB00083E4800E040
:105450005BE300EB0410007901063B4800EB04100D
:10546000407901EB0041384800EB0410807901EBF2
:105470000021354800EB0410C07901EB000B3548E2
:105480000068404506D13E480068584502D10120D9
:105490003C4908602BE3DFF8E49009F108092D4945
:1054A000D9F800000860284800EB041000790106D4
:1054B000254800EB0410407901EB0041224800EB45
:1054C0000410807901EB00211F4800EB0410C07923
:1054D00001EB00081F480068404506D129480068D4
:1054E000012802D12749086002E000202549086010
:1054F000FDE2FDF737FB824600215046FDF7AEFB8B
:105500000746114800EB0410007A01060E4800EB34
:105510000410407A01EB00410B4800EB0410807A44
:1055200034E0000018000020983100202C000020FA
:10553000600000205C0000205D0000206200002070
:105540006100002054000020A831002063000020EA
:10555000B0000020A8000020003C0140883100205D
:1055600014000020640000200024014000280140B5
:105570002000002000FF7F4770000020E8F7FF1F99
:10558000AC0000204800002000E8010801EB0021E9
:10559000FA4800EB0410C07A01EB0008F74800EB72
:1055A000041000790106F54800EB0410407901EB86
:1055B0000041F24800EB0410807901EB0021EF4834
:1055C00000EB0410C07901EB000BC24504D15F452C
:1055D00002D10120EA49086089E2E84800EB0410A2
:1055E0000079E849087082E2E44901EB0411087986
:1055F000FCF733FEE4490090FCF7E8FDE34908605E
:10560000DE4901EB041108790022E149FFF7E4F8D3
:10561000DE480068DF490860D84901EB0411487989
:10562000FCF71BFED8490090FCF7D0FDDA49086072
:10563000D24901EB041148790422D549FFF7CCF88F
:10564000CE4901EB04118879FCF707FECE490090A2
:10565000FCF7BCFDD1490860C84901EB0411887909
:105660000822CB49FFF7B8F8C44901EB0411C87907
:10567000FCF7F3FDC4490090FCF7A8FDC849086099
:10568000BE4901EB0411C8790C22C149FFF7A4F807
:10569000BA4901EB0411087AFCF7DFFDBA49009022
:1056A000FCF794FDBF490860B44901EB0411087A86
:1056B0001022B749FFF790F8BA480068BA49086065
:1056C000AE4901EB0411487AFCF7C7FDAE490090E2
:1056D000FCF77CFDB5490860A84901EB0411487A44
:1056E0001422AB49FFF778F8A44901EB0411887A3A
:1056F000FCF7B3FDA4490090FCF768FDAC490860D5
:105700009E4901EB0411887A1822A149FFF764F839
:105710009A4901EB0411C87AFCF79FFD9A49009061
:10572000FCF754FDA3490860944901EB0411C87AC1
:105730001C229749FFF750F8D9E1904800EB04107C
:1057400000799D490860098888B200229B49FFF7CB
:1057500043F88A4800EB04104079994908600988A9
:1057600088B204229549FFF737F8844800EB04100B
:10577000807994490860098888B208228F49FFF728
:105780002BF8B4E190490879FCF767FD7E49009059
:10579000FCF71CFD7D490860084600687D490860EB
:1057A00089494879FCF759FD77490090FCF70EFDCF
:1057B0007949086084498879FCF74FFD7249009067
:1057C000FCF704FD754908607F48C0797A49086094
:1057D0007D49087AFCF741FD6B490090FCF7F6FC27
:1057E00070490860084600686F4908607649487A41
:1057F000FCF733FD64490090FCF7E8FC6B49086056
:105800007149887AFCF729FD5F490090FCF7DEFCBE
:10581000674908606C48C07A6949086067E16A496D
:105820000879FCF71AFD58490090FCF7CFFC5C4959
:10583000086065494879FCF710FD53490090FCF772
:10584000C5FC5C4908606048807900F0200018B110
:1058500001205E49087002E000205C4908705A4847
:10586000807900F0100018B101205949087002E059
:105870000020574908705448807900F0020018B1A0
:1058800001205449087002E00020524908704E4837
:10589000807900F0010018B101204F49087002E042
:1058A00000204D49087022E147484179007901EB19
:1058B00000204A4908604448C179807901EB002002
:1058C0004749086008460068464908603E48417AF2
:1058D000007A01EB0020444908603B48C17A807A95
:1058E00001EB002041490860084600684049086013
:1058F000FDE0354800793F490870334840793E491A
:1059000008703648006828B93A48007800F0B700B7
:10591000384908703248006828B93648007800F0E5
:10592000FE00344908702F48006828B931480078D3
:1059300000F0FD002F4908702B48006828B92E4858
:10594000007800F0B7002C4908702848006828B992
:105950002948007800F0FE002749087024480068B4
:1059600028B92548007800F0FD0023490870164842
:10597000807910B1012021490870B8E0A8310020D9
:1059800048000020640000200000C842CC00002035
:1059900000F00108D0000020C8000020D400002042
:1059A000F8000020E4000020E8000020E0000020D3
:1059B000EC000020FC0000209800002000F8010806
:1059C0009C000020BC0000209831002074000020C2
:1059D0007500002076000020770000208000002065
:1059E0008800002090000020840000208C0000200F
:1059F000940000205E0000205F0000206000002076
:105A000001204349087072E09620FEF7CFFE4FF464
:105A1000FA70FCF723FF9620FEF7C8FE4FF4FA70E9
:105A2000FCF71CFF9620FEF7C1FE60E039480068D5
:105A3000008845F2467101EB004036490968097952
:105A400000EB0163344A08213448006800F18050BB
:105A500000F090F84BE0324B324A08212F480068A2
:105A600000F1805000F086F841E02F48006840F4D3
:105A700080602D490860084600684FF6DF510840F5
:105A8000294908602948007E00F0070027498861FD
:105A90002748006840F00400254908602548006850
:105AA00040F00100234908600846006820F0020029
:105AB00008602148006840F004001F4908601E4843
:105AC0000830006840F004001B49083108601B489A
:105AD000806820F47060194988600846806840F446
:105AE000807088600820FDF7FEF830BF00BF00BF5F
:105AF000601C84B2124800688442FFF63BA8002074
:105B00001049086064200E49086000BFFEF701BF1D
:105B10006000002020000020426F6F742C000020E5
:105B200046570403504F535F0C0C014000100240D5
:105B300010ED00E000700040000401400000014052
:105B40004C0000204400002000200449096801F0B6
:105B5000040109B1012000E000207047080C014059
:105B6000032801D1002004E0042801D1012000E035
:105B7000022070472DE9F04106460F4614461D46A7
:105B8000FCF790FD002010490860104806600146AF
:105B90000F7301204873002088730C71210A0B4891
:105BA0004171210C8171210EC1710572290A417266
:105BB000290C8172290EC172FCF7F0FD0120024907
:105BC0000860BDE8F081000014000020883100204A
:105BD000012806D11749096841F03001154A1160C2
:105BE00027E002280DD11349096841F01001114A3C
:105BF0001160114609684FF6DF7211400D4A1160BD
:105C000017E003280DD10B49096841F02001094A2A
:105C10001160114609684FF6EF721140054A116094
:105C200007E030B9034909684FF6CF721140014AC5
:105C3000116070470C080140585C0008000000200B
:105C40008831000020230008A07700088831002058
:105C5000600A000084470008500600A24A040001C0
:105C6000A00A0102030406070809000120044C00F1
:105C7000200743204E0F12601E83B00408A12B039F
:105C800024640001120102613443B80B04C3409C38
:105C90000443020004011A48B20CA93006403F0038
:105CA0000080040005209A99993E1841800316A0AF
:105CB0000F0202119F02929E02729D02729C02527A
:105CC0009B02529A0232990232980232970232961D
:105CD000023295023294021293023292021291021F
:105CE000129002128F02128E02328D02128C021258
:105CF0008B02128A021004890F8802128702128610
:105D0000021285021004840F8302128202100481A1
:105D10000F8002127F0210047E0F7D0210047C0FA0
:105D20007B0210047A0F79021006780F770F760243
:105D30001004750F74021006730F720F71021006B3
:105D4000700F6F0F6E0210086D0F6C0F6B0F6A02F1
:105D5000100A690F680F670F660F6502100C640F59
:105D6000630F620F610F600F5F0210185E0F5D0F0F
:105D70005C0F5B0F5A0F590F580F570F560F550FE7
:105D8000540F530200FF00520F510F500F4F0F4E90
:105D90000F4D0F4C0F4B0F4A0F490F480F470F463F
:105DA0000F440F430F420F410F400F3F0F3E0F3D77
:105DB0000F3C0F3B0F3A0F390F380F360F350F34AA
:105DC0000F330F320F310F300F2E0F2D0F2C0F2BE3
:105DD0000F2A0F290F270F260F250F240F230F211E
:105DE0000F200F1F0F1E0F1C0F1B0F1A0F190F175D
:105DF0000F160F150F140F120F110F100F0E0F0D9E
:105E00000F0C0F0A0F090F080F060F050F040F02E2
:105E10000F010F000FFE0EFD0EFC0EFA0EF90EF72D
:105E20000EF60EF50EF30EF20EF00EEF0EED0EEC7A
:105E30000EEA0EE90EE80EE60EE50EE30EE20EE0C7
:105E40000EDF0EDD0EDC0EDA0ED90ED70ED60ED416
:105E50000ED30ED10ECF0ECE0ECC0ECB0EC90EC869
:105E60000EC60EC40EC30EC10EC00EBE0EBC0EBBBF
:105E70000EB90EB80EB60EB40EB30EB10EAF0EAE16
:105E80000EAC0EAA0E00FF00A90EA70EA50EA40EC2
:105E9000A20EA00E9E0E9D0E9B0E990E980E960EB3
:105EA000940E920E910E8F0E8D0E8B0E890E880E13
:105EB000860E840E820E810E7F0E7D0E7B0E790E75
:105EC000770E760E740E720E700E6E0E6C0E6B0EDA
:105ED000690E670E650E630E610E5F0E5D0E5B0E42
:105EE0005A0E580E560E540E520E500E4E0E4C0EAA
:105EF0004A0E480E460E440E420E400E3E0E3C0E1A
:105F00003A0E380E360E340E320E300E2E0E2C0E89
:105F10002A0E280E260E240E220E200E1E0E1C0EF9
:105F20001A0E180E160E140E110E0F0E0D0E0B0E6D
:105F3000090E070E050E030E010EFE0DFC0DFA0DE7
:105F4000F80DF60DF40DF20DEF0DED0DEB0DE90D65
:105F5000E70DE40DE20DE00DDE0DDC0DD90DD70DE2
:105F6000D50DD30DD10DCE0DCC0DCA0DC80DC50D5F
:105F7000C30DC10DBF0DBC0DBA0DB80DB50DB30DE0
:105F8000B10DAF0DAC0D00FF00AA0DA80DA50DA31E
:105F90000DA10D9E0D9C0D9A0D970D950D930D90D5
:105FA0000D8E0D8B0D890D870D840D820D800D7D5D
:105FB0000D7B0D780D760D740D710D6F0D6C0D6AE6
:105FC0000D670D650D630D600D5E0D5B0D590D5672
:105FD0000D540D510D4F0D4C0D4A0D470D450D4201
:105FE0000D400D3D0D3B0D380D360D330D310D2E91
:105FF0000D2C0D290D270D240D210D1F0D1C0D1A23
:106000000D170D150D120D0F0D0D0D0A0D080D05B7
:106010000D020D000DFD0CFB0CF80CF50CF30CF053
:106020000CED0CEB0CE80CE60CE30CE00CDE0CDBEE
:106030000CD80CD60CD30CD00CCE0CCB0CC80CC589
:106040000CC30CC00CBD0CBB0CB80CB50CB20CB026
:106050000CAD0CAA0CA80CA50CA20C9F0C9D0C9AC4
:106060000C970C940C920C8F0C8C0C890C860C8465
:106070000C810C7E0C7B0C780C760C730C700C6D08
:106080000C6A0C680C650C00FF00620C5F0C5C0C69
:10609000590C570C540C510C4E0C4B0C480C450C25
:1060A000430C400C3D0C3A0C370C340C310C2E0CCC
:1060B0002B0C290C260C230C200C1D0C1A0C170C75
:1060C000140C110C0E0C0B0C080C060C030C000C21
:1060D000FD0BFA0BF70BF40BF10BEE0BEB0BE80BD4
:1060E000E50BE20BDF0BDC0BD90BD60BD30BD00B84
:1060F000CD0BCA0BC70BC40BC10BBE0BBB0BB80B34
:10610000B50BB20BAF0BAC0BA90BA60BA30BA00BE3
:106110009D0B9A0B970B940B900B8D0B8A0B870B97
:10612000840B810B7E0B7B0B780B750B720B6F0B4B
:106130006B0B680B650B620B5F0B5C0B590B560B03
:10614000530B500B4C0B490B460B430B400B3D0BB9
:106150003A0B360B330B300B2D0B2A0B270B240B72
:10616000200B1D0B1A0B170B140B110B0D0B0A0B2D
:10617000070B040B010BFD0AFA0AF70AF40AF10AED
:10618000ED0AEA0AE70AE40A00FF00E10ADD0ADA9A
:106190000AD70AD40AD10ACD0ACA0AC70AC40AC051
:1061A0000ABD0ABA0AB70AB30AB00AAD0AAA0AA710
:1061B0000AA30AA00A9D0A990A960A930A900A8CD1
:1061C0000A890A860A830A7F0A7C0A790A750A7292
:1061D0000A6F0A6C0A680A650A620A5E0A5B0A5854
:1061E0000A550A510A4E0A4B0A470A440A410A3D17
:1061F0000A3A0A370A330A300A2D0A290A260A23DC
:106200000A1F0A1C0A190A150A120A0F0A0B0A08A1
:106210000A050A010AFE09FB09F709F409F109ED6B
:1062200009EA09E609E309E009DC09D909D609D236
:1062300009CF09CC09C809C509C109BE09BB09B7FD
:1062400009B409B009AD09AA09A609A3099F099CC7
:10625000099909950992098F098B0988098409818F
:10626000097D097A097709730970096C096909665A
:106270000962095F095B095809540951094E094A25
:10628000094709430940093C0900FF00390936095B
:1062900032092F092B092809240921091E091A0985
:1062A0001709130910090C09090905090209FF0852
:1062B000FB08F808F408F108ED08EA08E608E30826
:1062C000DF08DC08D908D508D208CE08CB08C708F3
:1062D000C408C008BD08B908B608B208AF08AB08C2
:1062E000A808A508A1089E089A089708930890088E
:1062F0008C088908850882087E087B08770874085E
:1063000070086D086908660862085F085C0858082C
:10631000550851084E084A084708430840083C08F9
:106320003908350832082E082B08270824082008C9
:106330001D081908160812080F080B080808040899
:106340000108FD07FA07F607F307EF07EC07E80770
:10635000E507E107DE07DA07D707D307D007CD0740
:10636000C907C607C207BF07BB07B807B407B1070D
:10637000AD07AA07A607A3079F079C0798079507DD
:1063800091078E078A078707830700FF0080077C35
:10639000077907750772076E076B07670764076061
:1063A000075D075907560752074F074B0748074431
:1063B0000741073E073A073707330730072C0729FD
:1063C00007250722071E071B071707140710070DCD
:1063D00007090706070207FF06FB06F806F506F1A0
:1063E00006EE06EA06E706E306E006DC06D906D571
:1063F00006D206CE06CB06C706C406C106BD06BA3F
:1064000006B606B306AF06AC06A806A506A1069E0C
:10641000069B069706940690068D068906860682D8
:10642000067F067C067806750671066E066A0667A4
:1064300006640660065D065906560652064F064C6F
:10644000064806450641063E063A0637063406303B
:10645000062D062906260623061F061C0618061505
:106460000611060E060B06070604060106FD05FAD0
:1064700005F605F305F005EC05E905E505E205DFA0
:1064800005DB05D805D405D105CE0500FF00CA05FA
:10649000C705C405C005BD05BA05B605B305AF05FA
:1064A000AC05A905A505A2059F059B0598059505C1
:1064B00091058E058B058705840581057D057A0587
:1064C0007705730570056D056905660563055F054C
:1064D0005C055905550552054F054B054805450511
:1064E00042053E053B053805340531052E052B05D3
:1064F0002705240521051D051A0517051405100596
:106500000D050A05070503050005FD04F904F60459
:10651000F304F004ED04E904E604E304E004DC041D
:10652000D904D604D304CF04CC04C904C604C304DC
:10653000BF04BC04B904B604B304AF04AC04A9049A
:10654000A604A3049F049C049904960493048F0456
:106550008C0489048604830480047C047904760412
:10656000730470046D046A046604630460045D04CB
:106570005A045704540450044D044A044704440484
:1065800041043E043B0438043504310400FF002E6E
:10659000042B042804250422041F041C04190416D7
:1065A00004130410040C040904060403040004FD8D
:1065B00003FA03F703F403F103EE03EB03E803E547
:1065C00003E203DF03DC03D903D603D303D003CDF7
:1065D00003CA03C703C403C103BE03BB03B803B5A7
:1065E00003B203AF03AC03A903A603A303A0039D57
:1065F000039A039803950392038F038C0389038600
:1066000003830380037D037A037703750372036FAB
:10661000036C0369036603630360035D035B035854
:1066200003550352034F034C0349034703440341FB
:10663000033E033B0338033603330330032D032AA1
:10664000032803250322031F031C031A0317031443
:106650000311030E030C030903060303030103FEE6
:1066600002FB02F802F602F302F002EE02EB02E88D
:1066700002E502E302E002DD02DB02D802D502D22B
:1066800002D002CD02CA02C802C502C20200FF0047
:10669000C002BD02BA02B802B502B302B002AD0236
:1066A000AB02A802A502A302A0029E029B029802CE
:1066B0009602930291028E028B0289028602840264
:1066C00081027F027C0279027702740272026F02F9
:1066D0006D026A0268026502630260025E025B028A
:1066E00059025602540251024F024C024A0247021A
:1066F0004502420240023D023B02390236023402A8
:1067000031022F022C022A02280225022302200233
:106710001E021C02190217021502120210020D02BB
:106720000B020902060204020202FF01FD01FB0145
:10673000F801F601F401F101EF01ED01EB01E801CF
:10674000E601E401E101DF01DD01DB01D801D60151
:10675000D401D201CF01CD01CB01C901C701C401D0
:10676000C201C001BE01BC01B901B701B501B3014D
:10677000B101AE01AC01AA01A801A601A401A201C8
:106780009F019D019B0199019701950193011C981F
:1067900091018F018C018A018801860184018201A7
:1067A00080017E017C017A01780176017401720119
:1067B00070016E016C016A01680166016401620189
:1067C00060015E015C015A015801560154015201F9
:1067D00050014E014C014A01480146014501430167
:1067E00041013F013D013B013901370135013401D0
:1067F000320130012E012C012A0129012701250136
:10680000230121011F011E011C011A01180117019A
:106810001501130111010F010E010C010A010801FC
:1068200007010501030102510C1CDCFE00FC00FB0A
:1068300000F900F700F600F400F200F100EF00EDBF
:1068400000EC00EA00E800E700E500E400E200E018
:1068500000DF00DD00DC00DA00D800D700D500D46E
:1068600000D200D100CF00CD00CC00CA00C900C7C3
:1068700000C600C400C300C100C000BE00BD00BB14
:1068800000BA00B800B700B600B400B300B100B061
:1068900000AE00AD00AB00AA00A900A700A600A4AE
:1068A00000A300A200A0009F009E009C009B009AF5
:1068B0000098009700960094009300920090008F3B
:1068C000008E008C008B008A00890087008600857E
:1068D0000084008200810080007F007D007C007BBE
:1068E000007A0079007700760075007400730072FA
:1068F0000070006F006E006D006C006B006A006835
:10690000006700660065580D102C6300620061008E
:1069100060005F005E005D005C005A005900580096
:1069200057005600550054005300520051005000CB
:106930004F004E004D0210184C004B004A00490019
:106940004800470046004500440043004200410221
:10695000100C40003F003E003D003C003B02100A8E
:106960003A0039003800370036021008350034008C
:10697000330032021006310030002F0210062E00C4
:106980002D002C0210042B002A02100629002800DA
:1069900027021004260025021004240023021004FC
:1069A0002200210212200210041F001E02121D02EA
:1069B00010041C001B02121A0212190212180210F3
:1069C00004170016021215021214023213021212D8
:1069D000021211021210021DB50B33000E021DC56A
:1069E000091DD40D2102320B02320A023209023291
:1069F00008023207025206025205027204027203B2
:106A00000292020202110102013001011246A16646
:106A1000817C819061A261B241C041CC41D841E406
:106A200041F041FC25064510251A2522252A25324C
:106A3000453C2546254E2556361762256A25722582
:106A40007A361C86258E361F9A25A23622AE36242B
:106A5000BA3626C61628D025D6362BE2162DEC25BA
:106A6000F21630FC29021A330C3A35161A37201A5E
:106A70003928292E1A3C381A3E403A404A1A4254C4
:106A80001A445C1A46641A486C1A4A743A4C7E1AC4
:106A90004E881A50901A52981A54A01A56A81A588A
:106AA000B01A5AB81A5DC01A5FC81A61D01A63D8F2
:106AB0001A65E01A67E81A6AF01A6CF81E6E00038D
:106AC0001E7008031E7310031E7518031E77200323
:106AD0001E7A28031E7C30031E7F38031E8140036C
:106AE0001E8448031E8650031E8958031E8B6003B4
:106AF0001E8E68031E9070031E9378031E968003FB
:106B00001E9888031E9B90031E9E98031EA0A00340
:106B10001EA3A8031EA6B0031EA9B8031EABC00384
:106B20001EAEC8031EB1D0031EB4D8031EB7E003C7
:106B30001EBAE8031EBDF0031EC0F8031EC3000406
:106B40001EC608041EC910041ECC18041ECF200443
:106B50001ED228041ED530041ED838041EDC400482
:106B60001EDF48041EE250041EE558041EE86004BF
:106B70001EEC68041EEF70041EF278041EF68004FA
:106B80001EF988042C04FC00FE4F111D9C041E05F8
:106B9000A4041E08AC041E0CB4041E0FBC041E1377
:106BA000C4041E17CC041E1AD4041E1EDC041E21AD
:106BB000E4041E25EC041E29F4041E2CFC041E30E3
:106BC00004051E340C051E3714051E3B1C051E3F14
:106BD00024051E432C051E4634051E4A3C051E4E48
:106BE00044051E524C051E5654051E5A5C051E5E79
:106BF00064051E626C051E6674051E6A7C051E6EA9
:106C000084051E728C051E7694051E7A9C051E7ED8
:106C1000A4051E82AC051E86B4051E8ABC051E8F07
:106C2000C4051E93CC051E97D4051E9BDC051E9F34
:106C3000E4051EA4EC051EA8F4051EACFC051EB15F
:106C400004061EB50C061EB914061EBE1C061EC286
:106C500024061EC72C061ECB34061ECF3C061ED4AF
:106C600044061ED84C061EDD54061EE15C061EE6D8
:106C700064061EEB6C061EEF74061EF47C061EF8FE
:106C800084061C06FD01FF010294061E069C061EDA
:106C90000BA4061E10AC061E15B4061E19BC061E5B
:106CA0001EC4061E23CC061E28D4061E2CDC061E7F
:106CB00031E4061E36EC061E3BF4061E40FC061EA2
:106CC0004504071E4A0C071E4F14071E541C071EBE
:106CD0005924071E5E2C071E6334071E683C071EDE
:106CE0006D44071E724C071E7754071E7C5C071EFE
:106CF0008164071E866C071E8B74071E917C071E1D
:106D00009684071E9B8C071EA094071EA59C071E39
:106D1000ABA4071EB0AC071EB5B4071EBABC071E55
:106D2000C0C4071EC5CC071ECAD4071ED0DC071E70
:106D3000D5E4071EDBEC071EE0F4071EE5FC071E8A
:106D4000EB04081EF00C081EF614081404FB02FEE7
:106D5000C31E0328081E0930081E0E38081E1440E2
:106D6000081E1A48081E1F50081E2558081E2A60B3
:106D7000081E3068081E3670081E3B78081E4180C9
:106D8000081E4788081E4C90081E5298081E58A0DE
:106D9000081E5DA8081E63B0081E69B8081E6FC0F3
:106DA000081E75C8081E7AD0081E80D8081E86E006
:106DB000081E8CE8081E92F0081E98F8081E9D0018
:106DC000091EA308091EA910091EAF18091EB52027
:106DD000091EBB28091EC130091EC738091ECD4037
:106DE000091ED348091ED950091EDF58091EE56047
:106DF000091EEB68091EF170091EF778091EFD7D5A
:106E0000041DC4131D8C091E0C94091E139C091E1D
:106E100019A4091E1FAC091E25B4091E2BBC091E8E
:106E200031C4091E38CC091E3ED4091E44DC091E9B
:106E30004AE4091E50EC091E57F4091E5DFC091EA8
:106E400063040A1E6A0C0A1E70140A1E761C0A1EAF
:106E50007C240A1E832C0A1E89340A1E8F3C0A1EBB
:106E600096440A1E9C4C0A1EA3540A1EA95C0A1EC4
:106E7000AF640A1EB66C0A1EBC740A1EC37C0A1ECE
:106E8000C9840A1ECF8C0A1ED6940A1EDC9C0A1ED8
:106E9000E3A40A1EE9AC0A1EF0B40A1EF6BC0A1EE0
:106EA000FD15051E03CC0A1E0AD40A1E10DC0A1E9C
:106EB00017E40A1E1DEC0A1E24F40A1E2BFC0A1EEF
:106EC00031040B1E380C0B1E3E140B1E451C0B1EF2
:106ED0004B240B1E522C0B1E59340B1E5F3C0B1EF9
:106EE00066440B1E6D4C0B1E73540B1E7A5C0B1EFE
:106EF00081640B1E876C0B1E8E740B1E957C0B1E03
:106F00009B840B1EA28C0B1EA9940B1EAF9C0B1E08
:106F1000B6A40B1EBDAC0B1EC4B40B1ECABC0B1E0C
:106F2000D1C40B1ED8CC0B1EDFD40B1EE5DC0B1E10
:106F3000ECE40B1EF3EC0B1C06FA05FD0501FC0B43
:106F40001E07040C1E0E0C0C1E15140C1E1C1C0C13
:106F50001E23240C1E292C0C1E30340C1E373C0C16
:106F60001E3E440C1E454C0C1E4C540C1E525C0C18
:106F70001E59640C1E606C0C1E67740C1E6E7C0C1B
:106F80001E75840C1E7C8C0C1E82940C1E899C0C1D
:106F90001E90A40C1E97AC0C1E9EB40C1EA5BC0C1F
:106FA0001EACC40C1EB3CC0C1EBAD40C1EC1DC0C1F
:106FB0001EC7E40C1ECEEC0C1ED5F40C1EDCFC0C23
:106FC0001EE3040D1EEA0C0D1EF1140D1EF81C0D1F
:106FD0001C04FF0602280D1E09300D1E10380D1E60
:106FE00017400D1E1E480D1E25500D1E2C580D1E3F
:106FF00033600D1E3A680D1E41700D1E48780D1E3F
:107000004F800D1E56880D1E5D900D1E64980D1E3E
:107010006BA00D1E72A80D1E79B00D1E80B80D1E3E
:1070200087C00D1E8EC80D1E95D00D1E9CD80D1E3E
:10703000A3E00D1EAAE80D1EB1F00D1EB8F80D1E3E
:10704000BF000E1EC6080E1ECD100E1ED3180E1E3B
:10705000DA200E1EE1280E1EE8300E1EEF380E1E3E
:10706000F6400E1EFDD1041E04500E1E0B580E1EBF
:1070700012600E1E19680E1E20700E1E27780E1E3E
:107080002E800E1E35880E1E3C900E1E43980E1E3E
:107090004AA00E1E51A80E1E58B00E1E5FB80E1E3E
:1070A00066C00E1E6DC80E1E74D00E1E7BD80E1E3E
:1070B00082E00E1E89E80E1E90F00E1E97F80E1E3E
:1070C0009E000F1EA5080F1EAB100F1EB2180F1E3C
:1070D000B9200F1EC0280F1EC7300F1ECE380F1E3E
:1070E000D5400F1EDC480F1EE3500F1EEA580F1E3E
:1070F000F1600F1EF8680F1C04FF0802740F1E09D0
:107100007C0F1E10840F1E178C0F1E1E940F1E2442
:107110009C0F1E2BA40F1E32AC0F1E39B40F1E4045
:10712000BC0F1E47C40F1E4ECC0F1E54D40F1E5B47
:10713000DC0F1E62E40F1E69EC0F1E70F40F1E7749
:10714000FC0F1E7D04101E840C101E8B14101E924A
:107150001C101E9924101E9F2C101EA634101EAD4C
:107160003C101EB444101EBB4C101EC154101EC84F
:107170005C101ECF64101ED66C101EDC74101EE353
:107180007C101EEA84101EF18C101EF794101C0453
:10719000FE0901A0101E08A8101E0FB0101E15B881
:1071A000101E1CC0101E23C8101E29D0101E30D85F
:1071B000101E37E0101E3DE8101E44F0101E4BF864
:1071C000101E5100111E5808111E5E10111E651868
:1071D000111E6C20111E7228111E7930111E7F386D
:1071E000111E8640111E8C48111E9350111E995875
:1071F000111EA060111EA768111EAD70111EB3787C
:10720000111EBA80111EC088111EC790111ECD9884
:10721000111ED4A0111EDAA8111EE1B0111EE7B88C
:10722000111EEDC0111EF4C8111C06FA0AFD0A0158
:10723000D8111E07E0111E0DE8111E14F0111E1AC0
:10724000F8111E2000121E2708121E2D10121E33C8
:1072500018121E3A20121E4028121E4630121E4CD2
:1072600038121E5340121E5948121E5F50121E65DE
:1072700058121E6B60121E7268121E7870121E7EEB
:1072800078121E8480121E8A88121E9090121E97F9
:1072900098121E9DA0121EA3A8121EA9B0121EAF06
:1072A000B8121EB5C0121EBBC8121EC1D0121EC716
:1072B000D8121ECDE0121ED3E8121ED9F0121EDF26
:1072C000F8121EE500131EEB08131EF110131EF733
:1072D00018131EFD15091E0328131E0830131E0E59
:1072E00038131E1440131E1A48131E2050131E2656
:1072F00058131E2B60131E3168131E3770131E3D6A
:1073000078131E4380131E4888131E4E90131E547C
:1073100098131E59A0131E5FA8131E65B0131E6A92
:10732000B8131E70C0131E76C8131E7BD0131E81A7
:10733000D8131E86E0131E8CE8131E92F0131E97BE
:10734000F8131E9D00141EA208141EA810141EADD2
:1073500018141EB220141EB828141EBD30141EC3EB
:1073600038141EC840141ECE48141ED350141ED804
:1073700058141EDE60141EE368141EE870141EED1F
:1073800078141EF380141EF888141EFDC7091E020F
:1073900098141E08A0141E0DA8141E12B0141E1757
:1073A000B8141E1CC0141E21C8141E27D0141E2C75
:1073B000D8141E31E0141E36E8141E3BF0141E4093
:1073C000F8141E4500151E4A08151E4F10151E54B0
:1073D00018151E5920151E5E28151E6330151E67D0
:1073E00038151E6C40151E7148151E7650151E7BF3
:1073F00058151E8060151E8468151E8970151E8E16
:1074000078151E9380151E9788151E9C90151EA139
:1074100098151EA5A0151EAAA8151EAFB0151EB35F
:10742000B8151EB8C0151EBCC8151EC1D0151EC586
:10743000D8151ECAE0151ECEE8151ED3F0151ED7AE
:10744000F8151EDC00161EE008161EE410161EE9D4
:1074500018161EED20161EF228161EF630161EFAFD
:1074600038161C04FE0D0144161E054C161E095448
:10747000161E0D5C161E1164161E166C161E1A744E
:10748000161E1E7C161E2284161E268C161E2A947C
:10749000161E2E9C161E32A4161E36AC161E3AB4AC
:1074A000161E3EBC161E42C4161E46CC161E4AD4DC
:1074B000161E4EDC161E52E4161E56EC161E5AF40C
:1074C000161E5DFC161E6104171E650C171E69143E
:1074D000171E6C1C171E7024171E742C171E773471
:1074E000171E7B3C171E7F44171E824C171E8654A6
:1074F000171E895C171E8D64171E916C171E9474DD
:10750000171E987C171E9B84171E9E8C171EA29414
:10751000171EA59C171EA9A4171EACAC171EAFB44E
:10752000171EB3BC171EB6C4171EB9CC171EBCD489
:10753000171EC0DC171EC3E4171EC6EC171EC9F4C5
:10754000171ECCFC171ECF04181ED30C181ED61401
:10755000181ED91C181EDC24181EDF2C181EE2343D
:10756000181EE53C181EE844181EEA4C181EED547F
:10757000181EF05C181EF364181EF66C181EF974C1
:10758000181EFC7C181EFEB70B1E018C181E0494DE
:10759000181E069C181E09A4181E0CAC181E0EB44A
:1075A000181E11BC181E14C4181E16CC181E19D48F
:1075B000181E1BDC181E1EE4181E20EC181E23F4D7
:1075C000181E25FC181E2704191E2A0C191E2C141F
:1075D000191E2E1C191E3124191E332C191E353468
:1075E000191E383C191E3A44191E3C4C191E3E54B3
:1075F000191E405C191E4264191E446C191E477402
:10760000191E497C191E4B84191E4D8C191E4F944E
:10761000191E519C192DA2191E54AC191E56B419CD
:107620001E58BC191E5AC4191E5CCC193E5ED619D0
:107630001E60E0191E62E8193E64F2191E66FC190C
:107640001E68041A2D0A1A1E6B141A3E6D1E1A1E8D
:107650006F281A2D2E1A1E72381A2D3E1A3E754AA0
:107660001A1E77541A2D5A1A3E7A661A3E7C721ADE
:107670003E7E7E1A2D861A3E81921A2D9A1A3E84DB
:10768000A61A2DAE1A2DB61A2DBE1A3E89CA1A2D6B
:10769000D21A2DDA1A4DE41A2DEE1A2DF61A2DFEF5
:1076A0001A2D061B4D101B2D1A1B4D241B4D301B74
:1076B0004D3C1B4D481B4D541B4D601B6D6E1B6D8F
:1076C0007E1B8D901B8DA41BADBA1B0D12DA1B0205
:1076D0002FA0020DFF201C0DFF201C0DFF201C0DF4
:1076E000FF201C0DFF201C0DFF201C0DFF201C0D7A
:1076F000FF201C0DFF201C0DFF201C0DFF201C0D6A
:10770000FF201C0DFF201C0DFF201C0DFF201C0D59
:10771000FF201C0DFF201C0DFF201C0DFF201C0D49
:10772000B1201C4D90304D70301E0354302D0D3162
:1077300021151E0660301E0764301E0868302D11AA
:10774000311E0A70305E0B74301E0D10311E0E1487
:10775000311E0F18311E101C311E1120311E122433
:10776000311E1328311E142C311E1530311E1634D3
:10777000311E1738311E183C311E1940311E1A4473
:10778000311E1B48311E1C4C311E1D50311E1E5413
:10779000312E1F58311DA2300005002100000000CD
:040000050800214589
:00000001FF
