:020000040800F2
:10200000E83B0020452100084D2100084F21000831
:10201000512100085321000855210008000000004C
:102020000000000000000000000000005721000830
:1020300059210008000000005B21000871330008EE
:102040005F2100085F2100085F2100085F21000870
:102050005F2100085F2100085F2100085F21000860
:10206000BD2900085F2100085F2100085F210008EA
:102070005F2100085F2100085F2100085F21000840
:102080005F2100085F2100085F2100086147000808
:10209000994700085F2100085F2100085F210008C0
:1020A0005F210008853400085F2100085F210008D7
:1020B0005F2100085F2100085F2100085F21000800
:1020C0005F2100085F2100085F2100085F210008F0
:1020D0005F2100085F2100085F2100085F210008E0
:1020E0005F2100085F2100085F2100085F210008D0
:1020F0005F2100085F2100085F2100085F210008C0
:102100005F2100085F2100085F2100085F210008AF
:102110005F2100085F2100085F2100085F2100089F
:102120005F2100085F2100085F2100085F2100088F
:10213000DFF80CD000F0FAF800480047AD4800087E
:10214000E83B00200648804706480047FEE7FEE7D8
:10215000FEE7FEE7FEE7FEE7FEE7FEE7FEE7FEE757
:10216000253400083121000880EA010210B502F090
:102170000043400022D04A001FD0010E01EB126143
:10218000C0F35600C2F3560240F4000042F40002CD
:10219000A0FB022000047F39140400D0401C50EA48
:1021A000124001D44000491EC2B20C0604EBD0100C
:1021B000401C4008802A02D003E0002010BD20F01F
:1021C0000100002900DA0020184310BD30B480EA75
:1021D000010202F0004530F0004221F0004013D02F
:1021E00090B1C30DD40DC2F31601C0F31600E41A6A
:1021F00041F4000140F400027D34914201D3641C9B
:1022000000E04900002C02DA30BC002070474FF497
:1022100000000023914201D3891A034340084FEA8A
:102220004101F7D151B1914202D14FF0004105E097
:1022300002D24FF0010101E06FF0010103EBC45045
:10224000284430BC00F03BB8C10F80EAE07008447D
:10225000CA079623002100F03BB8962300221146BE
:1022600000F036B800F0004220F00040C10DC0F38D
:10227000160040F400007F2901DA002070479629FB
:1022800003DCC1F19601C84001E096398840002A7C
:10229000F4D04042704720F00040C10DC0F316005A
:1022A00040F400007F2901DA00207047962903DC02
:1022B000C1F19601C840704796398840704700299F
:1022C000A8BF7047401C490008BF20F001007047BC
:1022D00010B4B0FA80FC00FA0CF050EA010404BF1C
:1022E00010BC704749B1CCF1200421FA04F411FA72
:1022F0000CF118BF012121430843A3EB0C01CB1DB6
:102300004FEA00614FEA102042BF002010BC704726
:1023100000EBC35010440029A4BF10BC7047401C00
:10232000490008BF20F0010010BC7047064C074D63
:1023300006E0E06840F0010394E807009847103495
:10234000AC42F6D3FFF7F8FE045E0008245E0008F6
:1023500070B58D1810F8014B14F0030201D110F87C
:10236000012B231106D110F8013B03E010F8016B9B
:1023700001F8016B521EF9D1ABB110F8012B04F03A
:102380000C048A1A0C2C03D0A2EB84129B1C08E0CC
:1023900010F8014BA2EB0422F8E712F8014B01F808
:1023A000014B5B1EF9D5A942D4D3002070BD21B1E9
:1023B000826842F00102826003E0826822F001023A
:1023C00082607047014600208A6802F004020AB168
:1023D000012000E0002070470146C86C80B27047C1
:1023E000014600208A6802F008020AB1012000E0DC
:1023F00000207047014600208A6802F480020AB17A
:10240000012000E00020704730B502460020002384
:1024100050680F4C20400D790C6844EA0524204395
:10242000506090680B4C2040D1E902542C434D7908
:1024300044EA450420439060D06A20F470000C7C8C
:10244000641EE4B2234340EA0350D06230BD000072
:10245000FFFEF0FFFDF7F1FFF0B504460D4600204A
:102460000021092D11DDE068A5F10A0606EB4607FB
:10247000072606FA07F18843A5F10A0606EB460689
:1024800003FA06F10843E0600CE0206905EB45071C
:10249000072606FA07F1884305EB450603FA06F11D
:1024A00008432061072A0FDA606B561E06EB860789
:1024B0001F2606FA07F18843561E06EB860605FA24
:1024C00006F10843606322E00D2A0FDA206BD61F65
:1024D00006EB86071F2606FA07F18843D61F06EB90
:1024E000860605FA06F10843206310E0E06AA2F1CF
:1024F0000D0606EB86071F2606FA07F18843A2F1B0
:102500000D0606EB860605FA06F10843E062F0BD0B
:10251000816841F008018160704721B1826842F40E
:10252000A002826003E0826822F4A0028260704709
:10253000816841F004018160704700002A49096800
:1025400001F0040149B9002141732749096840F2AB
:10255000FF7202EA5151016008E0012141732249F2
:1025600009686FF0604202EAD10101601E49096802
:1025700001F0020111B90021817301E00121817391
:102580001949091D096801F00F0101731649083145
:10259000096801711449083109680A0A427112492F
:1025A000083109680A0C82710F4908310968090E5F
:1025B000C1710D490C31096801720B490C31096870
:1025C0000A0A427208490C3109680A0C82720649EB
:1025D0000C310968090EC1720449096841F02001F3
:1025E000024A116070470000B06500400C64004072
:1025F00010B52948C06940F000702749C8610846F5
:10260000806940F0010088612448406820F4C0409F
:10261000224948600846406840F4804048601E48AF
:10262000806940F008001C4988611D48006820F05E
:102630000F001B4908600846006840F00800086069
:102640000846006820F0F00008600846006840F086
:10265000B0000860132000F053FB142000F050FB82
:1026600001201049086003200E4914310860042439
:102670000C481C3000680C4908400A491C310860AD
:1026800008460068611EC1F30801084A1143084367
:1026900004491C31086010BD0010024000000140D8
:1026A000040C01400064004000FE80FC00004B036D
:1026B0000748006820F001000549086000BF044891
:1026C000001D006800F001000028F8D170470000EC
:1026D0000064004000BF0548006800F080600028EA
:1026E000F9D00120024908607047000008640040EA
:1026F0001400002030B502460020324B1B880D2B01
:1027000000DD30BD21B9002343EA4253184303E002
:10271000042303EBC20318432B4B1B6843F0010354
:10272000294C2360284B1C331B68264C2578012438
:10273000AC40A343244C1C342360234B0C331B6854
:10274000204C25780124AC4023431F4C0C342360DB
:102750001D4B1B1D1B681B4C25780124AC402343DB
:10276000194C241D2360184B4033164C248843F821
:102770003400144C248803EBC4035860124B143308
:102780001B68104C25780124AC40A3430E4C143434
:1027900023600D4B1C331B680A4C25780124AC4088
:1027A0002343094C1C342360074B1B6823F00103AF
:1027B000054C2360034B1B885B1C024C238000BF2D
:1027C0009FE700001C0000200066004000212D4A09
:1027D0001160417B49B9114609680288002343EA28
:1027E00042521143274A116008E026490968042330
:1027F000026803EBC2021143224A1160817B21B9B6
:10280000204909681F4A116005E01E49096841F026
:1028100002011C4A1160C1790A06817942EA01422B
:10282000417942EA012102791143164A08321160C6
:10283000C17A0A06817A42EA0142417A42EA0121DA
:10284000027A11430F4A0C3211600E49091D0968C2
:1028500021F00F020B49091D0A600968027B02F092
:102860000F021143074A121D11600749096841F020
:102870000101054A11600349096841F00101014A5B
:10288000116070478065004014640040044A11687C
:1028900000BF034A1268521A8242FAD370470000FE
:1028A0002400002070B504461C491D4A126831F806
:1028B0001200FFF7D2FC06462146FFF755FC0546FD
:1028C000FFF7E9FC1749086015490968164A1268BC
:1028D0001144124A32F81100FFF7BFFC06462146A8
:1028E000FFF742FC0546FFF7D6FC0E4908390860A1
:1028F0000B4909680D4A12681144084A32F8110060
:10290000FFF7ABFC06462146FFF72EFC0546FFF716
:10291000C2FC0449091F086070BD000000010020CE
:1029200068000020402C01403000002034000020CE
:1029300070B504461C491D4A126831F81200FFF7B1
:102940008CFC06462146FFF70FFC0546FFF7A3FC6B
:102950001749086015490968164A12681144124A55
:1029600032F81100FFF779FC06462146FFF7FCFB21
:102970000546FFF790FC0E49091D08600B490968E0
:102980000D4A12681144084A32F81100FFF765FC3D
:1029900006462146FFF7E8FB0546FFF77CFC0449A5
:1029A0000831086070BD0000000100206C000020AC
:1029B00034340140380000203C00002010B500F005
:1029C00031FD00F0DDFC04201E4908601E488069CE
:1029D00042F63D1108431C4988611A4814380068C2
:1029E0004FF6FB71084017491439086015480C3838
:1029F00000684FF6FB71084012490C390860134813
:102A0000806820F4706011498860114800684FF6B2
:102A1000FB3108400E4908600D480C3800680D492C
:102A200008400B490C390860084600680A49084309
:102A300007490C3908600648006840F02000044946
:102A4000086010BD14040140001002400000014065
:102A50000C0C0140FFF00FFF000810002DE9F041C1
:102A6000024600250026002000230024002791F8BC
:102A700003C00CF00F0591F803C00CF0100CBCF172
:102A8000000F03D091F802C04CEA050591F800C090
:102A9000BCF1000F31D0146800202BE04FF0010C86
:102AA0000CFA00F3B1F800C00CEA03069E4220D1F4
:102AB00083004FF00F0C0CFA03F7BC4305FA03FC3C
:102AC0004CEA040491F803C0BCF1280F06D14FF082
:102AD000010C0CFA00FCC2F814C00AE091F803C023
:102AE000BCF1480F05D14FF0010C0CFA00FCC2F804
:102AF00010C0401C0828D1D31460B1F800C0BCF14C
:102B0000FF0F34DD546800202EE000F1080C4FF078
:102B1000010808FA0CF3B1F800C00CEA03069E4263
:102B200021D183004FF00F0C0CFA03F7BC4305FAD8
:102B300003FC4CEA040491F803C0BCF1280F05D152
:102B400000F1080C08FA0CF8C2F8148091F803C0E0
:102B5000BCF1480F07D100F1080C4FF0010808FA4A
:102B60000CF8C2F81080401C0828CED35460BDE891
:102B7000F08110B5044601212046FFF7CEFC00BFCE
:102B80002046FFF737FC0028FAD12046FFF724FC47
:102B900010BD000000B500223948007839490860AE
:102BA00008460078C0F3031003F0C0F83649086007
:102BB0003448007800F00F0002430846006842EAFB
:102BC00000122F48001D00782E4908600846007842
:102BD000C0F3031003F0AAF82B49086029480078D5
:102BE00000F00F0042EA80120846006842EA8022A4
:102BF0002348401D00782349086008460078C0F348
:102C0000031003F093F8204908601E48007800F094
:102C10000F0042EA00320846008842EA00421848A3
:102C2000801D00781749086008460078C0F303103B
:102C300003F07CF8144908601248007800F00F0097
:102C400042EA80420846008842EA80520C48C01D91
:102C500000780C49086008460078C0F3031003F0C0
:102C600065F8094908600748007800F00F0042EA5B
:102C700000620846007842EA0072104600BD00007B
:102C8000E8F7FF1FA8000020AC00002070B5054643
:102C90000E4600241748007804431648401C00786C
:102CA00044EA00241348801C007844EA0044114898
:102CB000C01C007800F00F0044EA00640D48C01CFE
:102CC0000078C0F303100C490860087803F02EF870
:102CD000094908600846007844EA007446B1234672
:102CE0002A4608210548006800F1805003F028F8C2
:102CF000204670BDF0F7FF1FAC0000202C00002024
:102D000000F01F02012191404209920002F1E022ED
:102D1000C2F80011704700F01F02012191404209E2
:102D2000920002F1E022C2F80011704729B1064A70
:102D300092690243044B9A6104E0034A9269824318
:102D4000014B9A61704700000010024010B500F07E
:102D500001F810BD0CB500200190009033480068C8
:102D600040F480303149086000BF3048006800F40A
:102D7000003000900198401C0190009818B901980B
:102D8000B0F5A06FF1D12948006800F4003010B10F
:102D90000120009001E0002000900098012843D11C
:102DA0002348006840F01000214908600846006888
:102DB00020F0030008600846006840F00200086048
:102DC0001A48406819494860084640684860084603
:102DD000406840F4806048600846406820F47C10F9
:102DE00048600846406840F4E810486008460068BB
:102DF00040F08070086000BF0C48006800F0007070
:102E00000028F9D00948406820F0030007494860CD
:102E10000846406840F00200486000BF0348406830
:102E200000F00C000828F9D10CBD00000010024091
:102E30000020024010B55E48008880B264280ADC99
:102E40005B49098888B2FFF708FA04465949FFF739
:102E5000BDF9594908605848006858490860544805
:102E6000008A80B264280ADC5149098A88B2FFF7D7
:102E7000F4F904464F49FFF7A9F9514908604C4855
:102E8000008C80B264280ADC4949098C88B2FFF7BB
:102E9000E4F904464749FFF799F94A49086044486C
:102EA000008E80B264280ADC4149098E88B2FFF79F
:102EB000D4F904463F49FFF789F9434908603C4883
:102EC0004030008880B264280BDC394940310988E1
:102ED00088B2FFF7C2F904463649FFF777F93B4954
:102EE00008603A4800683A49086031485030008824
:102EF00080B264280BDC2E495031098888B2FFF774
:102F0000ACF904462B49FFF761F9324908602848BB
:102F10006030008880B264280BDC25496031098864
:102F200088B2FFF79AF904462249FFF74FF92A4978
:102F300008601F487030008880B264280BDC1C4990
:102F40007031098888B2FFF788F904461949FFF7FC
:102F50003DF9224908602248008880B2642804DCD8
:102F60001F48008880B21F4908601D481030008843
:102F700080B2642805DC1A481030008880B21A49F3
:102F8000086017482030008880B2642805DC1448A7
:102F90002030008880B2154908601548008880B24A
:102FA000012803DC124800781249087010BD0000A7
:102FB00000F001080000C842CC000020D000002032
:102FC000C8000020D4000020F8000020E400002009
:102FD000E8000020E0000020EC000020FC000020C1
:102FE00000F80108980000209C000020BC00002090
:102FF0000000020864000020002009490860094917
:103000000860084908390860091D08600649086019
:1030100006490860091D0860091D08607047000026
:1030200068000020402C01406C0000203434014036
:1030300000B587B0012148F20460FFF777FE022057
:10304000ADF8180000208DF81B0006A94348FFF7D3
:1030500005FD0420ADF8180006A94048FFF7FEFC66
:103060000120ADF8180006A93C48FFF7F7FC002046
:1030700001908DF808008DF809004FF4602003904E
:103080000020049001208DF8140001A93448FFF7B6
:10309000BBF902208DF8140001A93248FFF7B4F9FA
:1030A00000208DF8140001A92F48FFF7ADF9052382
:1030B000012211462A48FFF7CFF9052301220221F8
:1030C0002848FFF7C9F90523012200212648FFF708
:1030D000C3F901212248FFF76AF901212148FFF7CE
:1030E00066F901212048FFF762F91D48FFF710FA41
:1030F0001C48FFF70DFA1C48FFF70AFA00BF1848F2
:10310000FFF76EF90028FAD100BF1648FFF768F9FB
:103110000028FAD100BF1448FFF762F90028FAD15D
:103120000F48FFF705FA0F48FFF702FA0E48FFF7BE
:10313000FFF900BF0A48FFF745F90028FAD100BFA0
:103140000848FFF73FF90028FAD100BF0648FFF70B
:1031500039F90028FAD107B000BD0000000801408D
:103160000024014000280140003C01401148006853
:103170006FF30F000F4908600846006849F699117F
:1031800008430C4908600C48006820F07F400A4959
:1031900008600846006840F019400860084640682A
:1031A00020F0FF0048600846406840F09900486001
:1031B0007047000004080140001001402D480068DD
:1031C00040F001002B4908602A481C3000686FF36A
:1031D0000D0028491C3108602648006820F00100D5
:1031E000244908600846006840F001000860214852
:1031F0001C30006840F003001E491C3108601D4867
:103200001430006820F003001A491431086019488E
:103210000C30006840F0030016490C310860154876
:10322000001D006820F003001249091D08601248C3
:10323000008880B21149086008460068042101EB4B
:10324000C0200C49403108600D48091D08600D4838
:103250000068042101EBC020064948310860084895
:10326000091D08600348006820F00100014908605A
:10327000704700000066004000E801082C000020B4
:1032800006F8FFFF280000200E48006820F4706058
:103290000C4908600846006840F480700860081F08
:1032A0000068094908400749091F08600846006886
:1032B000064908430349091F086005480549086095
:1032C00070470000040C0140FFF00FFF00081000E1
:1032D00000101111000801408520234908600120D9
:1032E00021490C31086020491431086046F6680015
:1032F000091D0860091D086041F21110091D0860D0
:1033000000201949283108604FF47A60091D0860CF
:103310004FF4404014494431086040F2DC501249F7
:103320003431086085201149086001200F490C31B3
:1033300008600E491431086046F66800091D0860EF
:10334000091D086041F21110091D0860002007499D
:10335000283108604FF47A60091D08604FF440403E
:103360000249443108607047002C0140003401409C
:1033700002480068401C0149086070472400002092
:1033800010B5002100200022214B5B6803F00C01E6
:1033900021B1042906D0082928D107E01D4B1E4C75
:1033A000236027E01B4B1C4C236023E0184B5B6819
:1033B00003F47010164B5B6803F48032022303EBB6
:1033C000904022B9154B4343134C23600DE0104B42
:1033D0005B6803F4003323B1104B43430E4C23606E
:1033E00003E00C4B43430C4C236003E0094B0A4CB5
:1033F000236000BF00BF064B5B68C3F30313084C98
:10340000E15C054B1B68CB40034C236010BD000002
:103410000010024000127A000000002000093D0068
:103420000400002010B51248006840F00100104967
:103430000860084640680F4908400D494860084642
:1034400000680D4908400A4908600846006820F4F1
:10345000802008600846406820F4FE0048604FF471
:103460001F008860FFF772FC04480549086010BD22
:10347000001002400000FFF8FFFFF6FE00200008E9
:1034800008ED00E00EB5F948006840F08000F7490B
:103490000860F7480068401CF54908600846006865
:1034A000012805D1F148006840F04000EF4908606C
:1034B000EF480068322806D1EC4800684FF6BF712B
:1034C0000840EA490860EA480068B0F5E15F02D1C7
:1034D0000020E7490860E748006820F00100E5495E
:1034E0000860E5480078B8B14FF47A70E1493031AE
:1034F00008604000DF492831086040F6B830091DF7
:1035000008604FF47A70DD4908604000091D0860CA
:1035100040F6B830091D0860D948007888B3D9480A
:103520000168D948FEF720FE0290FEF7B4FED149AB
:10353000303108600020CF4928310860D148016847
:10354000D148FEF711FE0290FEF7A5FEC9492C31C5
:103550000860CC480168CC48FEF706FE0290FEF7F2
:103560009AFEC64908600020091D0860C548016828
:10357000C548FEF7F9FD0290FEF78DFEBF49083100
:103580000860C248007800F0800000287AD0C04867
:10359000C049096850F82100BF4909680844BE497C
:1035A000086008460068B0F5616F04D308460068FB
:1035B000A0F561600860B948B749096830F81100A2
:1035C0000090FEF74AFE0190B54801680198FEF7A9
:1035D000CBFD0290FEF75FFEA64930310860AE4891
:1035E0000068B04909680844AC4931F810000090FF
:1035F000FEF733FE0190AA4801680198FEF7B4FD7A
:103600000290FEF748FE9B4928310860A2480068F6
:10361000A54909680844A14931F810000090FEF757
:103620001CFE01909E4801680198FEF79DFD0290E6
:10363000FEF731FE8F492C3108609C480068401C21
:103640009A4908600846006899490968884207D382
:103650000020964908608F480068401C8D4908602A
:103660008C48006822280BD38848007800F07F003F
:103670008649087000208D4908602120854908602E
:10368000CAE3FFE78148007800F04000002864D0DA
:1036900088480068002860D07F48006821307E4953
:1036A000086008460068B0F5616F04D308460068FA
:1036B000A0F56160086079487749096830F8110021
:1036C0000090FEF7CAFD01907B4801680198FEF763
:1036D0004BFD0290FEF7DFFD6649303108606E4811
:1036E00000687049096808446C4931F8100000907E
:1036F000FEF7B3FD0190704801680198FEF734FDB4
:103700000290FEF7C8FD5B492831086062480068F6
:10371000654909680844614931F810000090FEF7D6
:103720009CFD0190644801680198FEF71DFD029020
:10373000FEF7B1FD4F492C3108605E480068401E1D
:103740005C49086008460068002899D14F48007815
:1037500000F03F004D4908705EE34C48007800F0EF
:10376000200000287ED051480068514909688842ED
:1037700007D300204D49086046480068401E45496F
:1037800008604A480068401C484908604048414970
:10379000096850F821004049096808443E4908601A
:1037A00008460068B0F5616F04D308460068A0F5CC
:1037B0006160086039483849096830F811000090A4
:1037C000FEF74BFD01903D4801680198FEF7CCFCE7
:1037D0000290FEF760FD2749303108602E480068EE
:1037E0003049096808442D4931F810000090FEF76F
:1037F00034FD0190314801680198FEF7B5FC029054
:10380000FEF749FD1B492831086023480068264916
:1038100009680844214931F810000090FEF71DFDA9
:103820000190264801680198FEF79EFC0290FEF781
:1038300032FD10492C3108601648006800288BD1F1
:103840001A4800681A490968884285D30F480078E9
:1038500000F01F000D490870002014490860184846
:10386000006800E02EE0FFF71DF8D5E20C080140EB
:1038700040000020102C014063000020343401403F
:10388000640000207000002000007A455C000020E9
:103890000031002078000020680000200001002096
:1038A000CC0000203000002034000020C0000020A8
:1038B000BC00002080000020C8000020D0000020B4
:1038C000F8000020FD48007800F01000002879D0B2
:1038D000FB48FC49096850F82100FB490968081AAF
:1038E000F949086008460068B0F5616F04D30846DE
:1038F000006800F561600860F448F349096830F831
:1039000011000090FEF7A9FC0190F14801680198B0
:10391000FEF72AFC0290FEF7BEFCEE490860EA487A
:103920000068ED4909680844E84931F81000009042
:10393000FEF793FC0190E64801680198FEF714FC3D
:103940000290FEF7A8FCE34908390860DE480068E9
:10395000E24909680844DD4931F810000090FEF79B
:103960007CFC0190DA4801680198FEF7FDFB0290AB
:10397000FEF791FCD749091F0860D9480068401C30
:10398000D749086008460068D6490968884207D3C5
:103990000020D3490860CB480068401CC949086032
:1039A000C848006822280BD3C448007800F00F00F4
:1039B000C24908700020CA4908602120C149086036
:1039C0002AE2FFE7BD48007800F00800002863D035
:1039D000C548006800285FD0BB4800682138BA4954
:1039E000086008460068B0F5616F04D908460068B1
:1039F00000F561600860B548B349096830F8110006
:103A00000090FEF72AFC0190B84801680198FEF783
:103A1000ABFB0290FEF73FFCAE490860AA48006885
:103A2000AD4909680844A94931F810000090FEF733
:103A300014FC0190AD4801680198FEF795FB0290D7
:103A4000FEF729FCA349083908609F480068A3498C
:103A5000096808449D4931F810000090FEF7FDFB0D
:103A60000190A24801680198FEF77EFB0290FEF7E4
:103A700012FC9849091F08609B480068401E9A493B
:103A800008600846006800289AD18C48007800F049
:103A900007008A490870BFE18848007800F00400F8
:103AA00000287DD08E4800688E490968884207D377
:103AB00000208B49086083480068401E81490860E7
:103AC00087480068401C864908607D487D49096830
:103AD00050F821007C490968081A7B4908600846AB
:103AE0000068B0F5616F04D90846006800F56160B0
:103AF000086076487449096830F811000090FEF7B4
:103B0000ACFB01907A4801680198FEF72DFB02900A
:103B1000FEF7C1FB6F4908606B4800686E49096891
:103B200008446A4931F810000090FEF796FB0190B6
:103B30006F4801680198FEF717FB0290FEF7ABFB98
:103B400064490839086060480068644909680844A5
:103B50005E4931F810000090FEF77FFB0190644849
:103B600001680198FEF700FB0290FEF794FB5949AB
:103B7000091F08605348006800288CD15848006825
:103B800058490968884286D34C48007800F0030001
:103B90004A4908700020524908605648006800E011
:103BA00002E0FEF77FFE37E14448007800F00200B3
:103BB00000287DD050480068002879D04F48006820
:103BC0004F490968884271D300204C4908603E483B
:103BD0000068401E3C49086008460068B0F5616F07
:103BE00004D90846006800F5616008603748364926
:103BF000096830F811000090FEF72FFB0190414852
:103C000001680198FEF7B0FA0290FEF744FB3149D3
:103C100008602D4800683049096808442B4931F88C
:103C200010000090FEF719FB0190364801680198DA
:103C3000FEF79AFA0290FEF72EFB26490839086033
:103C400021480068254909680844204931F81000D6
:103C50000090FEF702FB01902A4801680198FEF7E8
:103C600083FA0290FEF717FB1A49091F08602248E1
:103C70000068401E2049086008460068B0F5617F72
:103C800007D821480078012803D14FF07E501D4904
:103C900008601948006848B90848007800F0010039
:103CA0000649087013480068FEF7FCFD134800E061
:103CB0002CE00068401C11490860ADE05C00002069
:103CC0000031002078000020680000200001002062
:103CD000CC000020402C01403000002034000020A7
:103CE000C0000020BC00002080000020C800002090
:103CF000D0000020F800002090000020A00000204C
:103D000098000020DC00002075000020FB480078AF
:103D100000F0010000287FD0F948006800287BD01F
:103D2000F8480068F849096888426ED30020F549D0
:103D30000860F6480068401CF449086008460068BE
:103D4000B0F5616F04D308460068A0F561600860B3
:103D5000EF48EE49096830F811000090FEF77DFA4F
:103D60000190EC4801680198FEF7FEF90290FEF719
:103D700092FAE9490860E5480068E849096808449A
:103D8000E34931F810000090FEF767FA0190E1482E
:103D900001680198FEF7E8F90290FEF77CFADE4927
:103DA00008390860D9480068DD4909680844D849DD
:103DB00031F810000090FEF750FA0190D5480168E4
:103DC0000198FEF7D1F90290FEF765FAD249091F72
:103DD0000860CB480068401EC94908600846006872
:103DE000B0F5617F07D8CF480078012803D14FF0A4
:103DF0007E50C8490860C248006830B90020BF49F9
:103E00000870C9480068FEF74DFDBE480068401CB8
:103E1000BC4900E000E00860C448007800F0800081
:103E2000002879D0C248C349096850F82100C24926
:103E300009680844C049086008460068B0F5616F29
:103E400004D308460068A0F561600860B048BA492C
:103E5000096830F811000090FEF7FFF90190B748AB
:103E600001680198FEF780F90290FEF714FAB44950
:103E70000860B1480068B34909680844A44931F8AA
:103E800010000090FEF7E9F90190AC480168019834
:103E9000FEF76AF90290FEF7FEF9A949091D0860CC
:103EA000A5480068A84909680844994931F81000F4
:103EB0000090FEF7D2F90190A04801680198FEF742
:103EC00053F90290FEF7E7F99D49083108609F48D1
:103ED0000068401C9D490860084600689C490968C4
:103EE000884207D300209949086092480068401C26
:103EF000904908608F48006822280BD38B480078CF
:103F000000F07F0089490870002090490860212056
:103F100088490860CCE3FFE78448007800F040005F
:103F2000F0B38C480068D8B38348006821308249D8
:103F3000086008460068B0F5616F04D30846006861
:103F4000A0F56160086072487B49096830F811008B
:103F50000090FEF782F901907F4801680198FEF712
:103F600003F90290FEF797F97549086072480068F6
:103F7000744909680844664931F810000090FEF75A
:103F80006CF90190744801680198FEF7EDF8029011
:103F9000FEF781F96A49091D08606748006800E07A
:103FA00024E0694909680844594931F81000009033
:103FB000FEF753F90190684801680198FEF7D4F8BC
:103FC0000290FEF768F95E490831086061480068B0
:103FD000401E604908600846006800289AD153488E
:103FE000007800F03F005149087061E34F480078C5
:103FF00000F0200000287DD054480068544909682A
:10400000884207D30020514908604A480068401E92
:10401000484908604D480068401C4C4908604448C5
:104020004449096850F82100434909680844424955
:10403000086008460068B0F5616F04D30846006860
:10404000A0F56160086032483B49096830F811000A
:104050000090FEF702F90190404801680198FEF7D0
:1040600083F80290FEF717F9354908603248006876
:10407000344909680844264931F810000090FEF7D9
:10408000ECF80190354801680198FEF76DF8029050
:10409000FEF701F92A49091D0860274800682A49E6
:1040A000096808441A4931F810000090FEF7D5F865
:1040B00001902A4801680198FEF756F80290FEF731
:1040C000EAF81F49083108601A48006800288CD1B6
:1040D0001E4800681E490968884286D31348007844
:1040E00000F01F00114908700020184908601C48A2
:1040F000006800E036E0FEF71BFCD9E25C0000201F
:1041000088000020A0000020980000206800002007
:1041100000010020D8000020402C01403000002089
:104120003400002074000020F80000205D00002012
:10413000003100207C0000206C000020E400002002
:1041400034340140380000203C000020C40000202E
:10415000BC00002084000020E0000020E8000020D7
:10416000FC000020FC48007800F01000F0B3FB4891
:10417000FB49096850F82100FA490968081AF94909
:10418000086008460068B0F5616F04D90846006809
:1041900000F561600860F448F249096830F81100E0
:1041A0000090FEF75AF80190F04801680198FDF779
:1041B000DBFF0290FEF76FF8ED490860E948006800
:1041C000EC4909680844E84931F810000090FEF70E
:1041D00044F80190E54801680198FDF7C5FF029099
:1041E000FEF759F8E249091D086000E03AE0DD48B1
:1041F0000068E14909680844DB4931F81000009083
:10420000FEF72BF80190D94801680198FDF7ACFF43
:104210000290FEF740F8D64908310860D748006898
:10422000401CD649086008460068D549096888429C
:1042300007D30020D1490860C9480068401CC8491C
:104240000860C748006822280BD3C348007800F0F4
:104250000F00C14908700020C84908602120C049EA
:10426000086025E2BC48007800F00800F0B3C548BB
:104270000068D8B3BB4800682138BA4908600846CE
:104280000068B0F5616F04D90846006800F5616008
:104290000860B548B349096830F811000090FDF78F
:1042A000DCFF0190B84801680198FDF75DFF0290BE
:1042B000FDF7F1FFAE490860AA480068AD490968FA
:1042C0000844A94931F810000090FDF7C6FF01909D
:1042D000AD4801680198FDF747FF0290FDF7DBFF4D
:1042E000A349091D08609F48006800E024E0A24936
:1042F000096808449C4931F810000090FDF7ADFFB3
:104300000190A14801680198FDF72EFF0290FDF78A
:10431000C2FF9749083108609A480068401E9949D1
:1043200008600846006800289BD18B48007800F0A0
:10433000070089490870BBE18748007800F0040055
:10434000F0B38E4800688E490968884207D3002080
:104350008A49086082480068401E81490860874891
:104360000068401C854908607C487D49096850F810
:1043700021007C490968081A7A49086008460068E3
:10438000B0F5616F04D90846006800F56160086007
:1043900075487449096830F811000090FDF75DFF19
:1043A00001907A4801680198FDF7DEFE0290FDF762
:1043B00072FF6F4908606B4800686E49096800E049
:1043C00041E00844684931F810000090FDF745FFCE
:1043D00001906E4801680198FDF7C6FE0290FDF756
:1043E0005AFF6349091D08605E4800686249096810
:1043F00008445D4931F810000090FDF72EFF019050
:10440000624801680198FDF7AFFE0290FDF743FF97
:104410005749083108605248006800288BD1574836
:10442000006857490968884285D34B48007800F0F6
:10443000030049490870002050490860544800684A
:10444000FEF776FA34E14448007800F00200E8B361
:1044500050480068D0B35048006850490968884205
:1044600073D300204C4908603E480068401E3D4917
:10447000086008460068B0F5616F04D90846006816
:1044800000F56160086038483649096830F8110065
:104490000090FDF7E2FE0190414801680198FDF7A8
:1044A00063FE0290FDF7F7FE314908602D48006871
:1044B0003049096808442C4931F810000090FDF794
:1044C000CCFE019036480168019800E06CE0FDF7F1
:1044D0004BFE0290FDF7DFFE2549091D08602148CB
:1044E00000682549096808441F4931F81000009008
:1044F000FDF7B3FE01902A4801680198FDF734FEEC
:104500000290FDF7C8FE1A4908310860214800688A
:10451000401E2049086008460068B0F5617F07D852
:1045200020480078012803D14FF07E501C490860D4
:104530001848006848B90848007800F001000649AA
:10454000087013480068FEF7F3F913480068401C30
:1045500011490860ACE000005D000020003100203F
:104560007C0000206C00002000010020E4000020FE
:1045700034340140380000203C000020C4000020FA
:10458000BC00002084000020E0000020E8000020A3
:10459000FC00002094000020A40000209C000020CB
:1045A000F4000020770000205748007800F0010058
:1045B000E8B356480068D0B35548006855490968C3
:1045C000884270D300205249086053480068401C5C
:1045D0005149086008460068B0F5616F04D3084689
:1045E0000068A0F5616008604C484B49096830F8E4
:1045F00011000090FDF731FE0190494801680198D3
:10460000FDF7B2FD0290FDF746FE464908604248BC
:104610000068454909680844404931F81000009095
:10462000FDF71BFE01903E480168019800E03FE065
:10463000FDF79AFD0290FDF72EFE3A49091D08602C
:1046400035480068394909680844344931F8100090
:104650000090FDF702FE0190314801680198FDF7D6
:1046600083FD0290FDF717FE2E49083108602748A8
:104670000068401E2549086008460068B0F5617F63
:1046800007D82B480078012803D14FF07E502449E9
:1046900008601E48006830B900201B490870254892
:1046A0000068FEF745F91A480068401C1849086080
:1046B0002148007808B300201F4908701F4800688F
:1046C0001F4908601F480068154908601B480068BA
:1046D0001D4908601B4800681C4908601C48007898
:1046E0001C4908701C4800780749087000201849C8
:1046F000087019490870104908701848006820F0BF
:104700008000164908600EBD5D0000208C0000206E
:10471000A40000209C0000206C000020000100206C
:10472000F000002034340140380000203C0000201C
:1047300076000020FC00002060000020D400002053
:10474000D8000020EC000020DC000020F400002055
:104750005E0000205C0000205F0000200C0801408B
:104760000B48006800F0010080B10948006840F083
:1047700001000749086006480C30006820F001007D
:1047800003490C31086001200249086070470000AD
:10479000086400401400002000B50648006800F0DE
:1047A000030028B10448FDF7C9FE01200349086051
:1047B00000BD00000C64004098310020180000206B
:1047C00002E008C8121F08C1002AFAD170477047DA
:1047D000002001E001C1121F002AFBD1704710B573
:1047E000FDF706FF01212320FDF784FFFDF760FFA1
:1047F000FDF770FF10BD000000B5034608480068D3
:1048000040F01000064908601846FEF73FF80448DB
:1048100000684FF6EF7108400149086000BD0000D4
:104820000C08014070B5044601EB820300BF1C4D2B
:10483000ED6805F00105002DF9D11A4D184E75608F
:10484000194D7560BAB935462D6945F002053561D7
:10485000354669612D6945F04005356100BF104D51
:10486000ED6805F00105002DF9D10D4D2D6925F0FC
:1048700002050B4E35610A4D2D6945F00105084EC4
:1048800035611C8000BF064DED6805F00105002D67
:10489000F9D1034D2D6925F00105014E356170BD3B
:1048A0000020024023016745AB89EFCD88B000248A
:1048B000FE4880694AF63D710843FC498861FEF76D
:1048C000E3FCFB4800684FF47A72B0FBF2F1481E3B
:1048D000B0F1807F00D31BE0481E4FF0E022506112
:1048E00050170F22002807DA13071E0EF14B00F0B5
:1048F0000F052D1F5E5503E013071D0EEE4B1D54D3
:1049000000BF00204FF0E02290610720106100BF3F
:10491000FFF765FFFEF752FCFEF728FCFEF7DCFC14
:10492000FEF76AFBFEF786FA6420FDF7AFFFE34867
:10493000006840F02000E14908601920FEF7EBF91B
:10494000FEF776FBDE48FEF714F9DE48FEF711F9B4
:10495000DD48FEF70EF901F0DDF901F0A2B90026FD
:104960000025002004900390FDF790FFD7480068D1
:1049700000287DD1D64908600024A2E000BFD548B8
:1049800000680028FBD00020D24908600490D2487B
:1049900000EB0411DFF844C3DCE90023DCE9020C7E
:1049A000C1E9020C0CC1CC4800EB04100078CA49E4
:1049B00001EB041106460860042E76D1C64800EBD0
:1049C00004100079C0F301100390039820B101286E
:1049D0000DD0022867D134E001200490C04800883F
:1049E00084B20120BE490860BE4908605BE0BA4855
:1049F00000EB04100179B84800EB041040794FF443
:104A0000803202FB0011B44800EB041080791212CE
:104A100002FB0011B04800EB0410C0790144AE481D
:104A200000EB0410007A02FB0011AB4800EB04100D
:104A3000407A08443044A64909680844A4490860FB
:104A400031E0601CA6490860A34800EB041001791E
:104A5000A14800EB041040794FF4803202FB0011B2
:104A60009D4800EB04108079121202FB001100E057
:104A70002FE0994800EB0410C0790144964800EB00
:104A80000410007A02FB0011934800EB0410407AF6
:104A9000084430448E49096808448D4908609048AC
:104AA000008884B200BF0AE0FFE7012004908C4830
:104AB000008884B201208A4908608A490860601C25
:104AC00084B2874800688442FFF658AF01207F49CE
:104AD00008608048006800285DD07C480068002895
:104AE00059D000207B4908607C4800787B49064605
:104AF0000860072E02D1012004904CE00D2E1CD13D
:104B00000020794908607948007810B97848007821
:104B100010B10120744908607648007810B1012076
:104B200071490860002370480121026872480068DA
:104B300000F1805001F004F92DE0082E2BD16748D8
:104B4000007901066548407901EB004163488079AE
:104B500001EB00216148C0790844634908600846B8
:104B600000685B490968884204D1012501205D493C
:104B7000086003E002250020544908602B46544891
:104B8000052102685C48006800F1805001F0D8F807
:104B900000204F4908604D480068002801F08080DF
:104BA00001F0B8F810B904980028F7D04D48006813
:104BB0000028F3D0002004904A490860002401F046
:104BC00064B8454800EB04100078434901EB041138
:104BD00006460860B01E282881F05480DFE810F0F7
:104BE0002800C700DA0015031D0326032903390333
:104BF000470356037C038B03A803BD03E703FC03B1
:104C0000110421042904460459049C0400053E05AE
:104C10004D05F6051B062E065C06A9062B07500758
:104C200095079907AB07C00728042804CA070C0892
:104C3000294901EB04110879FDF70FFB2F49029078
:104C4000FDF7C4FA2E490860084600682D4908603F
:104C5000214901EB04114879FDF7FFFA2749029039
:104C6000FDF7B4FA284908601B4901EB0411887963
:104C7000FDF7F3FA21490290FDF7A8FA23490860ED
:104C8000154901EB0411C879FDF7E7FA1B490290B9
:104C9000FDF79CFA1E4908600F4901EB0411087AE0
:104CA000FDF7DBFA1549029034E0000000100240E5
:104CB0000000002018ED00E000E400E00C0C0140D2
:104CC0000024014000280140003C01404400002035
:104CD000B000002018000020A831002098310020EA
:104CE0004C000020B4000020A80000205C00002040
:104CF0005D000020600000202C0000200000C84261
:104D0000CC000020D0000020C8000020D4000020EB
:104D1000F8000020FDF75AFAFE49086008460068CE
:104D2000FD490860FD4901EB0411487AFDF795FA49
:104D3000FB490290FDF74AFAFA490860F74901EB8E
:104D40000411887AFDF789FAF5490290FDF73EFAD9
:104D5000F5490860F14901EB0411C87AFDF77DFAC5
:104D6000EF490290FDF732FAF049086060E3EB4842
:104D700000EB04100079EE490860E84800EB0410ED
:104D80004079EC490860E54800EB04108079EA4975
:104D90000860EBE7E948007800287DD1DF4800EBA8
:104DA0000410007900F00F05DC4800EB04100079D6
:104DB000C0F301100390042D28D1D84800EB041053
:104DC00040790104D54800EB0410807901EB002103
:104DD000D24800EB0410C0790844D949086008465D
:104DE0000068D849086000BFCC4800EB0410417A45
:104DF000CA4800EB0410007A01EB0020D249086099
:104E00000120D2490870D249087047E1052D28D108
:104E1000C24800EB041040790104C04800EB0410C4
:104E2000807901EB0021BD4800EB0410C0790844F3
:104E3000C849086008460068C2490860B74800EBE6
:104E40000410417AB54800EB0410007A01EB002011
:104E5000BD4908600120BD4908700220BC490870A6
:104E60001CE1062D2BD1AD4800EB04104079010464
:104E7000AA4800EB0410807901EB0021A74800EB61
:104E80000410C0790844B449086008460068AD4978
:104E9000086000BFA14800E088E100EB0410417AFF
:104EA0009E4800EB0410007A01EB0020A649086040
:104EB0000120A6490870E020A5490870EEE0072D02
:104EC00029D1964800EB041040790104934800EB87
:104ED0000410807901EB0021904800EB0410C079A8
:104EE00008449D4908600846006896490860062500
:104EF0008A4800EB0410417A884800EB0410007ADD
:104F000001EB0020904908600120904908701C20A6
:104F10008F490870C2E045BB804800EB041040791F
:104F200001047E4800EB0410807901EB00217B48EE
:104F300000EB0410C07908448849086008460068FE
:104F4000804908600025754800EB0410417A7348D9
:104F500000EB0410007A01EB00207B49086001207F
:104F60007F4908707F49087098E0012D29D16B486E
:104F700000EB041040790104684800EB04108079CC
:104F800001EB0021654800EB0410C0790844764924
:104F90000860084600686B49086000BF5F4800EB86
:104FA0000410417A5D4800EB0410007A01EB002008
:104FB0006549086001206A49087002206949087043
:104FC0006CE0022D29D1554800EB04104079010412
:104FD000524800EB0410807901EB00214F4800EBB0
:104FE0000410C079084461490860084600685549C2
:104FF000086000BF494800EB0410417A474800EBC5
:105000000410007A01EB00204F4908600120544948
:105010000870E0205349087040E0032D29D13F4833
:1050200000EB0410407901043C4800EB0410807947
:1050300001EB0021394800EB0410C07908444B49CA
:105040000860084600683F4908600225334800EBC5
:105050000410417A314800EB0410007A01EB002083
:105060003949086001203E4908701C203D490870FC
:1050700014E0082D12D1294800EB0410417A27488A
:1050800000EB0410007A01EB00202F49086008466D
:105090000068FDF7FBFB00202B49086030480078D2
:1050A00010B12A48007810B9039800287ED12F4803
:1050B000006828B92B48007800F0B700294908702B
:1050C0002648006828B92748007800F0FE002549E6
:1050D00008702548006828B92248007800F0FD00D3
:1050E000204908701C48006828B91948007800F069
:1050F000B700174908701248006828B914480078AA
:1051000000F0FE00124908701248006880BB104889
:1051100000782EE0E4000020E8000020A831002004
:105120000000C842E0000020EC000020FC0000204D
:10513000980000209C000020BC000020640000209B
:105140008C000020A80000205400002062000020F5
:105150005F000020940000208400002088000020D0
:10516000610000205E0000209000002080000020F0
:1051700003E000F0FD00FD4908700120FC490870C3
:105180002EE0FC48006858B30020FA490860FA484D
:105190000078F949064608600D2E0BD10023012244
:1051A0001146F648006800F1805000E02CE000F065
:1051B000C7FD15E00E2E13D1F148FDF7DAFC07907C
:1051C000F048FDF7D6FC06900821EC48DDE90632F0
:1051D000006800F1805000F0B3FD002007900690B9
:1051E000E34800780028CCD1E74800780028C8D1EF
:1051F000E64800780028C4D1E5490870E549087000
:10520000E5480068FDF742FBB0E5E44800EB041018
:105210000579284600F0C2FDA8E5E148007808B904
:10522000012000E00020DE4908709FE50120049085
:105230009CE5DC480068DC49086003252B460846ED
:1052400005210268CD48006800F1805000F078FD2B
:105250008CE5D648FDF78DFC059000230221C74858
:10526000059A006800F1805000F06AFD7EE5C348B1
:105270000068CD4908600023084602210268BF4843
:10528000006800F1805000F05BFD6FE5BB480068EE
:1052900000F18050C6490860002405E00021C448A0
:1052A000001D0155601C84B2082CF7DB0220C049A8
:1052B00008730120487300208873BE48006850B10D
:1052C0000020BC4908600420B94908710421B8488D
:1052D0004171FDF77BFA49E5B7480078B2490860AB
:1052E0000023084601210268A448006800F18050AC
:1052F00000F026FD3AE50020AB490860A24800789E
:1053000010B9A248007810B10120A7490860984858
:10531000007810B10120A44908600023A2480121AF
:1053200002689648006800F1805000F009FD1DE514
:105330009348FDF71EFC07909248FDF71AFC069073
:1053400008218E48DDE90632006800F1805000F047
:10535000F7FC00200790069008E58848006800F1F7
:10536000805093490860002405E000219048001D0A
:105370000155601C84B2082CF7DB02208C490873AD
:1053800001204873002088738A48006870B10020AB
:10539000884908608948006800798549087187480C
:1053A0000068017882484171FDF710FADEE47B491C
:1053B00001EB04114979794A02EB041212794FF496
:1053C000807303FB0210FCF73FFF7D490290FCF75E
:1053D000FDFE7C490860C9E47B48006872490860AA
:1053E0007948001D006879490860084603686E48DE
:1053F000082102686148006800F1805000F0A0FCBC
:10540000B4E4714808300068674908600023084622
:10541000042102685948006800F1805000F090FCB7
:10542000A4E4FDF7B7FB824601215046FDF72EFCB0
:1054300003E26748006898B1584800EB04104079CF
:10544000564901EB041109794FF4807202FB010007
:105450004A490860098888B200225E49FFF7E2F9EC
:1054600000205B490860FDF7A9FEE6E159480068A5
:105470004D4908600846008880B20860002308464D
:10548000022102683D48006800F1805000F058FC9D
:10549000F8E34D480068444908604B48001D006827
:1054A0004A4908603D4800EB0410007A01063B4879
:1054B00000EB0410407A01EB0041384800EB041087
:1054C000807A01EB0021354800EB0410C07A01EB33
:1054D0000008324800EB0410007901062F4800EB69
:1054E0000410407901EB00412C4800EB0410807956
:1054F00001EB0021294800EB0410C07901EB000BFF
:1055000029480068404506D130480068584502D116
:1055100001202F490860B5E3DFF8AC9009F10809D4
:105520002149D9F8000008601C4800EB04100079FC
:1055300001061A4800EB0410407901EB00411748BE
:1055400000EB0410807901EB0021144800EB0410FB
:10555000C07901EB00081448006840453CD11C4864
:105560000068012838D11A49086038E05F0000203F
:105570006000002018000020983100202C0000203E
:1055800000240140002801405C0000205D00002054
:10559000620000206100002054000020A83100209B
:1055A00063000020B0000020A8000020003C014063
:1055B000883100201400002064000020200000201A
:1055C00000FF7F4770000020E8F7FF1FAC000020BD
:1055D0004800002000E801080020F649086051E377
:1055E000FDF7D8FA824600215046FDF74FFB0746EB
:1055F000F14800EB0410007A0106EF4800EB0410BC
:10560000407A01EB0041EC4800EB0410807A01EB9A
:105610000021E94800EB0410C07A01EB0008E648DD
:1056200000EB041000790106E34800EB0410407918
:1056300001EB0041E04800EB0410807901EB002110
:10564000DD4800EB0410C07901EB000BC24504D12A
:105650005F4502D10120D749086013E3D64800EB2B
:1056600004100079D5490870D34901EB0411087979
:105670000022D349FFF7D6F804E3CF4901EB041128
:105680000879FCF7EAFDCF490290FCF79FFDCE496F
:105690000860C94901EB041108790022CB49FFF7E2
:1056A000C1F8C9480068CA490860C34901EB041140
:1056B0004879FCF7D2FDC3490290FCF787FDC54944
:1056C0000860BD4901EB041148790422BF49FFF786
:1056D000A9F8B94901EB04118879FCF7BEFDB94975
:1056E0000290FCF773FDBC490860B34901EB04115B
:1056F00088790822B549FFF795F8AF4901EB041105
:10570000C879FCF7AAFDAF490290FCF75FFDB349E9
:105710000860A94901EB0411C8790C22AB49FFF7D5
:1057200081F8A54901EB0411087AFCF796FDA5491B
:105730000290FCF74BFDAA4908609F4901EB041158
:10574000087A1022A149FFF76DF8A5480068A5491D
:105750000860994901EB0411487AFCF77EFD9949EC
:105760000290FCF733FDA0490860934901EB041156
:10577000487A14229549FFF755F88F4901EB041137
:10578000887AFCF76AFD8F490290FCF71FFD974964
:105790000860894901EB0411887A18228B49FFF7C8
:1057A00041F8854901EB0411C87AFCF756FD85499B
:1057B0000290FCF70BFD8E4908607F4901EB041154
:1057C000C87A1C228149FFF72DF85BE27A4800EB8A
:1057D0000410007987490860098888B20022864948
:1057E000FFF720F8744800EB041040798349086003
:1057F000098888B204228049FFF714F86E4800EB4C
:10580000041080797E490860098888B208227A49A4
:10581000FFF708F836E27B4801687B48FCF7A4FCF8
:105820000190FCF71FFD00230246022102907748F9
:10583000006800F1805000F083FA23E273480068AA
:1058400000F1805072490860002405E00021704892
:10585000001D0155601C84B2082CF7DB03206C4945
:10586000087301204873002088736A48006890B16B
:1058700000206849086060480078654908715E4802
:1058800010300178624841715B48203001786048EF
:105890008171FCF79BFFF5E15F490879FCF7DDFCBE
:1058A00048490290FCF792FC4749086008460068A6
:1058B0004749086058494879FCF7CFFC41490290B4
:1058C000FCF784FC4349086053498879FCF7C5FC20
:1058D0003C490290FCF77AFC3F4908604E48C07989
:1058E000444908604C49087AFCF7B7FC35490290F6
:1058F000FCF76CFC3A4908600846006839490860C2
:105900004549487AFCF7A9FC2E490290FCF75EFC59
:10591000354908604049887AFCF79FFC2949029084
:10592000FCF754FC314908603B48C07A33490860B1
:10593000A8E139490879FCF790FC22490290FCF76C
:1059400045FC2649086034494879FCF786FC1D4926
:105950000290FCF73BFC264908602F48807900F054
:10596000200018B101202D49087002E000202B49C9
:1059700008702948807900F0100018B101202849EA
:10598000087002E00020264908702348807900F062
:10599000020018B101202349087002E000202149CB
:1059A00008701D48807900F00100F8B301201E49FD
:1059B00008703FE048000020A8310020640000206B
:1059C000000002080000C842CC00002000F00108DE
:1059D000D0000020C8000020D4000020F8000020E3
:1059E000E4000020E8000020E0000020EC0000209F
:1059F000FC0000209800002000F801089C00002016
:105A0000BC0000207000002000FF7F472C00002019
:105A100088310020140000209831002074000020FC
:105A2000750000207600002077000020FFE70020AE
:105A30009D49087026E19D484179007901EB0020DD
:105A40009B4908609948C179807901EB0020994908
:105A5000086008460068984908609448417A007ACE
:105A600001EB0020954908609048C17A807A01EBEB
:105A7000002093490860084600689249086001E1E7
:105A80008A48007990490870884840798F490870A1
:105A90008748006828B98C48007800F0B7008A4928
:105AA00008708448006828B98748007800F0FE0034
:105AB000854908708048006828B98348007800F05C
:105AC000FD00814908707D48006828B97F4800784A
:105AD00000F0B7007D4908707948006828B97B4814
:105AE000007800F0FE00794908707648006828B90F
:105AF0007648007800F0FD00744908706B488079A2
:105B000010B1012072490870BCE001207049087092
:105B1000B8E09620FEF770FE4FF4FA70FCF7B6FE80
:105B20009620FEF769FE4FF4FA70FCF7AFFE962060
:105B3000FEF762FEA6E067480068008845F24671FD
:105B400001EB004063490968097900EB0163624A8F
:105B500008216248006800F1805000F0F1F891E0FF
:105B60005F4B604A08215D48006800F1805000F0FA
:105B7000E7F887E05C48006840F480605A490860B4
:105B8000084600684FF6DF510840574908605748FB
:105B9000007E00F00700554988615548006840F0D4
:105BA0000400534908605348006840F0010051491F
:105BB00008600846006820F0020008604E4800684F
:105BC00040F004004C4908604B480830006840F041
:105BD00004004949083108604848806820F4706032
:105BE000464988600846806840F4807088600820D4
:105BF000FDF791F830BF45E03848006800F180506B
:105C00003F490860002405E000213D48001D015582
:105C1000601C84B2082CF7DB082039490873012086
:105C20004873002088733748006850B30020354916
:105C3000086035480078324908713348017C3048A3
:105C400041713148203001782D4881712E4890F8FB
:105C500030102B48C1712C4840300178284801721F
:105C60002948503001782648417227486030017831
:105C7000234881722448703001782148C172FCF7B2
:105C8000A5FD00BF00BF601C84B2204800688442AC
:105C9000FEF697AF00201E49086064201B4908608B
:105CA00000BFFEF75CBE00007700002098310020A6
:105CB0008000002088000020900000208400002048
:105CC0008C000020940000205E0000205F00002077
:105CD0006000002020000020426F6F742C00002024
:105CE00046570404504F535F0C0C01400010024013
:105CF00010ED00E000700040000401400000014091
:105D0000883100201400002000F001084C00002021
:105D10004400002000200449096801F0040109B191
:105D2000012000E000207047080C0140032801D149
:105D3000002004E0042801D1012000E00220704787
:105D40002DE9F04106460F4614461D46FCF7C2FCFD
:105D50000020104908601048066001460F730120BA
:105D60004873002088730C71210A0B484171210C83
:105D70008171210EC1710572290A4172290C81724B
:105D8000290EC172FCF722FD012002490860BDE81E
:105D9000F08100001400002088310020012806D185
:105DA0001749096841F03001154A116027E00228BF
:105DB0000DD11349096841F01001114A11601146D3
:105DC00009684FF6DF7211400D4A116017E0032891
:105DD0000DD10B49096841F02001094A11601146B3
:105DE00009684FF6EF721140054A116007E030B9BB
:105DF000034909684FF6CF721140014A116070479C
:105E00000C080140245E00080000002088310000DA
:105E1000502300086C79000888310020600A0000D7
:105E2000D0470008500600A24A040001A00A01025F
:105E3000030406070809000120044C002007432042
:105E40004E0F12601E83B00408A12B0324640001CE
:105E5000120102613443B80B04C3409C04430200A6
:105E600004011A48B20CA93006403F00008004002B
:105E700005209A99993E1841800316A00F0202113D
:105E80009F02929E02729D02729C02529B02529A43
:105E90000232990232980232970232960232950209
:105EA0003294021293023292021291021290021262
:105EB0008F02128E02328D02128C02128B02128A13
:105EC000021004890F8802128702128602128502CC
:105ED0001004840F83021282021004810F800212C8
:105EE0007F0210047E0F7D0210047C0F7B021004E1
:105EF0007A0F79021006780F770F76021004750F6B
:105F000074021006730F720F71021006700F6F0F7C
:105F10006E0210086D0F6C0F6B0F6A02100A690F8A
:105F2000680F670F660F6502100C640F630F620F36
:105F3000610F600F5F0210185E0F5D0F5C0F5B0F4B
:105F40005A0F590F580F570F560F550F540F530232
:105F500000FF00520F510F500F4F0F4E0F4D0F4CBF
:105F60000F4B0F4A0F490F480F470F460F440F437F
:105F70000F420F410F400F3F0F3E0F3D0F3C0F3BB5
:105F80000F3A0F390F380F360F350F340F330F32EA
:105F90000F310F300F2E0F2D0F2C0F2B0F2A0F2923
:105FA0000F270F260F250F240F230F210F200F1F60
:105FB0000F1E0F1C0F1B0F1A0F190F170F160F159F
:105FC0000F140F120F110F100F0E0F0D0F0C0F0AE1
:105FD0000F090F080F060F050F040F020F010F0026
:105FE0000FFE0EFD0EFC0EFA0EF90EF70EF60EF574
:105FF0000EF30EF20EF00EEF0EED0EEC0EEA0EE9C1
:106000000EE80EE60EE50EE30EE20EE00EDF0EDD0C
:106010000EDC0EDA0ED90ED70ED60ED40ED30ED15C
:106020000ECF0ECE0ECC0ECB0EC90EC80EC60EC4B1
:106030000EC30EC10EC00EBE0EBC0EBB0EB90EB806
:106040000EB60EB40EB30EB10EAF0EAE0EAC0EAA5F
:106050000E00FF00A90EA70EA50EA40EA20EA00E04
:106060009E0E9D0E9B0E990E980E960E940E920EFD
:10607000910E8F0E8D0E8B0E890E880E860E840E5D
:10608000820E810E7F0E7D0E7B0E790E770E760EC0
:10609000740E720E700E6E0E6C0E6B0E690E670E25
:1060A000650E630E610E5F0E5D0E5B0E5A0E580E8E
:1060B000560E540E520E500E4E0E4C0E4A0E480EF8
:1060C000460E440E420E400E3E0E3C0E3A0E380E68
:1060D000360E340E320E300E2E0E2C0E2A0E280ED8
:1060E000260E240E220E200E1E0E1C0E1A0E180E48
:1060F000160E140E110E0F0E0D0E0B0E090E070EBE
:10610000050E030E010EFE0DFC0DFA0DF80DF60D39
:10611000F40DF20DEF0DED0DEB0DE90DE70DE40DB6
:10612000E20DE00DDE0DDC0DD90DD70DD50DD30D33
:10613000D10DCE0DCC0DCA0DC80DC50DC30DC10DB1
:10614000BF0DBC0DBA0DB80DB50DB30DB10DAF0D32
:10615000AC0D00FF00AA0DA80DA50DA30DA10D9E6D
:106160000D9C0D9A0D970D950D930D900D8E0D8B29
:106170000D890D870D840D820D800D7D0D7B0D78B1
:106180000D760D740D710D6F0D6C0D6A0D670D653B
:106190000D630D600D5E0D5B0D590D560D540D51C7
:1061A0000D4F0D4C0D4A0D470D450D420D400D3D57
:1061B0000D3B0D380D360D330D310D2E0D2C0D29E7
:1061C0000D270D240D210D1F0D1C0D1A0D170D157A
:1061D0000D120D0F0D0D0D0A0D080D050D020D0010
:1061E0000DFD0CFB0CF80CF50CF30CF00CED0CEBAE
:1061F0000CE80CE60CE30CE00CDE0CDB0CD80CD647
:106200000CD30CD00CCE0CCB0CC80CC50CC30CC0E2
:106210000CBD0CBB0CB80CB50CB20CB00CAD0CAA80
:106220000CA80CA50CA20C9F0C9D0C9A0C970C941E
:106230000C920C8F0C8C0C890C860C840C810C7EBF
:106240000C7B0C780C760C730C700C6D0C6A0C6863
:106250000C650C00FF00620C5F0C5C0C590C570CB9
:10626000540C510C4E0C4B0C480C450C430C400C80
:106270003D0C3A0C370C340C310C2E0C2B0C290C29
:10628000260C230C200C1D0C1A0C170C140C110CD2
:106290000E0C0B0C080C060C030C000CFD0BFA0B7F
:1062A000F70BF40BF10BEE0BEB0BE80BE50BE20B32
:1062B000DF0BDC0BD90BD60BD30BD00BCD0BCA0BE2
:1062C000C70BC40BC10BBE0BBB0BB80BB50BB20B92
:1062D000AF0BAC0BA90BA60BA30BA00B9D0B9A0B42
:1062E000970B940B900B8D0B8A0B870B840B810BF8
:1062F0007E0B7B0B780B750B720B6F0B6B0B680BAC
:10630000650B620B5F0B5C0B590B560B530B500B61
:106310004C0B490B460B430B400B3D0B3A0B360B1A
:10632000330B300B2D0B2A0B270B240B200B1D0BD3
:106330001A0B170B140B110B0D0B0A0B070B040B8D
:10634000010BFD0AFA0AF70AF40AF10AED0AEA0A51
:10635000E70AE40A00FF00E10ADD0ADA0AD70AD4F4
:106360000AD10ACD0ACA0AC70AC40AC00ABD0ABAB3
:106370000AB70AB30AB00AAD0AAA0AA70AA30AA072
:106380000A9D0A990A960A930A900A8C0A890A8633
:106390000A830A7F0A7C0A790A750A720A6F0A6CF4
:1063A0000A680A650A620A5E0A5B0A580A550A51B7
:1063B0000A4E0A4B0A470A440A410A3D0A3A0A377A
:1063C0000A330A300A2D0A290A260A230A1F0A1C40
:1063D0000A190A150A120A0F0A0B0A080A050A0105
:1063E0000AFE09FB09F709F409F109ED09EA09E6D2
:1063F00009E309E009DC09D909D609D209CF09CC9A
:1064000009C809C509C109BE09BB09B709B409B062
:1064100009AD09AA09A609A3099F099C099909952B
:106420000992098F098B098809840981097D097AF4
:10643000097709730970096C096909660962095FBE
:10644000095B095809540951094E094A094709438A
:106450000940093C0900FF003909360932092F09B2
:106460002B092809240921091E091A0917091309EA
:1064700010090C09090905090209FF08FB08F808B9
:10648000F408F108ED08EA08E608E308DF08DC088C
:10649000D908D508D208CE08CB08C708C408C00858
:1064A000BD08B908B608B208AF08AB08A808A50827
:1064B000A1089E089A089708930890088C088908F4
:1064C000850882087E087B087708740870086D08C4
:1064D0006908660862085F085C0858085508510892
:1064E0004E084A084708430840083C083908350860
:1064F00032082E082B082708240820081D08190830
:10650000160812080F080B08080804080108FD0700
:10651000FA07F607F307EF07EC07E807E507E107D7
:10652000DE07DA07D707D307D007CD07C907C607A5
:10653000C207BF07BB07B807B407B107AD07AA0773
:10654000A607A3079F079C079807950791078E0743
:106550008A078707830700FF0080077C0779077594
:106560000772076E076B076707640760075D0759C7
:1065700007560752074F074B074807440741073E96
:10658000073A073707330730072C07290725072263
:10659000071E071B071707140710070D0709070633
:1065A000070207FF06FB06F806F506F106EE06EA07
:1065B00006E706E306E006DC06D906D506D206CED7
:1065C00006CB06C706C406C106BD06BA06B606B3A4
:1065D00006AF06AC06A806A506A1069E069B069772
:1065E00006940690068D068906860682067F067C3E
:1065F000067806750671066E066A0667066406600A
:10660000065D065906560652064F064C06480645D4
:106610000641063E063A063706340630062D0629A0
:1066200006260623061F061C061806150611060E6A
:10663000060B06070604060106FD05FA05F605F336
:1066400005F005EC05E905E505E205DF05DB05D804
:1066500005D405D105CE0500FF00CA05C705C40550
:10666000C005BD05BA05B605B305AF05AC05A9055E
:10667000A505A2059F059B059805950591058E0525
:106680008B058705840581057D057A0577057305EA
:1066900070056D056905660563055F055C055905AF
:1066A000550552054F054B054805450542053E0574
:1066B0003B053805340531052E052B052705240536
:1066C00021051D051A051705140510050D050A05F8
:1066D000070503050005FD04F904F604F304F004BE
:1066E000ED04E904E604E304E004DC04D904D60480
:1066F000D304CF04CC04C904C604C304BF04BC043F
:10670000B904B604B304AF04AC04A904A604A304FA
:106710009F049C049904960493048F048C048904B8
:106720008604830480047C04790476047304700472
:106730006D046A046604630460045D045A0457042B
:10674000540450044D044A044704440441043E04E4
:106750003B0438043504310400FF002E042B0428C8
:1067600004250422041F041C041904160413041035
:10677000040C040904060403040004FD03FA03F7EF
:1067800003F403F103EE03EB03E803E503E203DFA5
:1067900003DC03D903D603D303D003CD03CA03C755
:1067A00003C403C103BE03BB03B803B503B203AF05
:1067B00003AC03A903A603A303A0039D039A0398B4
:1067C00003950392038F038C03890386038303805D
:1067D000037D037A037703750372036F036C036908
:1067E000036603630360035D035B035803550352B1
:1067F000034F034C0349034703440341033E033B58
:106800000338033603330330032D032A03280325FB
:106810000322031F031C031A031703140311030E9F
:10682000030C030903060303030103FE02FB02F842
:1068300002F602F302F002EE02EB02E802E502E3E6
:1068400002E002DD02DB02D802D502D202D002CD84
:1068500002CA02C802C502C20200FF00C002BD0295
:10686000BA02B802B502B302B002AD02AB02A8028E
:10687000A502A302A0029E029B0298029602930226
:1068800091028E028B0289028602840281027F02BB
:106890007C0279027702740272026F026D026A0250
:1068A00068026502630260025E025B0259025602E0
:1068B000540251024F024C024A0247024502420270
:1068C00040023D023B0239023602340231022F02FD
:1068D0002C022A0228022502230220021E021C0288
:1068E000190217021502120210020D020B02090210
:1068F000060204020202FF01FD01FB01F801F6019C
:10690000F401F101EF01ED01EB01E801E601E40121
:10691000E101DF01DD01DB01D801D601D401D201A3
:10692000CF01CD01CB01C901C701C401C201C00122
:10693000BE01BC01B901B701B501B301B101AE019E
:10694000AC01AA01A801A601A401A2019F019D0119
:106950009B0199019701950193011C9891018F0169
:106960008C018A01880186018401820180017E01F7
:106970007C017A01780176017401720170016E0167
:106980006C016A01680166016401620160015E01D7
:106990005C015A01580156015401520150014E0147
:1069A0004C014A01480146014501430141013F01B3
:1069B0003D013B013901370135013401320130011C
:1069C0002E012C012A012901270125012301210182
:1069D0001F011E011C011A011801170115011301E5
:1069E00011010F010E010C010A0108010701050147
:1069F000030102510C1CDCFE00FC00FB00F900F757
:106A000000F600F400F200F100EF00ED00EC00EA07
:106A100000E800E700E500E400E200E000DF00DD60
:106A200000DC00DA00D800D700D500D400D200D1B5
:106A300000CF00CD00CC00CA00C900C700C600C40A
:106A400000C300C100C000BE00BD00BB00BA00B85A
:106A500000B700B600B400B300B100B000AE00ADA6
:106A600000AB00AA00A900A700A600A400A300A2F2
:106A700000A0009F009E009C009B009A0098009739
:106A800000960094009300920090008F008E008C7E
:106A9000008B008A008900870086008500840082C0
:106AA00000810080007F007D007C007B007A0079FF
:106AB0000077007600750074007300720070006F3C
:106AC000006E006D006C006B006A00680067006675
:106AD0000065580D102C63006200610060005F00CB
:106AE0005E005D005C005A005900580057005600D7
:106AF0005500540053005200510050004F004E000A
:106B00004D0210184C004B004A0049004800470055
:106B1000460045004400430042004102100C400082
:106B20003F003E003D003C003B02100A3A003900A5
:106B300038003700360210083500340033003202C6
:106B40001006310030002F0210062E002D002C02FE
:106B500010042B002A021006290028002702100426
:106B60002600250210042400230210042200210222
:106B700012200210041F001E02121D0210041C002D
:106B80001B02121A02121902121802100417001620
:106B90000212150212140232130212120212110210
:106BA0001210021DB50B33000E021DC5091DD40DB8
:106BB0002102320B02320A02320902320802320783
:106BC000025206025205027204027203029202028B
:106BD00002110102013001011246A166817C8190FF
:106BE00061A261B241C041CC41D841E441F041FCD5
:106BF00025064510251A2522252A2532453C2546FD
:106C0000254E2556361762256A2572257A361C864A
:106C1000258E361F9A25A23622AE3624BA3626C6CF
:106C20001628D025D6362BE2162DEC25F21630FC90
:106C300029021A330C3A35161A37201A3928292E08
:106C40001A3C381A3E403A404A1A42541A445C1AD6
:106C500046641A486C1A4A743A4C7E1A4E881A5086
:106C6000901A52981A54A01A56A81A58B01A5AB81C
:106C70001A5DC01A5FC81A61D01A63D81A65E01A83
:106C800067E81A6AF01A6CF81E6E00031E7008039B
:106C90001E7310031E7518031E7720031E7A280327
:106CA0001E7C30031E7F38031E8140031E84480370
:106CB0001E8650031E8958031E8B60031E8E6803B8
:106CC0001E9070031E9378031E9680031E988803FF
:106CD0001E9B90031E9E98031EA0A0031EA3A80344
:106CE0001EA6B0031EA9B8031EABC0031EAEC80388
:106CF0001EB1D0031EB4D8031EB7E0031EBAE803CA
:106D00001EBDF0031EC0F8031EC300041EC6080407
:106D10001EC910041ECC18041ECF20041ED2280445
:106D20001ED530041ED838041EDC40041EDF480483
:106D30001EE250041EE558041EE860041EEC6804C0
:106D40001EEF70041EF278041EF680041EF98804FB
:106D50002C04FC00FE4F111D9C041E05A4041E08FB
:106D6000AC041E0CB4041E0FBC041E13C4041E1776
:106D7000CC041E1AD4041E1EDC041E21E4041E25AD
:106D8000EC041E29F4041E2CFC041E3004051E34E1
:106D90000C051E3714051E3B1C051E3F24051E4313
:106DA0002C051E4634051E4A3C051E4E44051E5247
:106DB0004C051E5654051E5A5C051E5E64051E6277
:106DC0006C051E6674051E6A7C051E6E84051E72A7
:106DD0008C051E7694051E7A9C051E7EA4051E82D7
:106DE000AC051E86B4051E8ABC051E8FC4051E9305
:106DF000CC051E97D4051E9BDC051E9FE4051EA432
:106E0000EC051EA8F4051EACFC051EB104061EB55B
:106E10000C061EB914061EBE1C061EC224061EC782
:106E20002C061ECB34061ECF3C061ED444061ED8AC
:106E30004C061EDD54061EE15C061EE664061EEBD3
:106E40006C061EEF74061EF47C061EF884061C06F3
:106E5000FD01FF010294061E069C061E0BA4061EE1
:106E600010AC061E15B4061E19BC061E1EC4061E56
:106E700023CC061E28D4061E2CDC061E31E4061E7A
:106E800036EC061E3BF4061E40FC061E4504071E9B
:106E90004A0C071E4F14071E541C071E5924071EB8
:106EA0005E2C071E6334071E683C071E6D44071ED8
:106EB000724C071E7754071E7C5C071E8164071EF8
:106EC000866C071E8B74071E917C071E9684071E16
:106ED0009B8C071EA094071EA59C071EABA4071E33
:106EE000B0AC071EB5B4071EBABC071EC0C4071E4F
:106EF000C5CC071ECAD4071ED0DC071ED5E4071E6A
:106F0000DBEC071EE0F4071EE5FC071EEB04081E81
:106F1000F00C081EF614081404FB02FEC31E03281E
:106F2000081E0930081E0E38081E1440081E1A4894
:106F3000081E1F50081E2558081E2A60081E3068AB
:106F4000081E3670081E3B78081E4180081E4788C0
:106F5000081E4C90081E5298081E58A0081E5DA8D6
:106F6000081E63B0081E69B8081E6FC0081E75C8E9
:106F7000081E7AD0081E80D8081E86E0081E8CE8FD
:106F8000081E92F0081E98F8081E9D00091EA3080E
:106F9000091EA910091EAF18091EB520091EBB281D
:106FA000091EC130091EC738091ECD40091ED3482D
:106FB000091ED950091EDF58091EE560091EEB683D
:106FC000091EF170091EF778091EFD7D041DC4130A
:106FD0001D8C091E0C94091E139C091E19A4091E60
:106FE0001FAC091E25B4091E2BBC091E31C4091E85
:106FF00038CC091E3ED4091E44DC091E4AE4091E91
:1070000050EC091E57F4091E5DFC091E63040A1E9C
:107010006A0C0A1E70140A1E761C0A1E7C240A1EA4
:10702000832C0A1E89340A1E8F3C0A1E96440A1EAF
:107030009C4C0A1EA3540A1EA95C0A1EAF640A1EB9
:10704000B66C0A1EBC740A1EC37C0A1EC9840A1EC2
:10705000CF8C0A1ED6940A1EDC9C0A1EE3A40A1ECC
:10706000E9AC0A1EF0B40A1EF6BC0A1EFD15051E88
:1070700003CC0A1E0AD40A1E10DC0A1E17E40A1EDC
:107080001DEC0A1E24F40A1E2BFC0A1E31040B1EE2
:10709000380C0B1E3E140B1E451C0B1E4B240B1EE6
:1070A000522C0B1E59340B1E5F3C0B1E66440B1EEC
:1070B0006D4C0B1E73540B1E7A5C0B1E81640B1EF1
:1070C000876C0B1E8E740B1E957C0B1E9B840B1EF7
:1070D000A28C0B1EA9940B1EAF9C0B1EB6A40B1EFC
:1070E000BDAC0B1EC4B40B1ECABC0B1ED1C40B1E00
:1070F000D8CC0B1EDFD40B1EE5DC0B1EECE40B1E04
:10710000F3EC0B1C06FA05FD0501FC0B1E07040C35
:107110001E0E0C0C1E15140C1E1C1C0C1E23240C05
:107120001E292C0C1E30340C1E373C0C1E3E440C09
:107130001E454C0C1E4C540C1E525C0C1E59640C0B
:107140001E606C0C1E67740C1E6E7C0C1E75840C0D
:107150001E7C8C0C1E82940C1E899C0C1E90A40C10
:107160001E97AC0C1E9EB40C1EA5BC0C1EACC40C11
:107170001EB3CC0C1EBAD40C1EC1DC0C1EC7E40C12
:107180001ECEEC0C1ED5F40C1EDCFC0C1EE3040D14
:107190001EEA0C0D1EF1140D1EF81C0D1C04FF063A
:1071A00002280D1E09300D1E10380D1E17400D1E31
:1071B0001E480D1E25500D1E2C580D1E33600D1E31
:1071C0003A680D1E41700D1E48780D1E4F800D1E31
:1071D00056880D1E5D900D1E64980D1E6BA00D1E31
:1071E00072A80D1E79B00D1E80B80D1E87C00D1E31
:1071F0008EC80D1E95D00D1E9CD80D1EA3E00D1E31
:10720000AAE80D1EB1F00D1EB8F80D1EBF000E1E2F
:10721000C6080E1ECD100E1ED3180E1EDA200E1E2E
:10722000E1280E1EE8300E1EEF380E1EF6400E1E30
:10723000FDD1041E04500E1E0B580E1E12600E1EB1
:1072400019680E1E20700E1E27780E1E2E800E1E30
:1072500035880E1E3C900E1E43980E1E4AA00E1E30
:1072600051A80E1E58B00E1E5FB80E1E66C00E1E30
:107270006DC80E1E74D00E1E7BD80E1E82E00E1E30
:1072800089E80E1E90F00E1E97F80E1E9E000F1E2F
:10729000A5080F1EAB100F1EB2180F1EB9200F1E2F
:1072A000C0280F1EC7300F1ECE380F1ED5400F1E30
:1072B000DC480F1EE3500F1EEA580F1EF1600F1E30
:1072C000F8680F1C04FF0802740F1E097C0F1E10C3
:1072D000840F1E178C0F1E1E940F1E249C0F1E2B36
:1072E000A40F1E32AC0F1E39B40F1E40BC0F1E4738
:1072F000C40F1E4ECC0F1E54D40F1E5BDC0F1E623B
:10730000E40F1E69EC0F1E70F40F1E77FC0F1E7D3C
:1073100004101E840C101E8B14101E921C101E993B
:1073200024101E9F2C101EA634101EAD3C101EB43F
:1073300044101EBB4C101EC154101EC85C101ECF42
:1073400064101ED66C101EDC74101EE37C101EEA46
:1073500084101EF18C101EF794101C04FE0901A06D
:10736000101E08A8101E0FB0101E15B8101E1CC04D
:10737000101E23C8101E29D0101E30D8101E37E052
:10738000101E3DE8101E44F0101E4BF8101E510058
:10739000111E5808111E5E10111E6518111E6C205A
:1073A000111E7228111E7930111E7F38111E864061
:1073B000111E8C48111E9350111E9958111EA06069
:1073C000111EA768111EAD70111EB378111EBA8070
:1073D000111EC088111EC790111ECD98111ED4A079
:1073E000111EDAA8111EE1B0111EE7B8111EEDC082
:1073F000111EF4C8111C06FA0AFD0A01D8111E0755
:10740000E0111E0DE8111E14F0111E1AF8111E20B5
:1074100000121E2708121E2D10121E3318121E3ABB
:1074200020121E4028121E4630121E4C38121E53C7
:1074300040121E5948121E5F50121E6558121E6BD4
:1074400060121E7268121E7870121E7E78121E84E0
:1074500080121E8A88121E9090121E9798121E9DEE
:10746000A0121EA3A8121EA9B0121EAFB8121EB5FC
:10747000C0121EBBC8121EC1D0121EC7D8121ECD0C
:10748000E0121ED3E8121ED9F0121EDFF8121EE51C
:1074900000131EEB08131EF110131EF718131EFD28
:1074A00015091E0328131E0830131E0E38131E1450
:1074B00040131E1A48131E2050131E2658131E2B4D
:1074C00060131E3168131E3770131E3D78131E4360
:1074D00080131E4888131E4E90131E5498131E5975
:1074E000A0131E5FA8131E65B0131E6AB8131E708A
:1074F000C0131E76C8131E7BD0131E81D8131E86A0
:10750000E0131E8CE8131E92F0131E97F8131E9DB5
:1075100000141EA208141EA810141EAD18141EB2CA
:1075200020141EB828141EBD30141EC338141EC8E3
:1075300040141ECE48141ED350141ED858141EDEFC
:1075400060141EE368141EE870141EED78141EF318
:1075500080141EF888141EFDC7091E0298141E0808
:10756000A0141E0DA8141E12B0141E17B8141E1C51
:10757000C0141E21C8141E27D0141E2CD8141E316E
:10758000E0141E36E8141E3BF0141E40F8141E458D
:1075900000151E4A08151E4F10151E5418151E59A9
:1075A00020151E5E28151E6330151E6738151E6CCB
:1075B00040151E7148151E7650151E7B58151E80ED
:1075C00060151E8468151E8970151E8E78151E9311
:1075D00080151E9788151E9C90151EA198151EA536
:1075E000A0151EAAA8151EAFB0151EB3B8151EB85B
:1075F000C0151EBCC8151EC1D0151EC5D8151ECA83
:10760000E0151ECEE8151ED3F0151ED7F8151EDCAA
:1076100000161EE008161EE410161EE918161EEDD0
:1076200020161EF228161EF630161EFA38161C04F6
:10763000FE0D0144161E054C161E0954161E0D5C47
:10764000161E1164161E166C161E1A74161E1E7C4B
:10765000161E2284161E268C161E2A94161E2E9C7A
:10766000161E32A4161E36AC161E3AB4161E3EBCAA
:10767000161E42C4161E46CC161E4AD4161E4EDCDA
:10768000161E52E4161E56EC161E5AF4161E5DFC0B
:10769000161E6104171E650C171E6914171E6C1C3C
:1076A000171E7024171E742C171E7734171E7B3C70
:1076B000171E7F44171E824C171E8654171E895CA6
:1076C000171E8D64171E916C171E9474171E987CDC
:1076D000171E9B84171E9E8C171EA294171EA59C16
:1076E000171EA9A4171EACAC171EAFB4171EB3BC4F
:1076F000171EB6C4171EB9CC171EBCD4171EC0DC8B
:10770000171EC3E4171EC6EC171EC9F4171ECCFCC7
:10771000171ECF04181ED30C181ED614181ED91C01
:10772000181EDC24181EDF2C181EE234181EE53C3F
:10773000181EE844181EEA4C181EED54181EF05C82
:10774000181EF364181EF66C181EF974181EFC7CC3
:10775000181EFEB70B1E018C181E0494181E069CE2
:10776000181E09A4181E0CAC181E0EB4181E11BC4D
:10777000181E14C4181E16CC181E19D4181E1BDC93
:10778000181E1EE4181E20EC181E23F4181E25FCDB
:10779000181E2704191E2A0C191E2C14191E2E1C23
:1077A000191E3124191E332C191E3534191E383C6C
:1077B000191E3A44191E3C4C191E3E54191E405CB9
:1077C000191E4264191E446C191E4774191E497C07
:1077D000191E4B84191E4D8C191E4F94191E519C55
:1077E000192DA2191E54AC191E56B4191E58BC19D5
:1077F0001E5AC4191E5CCC193E5ED6191E60E019D3
:107800001E62E8193E64F2191E66FC191E68041A0D
:107810002D0A1A1E6B141A3E6D1E1A1E6F281A2D81
:107820002E1A1E72381A2D3E1A3E754A1A1E7754A9
:107830001A2D5A1A3E7A661A3E7C721A3E7E7E1ABB
:107840002D861A3E81921A2D9A1A3E84A61A2DAEC2
:107850001A2DB61A2DBE1A3E89CA1A2DD21A2DDA41
:107860001A4DE41A2DEE1A2DF61A2DFE1A2D061BAE
:107870004D101B2D1A1B4D241B4D301B4D3C1B4D19
:10788000481B4D541B4D601B6D6E1B6D7E1B8D90F8
:107890001B8DA41BADBA1B0D12DA1B022FA0020D0B
:1078A000FF201C0DFF201C0DFF201C0DFF201C0DB8
:1078B000FF201C0DFF201C0DFF201C0DFF201C0DA8
:1078C000FF201C0DFF201C0DFF201C0DFF201C0D98
:1078D000FF201C0DFF201C0DFF201C0DFF201C0D88
:1078E000FF201C0DFF201C0DFF201C0DB1201C4D86
:1078F00090304D70301E0354302D0D3121151E0671
:1079000060301E0764301E0868302D11311E0A7069
:10791000305E0B74301E0D10311E0E14311E0F1808
:10792000311E101C311E1120311E1224311E13284D
:10793000311E142C311E1530311E1634311E1738ED
:10794000311E183C311E1940311E1A44311E1B488D
:10795000311E1C4C311E1D50311E1E54312E1F581D
:0C796000311DA2300005002100000000D5
:040000050800214589
:00000001FF
